:020000040800F2
:10000000F8060020290200086D0600086F060008A7
:1000100073060008770600087B0600080000000051
:100020000000000000000000000000007F06000843
:10003000810600080000000083060008850600080D
:10004000430200084302000843020008430200087C
:10005000430200084302000843020008430200086C
:10006000430200084302000843020008430200085C
:10007000430200084302000843020008430200084C
:10008000430200084302000843020008430200083C
:10009000430200084302000843020008430200082C
:1000A000430200084302000843020008430200081C
:1000B000430200084302000843020008430200080C
:1000C00043020008430200084302000843020008FC
:1000D000430200088D06000843020008430200089E
:1000E00043020008430200084302000843020008DC
:1000F000430200088F06000843020008430200087C
:1001000043020008430200084302000843020008BB
:1001100043020008430200084302000843020008AB
:10012000430200084302000843020008430200089B
:10013000430200084302000843020008430200088B
:10014000430200084302000843020008430200087B
:10015000430200084302000843020008430200086B
:10016000430200084302000843020008430200085B
:100170004302000843020008430200080000000098
:10018000430200084302000800F002F800F03CF8C7
:100190000AA090E8000C82448344AAF10107DA45E2
:1001A00001D100F031F8AFF2090EBAE80F0013F0F8
:1001B000010F18BFFB1A43F001031847A07200009B
:1001C000C0720000103A24BF78C878C1FAD852072C
:1001D00024BF30C830C144BF04680C6070470000C1
:1001E0000023002400250026103A28BF78C1FBD840
:1001F000520728BF30C148BF0B6070471FB507F0DA
:1002000017F91FBD10B510BD07F0CCF81146FFF768
:10021000F5FF00F081F807F0FEF803B4FFF7F2FFF6
:1002200003BC00F09BF900000948804709480047DB
:10023000FEE7FEE7FEE7FEE7FEE7FEE7FEE7FEE796
:10024000FEE7FEE704480549054A064B70470000F3
:100250000D71000889010008F8000020F806002050
:10026000F8020020F8020020704700B593B030215A
:1002700007A807F03DF8142102A807F039F800BFDD
:10028000002001902E48006840F080502C49086002
:100290000846006800F08050019000BF00BF00BF1A
:1002A000002001902748006840F4804025490860FC
:1002B0000846006800F48040019000BF00BF0120A4
:1002C00007904FF4A020089002200D9041050E9158
:1002D00008210F914FF4A87110910221119104216E
:1002E000129107A803F0FAFE08B1FFF7BDFF0F2037
:1002F000029002200390002004904FF4A05005903B
:100300004FF480500690052102A804F079F908B155
:10031000FFF7AAFF13B000BD05F0B3FBFFF7A5FF81
:1003200000F018F800F0A8F800F026F900210648BF
:1003300000F087FE02E005A006F0CEFFFBE700001C
:1003400040380240007000401400002048656C6C8A
:100350006F0D0A0000B587B0142102A806F0C8FF8F
:1003600000BF002001902D48006840F004002B4998
:1003700008600846006800F00400019000BF00BF5C
:1003800000BF002001900846006840F0200008608F
:100390000846006800F02000019000BF00BF00BFC9
:1003A000002001900846006840F080000860084680
:1003B000006800F08000019000BF00BF00BF002077
:1003C00001900846006840F0010008600846006897
:1003D00000F00100019000BF00BF00224FF4A061B7
:1003E0000F4804F0A2FC4FF48070029001200390AB
:1003F00002200490059002A9094804F007FB4FF47D
:10040000806002900120039004900220059002A9D0
:10041000034804F0FBFA07B000BD0000303802408A
:100420000014024010B586B00446142101A806F05D
:100430005FFF4649206888421CD100BF0020009021
:100440004348006840F020004149086008460068C1
:1004500000F02000009000BF00BF4815019002206E
:1004600002900020039004900920059001A93948CA
:1004700004F0CCFA06B010BD00B587B01C21684668
:1004800006F036FF3148344908604FF45270486036
:100490000021314881604FF4FA71C160002101618F
:1004A0008021816100F072F908B1FFF7DDFE2A4872
:1004B00000F089FD08B1FFF7D7FE60200090FA2018
:1004C00001900220029004200490002269462248F4
:1004D00002F0BEF808B1FFF7C7FE1F48FFF7A2FF02
:1004E00007B000BD38B5044618492068884219D1C4
:1004F00000BF0020009016481030006840F4807063
:100500001349103108600846006800F480700090BC
:1005100000BF00BF022211462D2005F0CBF82D2090
:1005200005F006F938BD10B5044608492068884230
:100530000AD107481030006820F480700449103157
:1005400008602D2005F004F910BD000000200040D7
:1005500030380240001402401400002000BF7047F1
:1005600013B50C464FF6FF734FF47A7269463B4859
:1005700005F0BBFE00981CBD10B53948374908602E
:100580004FF4E1304860002134488160C16001616E
:100590000C21416100218161C16105F044FD08B178
:1005A000FFF762FE10BD10B586B00446142101A805
:1005B00006F09EFE2A492068884238D100BF0020FC
:1005C00000902848006840F010002649086008465E
:1005D000006800F01000009000BF00BF00BF0020C6
:1005E000009020481438006840F001001D4914397B
:1005F00008600846006800F00100009000BF00BFDE
:100600004FF4C0600190022002900020039003206C
:1006100004900720059001A9134804F0F7F903227C
:100620001146252005F046F8252005F081F806B092
:1006300010BD10B504460A49206888420DD109480A
:10064000006820F01000074908604FF4C0610648B8
:1006500004F0C5FA252005F07BF810BD54000020F9
:10066000001001404438024000000240704700BFC3
:10067000FEE700BFFEE700BFFEE700BFFEE77047F2
:100680007047704710B505F038FA10BD70477047D5
:1006900008B500BF002000901048006840F480407A
:1006A0000E4908600846006800F48040009000BFD2
:1006B00000BF00BF00200090081F006840F080507D
:1006C000091F08600846006800F08050009000BFD5
:1006D00000BF052004F0DCFF08BD000044380240E4
:1006E00010B50268F64B98420ED0B0F1804F0BD097
:1006F000F44B984208D0F44B984205D0F34B984203
:1007000002D0F34B984203D122F070024B681A4397
:10071000EB4B984220D0B0F1804F1DD0E94B98426E
:100720001AD0E94B984217D0E84B984214D0E84BC6
:10073000984211D0E74B98420ED0E74B98420BD02D
:10074000E64B984208D0E64B984205D0E54B9842DC
:1007500002D0E54B984203D122F44072CB681A4391
:1007600022F080034C6943EA040202608B68C36292
:100770000B688362D24B984202D0D54B984201D18C
:100780000B6903630123436110BD704710B5044634
:100790000CB9012010BD94F83D0028B9002084F860
:1007A0003C002046FFF79EFE022084F83D00211DFC
:1007B0002068FFF795FF012084F83D000020E9E75D
:1007C000704710B50446022084F83D0000BF206841
:1007D000006A41F21111084050B92068006A89107E
:1007E000084028B92068006820F0010021680860EE
:1007F00000BF2046FFF797FE002084F83D0000BFB1
:1008000084F83C0000BF10BD0146022081F83D0085
:100810000868806800F00702062A05D008680068AA
:1008200040F001000B681860012081F83D000020B5
:1008300070470146022081F83D0000BF0868006A49
:1008400041F21112104050B90868006A921010402D
:1008500028B90868006820F001000A68106000BF2D
:10086000012081F83D000020704701460868C068FB
:1008700040F001000B68D8600868806800F007024B
:10088000062A05D00868006840F001000B6818606F
:100890000020704701460868C06820F001000A681F
:1008A000D06000BF0868006A41F21112104050B9D0
:1008B0000868006A9210104028B90868006820F0A3
:1008C00001000A68106000BF00207047704770B5D3
:1008D0000446A56B012085F83D002846FFF7F6FF8A
:1008E00070BD704770B50446A56B012085F83D00CA
:1008F0002846FFF7F6FF70BD704770B50446A56B3C
:10090000012085F83D002846FFF7F6FF70BD2DE970
:10091000F04104460E46154694F83D00022801D1E8
:10092000BDE8F08194F83D00012805D10EB905B16C
:10093000F6E7022084F83D006C48216AC8636C48E1
:10094000216A0864AFF27900216AC864216801F164
:100950002C022B463146206A04F093FB08B101209B
:10096000DEE72068C06840F480702168C8602068B5
:10097000806800F00707062F05D02068006840F067
:100980000100216808600020CAE710B5044620680D
:10099000C06820F480702168C860206A04F014FCEC
:1009A00000BF2068006A41F21111084050B9206868
:1009B000006A8910084028B92068006820F001000A
:1009C0002168086000BF012084F83D00002010BDB0
:1009D000704710B504460CB9012010BD94F83D00D5
:1009E00028B9002084F83C002046FFF7F1FF0220E0
:1009F00084F83D00211D2068FFF772FE012084F875
:100A00003D000020E9E7704710B50446022084F855
:100A10003D0000BF2068006A41F21111084050B942
:100A20002068006A8910084028B92068006820F012
:100A300001002168086000BF2046FFF7E4FF0020A6
:100A400084F83D0000BF84F83C0000BF10BD30B505
:100A500001F01F05012404FA05F3046A9C430462B3
:100A6000046A01F01F0502FA05F52C43046230BD4B
:100A700070B504460E46012231462068FFF7E7FFB5
:100A80000F492068884203D011492068884201D16B
:100A9000012000E0002028B12068406C40F40040B4
:100AA000216848642068806800F00705062D05D09D
:100AB0002068006840F0010021680860002070BDD7
:100AC000000001400004004000080040000C00400D
:100AD0000004014000400140004401400048014042
:100AE00000180040001C004000200040FB080008E7
:100AF000E508000830B504460D4600222946206866
:100B0000FFF7A5FFFA492068884203D0F949206819
:100B1000884201D1012000E0002090B100BF206890
:100B2000006A41F21111084050B92068006A89102A
:100B3000084028B92068406C20F4004021684864CF
:100B400000BF00BF2068006A41F21111084050B98F
:100B50002068006A8910084028B92068006820F0E1
:100B600001002168086000BF002030BD70B5044658
:100B70000D4635B1042D0BD0082D10D00C2D1CD1F5
:100B800014E02068C06840F002002168C86015E0E9
:100B90002068C06840F004002168C8600EE020684A
:100BA000C06840F008002168C86007E02068C0689D
:100BB00040F010002168C86000E000BF00BF0122C3
:100BC00029462068FFF743FFC9492068884203D0BF
:100BD000C8492068884201D1012000E0002028B1E6
:100BE0002068406C40F400402168486420688068B8
:100BF00000F00706062E05D02068006840F00100CE
:100C000021680860002070BD30B504460D4635B13E
:100C1000042D0BD0082D10D00C2D1CD114E0206811
:100C2000C06820F002002168C86015E02068C06834
:100C300020F004002168C8600EE02068C06820F041
:100C400008002168C86007E02068C06820F0100034
:100C50002168C86000E000BF00BF0022294620686C
:100C6000FFF7F5FEA2492068884203D0A149206819
:100C7000884201D1012000E0002090B100BF20682F
:100C8000006A41F21111084050B92068006A8910C9
:100C9000084028B92068406C20F40040216848646E
:100CA00000BF00BF2068006A41F21111084050B92E
:100CB0002068006A8910084028B92068006820F080
:100CC00001002168086000BF002030BD704770B58A
:100CD0000546AC6B012084F83D00606AA84202D151
:100CE0000120207710E0A06AA84202D102202077DC
:100CF0000AE0E06AA84202D10420207704E0206BD9
:100D0000A84201D1082020772046FFF7DFFF00200E
:100D1000207770BD704770B50546AC6B012084F834
:100D20003D00606AA84202D10120207710E0A06A4D
:100D3000A84202D1022020770AE0E06AA84202D14C
:100D40000420207704E0206BA84201D108202077FE
:100D50002046FFF7DFFF0020207770BD2DE9F0412E
:100D600004460E4615461F4694F83D00022801D160
:100D7000BDE8F08194F83D00012805D10DB907B117
:100D8000F6E7022084F83D0036B1042E22D0082E6A
:100D90003ED00C2E79D159E0AFF28501606AC16373
:100DA000AFF2D501606A0164AFF2DD41606AC164EF
:100DB000216801F134023B462946606A04F061F97A
:100DC00008B10120D4E72068C06840F400702168B1
:100DD000C8605BE0AFF2C101A06AC163AFF211115C
:100DE000A06A0164AFF21951A06AC164216801F1DF
:100DF00038023B462946A06A04F043F908B10120B5
:100E0000B6E72068C06840F480602168C8603DE0B3
:100E1000AFF2FD01E06AC163AFF24D11E06A016417
:100E2000AFF25551E06AC164216801F13C023B46D2
:100E30002946E06A04F025F908B1012098E7206806
:100E4000C06840F400602168C8601FE0AFF239114B
:100E5000206BC163AFF28911206B0164AFF2915135
:100E6000206BC164216801F140023B462946206B9A
:100E700004F007F910B101207AE706E02068C068A5
:100E800040F480502168C86000E000BF00BF01222C
:100E900031462068FFF7DBFD15492068884203D002
:100EA00014492068884201D1012000E0002028B1C7
:100EB0002068406C40F400402168486420688068E5
:100EC00000F00708B8F1060F05D02068006840F070
:100ED00001002168086000204AE770B504460D460D
:100EE00055B1042D12D0082D1AD00C2D2CD121E093
:100EF00000000140000401402068C06820F4007038
:100F00002168C860606A04F05FF91EE02068C0686C
:100F100020F480602168C860A06A04F055F914E0EC
:100F20002068C06820F400602168C860E06A04F0AE
:100F30004BF90AE02068C06820F480502168C8603E
:100F4000206B04F041F900E000BF00BF00222946F9
:100F50002068FFF77CFDFE492068884203D0FD49E8
:100F60002068884201D1012000E0002090B100BF3C
:100F70002068006A41F21111084050B92068006AE7
:100F80008910084028B92068406C20F4004021688E
:100F9000486400BF00BF2068006A41F21111084098
:100FA00050B92068006A8910084028B92068006894
:100FB00020F001002168086000BF012084F83D0096
:100FC000002070BD704710B504460CB9012010BD5B
:100FD00094F83D0028B9002084F83C002046FFF733
:100FE000F1FF022084F83D00211D2068FFF778FB07
:100FF000012084F83D000020E9E7704710B5044661
:10100000022084F83D0000BF2068006A41F21111FF
:10101000084050B92068006A8910084028B9206843
:10102000006820F001002168086000BF2046FFF73B
:10103000E4FF002084F83D0000BF84F83C0000BFBE
:1010400010BD70B504460E46012231462068FFF7F8
:10105000FEFCBF492068884203D0BE492068884210
:1010600001D1012000E0002028B12068406C40F44C
:101070000040216848642068806800F00705062D5C
:1010800005D02068006840F0010021680860002059
:1010900070BD30B504460D46002229462068FFF792
:1010A000D6FCAB492068884203D0AA492068884210
:1010B00001D1012000E0002090B100BF2068006A4B
:1010C00041F21111084050B92068006A89100840A7
:1010D00028B92068406C20F400402168486400BFB3
:1010E00000BF2068006A41F21111084050B9206821
:1010F000006A8910084028B92068006820F00100C3
:101100002168086000BF012084F83D00002030BD48
:1011100070B504460D4635B1042D0BD0082D10D006
:101120000C2D1CD114E02068C06840F0020021683A
:10113000C86015E02068C06840F004002168C860FD
:101140000EE02068C06840F008002168C86007E031
:101150002068C06840F010002168C86000E000BF4F
:1011600000BF012229462068FFF771FC78492068FA
:10117000884203D077492068884201D1012000E0ED
:10118000002028B12068406C40F400402168486489
:101190002068806800F00706062E05D020680068E9
:1011A00040F0010021680860002070BD30B50446A1
:1011B0000D4635B1042D0BD0082D10D00C2D1CD1AF
:1011C00014E02068C06820F002002168C86015E0C3
:1011D0002068C06820F004002168C8600EE0206824
:1011E000C06820F008002168C86007E02068C06877
:1011F00020F010002168C86000E000BF00BF00229E
:1012000029462068FFF723FC51492068884203D013
:1012100050492068884201D1012000E0002090B1AF
:1012200000BF2068006A41F21111084050B92068DF
:10123000006A8910084028B92068406C20F40040FA
:101240002168486400BF00BF2068006A41F21111A4
:10125000084050B92068006A8910084028B9206801
:10126000006820F001002168086000BF002030BD48
:101270002DE9F04104460E4615461F4694F83D0000
:10128000022801D1BDE8F08194F83D00012805D184
:101290000DB907B1F6E7022084F83D0036B1042EFF
:1012A00022D0082E3ED00C2E7ED15EE0AFF29951B6
:1012B000606AC163AFF2E951606A0164AFF6F1118F
:1012C000606AC164216801F134023B462946606AC4
:1012D00003F0D7FE08B10120D4E72068C06840F4CD
:1012E00000702168C86060E0AFF2D551A06AC163A8
:1012F000AFF22561A06A0164AFF62D21A06AC16436
:10130000216801F138023B462946A06A03F0B9FE84
:1013100008B10120B6E72068C06840F48060216809
:10132000C86042E0AFF21161E06AC163AFF261618F
:10133000E06A0164AFF66921E06AC164216801F1E5
:101340003C023B462946E06A03F09BFE30B103E0D5
:101350000000014000040140012093E72068C068BC
:1013600040F400602168C8601FE0AFF25561206B57
:10137000C163AFF2A561206B0164AFF6AD21206BB4
:10138000C164216801F140023B462946206B03F00D
:1013900078FE10B1012075E706E02068C06840F4CF
:1013A00080502168C86000E000BF00BF01223146C4
:1013B0002068FFF74CFBFE492068884203D0FD49B6
:1013C0002068884201D1012000E0002028B1206877
:1013D000406C40F40040216848642068806800F058
:1013E0000708B8F1060F05D02068006840F001003A
:1013F00021680860002045E770B504460D4635B108
:10140000042D0ED0082D16D00C2D28D11DE02068FB
:10141000C06820F400702168C860606A03F0D4FEE0
:101420001EE02068C06820F480602168C860A06A5F
:1014300003F0CAFE14E02068C06820F40060216850
:10144000C860E06A03F0C0FE0AE02068C06820F4CB
:1014500080502168C860206B03F0B6FE00E000BF3A
:1014600000BF002229462068FFF7F1FAD049206822
:10147000884203D0CF492068884201D1012000E092
:10148000002090B100BF2068006A41F211110840AD
:1014900050B92068006A8910084028B92068406C5B
:1014A00020F400402168486400BF00BF2068006A43
:1014B00041F21111084050B92068006A89100840B3
:1014C00028B92068006820F001002168086000BF8A
:1014D000012084F83D00002070BD704710B504461F
:1014E0000CB9012010BD94F83D0028B9002084F803
:1014F0003C002046FFF7F1FF022084F83D00211D4B
:101500002068FFF7EDF8012084F83D000020E9E7AE
:10151000704710B50446022084F83D0000BF2068E3
:10152000006A41F21111084050B92068006A891020
:10153000084028B92068006820F001002168086090
:1015400000BF2046FFF7E4FF002084F83D0000BF05
:1015500084F83C0000BF10BD70B504460D46012262
:1015600029462068FFF773FA2068806800F00706B4
:10157000062E05D02068006840F001002168086050
:10158000002070BD30B504460D4600222946206873
:10159000FFF75DFA00BF2068006A41F211110840B0
:1015A00050B92068006A8910084028B9206800688E
:1015B00020F001002168086000BF002030BD70B538
:1015C00004460D4635B1042D0BD0082D10D00C2D3E
:1015D0001CD114E02068C06840F002002168C86097
:1015E00015E02068C06840F004002168C8600EE083
:1015F0002068C06840F008002168C86007E02068E3
:10160000C06840F010002168C86000E000BF00BF63
:10161000012229462068FFF71AFA2068806800F046
:101620000706062E05D02068006840F001002168FA
:101630000860002070BD30B504460D4635B1042D5C
:101640000BD0082D10D00C2D1CD114E02068C068E0
:1016500020F002002168C86015E02068C06820F012
:1016600004002168C8600EE02068C06820F008000F
:101670002168C86007E02068C06820F01000216879
:10168000C86000E000BF00BF002229462068FFF7C5
:10169000DEF900BF2068006A41F21111084050B91C
:1016A0002068006A8910084028B92068006820F086
:1016B00001002168086000BF002030BD704770B590
:1016C0000546AC6B012084F83D00606AA84202D157
:1016D0000120207710E0A06AA84202D102202077E2
:1016E0000AE0E06AA84202D10420207704E0206BDF
:1016F000A84201D1082020772046FFF7DFFF002015
:10170000207770BD704770B50546AC6B012084F83A
:101710003D00606AA84202D10120207710E0A06A53
:10172000A84202D1022020770AE0E06AA84202D152
:101730000420207704E0206BA84201D10820207704
:101740002046FFF7DFFF0020207770BD2DE9F04134
:1017500004460D4616461F4694F83D00022801D166
:10176000BDE8F08194F83D00012805D10EB907B11C
:10177000F6E7022084F83D0035B1042D28D0082D6D
:1017800044D00C2D7FD15FE0AFF28501606AC16368
:10179000AFF2D501606A0164AFF6CD61606AC164E1
:1017A000226802F134013B463246606A04E00000E0
:1017B000000001400004014003F063FC08B1012077
:1017C000CEE72068C06840F400702168C8605BE024
:1017D000AFF2CD01A06AC163AFF21D11A06A01642E
:1017E000AFF61571A06AC164226802F138013B4668
:1017F0003246A06A03F045FC08B10120B0E720683A
:10180000C06840F480602168C8603DE0AFF2091113
:10181000E06AC163AFF25911E06A0164AFF6517139
:10182000E06AC164226802F13C013B463246E06A4C
:1018300003F027FC08B1012092E72068C06840F45B
:1018400000602168C8601FE0AFF24511206BC163E2
:10185000AFF29511206B0164AFF68D71206BC164FE
:10186000226802F140013B463246206B03F009FC3E
:1018700010B1012074E706E02068C06840F4805091
:101880002168C86000E000BF00BF0122294620682F
:10189000FFF7DDF82068806800F00708B8F1060F50
:1018A00005D02068006840F0010021680860002031
:1018B00056E770B504460D4635B1042D0ED0082DFF
:1018C00016D00C2D28D11DE02068C06820F40070CF
:1018D0002168C860606A03F077FC1EE02068C06879
:1018E00020F480602168C860A06A03F06DFC14E0F9
:1018F0002068C06820F400602168C860E06A03F0D6
:1019000063FC0AE02068C06820F480502168C86049
:10191000206B03F059FC00E000BF00BF0022294605
:101920002068FFF794F800BF2068006A41F21111A7
:10193000084050B92068006A8910084028B920681A
:10194000006820F001002168086000BF012084F8D1
:101950003D00002070BD704770B504460D460CB9BF
:10196000012070BD94F83D0028B9002084F83C00A7
:101970002046FFF7F0FF022084F83D00211D20687B
:10198000FEF7AEFE2068006820F0080021680860BD
:1019900020680068284321680860012084F83D0021
:1019A0000020DEE7704710B50446022084F83D00B1
:1019B00000BF2068006A41F21111084050B9206848
:1019C000006A8910084028B92068006820F00100EA
:1019D0002168086000BF2046FFF7E4FF002084F87C
:1019E0003D0000BF84F83C0000BF10BD30B5044688
:1019F0000D46012200212068FFF729F80122042169
:101A00002068FFF724F8FA492068884203D0F94992
:101A10002068884201D1012000E0002028B1206820
:101A2000406C40F4004021684864002030BD30B56F
:101A300004460D46002211462068FFF708F80022F0
:101A400004212068FFF703F8E9492068884203D0A1
:101A5000E8492068884201D1012000E0002090B1CF
:101A600000BF2068006A41F21111084050B9206897
:101A7000006A8910084028B92068406C20F40040B2
:101A80002168486400BF00BF2068006A41F211115C
:101A9000084050B92068006A8910084028B92068B9
:101AA000006820F001002168086000BF002030BD00
:101AB00030B504460D462068C06840F00200216839
:101AC000C8602068C06840F004002168C860012236
:101AD00000212068FEF7BBFF012204212068FEF7E9
:101AE000B6FFC3492068884203D0C24920688842B3
:101AF00001D1012000E0002028B12068406C40F4B2
:101B0000004021684864002030BD30B504460D46D1
:101B10002068C06820F002002168C8602068C068A2
:101B200020F004002168C860002211462068FEF7FA
:101B30008EFF002204212068FEF789FFAC4920684F
:101B4000884203D0AB492068884201D1012000E0DF
:101B5000002090B100BF2068006A41F211110840D6
:101B600050B92068006A8910084028B92068406C84
:101B700020F400402168486400BF00BF2068006A6C
:101B800041F21111084050B92068006A89100840DC
:101B900028B92068006820F001002168086000BFB3
:101BA000002030BD70472DE9F04104460D4614B9C0
:101BB0000120BDE8F08194F83D0028B9002084F8A8
:101BC0003C002046FFF7EEFF022084F83D0020682D
:101BD000806844F20701884321688860211D2068DD
:101BE000FEF77EFD2068D0F80880206886692068AE
:101BF000076A286840EA080840F203308643A9696A
:101C0000A86840EA0120064340F60C4086434FF2A4
:101C1000F0008643E969E86840EA01200643286944
:101C20000001296A40EA0130064327F0220727F025
:101C300088076969686840EA011007432068C0F8AE
:101C400008802068866120680762012084F83D00D2
:101C50000020AEE7704710B50446022084F83D002E
:101C600000BF2068006A41F21111084050B9206895
:101C7000006A8910084028B92068006820F0010037
:101C80002168086000BF2046FFF7E4FF002084F8C9
:101C90003D0000BF84F83C0000BF10BD30B50446D5
:101CA0000D4615B1042D0CD105E00122002120685C
:101CB000FEF7CDFE10E0012204212068FEF7C7FEEA
:101CC0000AE0012200212068FEF7C1FE0122042162
:101CD0002068FEF7BCFE00BF00BF2068006840F02F
:101CE000010021680860002030BD30B504460D4673
:101CF00015B1042D0CD105E0002211462068FEF735
:101D0000A6FE10E0002204212068FEF7A0FE0AE0F3
:101D1000002211462068FEF79AFE00220421206866
:101D2000FEF795FE00BF00BF00BF2068006A41F2C9
:101D30001111084050B92068006A8910084028B97C
:101D40002068006820F001002168086000BF0020C2
:101D500030BD30B504460D4615B1042D18D10BE049
:101D6000012200212068FEF772FE2068C06840F062
:101D700002002168C86022E0012204212068FEF7E9
:101D800066FE2068C06840F004002168C86016E064
:101D9000012200212068FEF75AFE0122042120685A
:101DA000FEF755FE2068C06840F002002168C86058
:101DB0002068C06840F004002168C86000BF00BF10
:101DC0002068006840F0010021680860002030BDF4
:101DD00030B504460D467DB9002211462068FEF755
:101DE00036FE2068C06820F002002168C86027E045
:101DF0000000014000040140042D0BD10022042109
:101E00002068FEF724FE2068C06820F004002168E6
:101E1000C86015E0002211462068FEF718FE002277
:101E200004212068FEF713FE2068C06820F002003D
:101E30002168C8602068C06820F004002168C8607C
:101E400000BF2068006A41F21111084050B92068B3
:101E5000006A8910084028B92068006820F0010055
:101E60002168086000BF012084F83D00002030BDDB
:101E70002DE9F04104460E4617461D46DDF8188050
:101E800094F83D00022801D1BDE8F08194F83D00AE
:101E9000012809D107B125B9B8F1000F01D00120FF
:101EA000F2E7022084F83D0026B1042E2AD03C2E11
:101EB0007CD14FE0AFF2B171606AC163AFF601014E
:101EC000606A0164FB49606AC164226802F13401FE
:101ED00043463A46606A03F0D4F808B10120D3E7DC
:101EE0002068C06840F400702168C86020680068FD
:101EF00040F0010021680860012200212068FEF7FF
:101F0000A6FD72E0AFF60101A06AC163AFF6510110
:101F1000A06A0164E749A06AC164226802F138013D
:101F200043462A46A06A03F0ACF808B10120ABE7AB
:101F30002068C06840F480602168C860206800683C
:101F400040F0010021680860012204212068FEF7AA
:101F50007EFD4AE0AFF65101606AC163AFF6A101B0
:101F6000606A0164D349606AC164226802F1340185
:101F700043463A46606A03F084F808B1012083E7DB
:101F8000AFF67D01A06AC163AFF6CD01A06A01641E
:101F9000C849A06AC164226802F1380143462A4652
:101FA000A06A03F06EF810B101206DE71CE0206814
:101FB000006840F0010021680860012200212068CB
:101FC000FEF745FD012204212068FEF740FD206850
:101FD000C06840F400702168C8602068C06840F4A0
:101FE00080602168C86000E000BF00BF00204BE7B0
:101FF00070B504460D4675B9002211462068FEF7FB
:1020000026FD2068C06820F400702168C860606AFE
:1020100003F0DAF82CE0042D0ED100220421206810
:10202000FEF715FD2068C06820F480602168C86054
:10203000A06A03F0C9F81BE0002211462068FEF7F1
:1020400006FD002204212068FEF701FD2068C0681B
:1020500020F400702168C8602068C06820F48060A7
:102060002168C860606A03F0AFF8A06A03F0ACF8BA
:1020700000BF2068006A41F21111084050B9206881
:10208000006A8910084028B92068006820F0010023
:102090002168086000BF012084F83D00002070BD69
:1020A0007047704710B5044620680069C0F34000CF
:1020B000D8B12068C068C0F34000B0B16FF0020032
:1020C00021680861012020772068806900F0030002
:1020D00018B12046FFF716FB05E02046FFF7E1FFA9
:1020E0002046FEF717FE0020207720680069C0F325
:1020F0008000D8B12068C068C0F38000B0B16FF034
:10210000040021680861022020772068806900F4BB
:10211000407018B12046FFF7F5FA05E02046FFF7BA
:10212000C0FF2046FEF7F6FD0020207720680069FA
:10213000C0F3C000D8B12068C068C0F3C000B0B11F
:102140006FF0080021680861042020772068C069CA
:1021500000F0030018B12046FFF7D4FA05E020464E
:10216000FFF79FFF2046FEF7D5FD0020207720686F
:102170000069C0F30010D8B12068C068C0F3001037
:10218000B0B16FF010002168086108202077206846
:10219000C06900F4407018B12046FFF7B3FA05E0BB
:1021A0002046FFF77EFF2046FEF7B4FD0020207793
:1021B0002068006900F0010058B12068C06800F094
:1021C000010030B16FF00100216808612046FEF780
:1021D00093FB20680069C0F3C01058B12068C06844
:1021E000C0F3C01030B16FF0800021680861204654
:1021F00001F05DFF20680069C0F3801058B12068CD
:10220000C068C0F3801030B16FF0400021680861F1
:102210002046FFF745FF20680069C0F3401058B121
:102220002068C068C0F3401030B16FF02000216812
:102230000861204601F048FE10BD30B5056A25F45E
:1022400080550562036A4468C26922F4E04222F4C0
:1022500040720D6842EA052223F400538D6843EA78
:102260000533154DA84202D0144DA84204D124F4E0
:1022700080444D6944EA85144460C2614D68056438
:10228000036230BD30B5056A25F480750562026AC7
:102290004368C46924F0700424F003040D682C43DF
:1022A00022F400728D6842EA0522034DA84207D14C
:1022B0000AE00000CF0800080000014000040140CF
:1022C000FC4DA84207D100BF22F40062CD6842EA6B
:1022D000052222F48062F84DA84202D0F54DA842B2
:1022E00009D123F4805323F400534D6943EA0513C5
:1022F0008D6943EA05134360C4614D68C56302629A
:1023000030BD30B5056A25F010050562026A4368E4
:10231000846924F4E04424F440740D6844EA0524FC
:1023200022F020028D6842EA0512E34DA84200D156
:1023300003E0E04DA84207D100BF22F08002CD6843
:1023400042EA051222F04002DB4DA84202D0D94DEC
:10235000A84209D123F4806323F400634D6943EA62
:1023600085038D6943EA8503436084614D68856315
:10237000026230BD30B5056A25F001050562026ACA
:102380004368846924F0700424F003040D682C432E
:1023900022F002028D682A43C74DA84200D103E013
:1023A000C44DA84206D100BF22F00802CD682A43DE
:1023B00022F00402C04DA84202D0BE4DA84207D16F
:1023C00023F4807323F400734D692B438D692B43F1
:1023D000436084614D684563026230BD70B5044658
:1023E0000E46154600BF94F83C00012801D102209A
:1023F00070BD012084F83C0000BF022084F83D003D
:1024000035B1042D09D0082D0CD00C2D14D10EE0BF
:1024100031462068FFF7AEFF0FE031462068FFF736
:1024200070FF0AE031462068FFF72CFF05E03146D7
:102430002068FFF702FF00E000BF00BF012084F822
:102440003D0000BF002084F83C0000BF00BFCFE784
:1024500070B50C461546066A26F480560662C169B8
:10246000026A21F4407141EA052121F470414FF4E0
:10247000704606EA0336314322F420424FF42046E8
:1024800006EA04363243C161026270BD70B50C4683
:102490001546066A26F480760662C169026A21F052
:1024A0000301294321F0F001F02606EA0316314327
:1024B00022F420624FF4206606EA04263243C1610A
:1024C000026270BD70B50C461546066A26F010060D
:1024D00006628169026A21F4407141EA052121F412
:1024E00070414FF4704606EA0336314322F0A002F1
:1024F000A02606EA041632438161026270BD70B5FF
:102500000C461546066A26F0010606628169026AD3
:10251000694EB04214D0B0F1804F11D0674EB04236
:102520000ED0674EB0420BD0664EB04208D0614E1E
:10253000B04205D0644EB04202D0644EB04201D1E8
:10254000012600E000261EB121F00301294301E02D
:1025500041F0010121F0F001F02606EA03163143B3
:1025600022F00A0204F00A0632438161026270BD61
:102570002DE9F04104460D46164600BF94F83C0094
:10258000012802D10220BDE8F081012084F83C003E
:1025900000BF022084F83D0096B9EB68D5E900122F
:1025A0002068FFF7ACFF2068806920F00C002168EC
:1025B000886120688069A9680843216888613DE0D6
:1025C000042E13D1EB68D5E900122068FFF77AFFDB
:1025D0002068806920F440602168886120688069F3
:1025E000A96840EA01202168886127E0082E12D1FD
:1025F000EB68D5E900122068FFF748FF2068C06942
:1026000020F00C002168C8612068C069A9680843EF
:102610002168C86112E0EB68D5E900122068FFF775
:1026200017FF2068C06920F440602168C8612068F5
:10263000C069A96840EA01202168C861012084F8C6
:102640003D0000BF002084F83C0000BF00BF9AE7B7
:1026500070B504460D46164600BF94F83C000128AC
:1026600001D1022070BD012084F83C0000BF02208F
:1026700084F83D0036B1042E2AD0082E40D00C2E0E
:102680006DD154E029462068FFF774FE2068806908
:1026900040F00800216888612068806920F004000B
:1026A00021688861206880692969084321688861F8
:1026B00056E000000004014000000140000400401A
:1026C00000080040000C004000400140001800409D
:1026D00029462068FFF715FE2068806940F40060F5
:1026E000216888612068806920F4806021688861A1
:1026F00020688069296940EA0120216888612FE00B
:1027000029462068FFF7BEFD2068C06940F0080038
:102710002168C8612068C06920F004002168C86190
:102720002068C069296908432168C86118E0294602
:102730002068FFF782FD2068C06940F400602168CE
:10274000C8612068C06920F480602168C861206881
:10275000C069296940EA01202168C86100E000BF22
:1027600000BF012084F83D0000BF002084F83C0039
:1027700000BF00BF76E7F0B587B004460D461646A9
:102780001F46BE4278D000BF94F83C00012802D119
:10279000022007B0F0BD012084F83C0000BF0220F9
:1027A00084F83D002868009068680190A86802904D
:1027B000E8680390286905906869069016B1042EB0
:1027C0000AD104E069462068FFF7D4FD05E06946B8
:1027D0002068FFF796FD00E000BF00BF17B1042F8F
:1027E0004BD124E0D5E90723A9692068FFF787FECC
:1027F0002068806920F00C0021688861206880686A
:1028000020F07000216888602068806840F05000E7
:10281000216888602068806820F00700216888604F
:102820002068806840F006002168886026E0D5E9CD
:102830000723A9692068FFF745FE2068806920F416
:102840004060216888612068806820F070002168FD
:1028500088602068806840F0600021688860206897
:10286000806820F00700216888602068806840F058
:1028700006002168886001E00AE000BF00BF012077
:1028800084F83D0000BF002084F83C0000BF80E7D2
:1028900001207EE7704770B50446A56B012085F8DE
:1028A0003D002846FFF7F6FF70BD70B50446A56BE6
:1028B000012085F83D002846FFF7F2FB70BD2DE9A9
:1028C000F0410446884616461F46069D94F83D0092
:1028D000022801D1BDE8F08194F83D00012805D11E
:1028E0000FB905B1F6E7022084F83D00B6F5006F98
:1028F00059D009DCB6F5807F10D0B6F5007F24D022
:10290000B6F5806F7CD137E0B6F5805F62D0B6F562
:10291000005F78D0B6F5804FF4D18BE0F748216A9C
:10292000C863F748216A0864F648216AC86401212F
:1029300001EB1523216801F14C023946206A02F0AF
:10294000A0FB08B10120C5E78CE0EF49606AC163D4
:10295000EE49606A0164EB49606AC164012101EBE0
:102960001523216801F14C023946606A02F089FBA7
:1029700008B10120AEE775E0E349A06AC163E3490D
:10298000A06A0164DF49A06AC164012101EB15233B
:10299000216801F14C023946A06A02F072FB08B1CD
:1029A000012097E75EE0D849E06AC163D749E06A51
:1029B0000164D449E06AC164012101EB1523216857
:1029C00001F14C023946E06A02F05BFB08B10120DC
:1029D00080E747E0CC49206BC163CC49206B0164A0
:1029E000C849206BC164012101EB1523216801F165
:1029F0004C023946206B02F044FB18B1012069E714
:102A00002FE000E02EE0C249606BC163C149606BFA
:102A10000164BC49606BC164012101EB152321688D
:102A200001F14C023946606B02F02BFB08B101202A
:102A300050E717E0B849A06BC163B849A06B0164C7
:102A4000B049A06BC164012101EB1523216801F19C
:102A50004C023946A06B02F014FB08B1012039E7A3
:102A600000E000BF00BF48EA0500216888642068D4
:102A7000C06830432168C860012084F83D00002010
:102A800028E770B504460D460026B5F5006F23D043
:102A900009DCB5F5807F10D0B5F5007F12D0B5F513
:102AA000806F2DD113E0B5F5805F1AD0B5F5005FCA
:102AB0001CD0B5F5804F23D11DE0206A02F084FBC5
:102AC00006461EE0606A02F07FFB064619E0A06A37
:102AD00002F07AFB064614E0E06A02F075FB064657
:102AE0000FE0206B02F070FB06460AE0606B02F01C
:102AF0006BFB064605E0A06B02F066FB064600E0B5
:102B000000BF00BF26B92068C068A8432168C8601C
:102B1000304670BD2DE9F0410446884616461F46F2
:102B2000069D94F83D00022801D1BDE8F08194F89B
:102B30003D00012805D10FB905B1F6E7022084F860
:102B40003D00B6F5006F59D009DCB6F5807F10D096
:102B5000B6F5007F24D0B6F5806F7CD137E0B6F5AE
:102B6000805F62D0B6F5005F78D0B6F5804FF4D1C3
:102B70008BE06248216AC8636148216A0864614841
:102B8000216AC864012202EB1523226802F14C017C
:102B90003A46206A02F075FA08B10120C5E78CE0D8
:102BA0005F49606AC1635F49606A01645549606A50
:102BB000C164012202EB1523226802F14C013A465E
:102BC000606A02F05EFA08B10120AEE775E0544990
:102BD000A06AC1635349A06A01644A49A06AC164FA
:102BE000012202EB1523226802F14C013A46A06A49
:102BF00002F047FA08B1012097E75EE04849E06A31
:102C0000C1634849E06A01643E49E06AC164012247
:102C100002EB1523226802F14C013A46E06A02F009
:102C200030FA08B1012080E747E03D49206BC163DD
:102C30003C49206B01643349206BC164012202EBE3
:102C40001523226802F14C013A46206B02F019FA72
:102C500018B1012069E72FE000E02EE02C49606BFD
:102C6000C1632C49606B01642649606BC164012219
:102C700002EB1523226802F14C013A46606B02F028
:102C800000FA08B1012050E717E02349A06BC163A7
:102C90002249A06B01641B49A06BC164012202EBB5
:102CA0001523226802F14C013A46A06B02F0E9F9C3
:102CB00008B1012039E700E000BF00BF48EA050085
:102CC000216888642068C06830432168C86001209A
:102CD00084F83D00002028E770B504460D46002624
:102CE000B5F5006F39D01FDCB5F5807F26D0B5F57E
:102CF000007F28D0B5F5806F43D129E0FB0800089C
:102D0000E5080008CF080008170D0008CF0C0008E0
:102D1000CB3E0008A73E0008AB2800089728000813
:102D200007170008BF160008B5F5805F1AD0B5F583
:102D3000005F1CD0B5F5804F23D11DE0206A02F062
:102D400043FA06461EE0606A02F03EFA064619E0C3
:102D5000A06A02F039FA064614E0E06A02F034FA9A
:102D600006460FE0206B02F02FFA06460AE0606B81
:102D700002F02AFA064605E0A06B02F025FA0646A4
:102D800000E000BF00BF26B92068C068A8432168E2
:102D9000C860304670BD024600BF92F83C00012872
:102DA00001D102207047012082F83C0000BF0220C0
:102DB00082F83D0010684161012082F83D0000BFAB
:102DC000002082F83C0000BF00BFEBE730B50C46A6
:102DD000816821F47F4142EA03252543294381602C
:102DE00030BDF0B504460D46164600BF94F83C00D1
:102DF000012801D10220F0BD012084F83C0000BF71
:102E0000022084F83D00686810B101281AD106E05C
:102E10002068806820F47F402168886013E0E868BB
:102E200048B1012084F83D0000BF002084F83C0038
:102E300000BF0120DFE7D5E90313AA682068FFF788
:102E4000C5FF00E000BF00BF36B1042E14D0082E2D
:102E500022D00C2E40D12FE0286830B12068806944
:102E600040F080002168886105E02068806920F0DA
:102E700080002168886130E0286830B1206880696E
:102E800040F400402168886105E02068806920F4F2
:102E900000402168886120E0286830B12068C0695E
:102EA00040F080002168C86105E02068C06920F01A
:102EB00080002168C86110E0286830B12068C069CE
:102EC00040F400402168C86105E02068C06920F432
:102ED00000402168C86100E000BF00BF012084F805
:102EE0003D0000BF002084F83C0000BF00BF82E727
:102EF0000A46816821F0700142F00703194381609E
:102F0000704730B50B461446026A056A25F0010584
:102F10000562816921F0F00141EA041122F00A0200
:102F20001A438161026230BD30B50B461446056A12
:102F300025F0100505628169026A21F4704141EAB9
:102F4000043122F0A00242EA03128161026230BD24
:102F50002DE9F04104460D4600BF94F83C000128DD
:102F600002D10220BDE8F081012084F83C0000BFBE
:102F7000022084F83D002068866826F0770626F453
:102F80007F46206886602868502833D00CDC2028D3
:102F900050D004DC00284BD0102851D149E0302813
:102FA00049D040284CD139E060282DD0702807D076
:102FB000B0F5805F03D0B0F5005F41D10DE040E097
:102FC000D5E902136A682068FFF700FF2068866869
:102FD00046F077062068866033E0D5E902136A6818
:102FE0002068FFF7F3FE2068806840F48040216885
:102FF000886026E0EA6869682068FFF782FF502150
:103000002068FFF775FF1CE0EA6869682068FFF731
:103010008BFF60212068FFF76BFF12E0EA686968A8
:103020002068FFF76EFF40212068FFF761FF08E08E
:1030300000BF00BF00BF29682068FFF759FF00E00C
:1030400000BF00BF012084F83D0000BF002084F8CD
:103050003C0000BF00BF85E702460B461068416890
:1030600021F08001194310684160002070472DE96C
:10307000F04105460C462868866826F070066068B0
:10308000064326F0070620680643286886606068C5
:1030900000F00F0100293BD10011082838D2DFE8E9
:1030A00000F0333435360B272D04D4E90313A2681E
:1030B0002868FFF78BFE2CE02068052802D101204C
:1030C000BDE8F0812868D0F820802868006A20F0E8
:1030D0000100296808622868876927F0F0072069DD
:1030E00047EA0017286887612868C0F8208010E048
:1030F0002269A1682868FFF704FF0AE02269A16835
:103100002868FFF711FF04E000BF00BF00BF00E028
:1031100000BF00BF0020D3E770B504460D4600BFD6
:1031200094F83C00012801D1022070BD012084F8F0
:103130003C0000BF022084F83D0029462046FFF7EE
:1031400096FF48B1012084F83D0000BF002084F8BC
:103150003C0000BF0120E8E72068C06820F0400084
:103160002168C8602068C06820F480402168C86079
:10317000012084F83D0000BF002084F83C0000BF1F
:1031800000BFD2E770B504460D4600BF94F83C007E
:10319000012801D1022070BD012084F83C0000BF4D
:1031A000022084F83D0029462046FFF760FF48B121
:1031B000012084F83D0000BF002084F83C0000BFDF
:1031C0000120E8E72068C06840F040002168C8603E
:1031D0002068C06820F480402168C860012084F81D
:1031E0003D0000BF002084F83C0000BF00BFD2E7D4
:1031F0000246002031B1042907D0082908D00C2943
:103200000CD108E01368586B09E01368986B06E06E
:103210001368D86B03E01368186C00E000BF00BFB0
:103220007047014691F83D007047014691F83D0016
:103230007047014691F83D007047014691F83D0006
:103240007047014691F83D007047014691F83D00F6
:1032500070470000704730B587B004460D4614B97A
:10326000012007B030BD94F83D0028B9002084F853
:103270003C002046FFF7EEFF022084F83D00211DB0
:103280002068FDF72DFAAB68296803222068FFF754
:1032900036F92068806920F00C0021688861206878
:1032A000806969680843216888612068406840F047
:1032B0008000216848602068806820F070002168E4
:1032C00088602068806840F040002168886020683D
:1032D000806820F00700216888602068806840F0DE
:1032E0000400216888600020049005907020009000
:1032F0000020069003900290E868019069462068DB
:10330000FEF7FFFF2068406820F0700021684860E9
:103310002068406840F0500021684860012084F82F
:103320003D0000209DE7704710B50446022084F858
:103330003D0000BF2068006A41F21111084050B9F9
:103340002068006A8910084028B92068006820F0C9
:1033500001002168086000BF2046FFF7E4FF00205D
:1033600084F83D0000BF84F83C0000BF10BD70B57C
:103370000446012200212068FDF769FB206880686F
:1033800000F00705062D05D02068006840F0010018
:1033900021680860002070BD10B504460022114667
:1033A0002068FDF754FB00BF2068006A41F211114C
:1033B000084050B92068006A8910084028B9206880
:1033C000006820F001002168086000BF002010BDE7
:1033D00070B504462068C06840F002002168C860EB
:1033E000012200212068FDF732FB2068806800F090
:1033F0000705062D05D02068006840F0010021680F
:103400000860002070BD10B50446002211462068F7
:10341000FDF71DFB2068C06820F002002168C8602D
:1034200000BF2068006A41F21111084050B92068BD
:10343000006A8910084028B92068006820F001005F
:103440002168086000BF002010BD2DE9F04104464E
:103450000D46164694F83D00022801D1BDE8F081E2
:1034600094F83D00012805D10DB906B1F6E7022018
:1034700084F83D00012200212068FDF7E8FAF949AF
:10348000606AC163F849606A0164F849606AC164AE
:10349000226802F1340133462A46606A01F0F1FDE8
:1034A00008B10120DAE72068C06840F400702168A4
:1034B000C8602068806800F00707062F05D02068E4
:1034C000006840F00100216808600020C6E710B5E0
:1034D0000446002211462068FDF7B9FA2068C0684A
:1034E00020F400702168C860606A01F06DFE00BFC2
:1034F0002068006A41F21111084050B92068006A42
:103500008910084028B92068006820F0010021686F
:10351000086000BF002010BD30B501F01F05042475
:1035200004FA05F3046A9C430462046A01F01F056F
:1035300002FA05F52C43046230BD70B504460D4611
:10354000042229462068FFF7E7FF2068406C40F41A
:103550000040216848642068806800F00706062E55
:1035600005D02068006840F0010021680860002054
:1035700070BD70B504460D46002229462068FFF74D
:10358000CBFF00BF2068006A41F21111084050B91A
:103590002068006A8910084028B92068406C20F42F
:1035A00000402168486400BF00BF2068006A41F203
:1035B0001111084050B92068006A8910084028B9E4
:1035C0002068006820F001002168086000BF00202A
:1035D00070BD70B504460D4625B1042D09D0082DE7
:1035E00015D10DE02068C06840F002002168C86075
:1035F0000EE02068C06840F004002168C86007E061
:103600002068C06840F008002168C86000E000BF82
:1036100000BF2068C06840F080002168C8600422B4
:1036200029462068FFF778FF2068406C40F400408E
:10363000216848642068806800F00706062E05D0DF
:103640002068006840F0010021680860002070BD1B
:1036500070B504460D4625B1042D09D0082D15D1AD
:103660000DE02068C06820F002002168C8600EE00C
:103670002068C06820F004002168C86007E0206866
:10368000C06820F008002168C86000E000BF00BFEB
:10369000002229462068FFF73FFF2068066A40F2B3
:1036A0004440304028B92068C06820F0800021687C
:1036B000C86000BF2068006A41F21111084050B98B
:1036C0002068006A8910084028B92068406C20F4FE
:1036D00000402168486400BF00BF2068006A41F2D2
:1036E0001111084050B92068006A8910084028B9B3
:1036F0002068006820F001002168086000BF0020F9
:1037000070BD2DE9F04104460E4615461F4694F85B
:103710003D00022801D1BDE8F08194F83D00012868
:1037200005D10DB907B1F6E7022084F83D0026B1B6
:10373000042E1DD0082E51D135E04D49606AC16379
:103740004C49606A01644949606AC164216801F1B9
:1037500034023B462946606A01F093FC08B101201F
:10376000D9E72068C06840F400702168C86036E07E
:103770003F49A06AC1633F49A06A01643B49A06A0E
:10378000C164216801F138023B462946A06A01F074
:1037900078FC08B10120BEE72068C06840F4806072
:1037A0002168C8601BE03249E06AC1633149E06AC0
:1037B00001642E49E06AC164216801F13C023B4684
:1037C0002946E06A01F05DFC08B10120A3E720680A
:1037D000C06840F400602168C86000E000BF00BF1E
:1037E000042231462068FFF797FE2068406C40F4C1
:1037F0000040216848642068806800F00708B8F13C
:10380000060F05D02068006840F0010021680860BC
:10381000002080E770B504460D4625B1042D0CD07C
:10382000082D29D113E02068C06820F400702168B9
:10383000C860606A01F0C8FC1FE02068C06820F41E
:1038400080602168C860A06A01F0BEFC15E02068B5
:10385000C06820F400602168C860E06A01F0B4FC30
:103860000BE0000007170008BF160008CF0800088B
:10387000170D0008CF0C000800BF00BF002229462A
:103880002068FFF749FE00BF2068006A41F211116D
:10389000084050B92068006A8910084028B920689B
:1038A000406C20F400402168486400BF00BF2068DD
:1038B000006A41F21111084050B92068006A89106D
:1038C000084028B92068006820F0010021680860DD
:1038D00000BF012084F83D00002070BD70B5044693
:1038E0000D46042229462068FFF716FE2068406C2A
:1038F00040F40040216848642068806800F00706B2
:10390000062E05D02068006840F00100216808609C
:10391000002070BD70B504460D460022294620687F
:10392000FFF7FAFD00BF2068006A41F2111108405C
:1039300050B92068006A8910084028B92068406C96
:1039400020F400402168486400BF00BF2068006A7E
:1039500041F21111084050B92068006A89100840EE
:1039600028B92068006820F001002168086000BFC5
:10397000002070BD70B504460D4625B1042D09D058
:10398000082D15D10DE02068C06840F002002168C4
:10399000C8600EE02068C06840F004002168C8607C
:1039A00007E02068C06840F008002168C86000E0B7
:1039B00000BF00BF2068C06840F080002168C86078
:1039C000042229462068FFF7A7FD2068406C40F4D8
:1039D0000040216848642068806800F00706062ED1
:1039E00005D02068006840F00100216808600020D0
:1039F00070BD70B504460D4625B1042D09D0082DC3
:103A000015D10DE02068C06820F002002168C86070
:103A10000EE02068C06820F004002168C86007E05C
:103A20002068C06820F008002168C86000E000BF7E
:103A300000BF002229462068FFF76EFD2068066A55
:103A400040F24440304028B92068C06820F080002F
:103A50002168C86000BF2068006A41F21111084067
:103A600050B92068006A8910084028B92068406C65
:103A700020F400402168486400BF00BF2068006A4D
:103A800041F21111084050B92068006A89100840BD
:103A900028B92068006820F001002168086000BF94
:103AA000002070BD2DE9F04104460E4615461F4624
:103AB00094F83D00022801D1BDE8F08194F83D0062
:103AC000012805D10DB907B1F6E7022084F83D00C1
:103AD00026B1042E1DD0082E51D135E0F749606A79
:103AE000C163F749606A0164F649606AC16421688C
:103AF00001F134023B462946606A01F0C2FA08B17E
:103B00000120D9E72068C06840F400702168C860CF
:103B100036E0EA49A06AC163E949A06A0164E9495B
:103B2000A06AC164216801F138023B462946A06AB7
:103B300001F0A7FA08B10120BEE72068C06840F490
:103B400080602168C8601BE0DC49E06AC163DC4931
:103B5000E06A0164DB49E06AC164216801F13C026A
:103B60003B462946E06A01F08CFA08B10120A3E740
:103B70002068C06840F400602168C86000E000BFB1
:103B800000BF042231462068FFF7C6FC2068406C65
:103B900040F40040216848642068806800F007080D
:103BA000B8F1060F05D02068006840F001002168D8
:103BB0000860002080E770B504460D4625B1042D4D
:103BC0000CD0082D1ED113E02068C06820F40070CE
:103BD0002168C860606A01F0F7FA14E02068C068E4
:103BE00020F480602168C860A06A01F0EDFA0AE064
:103BF0002068C06820F400602168C860E06A01F0B5
:103C0000E3FA00E000BF00BF002229462068FFF76A
:103C100083FC00BF2068006A41F21111084050B9CE
:103C20002068006A8910084028B92068406C20F498
:103C300000402168486400BF00BF2068006A41F26C
:103C40001111084050B92068006A8910084028B94D
:103C50002068006820F001002168086000BF012092
:103C600084F83D00002070BD70B504460D46042266
:103C700029462068FFF750FC2068406C40F4004063
:103C800021684864002070BD70B504460D460022CE
:103C900029462068FFF740FC00BF2068006A41F217
:103CA0001111084050B92068006A8910084028B9ED
:103CB0002068406C20F400402168486400BF00BFC9
:103CC0002068006A41F21111084050B92068006A6A
:103CD0008910084028B92068006820F00100216898
:103CE000086000BF002070BD70B504460D46206816
:103CF000C06840F002002168C8602068C06840F0D9
:103D000004002168C860042229462068FFF704FCEB
:103D10002068406C40F4004021684864002070BD79
:103D200070B504460D462068C06820F00200216886
:103D3000C8602068C06820F004002168C8600022C4
:103D400029462068FFF7E8FB00BF2068006A41F2BF
:103D50001111084050B92068006A8910084028B93C
:103D60002068406C20F400402168486400BF00BF18
:103D70002068006A41F21111084050B92068006AB9
:103D80008910084028B92068006820F001002168E7
:103D9000086000BF002070BD10B5034600BF93F857
:103DA0003C00012801D1022010BD012083F83C0015
:103DB00000BF29B1102903D0202901D030290AD110
:103DC0001868806820F070001C68A060186880681F
:103DD00008431C68A0601868406840F001001C6837
:103DE00060601868406820F004001C686060186813
:103DF000406810431C6860601868C06820F02000AC
:103E00001C68E0601868C06820F400501C68E0601E
:103E100000BF002083F83C0000BF00BFC4E710B51E
:103E2000034600BF93F83C00012801D1022010BDD9
:103E3000012083F83C0000BF29B1102903D02029BC
:103E400001D030290AD11868806820F070001C6801
:103E5000A0601868806808431C68A0601868406803
:103E600040F001001C6860601868406820F00400A1
:103E70001C6860601868406810431C6860601868BF
:103E8000C06820F400501C68E0601868C06840F00A
:103E900020001C68E06000BF002083F83C0000BFE9
:103EA00000BFC4E7704770B50446A56B012085F8D4
:103EB0003D002846FFF7F6FF70BD0000170D000813
:103EC000CF0C0008CF080008704770B50446A56BFA
:103ED000012085F83D002846FFF7F6FF70BD10B5BC
:103EE000034600BF93F83C00012801D1022010BD19
:103EF000012083F83C0000BF29B1102903D02029FC
:103F000001D030290AD11868806820F070001C6840
:103F1000A0601868806808431C68A0601868406842
:103F200040F001001C6860601868406820F00400E0
:103F30001C6860601868406810431C686060AFF2DD
:103F40007504586BC463AFF2A104586B04645A4CF7
:103F5000586BC4641868C06820F020001C68E060DA
:103F60001868C06840F400501C68E06000BF002082
:103F700083F83C0000BF00BFB9E730B502460B46EE
:103F800000BF92F83C00012801D1022030BD012081
:103F900082F83C0000BF022082F83D0010684468AF
:103FA0001068816824F07004186804431068446045
:103FB000424D1068A8421BD01068B0F1804F17D056
:103FC0003F4D1068A84213D03E4D1068A8420FD054
:103FD0003D4D1068A8420BD03C4D1068A84207D058
:103FE0003B4D1068A84203D03A4D1068A84205D155
:103FF00021F080015868014310688160012082F837
:104000003D0000BF002082F83C0000BF00BFBDE7BC
:1040100010B50346002200BF93F83C00012801D1EF
:10402000022010BD012083F83C0000BF22F0FF00F9
:10403000CC6840EA040222F440708C6840EA040232
:1040400022F480604C6840EA040222F400600C68AC
:1040500040EA040222F480500C6940EA040222F48F
:1040600000504C6940EA040222F48040CC6940EAE6
:1040700004021868426400BF002083F83C0000BFBF
:1040800000BFCEE7024600BF92F83C00012801D1F4
:1040900002207047012082F83C0000BF10680165D3
:1040A00000BF002082F83C0000BF00BFF1E770476E
:1040B000014691F83D007047CF080008000001401C
:1040C0000004004000080040000C004000040140D3
:1040D000004001400018004000207047F8B5044639
:1040E0000CB90120F8BD207800F00100002874D040
:1040F000F948006800F00C0004280DD0F64800686C
:1041000000F00C00082813D1F348001F006800F4E9
:104110008000B0F5800F0BD1EF4808380068C0F37D
:104120004040002859D06068002856D10120D9E7C6
:1041300000BF6068B0F5803F08D1E74808380068E4
:1041400040F48030E449083908601EE06068B0F54A
:10415000A02F0DD1E0480838006840F48020DE49E7
:10416000083908600846006840F4803008600CE0B8
:10417000D9480838006820F48030D74908390860E9
:104180000846006820F48020086000BF606890B195
:1041900001F0BBFC054606E001F0B7FC401B6428BB
:1041A00001D903209EE7CC4808380068C0F340409E
:1041B0000028F1D011E001F0A8FC054606E001F06E
:1041C000A4FC401B642801D903208BE7C2480838AF
:1041D0000068C0F340400028F1D1207800F00200D0
:1041E00002285FD1BC48006800F00C0058B1BA4802
:1041F000006800F00C0008281CD1B748001F0068B8
:1042000000F48000B0B9B44808380068C0F340003A
:1042100020B1E068012801D0012063E7AE480838EA
:10422000006820F0F800216940EAC100AA49083975
:10423000086037E0E06800B30120A849086001F099
:1042400064FC054606E001F060FC401B022801D931
:10425000032047E7A04808380068C0F34000002862
:10426000F1D09D480838006820F0F800216940EA44
:10427000C10099490839086014E000209749086096
:1042800001F043FC054606E001F03FFC401B02281C
:1042900001D9032026E7904808380068C0F34000A1
:1042A0000028F1D1207800F0080008282CD160699E
:1042B000A8B101208A49086001F027FC054606E004
:1042C00001F023FC401B022801D903200AE78248A1
:1042D0006C300068C0F340000028F1D014E00020EA
:1042E0007F49086001F011FC054606E001F00DFC75
:1042F000401B022801D90320F4E677486C3000689F
:10430000C0F340000028F1D1207800F00400042818
:1043100070D1002770483830006800F0805090B9A4
:1043200000BF002000906C483830006840F080509A
:104330006949383108600846006800F080500090F4
:1043400000BF00BF01276748006800F48070B0B963
:104350006448006840F480706249086001F0D5FB51
:10436000054606E001F0D1FB401B022801D90320DD
:10437000B8E65C48006800F480700028F2D000BF06
:10438000A068012808D154486830006840F0010056
:104390005149683108601DE0A06805280DD14E48DC
:1043A0006830006840F004004B49683108600846F6
:1043B000006840F0010008600CE047486830006881
:1043C00020F001004449683108600846006820F088
:1043D0000400086000BFA068A8B101F096FB054684
:1043E00009E001F092FB401B41F28831884202D97A
:1043F000032077E626E0384868300068C0F34000C4
:104400000028EED013E001F080FB054608E001F043
:104410007CFB401B41F28831884201D9032061E6D0
:104420002D4868300068C0F340000028EFD1012F0C
:1044300007D129483830006820F0805026493831AB
:10444000086000BFA069002845D02348006800F03C
:104450000C0008285DD0A069022845D100201F4922
:10446000086601F052FB054606E001F04EFB401BDA
:10447000022801D9032035E6174808380068C0F340
:1044800040600028F1D1D4E907010843616A40EA9D
:1044900081110122A06AC2EB500041EA00412C20A8
:1044A000005D41EA00600C49091F086001200B49CA
:1044B000086601F02AFB054606E001F026FB401BDA
:1044C000022801D903200DE6034808380068C0F32C
:1044D00040600028F1D03FE0083802400000474229
:1044E000800E4742007000400020F849086601F045
:1044F0000CFB054606E001F008FB401B022801D931
:104500000320EFE5F2480068C0F340600028F2D1D4
:1045100022E0A069012800D1E4E5ED48001D06680D
:1045200006F48001E069814214D106F03F01206A5F
:1045300081420FD147F6C0703040616A884209D18C
:1045400006F44031A06A814204D106F07061E06A4D
:10455000814201D00120C5E50020C3E52DE9F047E7
:10456000002400250026A146D9480830006800F044
:104570000C0020B1042805D008283AD105E0DFF866
:10458000549339E0DFF8509336E0D148001D0068BD
:1045900000F03F04CE48001D006800F4800078B1B0
:1045A000CD48CB49091D0968C1F38811A0FB0170F2
:1045B000014622460023384602F017FE05460EE06B
:1045C000C448C349091D0968C1F38811A0FB0170E3
:1045D000014622460023384602F007FE0546BC4845
:1045E000001D0068C0F30140401C4600B5FBF6F911
:1045F00002E0DFF8E09200BF00BF4846BDE8F08768
:1046000070B504460D460CB9012070BDB348006872
:1046100000F00F00A84209D2B0490D7008460068AA
:1046200000F00F00A84201D00120EEE7207800F052
:104630000200022823D1207800F00400042807D1CA
:10464000A3480830006840F4E050A14908310860F0
:10465000207800F00800082807D19D48083000683D
:1046600040F460409A490831086099480830006871
:1046700020F0F000A16808439549083108602078CF
:1046800000F00100A0B36068012806D190480068DE
:10469000C0F34040A8B90120B7E76068022802D003
:1046A0006068032806D18A480068C0F3406040B9BA
:1046B0000120AAE786480068C0F3400008B901203D
:1046C000A3E783480830006820F0030061680843CE
:1046D0007F490831086001F018FA064609E001F048
:1046E00014FA801B41F28831884202D903208CE7FA
:1046F00008E077480830006800F00C006168B0EB13
:10470000810FECD17548006800F00F00A84209D96C
:1047100072490D700846006800F00F00A84201D0F1
:10472000012072E7207800F00400042809D16848CD
:104730000830006820F4E050E1680843644908311B
:104740000860207800F0080008280AD16048083086
:10475000006820F46040216940EAC1005C490831EA
:104760000860FFF7FBFE5A4908310968C1F30311DD
:104770005B4A515CC8405B4908605B48006801F0D7
:1047800060F9002041E770B586B006460C46154634
:1047900056BB00BF002000904D483030006840F00C
:1047A00001004B49303108600846006800F0010004
:1047B000009000BF00BF88150190022002900320E6
:1047C000049000200390059001A9484800F01EF9CC
:1047D0003F480830006820F0EC6044EA05010843D7
:1047E0003B490831086029E000BF002000903848AC
:1047F0003030006840F00400354930310860084628
:10480000006800F00400009000BF00BF4815019050
:10481000022002900320049000200390059001A93B
:10482000334800F0F3F82A480830006820F0784058
:1048300044EAC501084326490831086006B070BD46
:1048400001202249C864704700202049C86470478D
:1048500024480068704700B5FFF7FAFF1C4908318B
:104860000968C1F38221234A515CC84000BD00B5EC
:10487000FFF7EEFF164908310968C1F342311D4ABE
:10488000515CC84000BD0F2101601149096801F465
:104890008021B1F5802F03D14FF4A02141600CE0BD
:1048A0000B49096801F48031B1F5803F03D14FF421
:1048B0008031416001E0002141600549096801F053
:1048C0000101C9B10121C16018E0000000004742A8
:1048D000003802400024F40000127A00003C02403C
:1048E0004274000810000020080000200000024070
:1048F00000080240527400080021C1604149096863
:10490000C1F3C40101613F497031096801F004013C
:10491000042902D1052181600AE03A497031096811
:1049200001F0010111B10121816001E000218160EC
:1049300034497431096801F0010111B1012141616B
:1049400001E0002141612F49096801F08071B1F156
:10495000807F02D10221816101E001218161294929
:10496000091D096801F48002C2612649091D096810
:1049700001F03F0202622349091D0968C1F3881250
:1049800042622049091D096801F4403101F5803176
:10499000CA0B82621B49091D0968C1F30362C26226
:1049A00070470F220260174A0832126802F00302B1
:1049B0004260144A0832126802F0F0028260114A22
:1049C0000832126802F4E052C2600E4A08321268DD
:1049D00002F46042D20802610B4A126802F00F0230
:1049E0000A607047704710B506480C30006800F048
:1049F0008000802805D1FFF7F5FF802001490E31A6
:104A0000087010BD00380240003C0240F8B5024674
:104A10000B460025002400200021DCE0012606FAD8
:104A200001F51E6806EA0504AC4273D15E68012EEA
:104A300008D05E68022E05D05E68112E02D05E6836
:104A4000122E13D190684F000326BE40B0434F0092
:104A5000DE68BE4030439060506801268E40B0430F
:104A60001E79C6F300168E4030435060D0684F0068
:104A70000326BE40B0434F009E68BE403043D06026
:104A80005E68022E02D05E68122E13D1CF0802F1AA
:104A9000200656F827004E07F70E0F26BE40B043FB
:104AA0004F07FF0E1E69BE403043CF0802F12006BB
:104AB00046F8270010684F000326BE40B0431E7919
:104AC00006F003064F00BE40304310605E6806F0FB
:104AD0008056B6F1805F7DD100BF00260096AD4EB6
:104AE000366846F48046AB4F3E603E46366806F474
:104AF0008046009600BF00BFA74E8F0856F82700DB
:104B00008E07370F0F26BE40B043A44EB24202D1EB
:104B1000002624E05EE0A24EB24201D101261EE052
:104B2000A04EB24201D1022619E09F4EB24201D1FD
:104B3000032614E09D4EB24201D104260FE09C4EA4
:104B4000B24201D105260AE09A4EB24201D10626B0
:104B500005E0994EB24201D1072600E008268F07F2
:104B60003F0FBE4030438C4E8F0846F82700934ECF
:104B70003068A0435E6806F48036B6F5803F00D109
:104B800020438E4E3060361D3068A0435E6806F4C8
:104B90000036B6F5003F00D12043884E361D306008
:104BA000361D3068A0435E6806F48016B6F5801F97
:104BB00000D12043814E08363060361D3068A04356
:104BC0005E6806F40016B6F5001F00D120437B4E48
:104BD0000C363060491C1029FFF420AFF8BDF0B549
:104BE0000C46002500220023002192E0012606FA4F
:104BF00001F504EA0502AA427ED1674E8F0856F8F5
:104C000027308E07370F0F26BE403340634EB04229
:104C100001D1002623E0624EB04201D101261EE000
:104C2000604EB04201D1022619E05F4EB04201D180
:104C3000032614E05D4EB04201D104260FE05C4E25
:104C4000B04201D105260AE05A4EB04201D10626F3
:104C500005E0594EB04201D1072600E008268F0733
:104C60003F0FBE409E4222D1544E36689643534F6A
:104C70003E603E1D366896433F1D3E603E1D3668D1
:104C800096433F1D3E603E1D366896433F1D3E6085
:104C90008E07370F0F2606FA07F33F4E8F0856F898
:104CA00027609E433C4F4FEA910C47F82C60066802
:104CB0004FEA410C032707FA0CF7BE430660CF0802
:104CC00000F1200656F827604F074FEAD76C0F27F0
:104CD00007FA0CF7BE434FEAD10C00F1200747F862
:104CE0002C60C6684FEA410C032707FA0CF7BE4355
:104CF000C6604668012700E00AE08F40BE43466078
:104D000086684FEA410C032707FA0CF7BE4386601A
:104D1000491C1029FFF46AAFF0BD024613690B402D
:104D20000BB1012000E0002070470AB1816101E071
:104D30000B048361704742690A408A4202D10A0427
:104D4000826100E08161704708B502464FF480300F
:104D500000900098084300900098D061D1610098BD
:104D6000D061D0690090D06900F4803008B1002093
:104D700008BD0120FCE7704710B504460F48143009
:104D80000068204028B10D48143004602046FFF729
:104D9000F2FF10BD443802400838014000000240D4
:104DA0000004024000080240000C024000100240D3
:104DB0000014024000180240001C0240003C014068
:104DC0000146087810381823B0FBF3F2FC48805CE9
:104DD000C865032A05D908686FF30900001D8865B6
:104DE00003E008686FF309008865886D7047014625
:104DF00000208A6A8B69CBB932B1012A0DD0022A10
:104E000003D0032A10D10EE000BFCB6A03F08073F9
:104E1000B3F1807F00D1012007E0CB6AB3F1C07FFE
:104E200000D1012001E000E000BF34E08B69B3F560
:104E3000005F1AD132B1012A07D0022A03D0032A17
:104E400011D10AE000BF01200EE0CB6A03F08073AD
:104E5000B3F1807F00D1012006E0CB6AB3F1C07FBF
:104E600000D1012000E000BF15E032B1012A05D0D9
:104E7000022A04D0032A0CD103E000BF00BF0120A6
:104E800008E0CB6A03F08073B3F1807F00D101208A
:104E900000E000BF00BF70472DE9F0410446002547
:104EA00000F033FE074614B90120BDE8F081606AC6
:104EB00000B100BF00BF002084F8340000BF022012
:104EC00084F835002068006820F00100216808603F
:104ED0000AE000F01AFEC01B052805D920206065F5
:104EE000032084F83500E0E72068006800F0010046
:104EF0000028EED120680568B2480540D4E90101D8
:104F00000843E16808432169084361690843A169CE
:104F10000843E1690843216A08430543606A04289D
:104F200003D1D4E90B0108430543206805602068DC
:104F3000456925F00705606A0543606A04280DD1BC
:104F4000A06A0543E06A48B12046FFF750FF28B148
:104F500040206065012084F83500A6E7206845619F
:104F60002046FFF72DFF064694F85C103F2088404E
:104F7000B06000206065012084F83500002094E7CF
:104F800070B504460CB9012070BD94F835000228B4
:104F900000D1F9E72068006820F00100216808606E
:104FA00000202168086021684860216888602168C5
:104FB000C860216808612120216848612046FFF708
:104FC000FFFE05460020E06320646064A064E064A6
:104FD000206594F85C103F208840A8600020606540
:104FE00084F8350000BF84F8340000BF00BFCBE771
:104FF00030B50468246824F4802405682C600468B3
:1050000063608468402C04D10468A2600468E16095
:1050100003E00468A1600468E26030BD2DE9F0415E
:1050200004460D4616461F464FF0000800BF94F890
:105030003400012802D10220BDE8F081012084F86B
:10504000340000BF94F83500012811D1022084F803
:105050003500002060653B46324629462046FFF772
:10506000C7FF2068006840F001002168086006E082
:1050700000BF002084F8340000BF4FF00208404613
:10508000DAE72DE9F04704460D4616461F464FF075
:105090000008D4F8589000BF94F83400012802D1D9
:1050A0000220BDE8F087012084F8340000BF94F8A6
:1050B0003500012825D1022084F8350000206065E4
:1050C0003B46324629462046FFF792FF94F85C1093
:1050D0003F208840C9F808002068006840F01600AA
:1050E00021680860206C28B12068006840F0080042
:1050F000216808602068006840F0010021680860AD
:1051000006E000BF002084F8340000BF4FF0020822
:105110004046C6E770B50446A56D00F0F6FC0646AD
:1051200094F83500022808D08020606500BF002078
:1051300084F8340000BF012070BD2068006820F0B2
:105140001600216808602068406920F0800021680E
:105150004861206C08B9A06C28B12068006820F074
:105160000800216808602068006820F001002168BC
:1051700008600FE000F0C9FC801B05280AD9202038
:10518000606500BF002084F8340000BF032084F86D
:105190003500D1E72068006800F001000028E9D15F
:1051A00094F85C103F208840A86000BF002084F87D
:1051B000340000BF012084F835000020BCE7000067
:1051C0003A7400083F8010F0014691F8350002283B
:1051D00003D08020486501207047052081F8350004
:1051E0000868006820F001000A6810600020F3E7FA
:1051F0002DE9F05F0446884617464FF0000A00F09C
:1052000084FC834694F83500022809D0802060652C
:1052100000BF002084F8340000BF0120BDE8F09FEB
:105220002068006800F4807020B14FF480706065E1
:105230000120F3E7B8F1000F05D194F85C102020AD
:1052400000FA01F904E094F85C10102000FA01F96A
:10525000A56D2E6842E0781C90B12FB100F055FC8E
:10526000A0EB0B00B8420BD92020606500BF0020E6
:1052700084F8340000BF012084F835000320CDE716
:105280002E6894F85C1008208840304040B1606D72
:1052900040F00100606594F85C1008208840A86028
:1052A00094F85C1001208840304040B1606D40F0BF
:1052B0000200606594F85C1001208840A86094F8B2
:1052C0005C1004208840304040B1606D40F0040024
:1052D000606594F85C1004208840A86006EA090024
:1052E00020B9606D00F001000028B4D0606DA0B15D
:1052F000606D00F0010080B12046FFF70BFF94F8CD
:105300005C1030208840A86000BF002084F8340082
:1053100000BF012084F8350080E7B8F1000F0DD1FF
:1053200094F85C1030208840A86000BF002084F80A
:10533000340000BF012084F8350004E094F85C10CC
:1053400010208840A860504668E7F8B50446002061
:105350000090C64800684FF41651B0FBF1F7A56DF8
:105360002E6894F85C1008208840304098B120687E
:10537000006800F0040070B12068006820F00400AC
:105380002168086094F85C1008208840A860606D6F
:1053900040F00100606594F85C10012088403040C6
:1053A00068B12068406900F0800040B194F85C105A
:1053B00001208840A860606D40F00200606594F8AC
:1053C0005C1004208840304068B12068006800F01C
:1053D000020040B194F85C1004208840A860606D21
:1053E00040F00400606594F85C1010208840304064
:1053F00078B32068006800F0080050B394F85C109F
:1054000010208840A8602068006800F4802080B1E7
:105410002068006800F4002028B9206CC8B120463C
:10542000216C884715E0A06C98B12046A16C884794
:105430000FE02068006800F4807028B920680068D8
:1054400020F0080021680860206C10B12046216C13
:10545000884794F85C10202088403040002865D0B0
:105460002068006800F0100000285FD094F85C10FD
:1054700020208840A86094F83500052828D12068AD
:10548000006820F01600216808602068406920F05C
:10549000800021684861206C08B9A06C28B12068A0
:1054A000006820F008002168086094F85C103F2034
:1054B0008840A86000BF002084F8340000BF0120AD
:1054C00084F83500206D10B12046216D8847F8BD65
:1054D0002068006800F4802080B12068006800F433
:1054E000002028B9606C10B12046616C88471DE02F
:1054F000E06BD8B12046E16B884717E02068006870
:1055000000F4807068B92068006820F010002168FD
:10551000086000BF002084F8340000BF012084F838
:105520003500E06B10B12046E16B8847606D38B301
:10553000606D00F00100F0B1052084F835002068AE
:10554000006820F001002168086000BF0098401C3E
:105550000090B84200D905E02068006800F0010022
:105560000028F3D100BF00BF002084F8340000BF42
:10557000012084F83500E06C10B12046E16C8847CA
:1055800000BFA4E710B50346002400BF93F8340021
:10559000012801D1022010BD012083F8340000BF92
:1055A00093F83500012814D1062910D2DFE801F064
:1055B000030507090B0DDA630AE01A6408E05A6470
:1055C00006E09A6404E0DA6402E01A6500E000BFD5
:1055D00000E0012400BF002083F8340000BF204613
:1055E000D9E70246002300BF92F83400012801D118
:1055F00002207047012082F8340000BF92F8350085
:10560000012824D107291FD2DFE801F004070A0D81
:10561000101316000020D06318E00020106415E07D
:105620000020506412E0002090640FE00020D0645D
:105630000CE00020106509E00020D0631064506485
:105640009064D064106501E0012300BF00E00123F5
:1056500000BF002082F8340000BF1846C9E70146A9
:1056600091F8350070470146486D704710000020E2
:1056700010B5002804DB0A07130EEC4A135406E0A9
:105680000A07140EEA4A00F00F031B1FD45410BD82
:1056900000BF00F00702E64B0C3B19684FF6FF0312
:1056A0001940E44B0B4343EA0221E14B0C3B1960E8
:1056B00000BF70472DE9F05F80460D461646002773
:1056C00000F0AEF9074639462A46334601F0070096
:1056D000C0F1070ABAF1040F02D94FF0040A01E041
:1056E000C0F1070AD14600F1040ABAF1070F02D24D
:1056F0004FF0000A01E0A0F1030AD4464FF0010A7E
:105700000AFA09FAAAF1010A0AEA020A0AFA0CFAE2
:105710004FF0010B0BFA0CFBABF1010B0BEA030B87
:105720004AEA0B0421464046FFF7A2FFBDE8F09F7E
:1057300001460846002809DB00F01F0301229A40B9
:1057400043099B0003F1E023C3F8002100BF704729
:1057500010B501460846002817DB00F01F030122A0
:105760009A40B54B440943F8242000BF00BF00BF56
:10577000BFF34F8F00BF00BF00BF00BF00BF00BF1F
:10578000BFF36F8F00BF00BF00BF00BF10BD00BFE1
:1057900000BF00BF00BF00BFBFF34F8F00BF00BFFF
:1057A00000BFA3480C38006800F4E060A14908433A
:1057B000001D9F490C39086000BF00BF00BFBFF348
:1057C0004F8F00BF00BF00BF00BF00BFFDE770B537
:1057D00004462546681EB0F1807F01D301200FE00A
:1057E000681E4FF0E02148610F214FF0FF30FFF7B6
:1057F0003FFF00204FF0E021886107200861002072
:1058000070BD00BF00BF00BFBFF35F8F00BF00BF10
:1058100000BF87480C30006820F4803084490C3188
:105820000860002082497C310860704740F0010127
:105830007F4A7C3211607E490C31096841F4803125
:105840007B4A0C32116000BF00BF00BFBFF34F8F17
:1058500000BF00BF00BF00BF00BF00BFBFF36F8F1E
:1058600000BF00BF00BF70474178714A80321160AD
:105870000178F9B1121D41681160017B0907C27AF4
:1058800041EA0261827A41EAC241427B41EA8241B5
:10589000827B41EA4241C27B41EA0241427A41EACB
:1058A0000221027A41EA420102781143604A8832B9
:1058B000116005E000215E4A84321160121D116002
:1058C000704710B500F0ACF810BD2DE9F043044668
:1058D0002046002803DB554F3F5C3F0907E0544F4B
:1058E00000F00F0CACF1040C17F80C703F093D46AA
:1058F0000E4606F00700C0F10708B8F1040F02D900
:105900004FF0040801E0C0F10708C44600F10408A4
:10591000B8F1070F02D24FF0000801E0A0F1030830
:10592000474625FA07F84FF0010909FA0CF9A9F1E1
:10593000010908EA0908C2F800804FF0010808FAD6
:1059400007F8A8F1010808EA0508C3F8008000BFBD
:10595000BDE8F08310B501460846002808DB00F0DA
:105960001F0301229A40344B8033440943F824201A
:1059700000BF10BD10B50146084600280EDB2E4AB8
:105980008032430952F8232000F01F040123A34072
:105990001A400AB1012202E0002200E00022104673
:1059A00010BD10B501460846002807DB00F01F03B4
:1059B00001229A40214B440943F8242000BF10BD26
:1059C00010B50146084600280EDB1C4A8032430908
:1059D00052F8232000F01F040123A3401A400AB10B
:1059E000012202E0002200E00022104610BD04283F
:1059F00008D14FF0E021096941F004014FF0E022A5
:105A0000116107E04FF0E021096921F004014FF036
:105A1000E02211617047704710B5FFF7FCFF10BD21
:105A200003480C380068C0F30220704700E400E02F
:105A300018ED00E00000FA0580E100E080E200E0FF
:105A4000704770B50446754800784FF47A71B1FB21
:105A5000F0F073490968B1FBF0F52846FFF7B7FE8F
:105A600008B1012070BD102C07D200222146501E23
:105A7000FFF720FE6B48046001E00120F2E7002000
:105A8000F0E710B56848006840F4007066490860A7
:105A90000846006840F4806008600846006840F4EA
:105AA000807008600320FFF7F3FD0020FFF7C9FFB7
:105AB000FAF7EEFD002010BD704710B54FF0FF3033
:105AC0005A49086000200860401E091D0860002037
:105AD0000860401E55491039086000200860401ECB
