:020000040800F2
:1000000050110020EDDB00082DDC0008250301085D
:100010002FDC000831DC000833DC000800000000A1
:1000200000000000000000000000000035DC0008B7
:1000300037DC00080000000039DC00081DDB000888
:100040002184000807DC000807DC0008DFD4000872
:1000500007DC000807DC000807DC000807DC0008F4
:1000600007DC000807DC000807DC000807DC0008E4
:1000700007DC000807DC000807DC000807DC0008D4
:1000800007DC000807DC000807DC000807DC0008C4
:1000900007DC000807DC000807DC000807DC0008B4
:1000A000C7890008FBDA000807DC000807DC000845
:1000B00007DC000807DC000807DC000807DC000894
:1000C00007DC000807DC000807DC000807DC000884
:1000D00007DC00085DD3000807DC000807DC000827
:1000E00007DC0008BDD4000807DC000807DC0008B6
:1000F00007DC00085188000807DC000807DC00085E
:1001000007DC000807DC000807DC000807DC000843
:1001100007DC000807DC000807DC000807DC000833
:1001200007DC000807DC000807DC000807DC000823
:1001300007DC000807DC000807DC000807DC000813
:1001400007DC000807DC000807DC000807DC000803
:1001500007DC000807DC000807DC000807DC0008F3
:1001600007DC000807DC000807DC000807DC0008E3
:1001700007DC000807DC000807DC000807DC0008D3
:1001800007DC000807DC000800F002F800F0B2F815
:100190000AA090E8000C82448344AAF10107DA45E2
:1001A00001D100F0A7F8AFF2090EBAE80F0013F082
:1001B000010F18BFFB1A43F0010318472C5101002F
:1001C0004C5101000A444FF0000C10F8013B13F0B1
:1001D000070408BF10F8014B1D1108BF10F8015BA0
:1001E000641E05D010F8016B641E01F8016BF9D193
:1001F00013F0080F1EBF10F8014BAD1C0C1B09D1EA
:100200006D1E58BF01F801CBFAD505E014F8016B5B
:1002100001F8016B6D1EF9D59142D6D370470000ED
:100220000023002400250026103A28BF78C1FBD8FF
:10023000520728BF30C148BF0B6070476E2911F0CC
:100240002681702910F08186662912F06085652963
:1002500012F05D85672912F05A85612912F05985DF
:1002600003681B0A28BF41F08001692910F0F2855C
:10027000642910F0EF85752910F0EC856F2911F0D5
:100280002682782910F04D86E92911F0C181E429F0
:1002900011F0BE81F52911F0BB81EF2911F0238205
:1002A000F82910F04C860368DB0928BF41F0800173
:1002B000632911F03081732911F03581E32911F0A0
:1002C0005F86F32911F06486002070471FB512F095
:1002D00019FD11F0F9FE04000020002112F0A8FB26
:1002E000401C60600020002112F0B8FBE0601FBDE0
:1002F00010B510BD11F0C3FE1146FFF7E7FF0DF07A
:10030000F7FB11F0A5FF03B4FFF7F2FF03BC0CF0FD
:10031000EDFF000010B50446B0F5E06F0FD0B4F566
:10032000C06F0CD0B4F5A06F09D0B4F5806F06D0C3
:10033000B4F5407F03D079214DA00DF03DFD554827
:1003400004435548046010BD70B50446C0780F25BD
:1003500028B1012803D08D2145A00DF02DFD607836
:10036000102803D38E2142A00DF026FDA07810287E
:1003700003D38F213EA00DF01FFDE078012200B3D2
:100380004548006800F4E060C0F5E060C0F3072075
:10039000C0F10401C54060788840A178294001433C
:1003A0000801217801F1E02181F80004207800F0B3
:1003B0001F018A404009800000F1E020C0F80021C0
:1003C00070BD207800F01F018A404009800000F1D4
:1003D000E020C0F8802170BD70B50D460446B0F134
:1003E000005F06D0B4F1006F03D0B72120A00DF05C
:1003F000E3FC2A48854203D3B8211DA00DF0DCFCA4
:100400002748054024482543001F056070BD70B58E
:100410000D460446102807D0042C05D0022C03D02A
:10042000CA2113A00DF0C8FC1B4E361D45B1012D8D
:1004300003D0CB210EA00DF0BFFC3068204301E0BB
:100440003068A043306070BD10B54FF0E024042840
:100450000AD0401D03D0E22105A00DF0ADFC2069BB
:1004600020F00400206110BD206940F00400F9E78D
:100470002E2E5C4C6962726172795C506572697093
:10048000686572616C5C7372635C6D6973632E6323
:10049000000000000000FA050CED00E0FFFF0F0077
:1004A00080FFFF1F984900200860091D0860091D92
:1004B0000860091D08609449944814310860704729
:1004C00070B50446007928B1042803D0822190A099
:1004D0000DF072FC6079082807D00C2805D0102890
:1004E00003D083218AA00DF067FC2068C10D00D1E4
:1004F00018B9842186A00DF05FFCA07928B10128ED
:1005000003D0852182A00DF057FC7F49A07958B314
:100510000868226890430860081D026823689A43AF
:10052000026020790844026823681A430260764B0F
:10053000083318682268904318601A1D10682568EF
:10054000A84310606079102805D00844016822682B
:100550001143016070BD1868216808431860106875
:1005600021680843106070BD207908440168226842
:100570009143EEE70021016001710C22427181710B
:10058000704710B50446C00D00D11CB9C72160A04A
:100590000DF012FC5C48103001682143016010BD71
:1005A00070B50025044601283ED0022C3CD0042C16
:1005B0003AD0082C38D0102C36D0202C34D0402CF7
:1005C00032D0802C30D0B4F5807F2DD0B4F5007FB0
:1005D0002AD0B4F5806F27D0B4F5006F24D0B4F5DD
:1005E000805F21D0B4F5005F1ED0B4F5804F1BD0E2
:1005F000B4F5004F18D0B4F5803F15D0B4F5003FE6
:1006000012D0B4F5802F0FD0B4F5002F0CD0B4F574
:10061000801F09D0B4F5001F06D0B4F5800F03D0B9
:10062000E6213BA00DF0C8FB37481430006820429B
:1006300000D00125284670BD10B50446C00D00D17C
:100640001CB9FC2132A00DF0B7FB2F481430046018
:1006500010BD70B50025044601283FD0022C3DD0C6
:10066000042C3BD0082C39D0102C37D0202C35D07E
:10067000402C33D0802C31D0B4F5807F2ED0B4F50F
:10068000007F2BD0B4F5806F28D0B4F5006F25D053
:10069000B4F5805F22D0B4F5005F1FD0B4F5804F71
:1006A0001CD0B4F5004F19D0B4F5803F16D0B4F586
:1006B000003F13D0B4F5802F10D0B4F5002F0DD02B
:1006C000B4F5801F0AD0B4F5001F07D0B4F5800F31
:1006D00004D040F20B110EA00DF06EFB0A4814304E
:1006E0000068204200D00125284670BD10B50446A0
:1006F000C00D00D124B94FF4917105A00DF05CFB41
:1007000001481430046010BD003C0140FFFF7F0031
:100710002E2E5C4C6962726172795C5065726970F0
:10072000686572616C5C7372635C73746D3332669E
:100730003478785F657874692E6300002DE9F05F86
:10074000FA4DFB4EFB4FDFF8F083DFF8F093DFF854
:10075000F0A3DFF8F0B30446A8421BD0B44219D08E
:10076000BC4217D0444515D04C4513D0544511D048
:100770005C450FD0F44884420CD0F448844209D040
:10078000F348844206D0F348844203D08221F2A089
:100790000DF012FBAC4206D10121084601F0B6FE75
:1007A0000021012055E0B44206D10121022001F0D0
:1007B000ADFE002102204CE0BC4206D10121042004
:1007C00001F0A4FE0021042043E0444506D10121AC
:1007D000082001F09BFE002108203AE04C4506D19C
:1007E0000121102001F092FE0021102031E054453B
:1007F00006D10121202001F089FE0021202028E0DF
:100800005C4506D10121402001F080FE00214020FE
:100810001FE0CD48844206D10121802001F076FE00
:100820000021802015E0C948844202D101218415AD
:100830000AE0C748844202D10121441504E0C548BA
:1008400084420AD101210415204601F05FFE0021F7
:100850002046BDE8F05F01F059BEBDE8F09F2DE9EC
:10086000F05F0446B14800260D46844221D0B048CE
:1008700084421ED0AF4884421BD0AF48844218D077
:10088000AE48844215D0AE48844212D0AD4884426E
:100890000FD0AD4884420CD0AC48844209D0AC485B
:1008A000844206D0AB48844203D0CF21AAA00DF0E9
:1008B00083FA28880004000C03D1D021A6A00DF0F3
:1008C0007BFA287948B1012807D0022805D00328EF
:1008D00003D0D121A0A00DF06FFAE87938B101283A
:1008E00005D0022803D0D2219BA00DF065FA4FF06D
:1008F000010A4FF0030B0AFA06F02968814601400D
:10090000494541D1216870000BFA00F7B943804690
:1009100021602979206801FA08F1014321602879D2
:10092000012801D0022826D1687948B1012807D0D2
:10093000022805D0032803D0E42187A00DF03CFA5B
:10094000A068B843A0606879A16800FA08F008437D
:10095000A060A87928B1012803D0EB217EA00DF07A
:100960002BFA606820EA090060606168A879B040ED
:1009700080B201436160E068B843E060E879E16813
:1009800000FA08F00843E060761C102EB3D364E749
:100990004FF6FF7101600021017141718171C171D8
:1009A000704738B504464FF4803000905F480D46DC
:1009B000844222D05E4884421FD05E4884421CD0CC
:1009C0005D48844219D05D48844216D05C48844218
:1009D00013D05C48844210D05B4884420DD05B4801
:1009E00084420AD05A48844207D05A48844204D0EC
:1009F0004FF48D7158A00DF0DFF925B940F21B11AD
:100A000055A00DF0D9F9009828430090E061E56108
:100A10000098E061E069E069009038BD70B5054676
:100A2000424800260C46854222D0414885421FD0CC
:100A3000404885421CD04048854219D03F488542F5
:100A400016D03F48854213D03E48854210D03E48DC
:100A500085420DD03D4885420AD03D48854207D0A9
:100A60003C48854204D04FF4A4713BA00DF0A4F99A
:100A7000012C2AD0022C28D0042C26D0082C24D0DB
:100A8000102C22D0202C20D0402C1ED0802C1CD00A
:100A9000B4F5807F19D0B4F5007F16D0B4F5806F1F
:100AA00013D0B4F5006F10D0B4F5805F0DD0B4F55D
:100AB000005F0AD0B4F5804F07D0B4F5004F04D0E2
:100AC00040F2491124A00DF077F92869204200D0A6
:100AD0000126304670BD10B504461448844222D029
:100AE000134884421FD0134884421CD012488442C9
:100AF00019D01248844216D01148844213D01148AC
:100B0000844210D0104884420DD0104884420AD04C
:100B10000F48844207D00F48844204D04FF4B0718C
:100B20000DA00DF049F9206980B210BD000002400F
:100B30000004024000080240000C02400010024085
:100B40000014024000180240001C02400020024035
:100B500000240240002802402E2E5C4C6962726123
:100B600072795C5065726970686572616C5C7372F1
:100B7000635C73746D3332663478785F6770696F65
:100B80002E63000070B50546FF4800260C468542DE
:100B900023D0FE48854220D0FD4885421DD0FD4827
:100BA00085421AD0FC48854217D0FC48854214D0B3
:100BB000FB48854211D0FB4885420ED0FA48854259
:100BC0000BD0FA48854208D0F948854205D040F25A
:100BD0007311AFF27C000DF0EFF8012C2BD0022C3A
:100BE00029D0042C27D0082C25D0102C23D0202C41
:100BF00021D0402C1FD0802C1DD0B4F5807F1AD07E
:100C0000B4F5007F17D0B4F5806F14D0B4F5006F41
:100C100011D0B4F5805F0ED0B4F5005F0BD0B4F501
:100C2000804F08D0B4F5004F05D04FF4BA71AFF241
:100C3000D8000DF0C1F86869204200D00126304686
:100C400070BD10B50446D048844223D0CF488442BA
:100C500020D0CF4884421DD0CE4884421AD0CE48FE
:100C6000844217D0CD48844214D0CD48844211D05C
:100C7000CC4884420ED0CC4884420BD0CB4884422E
:100C800008D0CB48844205D040F28B11AFF2381027
:100C90000DF092F8606980B247E770B50446BA4833
:100CA0000D46844223D0B948844220D0B8488442BB
:100CB0001DD0B84884421AD0B748844217D0B748EC
:100CC000844214D0B648844211D0B64884420ED033
:100CD000B54884420BD0B548844208D0B448844219
:100CE00005D040F29F11AFF290100DF065F82DB9CC
:100CF0004FF4D071AFF2A0100DF05EF8258370BDF7
:100D000070B50446A0480D46844223D09F488442D3
:100D100020D09F4884421DD09E4884421AD09E48CD
:100D2000844217D09D48844214D09D48844211D0FB
:100D30009C4884420ED09C4884420BD09B488442FD
:100D400008D09B48844205D04FF4DA71AFF2F81016
:100D50000DF032F82DB940F2B511AFF204200DF0CC
:100D60002BF8658370BD70B50546874816460C465E
:100D7000854223D08548854220D0854885421DD0B4
:100D8000844885421AD08448854217D083488542DA
:100D900014D08348854211D0824885420ED08248C3
:100DA00085420BD08148854208D08148854205D0D4
:100DB0004FF4E571AFF260200CF0FEFF012C2BD058
:100DC000022C29D0042C27D0082C25D0102C23D07D
:100DD000202C21D0402C1FD0802C1DD0B4F5807F3A
:100DE0001AD0B4F5007F17D0B4F5806F14D0B4F5E5
:100DF000006F11D0B4F5805F0ED0B4F5005F0BD05A
:100E0000B4F5804F08D0B4F5004F05D040F2CB11B7
:100E1000AFF2BC200CF0D0FF4EB1012E05D04FF444
:100E2000E671AFF2CC200CF0C7FF2C8370BD6C8351
:100E300070BD70B5044654480D46844223D05348D3
:100E4000844220D0524884421DD0524884421AD055
:100E50005148844217D05148844214D050488442AB
:100E600011D0504884420ED04F4884420BD04F4896
:100E7000844208D04E48844205D040F2E311AFF2DC
:100E800028300CF099FF656170BD70B504463E488E
:100E90000D46844223D03D48844220D03C488442C1
:100EA0001DD03C4884421AD03B48844217D03B486E
:100EB000844214D03A48844211D03A4884420ED039
:100EC000394884420BD03948844208D0384884429B
:100ED00005D040F2F311AFF280300CF06DFF606985
:100EE0006840606170BD70B50646274815460C46DF
:100EF000864223D02548864220D0254886421DD0F0
:100F0000244886421AD02448864217D02348864275
:100F100014D02348864211D0224886420ED022485F
:100F200086420BD02148864208D02148864205D00F
:100F300040F24921AFF2E0300CF03EFF1CB3012C2F
:100F400021D0022C1FD0032C1DD0042C1BD0052C2B
:100F500019D0062C17D0072C15D0082C13D0092C2B
:100F600011D00A2C0FD00B2C0DD00C2C0BD00D2C2B
:100F700009D00E2C07D00F2C05D040F24A21AFF239
:100F800028400CF019FF15E0000002400004024068
:100F900000080240000C0240001002400014024011
:100FA00000180240001C02400020024000240240C1
:100FB000002802400DB3092D1FD0012D1DD0022D98
:100FC0001BD0032D19D0042D17D0052D15D0062DBB
:100FD00013D0072D11D0082D0FD00A2D0DD00B2DB9
:100FE0000BD00C2D09D00D2D07D00F2D05D040F2C0
:100FF0004B21AFF29C400CF0DFFE6007C10E8D402C
:10100000E00806EB8000026A0F238B409A430262DD
:10101000016A2943016270BD10B58400A4F1C04487
:1010200090B1022807D0042805D0062803D08421D7
:10103000FEA00CF0C1FE43F2D20020606FF07040C1
:101040006060C4F8040110BD4FF0204143F2DB00A2
:101050000860F3E72DE9F0410446006848B1022832
:1010600007D0042805D0062803D09F21EFA00CF05C
:10107000A3FE606828B1022803D0A021EBA00CF0E9
:101080009BFEA06838B1042805D0082803D0A12110
:10109000E6A00CF091FEE06828B1102803D0A22150
:1010A000E2A00CF089FE206930B1B0F5807F03D05A
:1010B000A321DEA00CF080FE606930B1B0F5004FD6
:1010C00003D0A421D9A00CF077FEA06930B1B0F50F
:1010D000007F03D0A521D5A00CF06EFEE06930B1F1
:1010E000B0F5806F03D0A621D0A00CF065FE206A79
:1010F00030B1B0F5006F03D0A721CCA00CF05CFE9E
:10110000606A30B1B0F5805F03D0A821C7A00CF0B1
:1011100053FEA06A30B1B0F5005F03D0A921C3A08F
:101120000CF04AFEE06A4FF4804828B1404503D0F5
:10113000AA21BEA00CF040FE206B30B1B0F5002F0C
:1011400003D0AB21B9A00CF037FE606B00680F280C
:1011500003D9AC21B5A00CF02FFE606B40680F28BE
:1011600003D9AD21B1A00CF027FE606B8068401E52
:10117000FE2803D9AE21ADA00CF01EFE606BC06846
:101180000F2803D9AF21A9A00CF016FE606B0069EF
:101190000F2803D9B021A5A00CF00EFE606B4069AA
:1011A0000F2803D9B121A1A00CF006FE606B4FF00F
:1011B00080556E0080694FF0405748B1A84207D073
:1011C000B04205D0B84203D0B22198A00CF0F4FD93
:1011D000D4E901010843D4E90312114308436169CA
:1011E0000843A1690843E1690843216A0843616A29
:1011F0000843A16A0843E16A0843216B0843216858
:101200008900A1F1C0410860A068082807D12068C2
:101210008000A0F1C040016841F040010160606BB6
:10122000D0E9001241EA021182688389120242EA7F
:1012300003421143028A41EA0251027D806941EA78
:101240000261014320688000A0F1C0404160E06A73
:1012500040454DD1A06B00680F2803D9D42173A05D
:101260000CF0AAFDA06B40680F2803D9D5216FA010
:101270000CF0A2FDA06B8068401EFE2803D9D62189
:101280006AA00CF099FDA06B00690F2803D9D72143
:1012900066A00CF091FDA06B40690F2803D9D821FE
:1012A00062A00CF089FDA06B806948B1A84207D00C
:1012B000B04205D0B84203D0D9215CA00CF07CFD2F
:1012C000A06BD0E9001241EA02118268038A12027F
:1012D00042EA03521143027D806941EA02610143FF
:1012E00020688000A0F1C040C0F80411BDE8F08182
:1012F0006FF07041F4E700210222C0E90012816022
:10130000C160016141618161D202C161C0E908121D
:101310005200C0E90A2101634F494163816370476C
:1013200070B50D4604000AD0022C08D0042C06D05B
:10133000062C04D040F20F113CA00CF03DFDA4009F
:10134000A4F1C04455B1012D04D04FF4887137A0E9
:101350000CF032FD206840F0010002E020683F49B7
:101360000840206070BD2DE9F041182740264FF05D
:1013700020444FF0FC3510280DD0B0F5807F04D00C
:1013800040F2591129A00CF017FD44F8807F6660E7
:10139000A560E560AAE727666666A566E566A5E737
:1013A00070B504460068102807D0B0F5807F04D0DF
:1013B0004FF4BD711DA00CF0FFFC606830B1022835
:1013C00004D040F27B1119A00CF0F6FCA06830B1FB
:1013D000102804D04FF4BE7114A00CF0EDFCE068AE
:1013E00030B1402804D040F27D1110A00CF0E4FC94
:1013F000206998B1B0F5003F10D0B0F5802F0DD026
:10140000B0F5C02F0AD0B0F5002F07D0B0F5202FCF
:1014100004D04FF4BF7105A00CF0CEFC6069FF282A
:1014200020D940F27F1101A01AE000002E2E5C4C62
:101430006962726172795C50657269706865726127
:101440006C5C7372635C73746D3332663478785F8E
:1014500066736D632E630000182D0108FEFF0F00F8
:101460000CF0AAFCA069FF2805D94FF4C071AFF2B7
:1014700044000CF0A1FCE0690068FF2805D940F2A7
:101480008111AFF258000CF097FCE0694068FF282A
:1014900005D94FF4C171AFF26C000CF08DFCE0691E
:1014A0008068FF2805D940F28311AFF280000CF06C
:1014B00083FCE069C068FF2805D94FF4C271AFF220
:1014C00094000CF079FC206A0068FF2805D940F2EE
:1014D0008511AFF2A8000CF06FFC206A4068FF286D
:1014E00005D94FF4C371AFF2BC000CF065FC206A63
:1014F0008068FF2805D940F28711AFF2D0000CF0C8
:101500005BFC206AC068FF2805D94FF4C471AFF2B4
:10151000E4000CF051FCD4E901010843D4E90312C2
:1015200011430843616940EA4120A16940EA413022
:1015300040F00803E069D0E9001241EA0221028983
:10154000007B120442EA00600143206A2468D0E96B
:10155000002542EA05220589007B2D0445EA00604A
:1015600002434FF02040102C04D040F8803F8160AF
:10157000C26070BD03668166C26670BD10210160E5
:10158000002141608160C160016141618161C26986
:10159000FC211160C2695160C2699160C269D16069
:1015A000026A1160026A5160026A9160006AC16059
:1015B000704770B50E460446102808D0B4F5807FF9
:1015C00005D040F2D511AFF29C100CF0F5FB4FF0B6
:1015D0002045A6B1012E05D04FF4EB71AFF2B41047
:1015E0000CF0EAFB102C05D055F8800F40F00400F9
:1015F000286070BD286E40F00400286670BDFA486F
:10160000102C04D055F8801F0140296070BD296E50
:101610000140296670BD70B50E460446102808D0FA
:10162000B4F5807F05D040F2FD11AFF200200CF040
:10163000C3FB4FF02045A6B1012E05D04FF4FF713A
:10164000AFF218200CF0B8FB102C05D055F8800F25
:1016500040F04000286070BD286E40F040002866D1
:1016600070BDE1483C38102C04D055F8801F014073
:10167000296070BD296E0140296670BD4FF0204180
:10168000102802D0D1F894007047486F70474FF08F
:101690002040182140F8A01F002141604FF0FC318C
:1016A0008160C1600161704710B50446006838B1BF
:1016B000022805D040F27621AFF290200CF07CFB9E
:1016C0006068FF2805D940F27721AFF2A0200CF026
:1016D00073FBA068FF2805D94FF41E71AFF2B42048
:1016E0000CF06AFBE0680068FF2805D940F27A2117
:1016F000AFF2C8200CF060FBE0684068FF2805D915
:1017000040F27B21AFF2DC200CF056FBE0688068F1
:10171000FF2805D94FF41F71AFF2F0200CF04CFBFD
:10172000E068C068FF2805D940F27D21AFF204309F
:101730000CF042FB20690068FF2805D940F27F21A8
:10174000AFF218300CF038FB20694068FF2805D94B
:101750004FF42071AFF22C300CF02EFB2069806822
:10176000FF2805D940F28121AFF240300CF024FB74
:101770002069C068FF2805D940F28221AFF25430B9
:101780000CF01AFB60690068FF2805D940F283213C
:10179000AFF268300CF010FB60694068FF2805D993
:1017A0004FF42171AFF27C300CF006FB6069806869
:1017B000FF2805D940F28521AFF290300CF0FCFAF9
:1017C0006069C068FF2805D940F28621AFF2A430D5
:1017D0000CF0F2FAD4E9000140EA4120A16810229D
:1017E00042EA413108434FF0204141F8A00FE06840
:1017F000D0E9002342EA03220389007B1B0443EA69
:10180000006002438A602069D0E9002342EA032293
:101810000389007B1B0443EA00600243CA606069DD
:10182000D0E9002342EA03220389007B1B0443EA38
:10183000006002430A6110BD0021016041608160C7
:10184000C268FC211160C2685160C2689160C268C0
:10185000D160026911600269516002699160026998
:10186000D16042691160426951604269916040698A
:10187000C160704710B54FF0204460B1012805D019
:1018800040F2C321AFF25C400CF096FA54F8A00F7E
:1018900040F0040003E054F8A00F534908402060D2
:1018A00010BD2DE9F04190460C4605464FF4807777
:1018B00010280AD0BD4208D0B5F5805F05D040F2AF
:1018C000F221AFF298400CF077FA34F0380000D1F2
:1018D0002CB940F2F321AFF2AC400CF06DFA4FF0AE
:1018E0002046B8F1000F17D0B8F1010F05D04FF422
:1018F0003D71AFF2C8400CF05FFA102D04D0BD422C
:1019000005D156F8840F04E0706E20430DE056F8C0
:10191000A40F20433060E9E4102D04D0BD4206D16D
:1019200056F8840F05E0706EA0437066DEE456F84A
:10193000A40FA043EEE72DE9F04100260C46054632
:101940004FF4807710280AD0BD4208D0B5F5805FEB
:1019500005D040F23231AFF22C500CF02DFA012CB0
:101960000BD0022C09D0042C07D0402C05D040F21B
:101970003331AFF248500CF01FFA4FF02040102DD9
:1019800004D0BD4204D1D0F8840003E0406E01E0F1
:10199000D0F8A400204200D001263046A6E470B55D
:1019A0000C4605464FF4807610280AD0B54208D080
:1019B000B5F5805F05D040F26131AFF290500CF088
:1019C000FBF9E00800D12CB940F26231AFF2A4502B
:1019D0000CF0F2F94FF02040102D07D0B54209D19C
:1019E00050F8841F08E00000FBFF0F00416EA14388
:1019F000416670BD50F8A41FA143016070BD2DE980
:101A0000F04100260C4605464FF4807710280AD096
:101A1000BD4208D0B5F5805F05D040F28731AFF206
:101A2000F4500CF0C9F9082C09D0102C07D0202C48
:101A300005D04FF46271AFF20C600CF0BDF94FF0BD
:101A40002040102D04D0BD4204D1D0F8840003E022
:101A5000406E01E0D0F8A400204200EAD40201D098
:101A600002B10126304641E470B50C4605464FF4FC
:101A7000807610280AD0B54208D0B5F5805F05D031
:101A800040F2B731AFF25C600CF096F934F03800F8
:101A900000D12CB94FF46E71AFF270600CF08CF97C
:101AA0004FF02040102D04D0B54207D150F8841FCC
:101AB00006E0416E21EAD401416670BD50F8A41FD2
:101AC00021EAD401016070BD10B50446A0F5AA401A
:101AD000553804D01CB1872121A00CF06DF92B489A
:101AE000046010BD10B504000FD0012C0DD0022CE5
:101AF0000BD0032C09D0042C07D0052C05D0062CC4
:101B000003D09B2116A00CF057F92048446010BD6B
:101B100010B50446B0F5805F03D3A82110A00CF0E7
:101B20004BF91A48846010BD18494AF6AA2008608B
:101B3000704716494CF6CC400860704770B50025D8
:101B40000446012805D0022C03D0ED2104A00CF09E
:101B500033F90E48C068204200D00125284670BDE8
:101B60002E2E5C4C6962726172795C50657269708C
:101B7000686572616C5C7372635C73746D3332663A
:101B80003478785F697764672E6300000030004026
:101B9000F648016841F001010160F44A0021083271
:101BA00011600268F24B1A400260031DF14A1A608C
:101BB000EE4BF14A84331A60EE4A103A1B1D1A604C
:101BC000026822F480220260E8480C300160181D8F
:101BD0000160704710B5040008D0012C06D0052C18
:101BE00004D04FF48571E5A00CF0E6F8DF48002141
:101BF000801C0170047010BD70B5002504462128BA
:101C00001ED0312C1CD0392C1AD0412C18D0612C6C
:101C100016D0792C14D07A2C12D07B2C10D07C2C9E
:101C20000ED07D2C0CD07E2C0AD07F2C08D03B2CE3
:101C300006D03D2C04D040F68D01D0A00CF0BCF8AD
:101C4000600901280DD002280DD0C8487430006802
:101C500004F01F0101228A40024200D001252846DB
:101C600070BDC248F3E7C1487030F0E738B50020D6
:101C70004FF4A04400903120FFF7BEFF0099491CAB
:101C80000091A14201D00028F5D03120FFF7B4FF28
:101C9000002800D0012038BD10B504461F2804D903
:101CA0004FF4A171B5A00CF087F8B049086820F096
:101CB000F80040EAC400086010BD10B5040006D06A
:101CC000012C04D040F26511ACA00CF075F8B648B8
:101CD000046010BD10B5040008D0012C06D0042CFF
:101CE00004D04FF4BF71A5A00CF066F89F48002106
:101CF000703001700170012C04D0042C01D1052139
:101D0000017010BD0121FBE710B5040006D0012CC5
:101D100004D04FF4D37199A00CF04EF8A34804609E
:101D200010BD2DE9F0411C46DDF8188016460F461F
:101D3000050007D0B5F5800F04D040F2D1118FA077
:101D40000CF03AF83F2F04D94FF4E9718BA00CF056
:101D500033F8A6F1C000F02804D940F2D31187A0CF
:101D60000CF02AF8022C0AD0042C08D0062C06D03D
:101D7000082C04D04FF4EA7180A00CF01DF8A8F1F3
:101D800004000B2804D940F2D5117CA00CF014F803
:101D9000874A610847EA861002EB0141084373490C
:101DA0002843091D40EA08600860BDE8F08110B5CD
:101DB000040006D0012C04D04FF4F4716FA00BF096
:101DC000FBFF7948046610BD70B50546C0380C4667
:101DD000F02804D940F2062168A00BF0EDFFA01E08
:101DE000052804D940F2072164A00BF0E5FF5F4904
:101DF000A801843140EA0470086070BD10B5040089
:101E000006D0012C04D040F261215CA00BF0D4FF7D
:101E10006548846610BD70B50546C03814460E4648
:101E2000F02804D940F27E2154A00BF0C5FFA01E7B
:101E3000052804D940F27F2150A00BF0BDFFA80176
:101E40004A4940EA0660883140EA0470086070BD83
:101E500010B5040006D0012C04D04FF4247147A023
:101E60000BF0AAFF5048046710BD10B5040006D05F
:101E7000012C04D040F2A22140A00BF09DFF4A4863
:101E8000C46410BD70B50C4605000DD0B5F5001F3B
:101E90000AD0B5F5800F07D0B5F5C00F04D040F2D9
:101EA000BD2136A00BF088FF84B1B4F1806F0DD056
:101EB000B4F1A06F0AD0B4F1C06F07D0B4F1E06FF5
:101EC00004D040F2BE212DA00BF076FF2749083147
:101ED0000868254320F0EC6005430D6070BD70B5C7
:101EE0000C4605000DD0B5F1804F0AD0B5F1004F7A
:101EF00007D0B5F1404F04D040F2E3211FA00BF012
:101F00005BFF84B1B4F1005F0DD0B4F1205F0AD063
:101F1000B4F1405F07D0B4F1605F04D04FF4397181
:101F200016A00BF049FF114908310868254320F03D
:101F3000784005430D6070BD10B5040008D0012C39
:101F400006D0022C04D040F2A6310CA00BF034FFD6
:101F500006490831086820F003002043086010BDDE
:101F600002480830006800F00C007047003802405A
:101F7000FFFFF6EA10300024003000202E2E5C4CCB
:101F80006962726172795C506572697068657261CC
:101F90006C5C7372635C73746D3332663478785F33
:101FA0007263632E6300000000004742800E4742C8
:101FB0000000FFFF10B5040015D0802C13D0902C2A
:101FC00011D0A02C0FD0B02C0DD0C02C0BD0D02C09
:101FD00009D0E02C07D0F02C05D040F2DB31AFF275
:101FE00064000BF0E9FEFE49086820F0F000204391
:101FF000086010BD10B5040011D0B4F5805F0ED09C
:10200000B4F5A05F0BD0B4F5C05F08D0B4F5E05FC5
:1020100005D040F2FB31AFF29C000BF0CDFEF04951
:10202000086820F4E0502043086010BD10B504009B
:1020300011D0B4F5805F0ED0B4F5A05F0BD0B4F52D
:10204000C05F08D0B4F5E05F05D040F21A41AFF2AE
:10205000D4000BF0B1FEE249086820F4604040EA89
:10206000C400086010BD70B5DD4B1968DD4C11F07F
:102070000C0104D06610042903D0082903D00460A1
:102080001BE0066019E0D64A121F1168C1F38055A3
:10209000116801F03F0115B1B6FBF1F101E0B4FBAD
:1020A000F1F114681268C4F388146143C2F3014269
:1020B000521C5200B1FBF2F1016019680F2202EAD2
:1020C0001111C94A545C0168E14041601C68072550
:1020D00005EA9424145D21FA04F484601B6805EA7F
:1020E0005333D25CD140C16070BD10B50446B0F529
:1020F000807F62D0B4F5007F5FD0BC4884425CD062
:10210000BB48844259D0BB48844256D0BA48844226
:1021100053D0BA48844250D0B94884424DD0B948CF
:1021200084424AD0B848844247D0B848844244D018
:10213000B748844241D0B74884423ED0B648844232
:102140003BD0B648844238D0B548844235D0B548F3
:10215000844232D0B44884422FD0B44884422CD038
:10216000B348844229D0B348844226D0B24884423E
:1021700023D0B248844220D0B14884421DD0B14817
:1021800084421AD0B048844217D0B048844214D058
:10219000AF48844211D0AF4884420ED0AE4884424A
:1021A0000BD0AE48844208D0AD48844205D040F2FE
:1021B000CB41AFF238200BF0FFFDC4F30120032820
:1021C00008D1874A1068A74B20F4F81104EA0300ED
:1021D00008431060824868300168C4F30B02114361
:1021E000016010BD10B5040007D0012C05D040F2ED
:1021F000E941AFF278200BF0DFFD9B48046010BD91
:1022000010B5040007D0012C05D040F2FA41AFF21E
:1022100094200BF0D1FD9448001D046010BD10B552
:10222000040007D0012C05D040F20B51AFF2B420CE
:102230000BF0C2FD8D48C0F85C4110BD10B5441EC6
:102240001F2C05D940F22251AFF2D0200BF0B4FD83
:1022500063498431086820F01F002043086010BDE6
:1022600010B50446401E1F2805D940F24251AFF276
:10227000F4200BF0A1FD5A4A843210686FF0FF0180
:1022800020F4F85001EB04210143116010BD10B59A
:102290000446B0F5801F09D044B1B4F5001F05D045
:1022A00040F26651AFF22C300BF086FD4C49843180
:1022B000086820F440102043086010BD10B50446A3
:1022C000B0F5800F09D044B1B4F5000F05D040F24D
:1022D0008A51AFF258300BF06FFD414984310868E4
:1022E00020F440002043086010BD10B504000ED05B
:1022F000B4F5803F0BD0B4F5003F08D0B4F5403FB3
:1023000005D040F2AB51AFF28C300BF055FD3449A3
:102310008431086820F440302043086010BD10B5B7
:10232000040007D0012C05D040F2CE51AFF2B430FA
:102330000BF042FD4E48C0F8E04110BD70B50446B8
:102340004C480D46044200D12CB940F2F951AFF28D
:10235000D4300BF031FD224E283655B1012D05D079
:1023600040F2FB51AFF2EC300BF026FD3068204319
:1023700001E03068A043306070BD70B504460D4682
:1023800030F0F10000D12CB940F21961AFF21440E5
:102390000BF012FD124E2C3655B1012D05D040F236
:1023A0001A61AFF228400BF007FD3068204301E0CE
:1023B0003068A043306070BD70B504460D464008DB
:1023C00000D12CB940F23561AFF250400BF0F4FC73
:1023D000034E303615B1012D54D04DE055E00000CC
:1023E000083802400024F40000000020000302002E
:1023F00000030300000304000003050000030600BF
:1024000000030700000308000003090000030A009E
:1024100000030B0000030C0000030D0000030E007E
:1024200000030F000003100000031100000312005E
:10243000000313000003140000031500000316003E
:1024400000031700000318000003190000031A001E
:1024500000031B0000031C0000031D0000031E00FE
:1024600000031F00FFFCFF0F3C0E474200004742E5
:102470000010474200E80B8140F23661AFF2045091
:102480000BF09AFC3068204301E03068A0433060D4
:1024900070BD70B50446EB480D46044200D12CB91E
:1024A00040F26961AFF22C500BF086FCE64E55B15C
:1024B000012D05D040F26A61AFF240500BF07CFC78
:1024C0003068204301E03068A043306070BD70B5D3
:1024D0000446DE480D46044200D12CB940F2966114
:1024E000AFF268500BF068FCD74E361D55B1012D88
:1024F00005D040F29761AFF27C500BF05DFC306884
:10250000204301E03068A043306070BD70B50446E0
:10251000CF480D46044200D12CB94FF4D861AFF238
:10252000A4500BF049FCC84E303E55B1012D05D0EA
:1025300040F2C161AFF2BC500BF03EFC306820436A
:1025400001E03068A043306070BD70B504460D46B0
:1025500030F0F10000D12CB940F2DD61AFF2E4506F
:102560000BF02AFCB84E2C3E55B1012D05D040F29F
:10257000DE61AFF2F8500BF01FFC3068204301E041
:102580003068A043306070BD70B504460D46400809
:1025900000D12CB940F2F661AFF220600BF00CFCD8
:1025A000A94E283E55B1012D05D040F2F761AFF29A
:1025B00034600BF001FC3068204301E03068A04338
:1025C000306070BD70B504469E480D46044200D18F
:1025D0002CB940F22771AFF25C600BF0EDFB9A4E24
:1025E000203E55B1012D05D04FF4E561AFF2746086
:1025F0000BF0E2FB3068204301E03068A04330601C
:1026000070BD70B5044693480D46044200D12CB904
:102610004FF4EA61AFF29C600BF0CEFB8A4E1C3E99
:1026200055B1012D05D040F25171AFF2B0600BF001
:10263000C3FB3068204301E03068A043306070BDC8
:1026400070B5044684480D46044200D12CB940F2CE
:102650008171AFF2D8600BF0AFFB7B4E103655B1F5
:10266000012D05D040F28271AFF2F0600BF0A4FBB7
:102670003068204301E03068A043306070BD70B521
:1026800004460D4630F0F10000D12CB940F2A171A2
:10269000AFF218700BF090FB6B4E143655B1012D54
:1026A00005D040F2A271AFF22C700BF085FB3068C0
:1026B000204301E03068A043306070BD70B504462F
:1026C0000D46400800D12CB940F2BD71AFF25470F4
:1026D0000BF072FB5C4E183655B1012D05D040F25F
:1026E000BE71AFF268700BF067FB3068204301E009
:1026F0003068A043306070BD70B5044651480D4647
:10270000044200D12CB940F2F171AFF290700BF09D
:1027100053FB4D4E203655B1012D05D040F2F271DC
:10272000AFF2A8700BF048FB3068204301E030683E
:10273000A043306070BD70B5044644480D46044265
:1027400000D12CB940F61E01AFF2D0700BF034FB73
:102750003D4E243655B1012D05D040F61F01AFF294
:10276000E4700BF029FB3068204301E03068A0439F
:10277000306070BD10B5344C303438B101280AD007
:1027800040F63601AFF60C000BF016FB206820F087
:102790000800206010BD206840F00800F9E770B51F
:1027A00004460D46000600D42CB940F66401AFF68D
:1027B00034000BF001FB244E333E55B1012D05D002
:1027C00040F66501AFF64C000BF0F6FA3078204386
:1027D00001E03078A043307070BD1B483430016890
:1027E00041F080710160704770B5002504460128F2
:1027F00013D0022C11D0042C0FD0082C0DD0102C8B
:102800000BD0802C09D0402C07D0202C05D040F6CE
:10281000CC01AFF698000BF0CFFA0B4834380068C3
:10282000204200D00125284670BD10B5040005D116
:1028300040F6EC01AFF6BC000BF0BEFA02483238AD
:10284000047010BD0036010940380240CC8088FB7E
:1028500000E81FDDCC8688FB0068108118B50020D9
:10286000FF4B0090CA20186053201860FC491839AB
:10287000086820F0A00008604FF400340868009A4F
:1028800000F02000521C0092A24201D00028F5D096
:102890000868800601D5012000E00020FF211960B2
:1028A00018BD08B5EE4900201839009008684006A8
:1028B00012D44FF0FF3008608B130868009A00F0C4
:1028C0004000521C00929A4201D00028F5D00868BE
:1028D000400601D4002008BD012008BD78B50024C1
:1028E000DF4ECA2000942546306053203060FFF749
:1028F000D8FFE0B3DA4824380460D94942F2011025
:10290000203908600B1D186800F0070018608D134F
:102910001A1D1068009900F00400491C0091A9429A
:1029200001D00028F5D01068400729D518681C6030
:10293000CB494FF6FF7010390860091FC94808607D
:10294000C7480C380460001D0460001D0460C448C2
:1029500008300460C24818300460C1482030046068
:10296000001D04601460BE481C30046000E003E0F9
:10297000FFF774FF20B10125FF203060284678BDA5
:102980000025F9E7B6481838016821F08001016098
:10299000704770B5044600680025402805D020B176
:1029A0004FF4E771B0A00BF007FA60687F2804D9F4
:1029B00040F2CF11ACA00BF0FFF9A068B0F5004FCA
:1029C00004D34FF4E871A8A00BF0F6F9A44ECA2086
:1029D000306053203060FFF764FFA8B1A0481C3876
:1029E000016821F040010160016822681143016023
:1029F0009B48A168143801600168A28841EA02413D
:102A00000160FFF7BFFF0125FF203060284670BD41
:102A1000002101607F214160FF218160704710B576
:102A20008F4C40B1012804D04FF404718EA00BF0FC
:102A3000C3F9FF2002E0CA2020605320206010BDAF
:102A400070B504004FF0000506D0012C04D040F210
:102A50009B2185A00BF0B0F9814ECA203060532035
:102A60003060FFF71EFF60B17D481C38016814B16B
:102A700041F0100101E021F010010160FFF782FF39
:102A80000125FF203060284670BD10B5040006D037
:102A9000012C04D040F2C92173A00BF08DF97049CC
:102AA000CA200860532008606D481C38026814B1C1
:102AB00042F0200201E002F0DF020260FF20086025
:102AC00010BD2DE9F0410026654F0C4635461C3FF0
:102AD000E0B1012804D040F2033163A00BF06CF99F
:102AE0003868400669D5207801F085F8401E0B282B
:102AF00004D940F219315CA00BF05EF9E0780028AF
:102B000066D0402864D040F21A315EE03868400652
:102B10000FD52078401E0B2804D940F2093152A06D
:102B20000BF04AF9E07868B140280BD040F20A3146
:102B300005E0E5702078172804D940F20F314AA04B
:102B40000BF03AF960783B2804D940F2113146A0E5
:102B50000BF032F9A0783B2804D940F2123142A0A0
:102B60000BF02AF9207801F03AF80504607801F0BA
:102B700036F845EA0025A07801F031F80543E07801
:102B800045EA0045364CCA20206053202060FFF7FC
:102B900088FE68B13F480540314824380560FFF79A
:102BA000F1FE3868800602D4FFF758FE00B1012616
:102BB000FF2020603046BDE8F081E570207801F00C
:102BC0001AF8172804D940F21F3127A00BF0F4F8A7
:102BD000607801F010F83B2804D940F2213122A09E
:102BE0000BF0EAF8A07801F006F83B2804D940F28F
:102BF00022311DA00BF0E0F8A078217840EA0145D1
:102C00006078E178000240EA01400543BAE700211C
:102C1000C170017041708170704770B50C4605003D
:102C200006D0012D04D04FF45F710FA00BF0C4F853
:102C30000B482438016817480140C1F30540207053
:102C4000C1F30622627001F07F02A270402202EA04
:102C50001141E170002D27D100F0CDFF20701BE065
:102C600024280040FF007F002E2E5C4C69627261B8
:102C700072795C5065726970686572616C5C7372C0
:102C8000635C73746D3332663478785F7274632E6C
:102C9000630000007F7F7F00607800F0ACFF607011
:102CA000A07800F0A8FFA07070BDF7480068F64952
:102CB00024390968704770B50C4605004FF00006CE
:102CC0004BD0012D05D040F2B731AFF264000BF0CC
:102CD00073F8E07800F08FFF632805D940F2C53122
:102CE000AFF27C000BF068F8607800F084FF401EC3
:102CF0000B2805D940F2C731AFF294000BF05CF815
:102D0000A07800F078FF401E1E2805D940F2C93196
:102D1000AFF2AC000BF050F82178012911D0022954
:102D20000FD003290DD004290BD0052909D006297D
:102D300007D0072905D040F2CB31AFF2D4000BF019
:102D40003BF85DB3A078E17840EA014560782178EE
:102D5000000240EA4130054330E06078C10603D507
:102D600020F010000A306070E078632805D940F246
:102D7000BF31AFF20C100BF01FF86078401E0B282B
:102D800005D94FF47071AFF220100BF015F8A07850
:102D9000401E1E28C0D940F2C131B9E7E07800F0EA
:102DA0001EFF0504607800F01AFF45EA0025A078B0
:102DB00000F015FF0543207845EA4035B24CCA20A3
:102DC000241F206053202060FFF76BFD78B1AF48CF
:102DD0000540AD4824380560FFF7D4FDAA482038E7
:102DE0000068800602D4FFF739FD00B10126FF20FC
:102DF0002060304670BD012101708170417000215A
:102E0000C170704770B50C46050007D0012D05D084
:102E100040F22441AFF2B0100AF0CEFF9A482438B5
:102E200001689A480140080CE070C1F30422627006
:102E300001F03F02A270C1F342312170002D0AD18E
:102E400000F0D9FEE070607800F0D5FE6070A078E8
:102E500000F0D1FEA07070BD2DE9F04114460D4682
:102E6000070007D0012F05D04FF48C61AFF2082086
:102E70000AF0A2FF4FF48076B54208D0B5F5007F86
:102E800005D040F26141AFF220200AF095FF606862
:102E900010F07F3F05D040F26241AFF234200AF0DB
:102EA0008BFFA06840B1B0F1804F05D040F2634184
:102EB000AFF24C200AF080FF7349002020390968E6
:102EC0004FEA4161AFB1002961DA207800F093FE4A
:102ED000401E0B2805D940F28241AFF274200AF05F
:102EE0006BFFE07800285ED040285CD040F2834140
:102EF00055E0002910DA2078401E0B2805D940F251
:102F00006941AFF29C200AF057FFE07870B1402889
:102F10000CD040F26A4105E0E0702078172805D90E
:102F200040F26F41AFF2C0200AF046FF60783B28C4
:102F300005D940F27141AFF2D0200AF03DFFA078F0
:102F40003B2805D940F27241AFF2E4200AF034FF89
:102F5000A0680028207B14D001286AD0022868D0FD
:102F6000032866D0042864D0052862D0062860D0E3
:102F700007285ED040F27A41AFF214300AF01CFF0D
:102F800057E0401E1E2854D940F27641F4E7E07025
:102F9000207800F030FE172805D94FF49161AFF288
:102FA00038300AF009FF607800F025FE3B2805D98B
:102FB00040F28B41AFF250300AF0FEFEA07800F0F4
:102FC0001AFE3B2805D940F28C41AFF264300AF07A
:102FD000F3FEA0680028207B23D000F00CFE01281F
:102FE00011D002280FD003280DD004280BD00528BB
:102FF00009D0062807D0072805D040F29641AFF245
:1030000098300AF0D9FEA0782178E27840EA0140B1
:103010006178090241EA02410843217B40EA0160EC
:103020001CE000F0E8FD401E1E28ECD940F2914162
:10303000E5E7207800F0D3FD0704607800F0CFFDCD
:1030400047EA0027A07800F0CAFD0743E07847EA86
:103050000047207B00F0C3FD47EA0060A168CA2258
:103060000843616808430849091F0A6053220A603F
:10307000B54202D1044A0C3A01E0034A083A106012
:10308000FF20086097E50000282800403FFFFF0070
:103090000021C17001704170817001228160027352
:1030A0004160704770B514460E46050007D0012DEB
:1030B00005D040F2ED41AFF250400AF07DFEB6F58A
:1030C000807F32D0B6F5007F05D040F2EE41AFF2FE
:1030D00068400AF071FEFA480168C1F305402070AB
:1030E000C1F30622627001F07F02A270402202EA60
:1030F0001142E270C1F30562227301F0804201F0D7
:103100008031C4E90112002D0ED100F074FD207051
:10311000607800F070FD6070A07800F06CFDA07029
:10312000207B00F068FD207370BDE548001FD3E7E9
:1031300038B5044600200D4614F4407F009005D1B8
:1031400040F22551AFF2E0400AF036FE3DB1012DCC
:1031500005D040F22651AFF2F0400AF02DFED84BD8
:10316000CA201B1D186053201860D5481838016804
:1031700015B12143016012E0A1430160D049143927
:103180008D130868009A00EA1420521C0092AA428B
:1031900001D00028F5D0086810EA142000D00120E2
:1031A000FF21196038BD2DE9F0414FF480771446B6
:1031B0000D460646B84208D0B6F5007F05D040F26D
:1031C0008151AFF25C500AF0F7FDB5F5004F05D321
:1031D00040F28251AFF270500AF0EEFD94B3B4F1B8
:1031E000807F2FD0B4F1007F2CD0B4F1407F29D064
:1031F000B4F1806F26D0B4F1A06F23D0B4F1C06FCA
:1032000020D0B4F1E06F1DD0B4F1006F1AD0B4F14A
:10321000106F17D0B4F1206F14D0B4F1306F11D00B
:10322000B4F1406F0ED0B4F1506F0BD0B4F1606FB9
:1032300008D0B4F1706F05D040F28351AFF2D8508E
:103240000AF0BAFD9E48CA21001D016053210160A9
:103250002543BE4202D19A49243101E098492831E0
:103260000D60FF210160A6E4B0F5807F05D0944891
:1032700028300068C0F30E00704791482430F8E70A
:1032800010B504000FD0012C0DD0022C0BD0032C54
:1032900009D0042C07D0062C05D040F2D951AFF24A
:1032A00038600AF089FD8649CA20091D086053204C
:1032B000086083481838026822F00702026002683A
:1032C00022430260FF20086010BD10B50446B0F52F
:1032D000803F05D340F2F451AFF274600AF06CFD08
:1032E0007749CA20091D08605320086074480C38CB
:1032F0000460FF20086010BD71480C38006880B27F
:10330000704738B504004FF00000009007D0012C42
:1033100005D040F21961AFF2B0600AF04DFD684B84
:10332000CA201B1D186053201860654818380168B2
:103330001CB141F48061016014E021F480610160FE
:103340005F4914398C130868009A00F00400521C7D
:103350000092A24201D00028F5D00868400701D4AD
:10336000002000E00120FF21196038BD70B50D4636
:103370000446B0F5003F08D0B4F5803F05D040F2D8
:103380006261AFF21C700AF017FD45B1B5F5802FF0
:1033900005D040F26361AFF230700AF00DFD48498C
:1033A000CA20091D08605320086045481838026883
:1033B00022F48022026002682C4322430260FF2034
:1033C000086070BD3E481838006800F480207047DF
:1033D00070B50D4604000ED0B4F5001F0BD0B4F547
:1033E000800F08D0B4F5C00F05D040F2A461AFF251
:1033F00088700AF0E1FC45B1B5F5801F05D040F2B8
:10340000A561AFF29C700AF0D7FC2D49CA20091DB6
:103410000860532008602A481838026822F4E00245
:10342000026002682C4322430260FF20086070BDE6
:103430002DE9F0410E4604004FF0000507D0802C26
:1034400005D040F2DC61AFF2E0700AF0B5FC202E4E
:1034500005D340F2DD61AFF2F0700AF0ADFC184F19
:10346000CA203F1D386053203860FFF71AFA30B188
:103470001348344308380460FFF784FA0125FF201D
:1034800038602846FEE570B504004FF0000507D00F
:10349000012C05D040F20571AFF634000AF08CFC27
:1034A000074ECA20361D306053203060FFF7F9F90F
:1034B00070B103481838016824B141F0800103E07D
:1034C0002028004021F080010160FFF75BFA012510
:1034D000FF203060284670BD10B5040007D0012CD5
:1034E00005D040F23171AFF680000AF065FCF74973
:1034F000CA20086053200860F4481C38026814B1E0
:1035000042F4000201E022F400020260FF200860A1
:1035100010BD10B5040008D0B4F5002F05D040F25E
:103520005171AFF6BC000AF047FCE849CA200860B8
:1035300053200860E5481C38026822F4002202602B
:10354000026822430260FF20086010BD2DE9F041AF
:1035500017460E4605004FF000040BD0B5F5005F8E
:1035600008D0B5F5804F05D040F27A71AFF608105B
:103570000AF022FCB6F5004F06D02EB140F27B7166
:10358000AFF61C100AF018FCB7F5007F05D340F227
:103590007C71AFF62C100AF00FFCCC49CA200860F1
:1035A00053200860C94818380268D20308D54FF480
:1035B00000320368DB0303D5944201D0641CF8E7B2
:1035C0000068C00306D43543C0483D431830056049
:1035D000012000E00020FF220A6053E570B50D468F
:1035E000040007D0082C05D040F2C371AFF6881054
:1035F0000AF0E2FB3DB1012D05D040F2C471AFF6F7
:1036000098100AF0D9FBB14A1C3A106840F608013C
:10361000884340EA04000DB140F40060AB49CA237E
:103620000B6053230B601060FF20086070BD70B505
:1036300014460D46060007D0012E05D04FF4FE615A
:10364000AFF6DC100AF0B8FBA0480C300168A048C7
:1036500001409E48103000684FF63F721040C1F3A1
:1036600005422A70C1F306226A7001F07F02AA7037
:10367000402202EA1141E9700021E170C0F3042107
:10368000617000F03F01A170C0F342302070002E45
:1036900017D1287800F0AFFA2870687800F0ABFAFC
:1036A0006870A87800F0A7FAA870607800F0A3FA14
:1036B0006070A07800F09FFAA070207800F09BFA6C
:1036C000207070BD814814300068704770B50D4699
:1036D0000446012805D040F63C01AFF674200AF0FC
:1036E0006BFB7A4E1C3665B1012D05D040F63D01CD
:1036F000AFF68C200AF060FB306840EA440030608E
:1037000070BD306820EA4400F9E770B50D46044604
:10371000012805D040F65601AFF6B4200AF04CFB64
:103720006A4E1C3655B1012D05D040F65701AFF653
:10373000C8200AF041FB3068204301E03068A04314
:10374000306070BD10B504000ED0B4F5006F0BD022
:10375000B4F5805F08D0B4F5C05F05D040F67501C0
:10376000AFF6FC200AF028FB58481C30016821F411
:10377000C051016001682143016010BD10B5040013
:103780001AD0B4F5807F17D0B4F5007F14D0B4F50B
:10379000407F11D0B4F5806F0ED0B4F5A06F0BD080
:1037A000B4F5C06F08D0B4F5E06F05D040F69701CE
:1037B000AFF64C300AF000FB44481C30016821F49D
:1037C000E061016001682143016010BD10B5040093
:1037D0000ED0B4F5005F0BD0B4F5804F08D0B4F52F
:1037E000C04F05D040F6AE01AFF684300AF0E4FADF
:1037F00036481C30016821F4C04101600168214352
:10380000016010BD10B5314C1C3458B1012805D0F1
:1038100040F6C201AFF6B0300AF0CEFA206840F0B0
:10382000800002E0206820F08000206010BD10B50C
:10383000264C1C3458B1012805D040F6D901AFF60A
:10384000D8300AF0B9FA206820F4004002E020687D
:1038500040F40040206010BD38B504004FF0000077
:103860000D4600902BD0012C29D0022C27D0032C00
:1038700025D0042C23D0052C21D0062C1FD0072CBA
:103880001DD0082C1BD0092C19D00A2C17D00B2CBA
:1038900015D00C2C13D00D2C11D00E2C0FD00F2CBA
:1038A0000DD0102C0BD0112C09D0122C07D0132CBA
:1038B00005D040F60411AFF650400AF07DFA0348F7
:1038C0002C3000EB84000090056038BD24280040B7
:1038D0007F7F7F0038B504004FF0000000902BD0B0
:1038E000012C29D0022C27D0032C25D0042C23D046
:1038F000052C21D0062C1FD0072C1DD0082C1BD046
:10390000092C19D00A2C17D00B2C15D00C2C13D045
:103910000D2C11D00E2C0FD00F2C0DD0102C0BD045
:10392000112C09D0122C07D0132C05D040F61911F8
:10393000AFF6CC400AF040FAB34800EB84000090A8
:10394000006838BD10B5040008D0B4F5803F05D03C
:1039500040F63E11AFF6F0400AF02EFAAA481038B1
:10396000016821F48031016001682143016010BDCC
:1039700010B5040008D0B4F5003F05D040F64F1153
:10398000AFF61C500AF018FA9F481038016821F46D
:103990000031016001682143016010BD10B50400D1
:1039A00008D0B4F5802F05D040F66211AFF648502C
:1039B0000AF002FA94481038016821F4802101606D
:1039C00001682143016010BD2DE9F0410E4605005C
:1039D0004FF0000408D0B5F1004F05D040F68B1130
:1039E000AFF67C500AF0E8F9B6F5004F05D340F683
:1039F0008C11AFF68C500AF0DFF9834FCA202C3FB0
:103A0000386053203860804844380168090707D57A
:103A100082140168090703D5944201D0641CF8E7B9
:103A2000006800070DD4784848380068C00608D4FC
:103A300075482E4324380660FEF710FF10B10120B0
:103A400000E00020FF2139600DE470B50D46040050
:103A500004D04FF2040134EA010005D04FF4206194
:103A6000AFF6FC500AF0A8F93DB1012D05D040F6A3
:103A70000121AFF60C600AF09FF9634ECA202C3E7C
:103A8000306053203060604A24F00400483A5E4BB6
:103A900004F004011468103B25B104431460186855
:103AA000084303E084431460186888431860FF20CB
:103AB000306070BD70B500250446B0F5805F23D03E
:103AC000B4F5006F20D0B4F5806F1DD0B4F5007F41
:103AD0001AD0B4F5807F17D0402C15D0202C13D0ED
:103AE000042C11D0022C0FD0012C0DD0B4F5005FA6
:103AF0000AD0B4F5803F07D0082C05D040F633211A
:103B0000AFF69C600AF058F93F48443800683F49D6
:103B10000840204200D00125284670BD10B50400A1
:103B200004D04FF6207034EA000005D040F654214E
:103B3000AFF6CC600AF040F9A0B240F08000C1437B
:103B400031484438026802F080021143016010BD20
:103B500070B500250446B0F5004F11D0B4F5804F84
:103B60000ED0B4F5005F0BD0B4F5805F08D0B4F58B
:103B7000003F05D040F66B21AFF614700AF01CF937
:103B800021481038006800F004011F4848380068D8
:103B900001EAD431204008431D49096801EA1411A3
:103BA00003D00804000C00D00125284670BD10B5D4
:103BB000040002D034F43C3005D040F69221AFF638
:103BC00058700AF0F9F8C4F30F1040F08000C143B8
:103BD0000F48026802F080021143016010BD00210D
:103BE00003E0491C0A38C9B2C0B20A28F9D2090751
:103BF00040EA11607047010901EB810100F00F00FC
:103C000000EB4100C0B27047502800407F3F0100E8
:103C10000C28004010B501218C032046FEF7F1FC72
:103C20002046BDE810400021FEF7EBBC10B50400B3
:103C300009D0012C07D0032C05D0022C03D0792108
:103C400042A00AF0B9F84D48046010BD10B5040058
:103C500005D0012C03D08E213CA00AF0ADF84848D5
:103C6000046210BD70B50C46050017D0012D15D0AB
:103C7000022D13D0032D11D0042D0FD0052D0DD002
:103C8000062D0BD0072D09D0082D07D0092D05D002
:103C90000A2D03D0A7212DA00AF08EF80CB3012C19
:103CA0001FD0022C1DD0032C1BD0042C19D0052CA6
:103CB00017D0062C15D0072C13D0082C11D0092CA6
:103CC0000FD00A2C0DD00B2C0BD00C2C09D00D2CA6
:103CD00007D00E2C05D00F2C03D0A8211BA00AF072
:103CE0006BF8A007010F274824F0030318440F22A4
:103CF000D0F808388A409343C0F80838D0F808282C
:103D00008D402A43C0F8082870BD10B5040005D0C6
:103D1000012C03D0B9210DA00AF04EF81848C0F8C4
:103D2000DC4010BD10B5040005D0012C03D0CB2120
:103D300006A00AF041F81448046010BD0F490020A5
:103D400020310968C90500D5012070472E2E5C4C32
:103D50006962726172795C506572697068657261DE
:103D60006C5C7372635C73746D3332663478785F45
:103D70007379736366672E630000000000380140AA
:103D80000000274200300140000427422DE9F05F87
:103D9000FD4DFE4EFE4FDFF8FC83DFF8FCA3DFF89D
:103DA000FCB304464FEAB549A84224D0B4F1804F91
:103DB00036D0B4421FD0BC421DD044451BD04C4528
:103DC00019D0544517D05C4515D0F548844212D01F
:103DD000F44884420FD0F44884420CD0F348844223
:103DE00009D0F348844206D0F248844203D0CB2164
:103DF000F1A009F0E1FFAC4206D101210846FEF72F
:103E000000FC0021012055E0B4F1804F08D0B442FD
:103E10000DD101210220FEF7D5FB002102206BE02D
:103E200001210846FEF7CEFB0021012064E0BC42E0
:103E300006D101210420FEF7C5FB002104205BE030
:103E4000444506D101210820FEF7BCFB00210820D3
:103E500052E04C4506D101211020FEF7B3FB0021B2
:103E6000102049E0544506D101212020FEF7AAFB8D
:103E70000021202040E05C4506D101210220FEF710
:103E8000C0FB0021022015E0C548844202D1012177
:103E90000C040AE0C348844202D101214C0404E02E
:103EA000C14884420AD101218C042046FEF7A9FBB7
:103EB00000212046BDE8F05FFEF7A3BBBB4884426B
:103EC00006D101214020FEF77DFB0021402013E0B8
:103ED000B748844206D101218020FEF773FB002100
:103EE000802009E0B34884420AD18415012120468C
:103EF000FEF768FB00212046BDE8F05FFEF762BBDD
:103F0000BDE8F09F2DE9F05F9F4FDFF88082DFF87A
:103F10008092DFF880A2A14E0D4604464FEAB74BCF
:103F2000B84226D0B4F1804F23D0444521D04C452F
:103F30001FD054451DD05C451BD09748844218D0F3
:103F4000B44216D09648844213D09648844210D08A
:103F5000954884420DD0954884420AD094488442C2
:103F600007D09448844204D040F2251192A009F071
:103F700023FF688860B110280AD0202808D0402884
:103F800006D0602804D04FF493718BA009F014FF81
:103F9000288950B1B0F5807F07D0B0F5007F04D0FC
:103FA00040F2271184A009F007FF2088BC420AD004
:103FB000B44208D0B4F1804F05D0444503D04C45FD
:103FC00001D0544503D120F07001688808435C4556
:103FD00006D071498C4203D020F4407128890843EF
:103FE00020806868E06228882085BC4201D0B44205
:103FF00001D1A87A20860120A08281E74FF0FF310D
:10400000416000210180018141808172704770B55B
:1040100004465D4815460E4684422BD0B4F1804FCD
:1040200028D05A48844225D05948844222D0594841
:1040300084421FD06B4884421CD05748844219D018
:104040005648844216D05648844213D0554884427C
:1040500010D0554884420DD0544884420AD0544868
:10406000844207D05348844204D040F26B1152A0DE
:1040700009F0A2FE35B1012D04D04FF4B6714EA067
:1040800009F09AFE2685A58270BD70B504463E48AB
:104090000D46844213D0B4F1804F10D03B48844287
:1040A0000DD03B4884420AD03A48844207D03B486E
:1040B000844204D04FF4C2713FA009F07DFE65B187
:1040C000102D0AD0202D08D0402D06D0602D04D010
:1040D00040F2851138A009F06FFE208820F07000B2
:1040E0002843208070BD70B5044627480D468442A1
:1040F0002BD0B4F1804F28D02448844225D02448C6
:10410000844222D0234884421FD0364884421CD0A7
:104110002148844219D02148844216D02048844244
:1041200013D02048844210D01F4884420DD01F482D
:1041300084420AD01E48844207D01E48844204D0DC
:104140004FF4CE711CA009F037FE656270BD70B5EA
:1041500004460D480D4684425DD0B4F1804F5AD0DC
:104160000A48844257D00A48844254D009488442BD
:1041700051D01C4884424ED0074884424BD0074857
:10418000844248D006482FE000000140000400406F
:1041900000080040000C00400014004000040140F2
:1041A0000040014000440140004801400018004028
:1041B000001C0040002000402E2E5C4C69627261A1
:1041C00072795C5065726970686572616C5C73725B
:1041D000635C73746D3332663478785F74696D2E06
:1041E0006300000000100040844214D0FE48844266
:1041F00011D0FE4884420ED0FD4884420BD0FD48C9
:10420000844208D0FC48844205D040F2AB11AFF2A2
:10421000580009F0D1FDE56270BD10B50446F748BD
:1042200084422CD0B4F1804F29D0F548844226D066
:10423000F448844223D0F448844220D0F348844296
:104240001DD0F34884421AD0F248844217D0F24875
:10425000844214D0E448844211D0E44884420ED011
:10426000E34884420BD0E348844208D0E2488442C9
:1042700005D040F2B911AFF2C00009F09DFD606AAF
:1042800010BD10B50446DD4884422CD0B4F1804FF7
:1042900029D0DB48844226D0DA48844223D0DA4849
:1042A000844220D0D94884421DD0D94884421AD0B3
:1042B000D848844217D0D848844214D0CA4884428F
:1042C00011D0CA4884420ED0C94884420BD0C94894
:1042D000844208D0C848844205D040F2C711AFF2EA
:1042E000281009F069FD208D10BD70B50446C34843
:1042F0000D4684422CD0B4F1804F29D0C04884426E
:1043000026D0C048844223D0BF48844220D0BF4832
:1043100084421DD0BE4884421AD0BE48844217D081
:10432000BD48844214D0B048844211D0AF48844282
:104330000ED0AF4884420BD0AE48844208D0AE487D
:10434000844205D040F2D711AFF2941009F034FD49
:104350005DB1012D05D04FF4EC71AFF2A41009F05E
:104360002BFD208840F0020002E0208820F00200AF
:10437000208070BD70B50446A0480D4684422CD004
:10438000B4F1804F29D09E48844226D09D48844273
:1043900023D09D48844220D09C4884421DD09C4814
:1043A00084421AD09B48844217D09B48844214D040
:1043B0008D48844211D08D4884420ED08C4884426E
:1043C0000BD08C48844208D08B48844205D04FF4EF
:1043D000FA71AFF21C2009F0EFFC5DB1012D05D0A0
:1043E00040F2F511AFF2302009F0E6FC208840F0F1
:1043F000040002E0208820F00400208070BD70B529
:1044000004467E480D4684422CD0B4F1804F29D01A
:104410007B48844226D07B48844223D07A48844219
:1044200020D07A4884421DD0794884421AD07948F5
:10443000844217D07848844214D06B48844211D00B
:104440006A4884420ED06A4884420BD0694884424C
:1044500008D06948844205D040F20D21AFF2A8206F
:1044600009F0AAFC5DB1012D05D040F20E21AFF29A
:10447000B82009F0A1FC208840F0800002E02088EC
:1044800020F08000208070BD70B504465B480D466A
:1044900084422CD0B4F1804F29D05948844226D090
:1044A0005848844223D05848844220D057488442F8
:1044B0001DD0574884421AD05648844217D05648D7
:1044C000844214D04848844211D0484884420ED0D7
:1044D000474884420BD04748844208D0464884422B
:1044E00005D04FF40A71AFF2303009F065FC082DA9
:1044F00006D02DB140F22921AFF2443009F05CFC26
:10450000208820F00800208020882843208070BD6B
:1045100070B5044639480D46844226D0B4F1804F28
:1045200023D03748844220D0364884421DD03648B4
:1045300084421AD03748844217D03748844214D076
:104540002948844211D0294884420ED02848844208
:104550000BD02848844208D02748844205D040F236
:104560003F21AFF2AC3009F027FC5DB1B5F5807F9B
:1045700008D0B5F5007F05D04FF41071AFF2C83008
:1045800009F01AFC208820F44070208020882843FD
:10459000208070BD70B5044618480D46844247D04F
:1045A000B4F1804F44D01648844241D0154884422B
:1045B0003ED0154884423BD01448844238D0144839
:1045C000844235D01348844232D0134884422FD0DD
:1045D000054884422CD00548844229D004488442AE
:1045E00026D00448844219E00044014000480140BC
:1045F00000180040001C0040002000400000014066
:104600000004004000080040000C00400010004082
:1046100000140040000401400040014008D0FE4862
:10462000844205D040F25321AFF2744009F0C4FB3C
:104630005DB1012D05D04FF41571AFF2844009F042
:10464000BBFB208840F0010002E0208820F0010040
:10465000208070BD2DE9F047DFF8C093DFF8C0A3DC
:104660000D460446484525D0B4F1804F22D0ED4890
:1046700084421FD0EC4884421CD0EC48844219D0BC
:10468000544517D0EA48844214D0EA48844211D0F5
:10469000E94884420ED0E94884420BD0E84884427D
:1046A00008D0DD48844205D040F2A621AFF2F840A0
:1046B00009F082FB288878B110280DD020280BD073
:1046C000302809D0602807D0702805D040F2A721F3
:1046D000AFF21C5009F070FB688838B1012805D092
:1046E0004FF42A71AFF2305009F066FBA88938B157
:1046F000022805D040F2A921AFF2445009F05CFB3A
:10470000208C20F001002084218CA788208B2A880F
:1047100020F0730042EA0008A88921F002016E88A7
:10472000084306434C4501D0544537D1A88838B1D9
:10473000042805D040F2C621AFF2845009F03CFBBA
:10474000E88938B1082805D040F2C721AFF2985067
:1047500009F032FB688AB0F5007F06D028B14FF42B
:104760003271AFF2AC5009F027FB288AB0F5807F98
:1047700006D028B140F2C921AFF2C45009F01CFBA9
:1047800026F00801E889AE88084320F004000643BB
:1047900027F44071288A6F8A08430743A780A4F84A
:1047A0001880A86860632684BDE8F0872DE9F05F73
:1047B000DFF868A2DFF868B20D460446504519D00C
:1047C000B4F1804F16D09748844213D09648844263
:1047D00010D0964884420DD05C450BD0944884425A
:1047E00008D09648844205D040F2F721AFF23860F5
:1047F00009F0E2FA288878B110280DD020280BD0D3
:10480000302809D0602807D0702805D04FF43E71B9
:10481000AFF25C6009F0D0FA688838B1012805D0A1
:1048200040F2F921AFF2706009F0C6FAA88938B1F8
:10483000022805D040F2FA21AFF2846009F0BCFAF8
:10484000208C20F010002084228CA788208B2B88BD
:104850004FF6FF7920F4E64109EA032343EA010811
:10486000A98922F0200209EA011111436A8809EAA4
:1048700002160E43544501D05C453FD1A88838B19B
:10488000042805D04FF44671AFF2D46009F094FAD1
:10489000E88938B1082805D040F21931AFF2E86054
:1048A00009F08AFA688AB0F5007F06D028B140F294
:1048B0001A31AFF2FC6009F07FFA288AB0F5807FE8
:1048C00006D028B140F21B31AFF2147009F074FA2F
:1048D000E98926F0800209EA01111143AA8821F032
:1048E000400109EA02160E43298A27F4406209EAC8
:1048F000810111436A8A09EA82070F43A780A4F85D
:104900001880A868A0632684BDE8F09F2DE9F05FB9
:10491000DFF808A1DFF808B10D460446504513D072
:10492000B4F1804F10D03F4884420DD03E488442BD
:104930000AD03E48844207D05C4505D04FF45271FE
:10494000AFF28C7009F038FA288878B110280DD0B1
:1049500020280BD0302809D0602807D0702805D037
:1049600040F24931AFF2B07009F026FA688838B1E8
:10497000012805D040F24A31AFF2C47009F01CFAA8
:10498000A88938B1022805D040F24B31AFF2D87077
:1049900009F012FA208C20F480702084208CA788E3
:1049A000A18B2A8821F0730142EA010820F40071EA
:1049B000A8894FF6FF7909EA00200843698809EAC7
:1049C00001260643544501D05C4557D1A88838B12B
:1049D000042805D04FF45A71AFF6240009F0ECF921
:1049E000E88938B1082805D040F26931AFF63800BF
:1049F00009F0E2F9688AB0F5007F06D028B140F2EC
:104A00006A31AFF64C0009F0D7F9288AB0F5807FFB
:104A10001ED0E8B116E00000002000400000014078
:104A2000000401400004004000080040000C004069
:104A3000004001400044014000480140001800408F
:104A4000001C004040F26B31AFF6940009F0B4F95D
:104A5000E98926F4006209EA01211143AA8821F4B8
:104A6000806109EA02260E43298A27F4405209EAA6
:104A7000011111436A8A09EA02170F43A780A4F8BB
:104A80001C80A868E06326843EE72DE9F05FDFF82C
:104A9000E8A3DFF8E8B30D460446504513D0B4F15F
:104AA000804F10D0F64884420DD0F64884420AD098
:104AB000F548844207D05C4505D04FF46671AFF6E7
:104AC000081009F079F9288878B110280DD020282D
:104AD0000BD0302809D0602807D0702805D040F2CC
:104AE0009931AFF62C1009F067F9688838B10128C0
:104AF00005D040F29A31AFF6401009F05DF9A8896F
:104B000038B1022805D040F29B31AFF6541009F0BD
:104B100053F9208C20F480502084218CA688A08B0F
:104B20002B884FF6FF7920F4E64209EA0327174362
:104B300021F40052A98909EA013111436A885445D8
:104B400009EA023040EA010801D05C4510D1288A08
:104B5000B0F5807F06D028B140F2B931AFF6A81089
:104B600009F02AF92A8A26F4804009EA82160643C7
:104B7000A680A783A8682064A4F82080C4E600214A
:104B800001804180818081608181C1810182418277
:104B9000704770B50446B84815460E46844226D084
:104BA000B4F1804F23D0B648844220D0B548844227
:104BB0001DD0B54884421AD0B048844217D0B348BB
:104BC000844214D0B248844211D0B24884420ED0FC
:104BD000B14884420BD0B148844208D0B0488442E6
:104BE00005D04FF47F71AFF6302009F0E5F85EB1E3
:104BF000042E09D0082E07D00C2E05D040F2FD312E
:104C0000AFF64C2009F0D8F89DB1102D11D0202D11
:104C10000FD0302D0DD0602D0BD0702D09D0502D20
:104C200007D0402D05D040F2FE31AFF6742009F0D8
:104C3000C3F80121228C04F11800B1408A43228478
:104C400096B1082E10D0361FC6F34E0108440168F5
:104C500048F6FF721140016001684FF6FF7202EAE8
:104C600005221143016070BD00EB560001684FF64C
:104C70008F721140016001682943F3E770B5044663
:104C80007D480D46844226D0B4F1804F23D07C4825
:104C9000844220D07B4884421DD07B4884421AD075
:104CA0007648844217D07948844214D078488442A8
:104CB00011D0784884420ED0774884420BD0774890
:104CC000844208D07648844205D040F22741AFF6AE
:104CD000183009F071F8656370BD70B50446664818
:104CE0000D4684421AD0B4F1804F17D064488442F4
:104CF00014D06448844211D0634884420ED05F4887
:104D000084420BD06148844208D06348844205D075
:104D100040F23741AFF6603009F04EF8A56370BD40
:104D200070B5044654480D46844214D0B4F1804F07
:104D300011D0534884420ED0524884420BD052487E
:104D4000844208D04D48844205D040F24641AFF637
:104D5000983009F031F8E56370BD70B504464648F7
:104D60000D46844214D0B4F1804F11D0444884429F
:104D70000ED0444884420BD04348844208D03F4878
:104D8000844205D040F25541AFF6D43009F014F812
:104D9000256470BD70B5044637480D46844226D060
:104DA000B4F1804F23D03648844220D03548844225
:104DB0001DD0354884421AD03048844217D0334839
:104DC000844214D03248844211D0324884420ED0FA
:104DD000314884420BD03148844208D03048844264
:104DE00005D040F26941AFF6304008F0E5FF502DA4
:104DF00007D0402D05D040F26A41AFF6444008F09C
:104E0000DBFF208B20F070002843208370BD70B53D
:104E1000044619480D4684421AD0B4F1804F17D089
:104E20001748844214D01748844211D0164884424F
:104E30000ED0124884420BD01448844208D0164841
:104E4000844205D040F28641AFF6944008F0B4FFAA
:104E5000502D07D0402D05D040F28741AFF6A84035
:104E600008F0AAFF208B4FF6FF7120F4E04001EA22
:104E700005210143218370BD000001400004014071
:104E80000004004000080040000C004000400140C9
:104E9000004401400048014000180040001C004050
:104EA0000020004070B50446FE480D46844214D0F0
:104EB000B4F1804F11D0FC4884420ED0FB488442AC
:104EC0000BD0FB48844208D0FA48844205D040F217
:104ED000A241AFF61C5008F06FFF502D07D0402DB7
:104EE00005D040F2A341AFF6305008F065FFA08B2B
:104EF00020F070002843A08370BD70B50446E948D7
:104F00000D46844214D0B4F1804F11D0E64884425B
:104F10000ED0E64884420BD0E548844208D0E548EC
:104F2000844205D040F2BF41AFF6745008F044FF10
:104F3000502D07D0402D05D04FF49861AFF6885022
:104F400008F03AFFA08B4FF6FF7120F4E04001EA31
:104F500005210143A18370BD70B50446D1480D46BB
:104F6000844226D0B4F1804F23D0CF48844220D051
:104F7000CE4884421DD0CE4884421AD0CD488442C7
:104F800017D0CD48844214D0CC48844211D0CC48AC
:104F900084420ED0CB4884420BD0CB48844208D008
:104FA000CA48844205D040F2DB41AFF6F45008F025
:104FB00003FF082D06D02DB140F2DC41AFF60860AA
:104FC00008F0FAFE208B20F008002843208370BDF3
:104FD00070B50446B3480D4684421AD0B4F1804FF0
:104FE00017D0B148844214D0B048844211D0B048A0
:104FF00084420ED0AF4884420BD0AF48844208D0E0
:10500000B048844205D040F2F941AFF6546008F050
:10501000D3FE082D06D02DB140F2FA41AFF66860FC
:1050200008F0CAFE208B4FF6FF7120F4006001EA01
:1050300005210143218370BD70B5044699480D4692
:10504000844214D0B4F1804F11D0974884420ED0DE
:10505000964884420BD09648844208D095488442B2
:1050600005D040F21651AFF6B06008F0A5FE082D4D
:1050700006D02DB140F21751AFF6C46008F09CFE87
:10508000A08B20F008002843A08370BD70B50446B3
:1050900084480D46844214D0B4F1804F11D0824828
:1050A00084420ED0814884420BD08148844208D08B
:1050B0008048844205D040F23351AFF6047008F0C6
:1050C0007BFE082D06D02DB140F23451AFF618709A
:1050D00008F072FEA08B4FF6FF7120F4006001EA29
:1050E00005210143A18370BD70B504466D480D468E
:1050F000844226D0B4F1804F23D06B48844220D024
:105100006A4884421DD06A4884421AD06948844261
:1051100017D06948844214D06848844211D0684846
:1051200084420ED0674884420BD06748844208D03E
:105130006648844205D04FF4AA61AFF6847008F047
:105140003BFE042D06D02DB140F25151AFF69870C0
:1051500008F032FE208B20F004002843208370BD2D
:1051600070B504464F480D4684421AD0B4F1804FC2
:1051700017D04D48844214D04C48844211D04C483A
:1051800084420ED04B4884420BD04B48844208D016
:105190004C48844205D040F26F51AFF6E47008F0FD
:1051A0000BFE042D06D02DB14FF4AE61AFF6F870B2
:1051B00008F002FE208B4FF6FF7120F4806001EAB8
:1051C00005210143218370BD70B5044635480D4665
:1051D000844213D0B4F1804F10D0334884420DD0B4
:1051E000324884420AD03248844207D0314884424F
:1051F00004D040F28D51364808F0DEFD042D05D074
:1052000025B140F28E51324808F0D6FDA08B20F037
:1052100004002843A08370BD70B5044621480D46A4
:10522000844213D0B4F1804F10D01F4884420DD077
:105230001E4884420AD01E48844207D01D4884423A
:1052400004D040F2AB51224808F0B6FD042D05D041
:1052500025B140F2AC511E4808F0AEFDA08B4FF6D0
:10526000FF7120F4806001EA05210143A18370BD34
:1052700070B504460B480D4684423ED0B4F1804FD1
:105280003BD00948844238D00848844235D0084889
:10529000844232D0074884422FD0074884422CD021
:1052A000064817E0000001400004004000080040EC
:1052B000000C004000040140004001400044014057
:1052C0000048014000180040001C00400020004041
:1052D000B8410008844210D0FE4884420DD0FE48F8
:1052E00084420AD0FD48844207D0FD48844204D05D
:1052F00040F2C951FB4808F05FFD802D05D025B173
:1053000040F2CA51F74808F057FD208B20F080008A
:105310002843208370BD70B50446F3480D4684428F
:1053200019D0B4F1804F16D0F048844213D0F04821
:10533000844210D0EF4884420DD0EF4884420AD016
:10534000EE48844207D0E448844204D040F2E7515A
:10535000E44808F031FD802D05D025B14FF4BD6142
:10536000E04808F029FD208B4FF6FF71C0F30E00D6
:1053700001EA05210143218370BD70B50446DA4876
:105380000D46844213D0B4F1804F10D0D7488442E8
:105390000DD0D74884420AD0D648844207D0D64898
:1053A000844204D040F20461CE4808F005FD802D0F
:1053B00005D025B140F20561CA4808F0FDFCA08B7C
:1053C00020F080002843A08370BD70B50446C64815
:1053D0000D46844213D0B4F1804F10D0C3488442AC
:1053E0000DD0C34884420AD0C248844207D0C24884
:1053F000844204D040F22161BA4808F0DDFC802DDF
:1054000005D025B140F22261B64808F0D5FCA08B4A
:105410004FF6FF71C0F30E0001EA05210143A1839D
:1054200070BD70B50446B0480D46844225D0B4F135
:10543000804F22D0AD4884421FD0AD4884421CD05A
:10544000AC48844219D0AC48844216D0AB48844260
:1054500013D0AB48844210D09E4884420DD09E4861
:1054600084420AD09D48844207D09D48844204D09B
:1054700040F23E619B4808F09FFC35B1022D04D0FC
:1054800040F23F61974808F097FC208C20F0020022
:105490002843208470BD70B5044693480D4684426D
:1054A00007D09548844204D04FF4CB618D4808F072
:1054B00083FC35B1082D04D040F25961894808F0C9
:1054C0007BFC208C20F008002843208470BD70B540
:1054D000044685480D46844219D0B4F1804F16D059
:1054E0008248844213D08248844210D0814884424A
:1054F0000DD0814884420AD08048844207D0764843
:10550000844204D040F27461764808F055FC35B10D
:10551000022D04D040F27561724808F04DFC208CD9
:105520004FF6FF7120F0200001EA051101432184AC
:1055300070BD70B504466C480D46844207D06E4875
:10554000844204D040F28F61664808F035FC35B1E2
:10555000082D04D04FF4D261624808F02DFC208C55
:105560004FF6FF7120F0800001EA0511014321840C
:1055700070BD70B504465C480D46844213D0B4F14A
:10558000804F10D0594884420DD0594884420AD0E7
:105590005848844207D05848844204D040F2AA6157
:1055A000504808F009FC35B1022D04D040F2AB613F
:1055B0004C4808F001FC208C4FF6FF7120F400707D
:1055C00001EA05210143218470BD70B504464648B7
:1055D0000D46844207D04848844204D040F2C56159
:1055E000404808F0E9FB35B1082D04D040F2C6610F
:1055F0003C4808F0E1FB208C4FF6FF7120F400607E
:1056000001EA05210143218470BD70B50446364886
:105610000D46844213D0B4F1804F10D033488442F9
:105620000DD0334884420AD03248844207D03248F1
:10563000844204D04FF4DC612A4808F0BDFB35B148
:10564000022D04D040F2E161264808F0B5FB208C21
:105650004FF6FF7120F4005001EA05310143218427
:1056600070BD70B50446204816460D46844225D0CC
:10567000B4F1804F22D01D4884421FD01C48844280
:105680001CD01C48844219D01B48844216D01B48A9
:10569000844213D01A48844210D00E4884420DD060
:1056A0000D4884420AD00D48844207D00C488442F9
:1056B00004D040F2FF610B4808F07EFB4DB1042D91
:1056C00022D0082D20D00C2D1ED04FF4E0610548CB
:1056D00018E019E00048014000180040001C00409C
:1056E00000200040B84100080000014000040040D4
:1056F00000080040000C0040000401400040014050
:105700000044014008F058FB012E05D026B140F2BC
:105710000171F74808F050FB0120218CA84081431B
:105720002184208CAE403043208470BD70B5044687
:10573000F04816460D46844207D0EF48844204D014
:1057400040F21D71EA4808F037FB45B1042D06D040
:10575000082D04D040F21E71E54808F02DFB042E00
:1057600005D026B140F21F71E14808F025FB042066
:10577000218CA84081432184208CAE40304320847A
:1057800070BD70B50446DB480D46844213D0B4F1B9
:10579000804F10D0D94884420DD0D94884420AD0D5
:1057A000D848844207D0D448844204D040F67B01D4
:1057B000CF4808F001FB55B1042D08D0082D06D0C4
:1057C0000C2D04D040F67C01C94808F0F5FAA08BF6
:1057D00020F44060A083A08B4FF6FF7101EA052101
:1057E0000843A08370BD70B50446C2480D4684428C
:1057F00013D0B4F1804F10D0C04884420DD0C048BF
:1058000084420AD0BF48844207D0BB48844204D0B7
:1058100040F66301B64808F0CFFA55B1042D08D020
:10582000082D06D00C2D04D040F66401B04808F0D5
:10583000C3FAA08B20F00C00A083A08B2843A08388
:1058400070BD70B50446AB480D46844219D0B4F122
:10585000804F16D0A948844213D0A948844210D062
:10586000A84884420DD0A44884420AD0A648844265
:1058700007D0A648844204D040F64B019C4808F06B
:105880009BFA55B1042D08D0082D06D00C2D04D05C
:1058900040F64C01964808F08FFA208B20F44060C7
:1058A0002083208B4FF6FF7101EA052108432083F6
:1058B00070BDF0B5048C24F010040484078B068CB2
:1058C0004FF6FF7404EA011527F4734704EA033125
:1058D000394304EA02220A4326F0A001294341F099
:1058E000100102830184F0BD70B5044681480D4665
:1058F000844225D0B4F1804F22D0804884421FD00A
:105900007F4884421CD07F48844219D07A48844220
:1059100016D07D48844213D07D48844210D07D4803
:1059200084420DD0794884420AD07B48844207D013
:105930007A48844204D040F632016D4808F03CFABF
:1059400055B1042D08D0082D06D00C2D04D040F6FA
:105950003301674808F030FA208B20F00C002083D8
:10596000208B2843208370BD2DE9F05F614E634F8B
:10597000DFF88C81DFF88C91DFF87CA10D460446BE
:105980004FF0804BB04220D05C451ED0BC421CD0B2
:1059900044451AD04C4518D0544516D05A48844234
:1059A00013D05B48844210D05A4884420DD05748E7
:1059B00084420AD05848844207D05848844204D0D0
:1059C00040F26F714A4808F0F7F9688840B1022840
:1059D00006D00A2804D04FF4EE61454808F0ECF9EF
:1059E000A888012808D0022806D0032804D040F255
:1059F00071713F4808F0E0F9E88850B1042808D0F8
:105A0000082806D00C2804D040F27271384808F0FB
:105A1000D3F928890F2804D940F27371344808F06B
:105A2000CBF92888A8B304283FD0082878D0B442FE
:105A30000ED05C450CD0BC420AD0444508D04C4541
:105A400006D0544504D040F29571294808F0B4F9C5
:105A5000AA7829792E7A208C20F480502084A78B74
:105A6000238C4FF6FF7000EA012100EA023227F48E
:105A70007347394300EA0630084323F420411143B9
:105A800041F48051A0832184E9882046BDE8F05F7D
:105A900077E6FFE72B89AA886988204601F010F88D
:105AA000E9882046BDE8F05F1EE7B44214D05C45AB
:105AB00012D0BC4210D044450ED04C450CD05445B9
:105AC0000AD01148844207D01048844204D040F2E2
:105AD0008171074808F070F92B89AA8869882046E7
