:020000040800F2
:10000000D010002065B90008A5B90008B5E00008C7
:10001000A7B90008A9B90008ABB9000800000000A2
:10002000000000000000000000000000ADB9000862
:10003000AFB9000800000000B1B9000825B90008F8
:100040007D6700087FB900087FB900087FB9000804
:100050007FB900087FB900087FB900087FB90008A0
:100060007FB900087FB900087FB900087FB9000890
:100070007FB900087FB900087FB900087FB9000880
:100080007FB900087FB900087FB900087FB9000870
:100090007FB900087FB900087FB900087FB9000860
:1000A000B369000803B900087FB900087FB90008E8
:1000B0007FB900087FB900087FB900087FB9000840
:1000C0007FB900087FB900087FB900087FB9000830
:1000D0007FB9000849B300087FB900087FB900085C
:1000E0007FB900087FB900087FB900087FB9000810
:1000F0007FB900083D6800087FB900087FB9000893
:100100007FB900087FB900087FB900087FB90008EF
:100110007FB900087FB900087FB900087FB90008DF
:100120007FB900087FB900087FB900087FB90008CF
:100130007FB900087FB900087FB900087FB90008BF
:100140007FB900087FB900087FB900087FB90008AF
:100150007FB900087FB900087FB900087FB900089F
:100160007FB900087FB900087FB900087FB900088F
:100170007FB900087FB900087FB900087FB900087F
:100180007FB900087FB9000800F002F800F0B2F86B
:100190000AA090E8000C82448344AAF10107DA45E2
:1001A00001D100F0A7F8AFF2090EBAE80F0013F082
:1001B000010F18BFFB1A43F001031847702D01000F
:1001C000902D01000A444FF0000C10F8013B13F091
:1001D000070408BF10F8014B1D1108BF10F8015BA0
:1001E000641E05D010F8016B641E01F8016BF9D193
:1001F00013F0080F1EBF10F8014BAD1C0C1B09D1EA
:100200006D1E58BF01F801CBFAD505E014F8016B5B
:1002100001F8016B6D1EF9D59142D6D370470000ED
:100220000023002400250026103A28BF78C1FBD8FF
:10023000520728BF30C148BF0B6070476E290EF0CF
:10024000DC8770290EF04985662910F084836529C2
:1002500010F08183672910F07E83612910F07D837F
:1002600003681B0A28BF41F0800169290EF0BA8497
:1002700064290EF0B78475290EF0B4846F290FF04D
:10028000DC8078290EF01585E9290FF07780E429C4
:100290000FF07480F5290FF07180EF290FF0D980ED
:1002A000F8290EF014850368DB0928BF41F08001AE
:1002B00063290EF0E68773290EF0EB87E3290FF030
:1002C000D184F3290FF0D684002070471FB510F0B9
:1002D0003DFB0FF025FD04000020002110F0E2F9A5
:1002E000401C60600020002110F0C6F9E0601FBDD6
:1002F00010B510BD0FF0E6FC1146FFF7E7FF0BF05D
:10030000FBFA0FF0C3FD03B4FFF7F2FF03BC0AF0E2
:10031000E3FF000010B50446B0F5E06F0FD0B4F570
:10032000C06F0CD0B4F5A06F09D0B4F5806F06D0C3
:10033000B4F5407F03D079214DA00BF0F9FB55486F
:1003400004435548046010BD70B50446C0780F25BD
:1003500028B1012803D08D2145A00BF0E9FB60787E
:10036000102803D38E2142A00BF0E2FBA0781028C6
:1003700003D38F213EA00BF0DBFBE078012200B31A
:100380004548006800F4E060C0F5E060C0F3072075
:10039000C0F10401C54060788840A178294001433C
:1003A0000801217801F1E02181F80004207800F0B3
:1003B0001F018A404009800000F1E020C0F80021C0
:1003C00070BD207800F01F018A404009800000F1D4
:1003D000E020C0F8802170BD70B50D460446B0F134
:1003E000005F06D0B4F1006F03D0B72120A00BF05E
:1003F0009FFB2A48854203D3B8211DA00BF098FB30
:100400002748054024482543001F056070BD70B58E
:100410000D460446102807D0042C05D0022C03D02A
:10042000CA2113A00BF084FB1B4E361D45B1012DD4
:1004300003D0CB210EA00BF07BFB3068204301E002
:100440003068A043306070BD10B54FF0E024042840
:100450000AD0401D03D0E22105A00BF069FB206902
:1004600020F00400206110BD206940F00400F9E78D
:100470002E2E5C4C6962726172795C506572697093
:10048000686572616C5C7372635C6D6973632E6323
:10049000000000000000FA050CED00E0FFFF0F0077
:1004A00080FFFF1F2DE9F05FFA4DFB4EFB4FDFF899
:1004B000F083DFF8F093DFF8F0A3DFF8F0B3044641
:1004C000A8421BD0B44219D0BC4217D0444515D025
:1004D0004C4513D0544511D05C450FD0F4488442AC
:1004E0000CD0F448844209D0F348844206D0F34843
:1004F000844203D08221F2A00BF01AFBAC4206D159
:100500000121084601F0B6FE0021012055E0B44269
:1005100006D10121022001F0ADFE002102204CE0B5
:10052000BC4206D10121042001F0A4FE00210420D8
:1005300043E0444506D10121082001F09BFE002143
:1005400008203AE04C4506D10121102001F092FE2E
:100550000021102031E0544506D10121202001F076
:1005600089FE0021202028E05C4506D101214020A1
:1005700001F080FE002140201FE0CD48844206D1DA
:100580000121802001F076FE0021802015E0C9487D
:10059000844202D1012184150AE0C748844202D175
:1005A0000121441504E0C54884420AD10121041503
:1005B000204601F05FFE00212046BDE8F05F01F01B
:1005C00059BEBDE8F09F2DE9F05F0446B148002612
:1005D0000D46844221D0B04884421ED0AF488442A8
:1005E0001BD0AF48844218D0AE48844215D0AE48E4
:1005F000844212D0AD4884420FD0AD4884420CD022
:10060000AC48844209D0AC48844206D0AB4884420E
:1006100003D0CF21AAA00BF08BFA28880004000C8D
:1006200003D1D021A6A00BF083FA287948B1012884
:1006300007D0022805D0032803D0D121A0A00BF0B9
:1006400077FAE87938B1012805D0022803D0D22101
:100650009BA00BF06DFA4FF0010A4FF0030B0AFA62
:1006600006F0296881460140494541D12168700062
:100670000BFA00F7B943804621602979206801FA16
:1006800008F1014321602879012801D0022826D1F0
:10069000687948B1012807D0022805D0032803D083
:1006A000E42187A00BF044FAA068B843A060687901
:1006B000A16800FA08F00843A060A87928B10128D1
:1006C00003D0EB217EA00BF033FA606820EA09002A
:1006D00060606168A879B04080B201436160E06801
:1006E000B843E060E879E16800FA08F00843E060A8
:1006F000761C102EB3D364E74FF6FF710160002122
:10070000017141718171C171704738B504464FF470
:10071000803000905F480D46844222D05E4884427B
:100720001FD05E4884421CD05D48844219D05D4889
:10073000844216D05C48844213D05C48844210D076
:100740005B4884420DD05B4884420AD05A488442B8
:1007500007D05A48844204D04FF48D7158A00BF052
:10076000E7F925B940F21B1155A00BF0E1F900980B
:1007700028430090E061E5610098E061E069E0698C
:10078000009038BD70B50546424800260C468542AB
:1007900022D0414885421FD0404885421CD0404865
:1007A000854219D03F48854216D03F48854213D034
:1007B0003E48854210D03E4885420DD03D48854296
:1007C0000AD03D48854207D03C48854204D04FF4CA
:1007D000A4713BA00BF0ACF9012C2AD0022C28D03C
:1007E000042C26D0082C24D0102C22D0202C20D051
:1007F000402C1ED0802C1CD0B4F5807F19D0B4F5CD
:10080000007F16D0B4F5806F13D0B4F5006F10D010
:10081000B4F5805F0DD0B4F5005F0AD0B4F5804F19
:1008200007D0B4F5004F04D040F2491124A00BF0DA
:100830007FF92869204200D00126304670BD10B5EE
:1008400004461448844222D0134884421FD01348DF
:1008500084421CD01248844219D01248844216D0D7
:100860001148844213D01148844210D01048844269
:100870000DD0104884420AD00F48844207D00F4858
:10088000844204D04FF4B0710DA00BF051F92069EF
:1008900080B210BD00000240000402400008024087
:1008A000000C0240001002400014024000180240F8
:1008B000001C0240002002400024024000280240A8
:1008C0002E2E5C4C6962726172795C50657269703F
:1008D000686572616C5C7372635C73746D333266ED
:1008E0003478785F6770696F2E63000070B50546D5
:1008F000FF4800260C46854223D0FE48854220D082
:10090000FD4885421DD0FD4885421AD0FC488542ED
:1009100017D0FC48854214D0FB48854211D0FB48D3
:1009200085420ED0FA4885420BD0FA48854208D05D
:10093000F948854205D040F27311AFF27C000BF00C
:10094000F7F8012C2BD0022C29D0042C27D0082C0E
:1009500025D0102C23D0202C21D0402C1FD0802C2F
:100960001DD0B4F5807F1AD0B4F5007F17D0B4F550
:10097000806F14D0B4F5006F11D0B4F5805F0ED045
:10098000B4F5005F0BD0B4F5804F08D0B4F5004F3C
:1009900005D04FF4BA71AFF2D8000BF0C9F868690E
:1009A000204200D00126304670BD10B50446D04824
:1009B000844223D0CF48844220D0CF4884421DD0E7
:1009C000CE4884421AD0CE48844217D0CD488442C3
:1009D00014D0CD48844211D0CC4884420ED0CC48AB
:1009E00084420BD0CB48844208D0CB48844205D007
:1009F00040F28B11AFF238100BF09AF8606980B2B8
:100A000047E770B50446BA480D46844223D0B9483A
:100A1000844220D0B84884421DD0B84884421AD0BD
:100A2000B748844217D0B748844214D0B6488442AD
:100A300011D0B64884420ED0B54884420BD0B54898
:100A4000844208D0B448844205D040F29F11AFF2EE
:100A500090100BF06DF82DB94FF4D071AFF2A010DB
:100A60000BF066F8258370BD70B50446A0480D46AE
:100A7000844223D09F48844220D09F4884421DD086
:100A80009E4884421AD09E48844217D09D48844292
:100A900014D09D48844211D09C4884420ED09C487A
:100AA00084420BD09B48844208D09B48844205D0A6
:100AB0004FF4DA71AFF2F8100BF03AF82DB940F2BA
:100AC000B511AFF204200BF033F8658370BD70B53B
:100AD0000546874816460C46854223D08548854200
:100AE00020D0854885421DD0844885421AD084484C
:100AF000854217D08348854214D08348854211D05F
:100B0000824885420ED0824885420BD0814885427A
:100B100008D08148854205D04FF4E571AFF26020DE
:100B20000BF006F8012C2BD0022C29D0042C27D056
:100B3000082C25D0102C23D0202C21D0402C1FD0C5
:100B4000802C1DD0B4F5807F1AD0B4F5007F17D06B
:100B5000B4F5806F14D0B4F5006F11D0B4F5805F98
:100B60000ED0B4F5005F0BD0B4F5804F08D0B4F5CB
:100B7000004F05D040F2CB11AFF2BC200AF0D8FFF5
:100B80004EB1012E05D04FF4E671AFF2CC200AF041
:100B9000CFFF2C8370BD6C8370BD70B50446544884
:100BA0000D46844223D05348844220D05248844288
:100BB0001DD0524884421AD05148844217D051481F
:100BC000844214D05048844211D0504884420ED000
:100BD0004F4884420BD04F48844208D04E4884424C
:100BE00005D040F2E311AFF228300AF0A1FF6561B1
:100BF00070BD70B504463E480D46844223D03D4842
:100C0000844220D03C4884421DD03C4884421AD0C3
:100C10003B48844217D03B48844214D03A4884422F
:100C200011D03A4884420ED0394884420BD039481A
:100C3000844208D03848844205D040F2F311AFF224
:100C400080300AF075FF60696840606170BD70B502
:100C50000646274815460C46864223D0254886423C
:100C600020D0254886421DD0244886421AD02448E8
:100C7000864217D02348864214D02348864211D09A
:100C8000224886420ED0224886420BD02148864216
:100C900008D02148864205D040F24921AFF2E03029
:100CA0000AF046FF1CB3012C21D0022C1FD0032CCC
:100CB0001DD0042C1BD0052C19D0062C17D0072CC6
:100CC00015D0082C13D0092C11D00A2C0FD00B2CC6
:100CD0000DD00C2C0BD00D2C09D00E2C07D00F2CC6
:100CE00005D040F24A21AFF228400AF021FF15E07A
:100CF000000002400004024000080240000C0240D4
:100D0000001002400014024000180240001C024083
:100D10000020024000240240002802400DB3092DAB
:100D20001FD0012D1DD0022D1BD0032D19D0042D55
:100D300017D0052D15D0062D13D0072D11D0082D55
:100D40000FD00A2D0DD00B2D0BD00C2D09D00D2D51
:100D500007D00F2D05D040F24B21AFF29C400AF096
:100D6000E7FE6007C10E8D40E00806EB8000026AD6
:100D70000F238B409A430262016A2943016270BDCE
:100D800010B58400A4F1C04490B1022807D0042813
:100D900005D0062803D08421FEA00AF0C9FE43F244
:100DA000D20020606FF070406060C4F8040110BD94
:100DB0004FF0204143F2DB000860F3E72DE9F041FA
:100DC0000446006848B1022807D0042805D0062848
:100DD00003D09F21EFA00AF0ABFE606828B1022883
:100DE00003D0A021EBA00AF0A3FEA06838B104282C
:100DF00005D0082803D0A121E6A00AF099FEE068FA
:100E000028B1102803D0A221E2A00AF091FE2069A7
:100E100030B1B0F5807F03D0A321DEA00AF088FEB8
:100E2000606930B1B0F5004F03D0A421D9A00AF019
:100E30007FFEA06930B1B0F5007F03D0A521D5A019
:100E40000AF076FEE06930B1B0F5806F03D0A621DC
:100E5000D0A00AF06DFE206A30B1B0F5006F03D06B
:100E6000A721CCA00AF064FE606A30B1B0F5805FC3
:100E700003D0A821C7A00AF05BFEA06A30B1B0F58C
:100E8000005F03D0A921C3A00AF052FEE06A4FF42C
:100E9000804828B1404503D0AA21BEA00AF048FEF0
:100EA000206B30B1B0F5002F03D0AB21B9A00AF010
:100EB0003FFE606B00680F2803D9AC21B5A00AF093
:100EC00037FE606B40680F2803D9AD21B1A00AF04E
:100ED0002FFE606B8068401EFE2803D9AE21ADA0B6
:100EE0000AF026FE606BC0680F2803D9AF21A9A0C5
:100EF0000AF01EFE606B00690F2803D9B021A5A07F
:100F00000AF016FE606B40690F2803D9B121A1A039
:100F10000AF00EFE606B4FF080556E0080694FF056
:100F2000405748B1A84207D0B04205D0B84203D0DC
:100F3000B22198A00AF0FCFDD4E901010843D4E9EC
:100F400003121143084361690843A1690843E16939
:100F50000843216A0843616A0843A16A0843E16AB9
:100F60000843216B084321688900A1F1C041086052
:100F7000A068082807D120688000A0F1C04001685F
:100F800041F040010160606BD0E9001241EA0211BA
:100F900082688389120242EA03421143028A41EACB
:100FA0000251027D806941EA0261014320688000AC
:100FB000A0F1C0404160E06A40454DD1A06B00689F
:100FC0000F2803D9D42173A00AF0B2FDA06B4068AA
:100FD0000F2803D9D5216FA00AF0AAFDA06B806865
:100FE000401EFE2803D9D6216AA00AF0A1FDA06BFD
:100FF00000690F2803D9D72166A00AF099FDA06BDC
:1010000040690F2803D9D82162A00AF091FDA06B96
:10101000806948B1A84207D0B04205D0B84203D099
:10102000D9215CA00AF084FDA06BD0E9001241EA4E
:1010300002118268038A120242EA03521143027DBE
:10104000806941EA0261014320688000A0F1C0404C
:10105000C0F80411BDE8F0816FF07041F4E70021A1
:101060000222C0E900128160C160016141618161B9
:10107000D202C161C0E908125200C0E90A2101632D
:101080004F4941638163704770B50D4604000AD033
:10109000022C08D0042C06D0062C04D040F20F11EC
:1010A0003CA00AF045FDA400A4F1C04455B1012DB7
:1010B00004D04FF4887137A00AF03AFD206840F060
:1010C000010002E020683F490840206070BD2DE922
:1010D000F041182740264FF020444FF0FC351028EF
:1010E0000DD0B0F5807F04D040F2591129A00AF04C
:1010F0001FFD44F8807F6660A560E560AAE727666B
:101100006666A566E566A5E770B504460068102822
:1011100007D0B0F5807F04D04FF4BD711DA00AF058
:1011200007FD606830B1022804D040F27B1119A09D
:101130000AF0FEFCA06830B1102804D04FF4BE7154
:1011400014A00AF0F5FCE06830B1402804D040F269
:101150007D1110A00AF0ECFC206998B1B0F5003FB9
:1011600010D0B0F5802F0DD0B0F5C02F0AD0B0F55B
:10117000002F07D0B0F5202F04D04FF4BF7105A089
:101180000AF0D6FC6069FF2820D940F27F1101A047
:101190001AE000002E2E5C4C6962726172795C501C
:1011A00065726970686572616C5C7372635C73749C
:1011B0006D3332663478785F66736D632E6300003A
:1011C00060090108FEFF0F000AF0B2FCA069FF28C9
:1011D00005D94FF4C071AFF244000AF0A9FCE069F0
:1011E0000068FF2805D940F28111AFF258000AF0DB
:1011F0009FFCE0694068FF2805D94FF4C171AFF248
:101200006C000AF095FCE0698068FF2805D940F27F
:101210008311AFF280000AF08BFCE069C068FF2800
:1012200005D94FF4C271AFF294000AF081FC206A34
:101230000068FF2805D940F28511AFF2A8000AF036
:1012400077FC206A4068FF2805D94FF4C371AFF2DC
:10125000BC000AF06DFC206A8068FF2805D940F2C6
:101260008711AFF2D0000AF063FC206AC068FF2843
:1012700005D94FF4C471AFF2E4000AF059FCD4E987
:1012800001010843D4E9031211430843616940EAAC
:101290004120A16940EA413040F00803E069D0E90B
:1012A000001241EA02210289007B120442EA006036
:1012B0000143206A2468D0E9002542EA0522058915
:1012C000007B2D0445EA006002434FF02040102CC3
:1012D00004D040F8803F8160C26070BD03668166C3
:1012E000C26670BD10210160002141608160C16053
:1012F000016141618161C269FC211160C269516073
:10130000C2699160C269D160026A1160026A51606B
:10131000026A9160006AC160704770B50E4604466B
:10132000102808D0B4F5807F05D040F2D511AFF277
:101330009C100AF0FDFB4FF02045A6B1012E05D010
:101340004FF4EB71AFF2B4100AF0F2FB102C05D0A1
:1013500055F8800F40F00400286070BD286E40F002
:101360000400286670BDFA48102C04D055F8801F80
:101370000140296070BD296E0140296670BD70B5BD
:101380000E460446102808D0B4F5807F05D040F200
:10139000FD11AFF200200AF0CBFB4FF02045A6B1C3
:1013A000012E05D04FF4FF71AFF218200AF0C0FBF8
:1013B000102C05D055F8800F40F04000286070BD1B
:1013C000286E40F04000286670BDE1483C38102C83
:1013D00004D055F8801F0140296070BD296E01407E
:1013E000296670BD4FF02041102802D0D1F894003A
:1013F0007047486F70474FF02040182140F8A01FF9
:10140000002141604FF0FC318160C1600161704793
:1014100010B50446006838B1022805D040F27621A4
:10142000AFF290200AF084FB6068FF2805D940F2F3
:101430007721AFF2A0200AF07BFBA068FF2805D936
:101440004FF41E71AFF2B4200AF072FBE06800683E
:10145000FF2805D940F27A21AFF2C8200AF068FBD4
:10146000E0684068FF2805D940F27B21AFF2DC201C
:101470000AF05EFBE0688068FF2805D94FF41F7111
:10148000AFF2F0200AF054FBE068C068FF2805D9ED
:1014900040F27D21AFF204300AF04AFB2069006877
:1014A000FF2805D940F27F21AFF218300AF040FB47
:1014B00020694068FF2805D94FF42071AFF22C3025
:1014C0000AF036FB20698068FF2805D940F28121A7
:1014D000AFF240300AF02CFB2069C068FF2805D924
:1014E00040F28221AFF254300AF022FB60690068BA
:1014F000FF2805D940F28321AFF268300AF018FBCB
:1015000060694068FF2805D94FF42171AFF27C3043
:101510000AF00EFB60698068FF2805D940F285213A
:10152000AFF290300AF004FB6069C068FF2805D96B
:1015300040F28621AFF2A4300AF0FAFAD4E90001B1
:1015400040EA4120A168102242EA413108434FF0AD
:10155000204141F8A00FE068D0E9002342EA0322CD
:101560000389007B1B0443EA006002438A60206910
:10157000D0E9002342EA03220389007B1B0443EAEB
:1015800000600243CA606069D0E9002342EA032296
:101590000389007B1B0443EA006002430A6110BD1B
:1015A0000021016041608160C268FC211160C26855
:1015B0005160C2689160C268D160026911600269BD
:1015C0005160026991600269D160426911604269AB
:1015D0005160426991604069C160704710B54FF039
:1015E000204460B1012805D040F2C321AFF25C4035
:1015F0000AF09EFA54F8A00F40F0040003E054F8FB
:10160000A00F53490840206010BD2DE9F0419046DD
:101610000C4605464FF4807710280AD0BD4208D00A
:10162000B5F5805F05D040F2F221AFF298400AF0A4
:101630007FFA34F0380000D12CB940F2F321AFF238
:10164000AC400AF075FA4FF02046B8F1000F17D001
:10165000B8F1010F05D04FF43D71AFF2C8400AF068
:1016600067FA102D04D0BD4205D156F8840F04E06E
:10167000706E20430DE056F8A40F20433060E9E47B
:10168000102D04D0BD4206D156F8840F05E0706ECF
:10169000A0437066DEE456F8A40FA043EEE72DE900
:1016A000F04100260C4605464FF4807710280AD0FA
:1016B000BD4208D0B5F5805F05D040F23231AFF2BF
:1016C0002C500AF035FA012C0BD0022C09D0042C36
:1016D00007D0402C05D040F23331AFF248500AF029
:1016E00027FA4FF02040102D04D0BD4204D1D0F88D
:1016F000840003E0406E01E0D0F8A400204200D056
:1017000001263046A6E470B50C4605464FF48076B7
:1017100010280AD0B54208D0B5F5805F05D040F258
:101720006131AFF290500AF003FAE00800D12CB911
:1017300040F26231AFF2A4500AF0FAF94FF02040C3
:10174000102D07D0B54209D150F8841F08E00000E1
:10175000FBFF0F00416EA143416670BD50F8A41F0E
:10176000A143016070BD2DE9F04100260C460546FD
:101770004FF4807710280AD0BD4208D0B5F5805FBD
:1017800005D040F28731AFF2F4500AF0D1F9082CBD
:1017900009D0102C07D0202C05D04FF46271AFF285
:1017A0000C600AF0C5F94FF02040102D04D0BD4266
:1017B00004D1D0F8840003E0406E01E0D0F8A4002A
:1017C000204200EAD40201D002B10126304641E4B1
:1017D00070B50C4605464FF4807610280AD0B54205
:1017E00008D0B5F5805F05D040F2B731AFF25C604C
:1017F0000AF09EF934F0380000D12CB94FF46E7124
:10180000AFF270600AF094F94FF02040102D04D030
:10181000B54207D150F8841F06E0416E21EAD40199
:10182000416670BD50F8A41F21EAD401016070BD6B
:1018300010B50446A0F5AA40553804D01CB1872144
:1018400021A00AF075F92B48046010BD10B5040002
:101850000FD0012C0DD0022C0BD0032C09D0042C5E
:1018600007D0052C05D0062C03D09B2116A00AF02A
:101870005FF92048446010BD10B50446B0F5805FA4
:1018800003D3A82110A00AF053F91A48846010BDB0
:1018900018494AF6AA200860704716494CF6CC4011
:1018A0000860704770B500250446012805D0022C59
:1018B00003D0ED2104A00AF03BF90E48C068204295
:1018C00000D00125284670BD2E2E5C4C69627261E5
:1018D00072795C5065726970686572616C5C737274
:1018E000635C73746D3332663478785F69776467EC
:1018F0002E63000000300040F648016841F001010D
:101900000160F44A0021083211600268F24B1A406B
:101910000260031DF14A1A60EE4BF14A84331A60EB
:10192000EE4A103A1B1D1A60026822F480220260FF
:10193000E8480C300160181D0160704710B50400C4
:1019400008D0012C06D0052C04D04FF48571E5A0F9
:101950000AF0EEF8DF480021801C0170047010BD11
:1019600070B50025044621281ED0312C1CD0392CFE
:101970001AD0412C18D0612C16D0792C14D07A2C86
:1019800012D07B2C10D07C2C0ED07D2C0CD07E2C39
:101990000AD07F2C08D03B2C06D03D2C04D040F63A
:1019A0008D01D0A00AF0C4F8600901280DD00228EA
:1019B0000DD0C8487430006804F01F0101228A402D
:1019C000024200D00125284670BDC248F3E7C14855
:1019D0007030F0E738B500204FF4A044009031207B
:1019E000FFF7BEFF0099491C0091A14201D00028D9
:1019F000F5D03120FFF7B4FF002800D0012038BD1A
:101A000010B504461F2804D94FF4A171B5A00AF0FF
:101A10008FF8B049086820F0F80040EAC400086078
:101A200010BD10B5040006D0012C04D040F26511A1
:101A3000ACA00AF07DF8B648046010BD10B50400F3
:101A400008D0012C06D0042C04D04FF4BF71A5A0FF
:101A50000AF06EF89F480021703001700170012C6F
:101A600004D0042C01D10521017010BD0121FBE738
:101A700010B5040006D0012C04D04FF4D37199A006
:101A80000AF056F8A348046010BD2DE9F0411C4649
:101A9000DDF8188016460F46050007D0B5F5800F13
:101AA00004D040F2D1118FA00AF042F83F2F04D9A0
:101AB0004FF4E9718BA00AF03BF8A6F1C000F028C2
:101AC00004D940F2D31187A00AF032F8022C0AD0D0
:101AD000042C08D0062C06D0082C04D04FF4EA7150
:101AE00080A00AF025F8A8F104000B2804D940F2E0
:101AF000D5117CA00AF01CF8874A610847EA8610D5
:101B000002EB0141084373492843091D40EA08607C
:101B10000860BDE8F08110B5040006D0012C04D0A7
:101B20004FF4F4716FA00AF003F87948046610BD11
:101B300070B50546C0380C46F02804D940F206219D
:101B400068A009F0F5FFA01E052804D940F207217E
:101B500064A009F0EDFF5F49A801843140EA0470F8
:101B6000086070BD10B5040006D0012C04D040F20E
:101B700061215CA009F0DCFF6548846610BD70B58A
:101B80000546C03814460E46F02804D940F27E219E
:101B900054A009F0CDFFA01E052804D940F27F21F2
:101BA00050A009F0C5FFA8014A4940EA0660883103
:101BB00040EA0470086070BD10B5040006D0012C26
:101BC00004D04FF4247147A009F0B2FF50480467D5
:101BD00010BD10B5040006D0012C04D040F2A221A3
:101BE00040A009F0A5FF4A48C46410BD70B50C467A
:101BF00005000DD0B5F5001F0AD0B5F5800F07D050
:101C0000B5F5C00F04D040F2BD2136A009F090FF19
:101C100084B1B4F1806F0DD0B4F1A06F0AD0B4F1EB
:101C2000C06F07D0B4F1E06F04D040F2BE212DA008
:101C300009F07EFF274908310868254320F0EC6051
:101C400005430D6070BD70B50C4605000DD0B5F1B3
:101C5000804F0AD0B5F1004F07D0B5F1404F04D006
:101C600040F2E3211FA009F063FF84B1B4F1005FEB
:101C70000DD0B4F1205F0AD0B4F1405F07D0B4F1C9
:101C8000605F04D04FF4397116A009F051FF11497B
:101C900008310868254320F0784005430D6070BD89
:101CA00010B5040008D0012C06D0022C04D040F25C
:101CB000A6310CA009F03CFF06490831086820F065
:101CC00003002043086010BD02480830006800F09F
:101CD0000C00704700380240FFFFF6EA1030002485
:101CE000003000202E2E5C4C6962726172795C506B
:101CF00065726970686572616C5C7372635C737441
:101D00006D3332663478785F7263632E630000004F
:101D100000004742800E47420000FFFF10B504005C
:101D200015D0802C13D0902C11D0A02C0FD0B02C1B
:101D30000DD0C02C0BD0D02C09D0E02C07D0F02C2B
:101D400005D040F2DB31AFF2640009F0F1FEFE494C
:101D5000086820F0F0002043086010BD10B50400B2
:101D600011D0B4F5805F0ED0B4F5A05F0BD0B4F500
:101D7000C05F08D0B4F5E05F05D040F2FB31AFF2B0
:101D80009C0009F0D5FEF049086820F4E05020439B
:101D9000086010BD10B5040011D0B4F5805F0ED0FE
:101DA000B4F5A05F0BD0B4F5C05F08D0B4F5E05F28
:101DB00005D040F21A41AFF2D40009F0B9FEE24971
:101DC000086820F4604040EAC400086010BD70B5A7
:101DD000DD4B1968DD4C11F00C0104D066100429AC
:101DE00003D0082903D004601BE0066019E0D64A3E
:101DF000121F1168C1F38055116801F03F0115B140
:101E0000B6FBF1F101E0B4FBF1F114681268C4F320
:101E100088146143C2F30142521C5200B1FBF2F13B
:101E2000016019680F2202EA1111C94A545C016865
:101E3000E14041601C68072505EA9424145D21FAFD
:101E400004F484601B6805EA5333D25CD140C1605E
:101E500070BD10B50446B0F5807F62D0B4F5007F48
:101E60005FD0BC4884425CD0BB48844259D0BB4858
:101E7000844256D0BA48844253D0BA48844250D0A3
:101E8000B94884424DD0B94884424AD0B8488442C7
:101E900047D0B848844244D0B748844241D0B7487C
:101EA00084423ED0B64884423BD0B648844238D0C3
:101EB000B548844235D0B548844232D0B4488442D3
:101EC0002FD0B44884422CD0B348844229D0B348A0
:101ED000844226D0B248844223D0B248844220D0E3
:101EE000B14884421DD0B14884421AD0B0488442DF
:101EF00017D0B048844214D0AF48844211D0AF48C4
:101F000084420ED0AE4884420BD0AE48844208D002
:101F1000AD48844205D040F2CB41AFF2382009F001
:101F200007FEC4F30120032808D1874A1068A74B95
:101F300020F4F81104EA0300084310608248683076
:101F40000168C4F30B021143016010BD10B5040019
:101F500007D0012C05D040F2E941AFF2782009F01A
:101F6000E7FD9B48046010BD10B5040007D0012CAC
:101F700005D040F2FA41AFF2942009F0D9FD94481F
:101F8000001D046010BD10B5040007D0012C05D061
:101F900040F20B51AFF2B42009F0CAFD8D48C0F8F1
:101FA0005C4110BD10B5441E1F2C05D940F22251D2
:101FB000AFF2D02009F0BCFD63498431086820F0FD
:101FC0001F002043086010BD10B50446401E1F28A6
:101FD00005D940F24251AFF2F42009F0A9FD5A4A66
:101FE000843210686FF0FF0120F4F85001EB0421F7
:101FF0000143116010BD10B50446B0F5801F09D033
:1020000044B1B4F5001F05D040F26651AFF22C3058
:1020100009F08EFD4C498431086820F440102043BB
:10202000086010BD10B50446B0F5800F09D044B16A
:10203000B4F5000F05D040F28A51AFF2583009F0E4
:1020400077FD41498431086820F44000204308604E
:1020500010BD10B504000ED0B4F5803F0BD0B4F520
:10206000003F08D0B4F5403F05D040F2AB51AFF28D
:102070008C3009F05DFD34498431086820F440302B
:102080002043086010BD10B5040007D0012C05D016
:1020900040F2CE51AFF2B43009F04AFD4E48C0F8DC
:1020A000E04110BD70B504464C480D46044200D1D5
:1020B0002CB940F2F951AFF2D43009F039FD224E7B
:1020C000283655B1012D05D040F2FB51AFF2EC306E
:1020D00009F02EFD3068204301E03068A0433060F5
:1020E00070BD70B504460D4630F0F10000D12CB93A
:1020F00040F21961AFF2144009F01AFD124E2C366D
:1021000055B1012D05D040F21A61AFF2284009F017
:102110000FFD3068204301E03068A043306070BD9F
:1021200070B504460D46400800D12CB940F2356127
:10213000AFF2504009F0FCFC034E303615B1012DD2
:1021400054D04DE055E00000083802400024F4006F
:10215000000000200003020000030300000304004D
:102160000003050000030600000307000003080049
:102170000003090000030A0000030B0000030C0029
:1021800000030D0000030E0000030F000003100009
:1021900000031100000312000003130000031400E9
:1021A00000031500000316000003170000031800C9
:1021B0000003190000031A0000031B0000031C00A9
:1021C00000031D0000031E0000031F00FFFCFF0FA3
:1021D0003C0E4742000047420010474200E80B8196
:1021E00040F23661AFF2045009F0A2FC306820439F
:1021F00001E03068A043306070BD70B50446EB4824
:102200000D46044200D12CB940F26961AFF22C5066
:1022100009F08EFCE64E55B1012D05D040F26A6101
:10222000AFF2405009F084FC3068204301E0306890
:10223000A043306070BD70B50446DE480D460442D0
:1022400000D12CB940F29661AFF2685009F070FCF1
:10225000D74E361D55B1012D05D040F29761AFF232
:102260007C5009F065FC3068204301E03068A043F1
:10227000306070BD70B50446CF480D46044200D1B1
:102280002CB94FF4D861AFF2A45009F051FCC84EFC
:10229000303E55B1012D05D040F2C161AFF2BC50C6
:1022A00009F046FC3068204301E03068A04330600C
:1022B00070BD70B504460D4630F0F10000D12CB968
:1022C00040F2DD61AFF2E45009F032FCB84E2C3E32
:1022D00055B1012D05D040F2DE61AFF2F85009F0A2
:1022E00027FC3068204301E03068A043306070BDB7
:1022F00070B504460D46400800D12CB940F2F66195
:10230000AFF2206009F014FCA94E283E55B1012D12
:1023100005D040F2F761AFF2346009F009FC306893
:10232000204301E03068A043306070BD70B50446C2
:102330009E480D46044200D12CB940F22771AFF2FD
:102340005C6009F0F5FB9A4E203E55B1012D05D099
:102350004FF4E561AFF2746009F0EAFB30682043A6
:1023600001E03068A043306070BD70B5044693480A
:102370000D46044200D12CB94FF4EA61AFF29C60E3
:1023800009F0D6FB8A4E1C3E55B1012D05D040F216
:102390005171AFF2B06009F0CBFB3068204301E02F
:1023A0003068A043306070BD70B5044684480D4667
:1023B000044200D12CB940F28171AFF2D86009F02B
:1023C000B7FB7B4E103655B1012D05D040F282711E
:1023D000AFF2F06009F0ACFB3068204301E03068F8
:1023E000A043306070BD70B504460D4630F0F1007A
:1023F00000D12CB940F2A171AFF2187009F098FB2E
:102400006B4E143655B1012D05D040F2A271AFF2DA
:102410002C7009F08DFB3068204301E03068A04348
:10242000306070BD70B504460D46400800D12CB92F
:1024300040F2BD71AFF2547009F07AFB5C4E183671
:1024400055B1012D05D040F2BE71AFF2687009F0B0
:102450006FFB3068204301E03068A043306070BDFE
:1024600070B5044651480D46044200D12CB940F2E3
:10247000F171AFF2907009F05BFB4D4E203655B113
:10248000012D05D040F2F271AFF2A87009F050FBB7
:102490003068204301E03068A043306070BD70B503
:1024A000044644480D46044200D12CB940F61E01B2
:1024B000AFF2D07009F03CFB3D4E243655B1012DF2
:1024C00005D040F61F01AFF2E47009F031FB30682F
:1024D000204301E03068A043306070BD10B5344C3B
:1024E000303438B101280AD040F63601AFF60C007E
:1024F00009F01EFB206820F00800206010BD206855
:1025000040F00800F9E770B504460D46000600D417
:102510002CB940F66401AFF6340009F009FB244EF3
:10252000333E55B1012D05D040F66501AFF64C00A4
:1025300009F0FEFA3078204301E03078A043307093
:1025400070BD1B483430016841F0807101607047F4
:1025500070B500250446012813D0022C11D0042C9C
:102560000FD0082C0DD0102C0BD0802C09D0402C73
:1025700007D0202C05D040F6CC01AFF6980009F02A
:10258000D7FA0B4834380068204200D0012528468D
:1025900070BD10B5040005D140F6EC01AFF6BC00EB
:1025A00009F0C6FA02483238047010BD003601093D
:1025B00040380240CC8088FB00E81FDDCC8688FBD9
:1025C000006810812DE9F05FFD4DFE4EFE4FDFF8F3
:1025D000FC83DFF8FCA3DFF8FCB304464FEAB549FF
:1025E000A84224D0B4F1804F36D0B4421FD0BC42B0
:1025F0001DD044451BD04C4519D0544517D05C45DF
:1026000015D0F548844212D0F44884420FD0F448E3
:1026100084420CD0F348844209D0F348844206D067
:10262000F248844203D0CB21F1A009F081FAAC42F8
:1026300006D101210846FFF798FE0021012055E050
:10264000B4F1804F08D0B4420DD101210220FFF730
:102650006DFE002102206BE001210846FFF766FEB7
:102660000021012064E0BC4206D101210420FFF7D3
:102670005DFE002104205BE0444506D101210820D5
:10268000FFF754FE0021082052E04C4506D10121FD
:102690001020FFF74BFE0021102049E0544506D1E1
:1026A00001212020FFF742FE0021202040E05C4570
:1026B00006D101210220FFF758FE0021022015E07B
:1026C000C548844202D101210C040AE0C348844277
:1026D00002D101214C0404E0C14884420AD1012105
:1026E0008C042046FFF741FE00212046BDE8F05F44
:1026F000FFF73BBEBB48844206D101214020FFF7D3
:1027000015FE0021402013E0B748844206D1012184
:102710008020FFF70BFE0021802009E0B3488442AF
:102720000AD1841501212046FFF700FE0021204632
:10273000BDE8F05FFFF7FABDBDE8F09F2DE9F05F5F
:102740009F4FDFF88082DFF88092DFF880A2A14EF1
:102750000D4604464FEAB74BB84226D0B4F1804F3D
:1027600023D0444521D04C451FD054451DD05C4555
:102770001BD09748844218D0B44216D09648844261
:1027800013D09648844210D0954884420DD0954885
:1027900084420AD09448844207D09448844204D0AA
:1027A00040F2251192A009F0C3F9688860B11028A1
:1027B0000AD0202808D0402806D0602804D04FF442
:1027C00093718BA009F0B4F9288950B1B0F5807FDE
:1027D00007D0B0F5007F04D040F2271184A009F0A3
:1027E000A7F92088BC420AD0B44208D0B4F1804F87
:1027F00005D0444503D04C4501D0544503D120F0C9
:102800007001688808435C4506D071498C4203D04A
:1028100020F440712889084320806868E062288895
:102820002085BC4201D0B44201D1A87A2086012083
:10283000A08281E74FF0FF314160002101800181DA
:1028400041808172704770B504465D4815460E465A
:1028500084422BD0B4F1804F28D05A48844225D0EE
:102860005948844222D0594884421FD06B48844240
:102870001CD05748844219D05648844216D0564836
:10288000844213D05548844210D0554884420DD01C
:10289000544884420AD05448844207D05348844262
:1028A00004D040F26B1152A009F042F935B1012D6C
:1028B00004D04FF4B6714EA009F03AF92685A582EE
:1028C00070BD70B504463E480D46844213D0B4F145
:1028D000804F10D03B4884420DD03B4884420AD000
:1028E0003A48844207D03B48844204D04FF4C27136
:1028F0003FA009F01DF965B1102D0AD0202D08D098
:10290000402D06D0602D04D040F2851138A009F08A
:102910000FF9208820F070002843208070BD70B52A
:10292000044627480D4684422BD0B4F1804F28D06E
:102930002448844225D02448844222D0234884421B
:102940001FD0364884421CD02148844219D02148E7
:10295000844216D02048844213D02048844210D0AC
:102960001F4884420DD01F4884420AD01E4884422A
:1029700007D01E48844204D04FF4CE711CA009F049
:10298000D7F8656270BD70B504460D480D468442A7
:102990005DD0B4F1804F5AD00A48844257D00A48DB
:1029A000844254D00948844251D01C4884424ED0BD
:1029B000074884424BD00748844248D006482FE05D
:1029C000000001400004004000080040000C0040EE
:1029D0000014004000040140004001400044014058
:1029E0000048014000180040001C0040002000404A
:1029F0002E2E5C4C6962726172795C5065726970EE
:102A0000686572616C5C7372635C73746D3332669B
:102A10003478785F74696D2E630000000010004008
:102A2000844214D0FE48844211D0FE4884420ED025
:102A3000FD4884420BD0FD48844208D0FC488442C3
:102A400005D040F2AB11AFF2580009F071F8E56221
:102A500070BD10B50446F74884422CD0B4F1804FC5
:102A600029D0F548844226D0F448844223D0F44843
:102A7000844220D0F34884421DD0F34884421AD0C7
:102A8000F248844217D0F248844214D0E448844289
:102A900011D0E44884420ED0E34884420BD0E3488E
:102AA000844208D0E248844205D040F2B911AFF226
:102AB000C00009F03DF8606A10BD10B50446DD485D
:102AC00084422CD0B4F1804F29D0DB48844226D0F8
:102AD000DA48844223D0DA48844220D0D94884425C
:102AE0001DD0D94884421AD0D848844217D0D8483B
:102AF000844214D0CA48844211D0CA4884420ED0BD
:102B0000C94884420BD0C948844208D0C84884428E
:102B100005D040F2C711AFF2281009F009F8208D56
:102B200010BD70B50446C3480D4684422CD0B4F1A4
:102B3000804F29D0C048844226D0C048844223D048
:102B4000BF48844220D0BF4884421DD0BE48844242
:102B50001AD0BE48844217D0BD48844214D0B04831
:102B6000844211D0AF4884420ED0AF4884420BD08B
:102B7000AE48844208D0AE48844205D040F2D71116
:102B8000AFF2941008F0D4FF5DB1012D05D04FF4E1
:102B9000EC71AFF2A41008F0CBFF208840F00200E7
:102BA00002E0208820F00200208070BD70B504464D
:102BB000A0480D4684422CD0B4F1804F29D09E48C5
:102BC000844226D09D48844223D09D48844220D010
:102BD0009C4884421DD09C4884421AD09B48844221
:102BE00017D09B48844214D08D48844211D08D4820
:102BF00084420ED08C4884420BD08C48844208D04A
:102C00008B48844205D04FF4FA71AFF21C2008F0D3
:102C10008FFF5DB1012D05D040F2F511AFF23020EC
:102C200008F086FF208840F0040002E0208820F0B1
:102C30000400208070BD70B504467E480D46844275
:102C40002CD0B4F1804F29D07B48844226D07B48D9
:102C5000844223D07A48844220D07A4884421DD0CE
:102C6000794884421AD07948844217D078488442FF
:102C700014D06B48844211D06A4884420ED06A480E
:102C800084420BD06948844208D06948844205D008
:102C900040F20D21AFF2A82008F04AFF5DB1012DEE
:102CA00005D040F20E21AFF2B82008F041FF208895
:102CB00040F0800002E0208820F08000208070BD7D
:102CC00070B504465B480D4684422CD0B4F1804F69
:102CD00029D05948844226D05848844223D05848A5
:102CE000844220D0574884421DD0574884421AD08D
:102CF0005648844217D05648844214D048488442EB
:102D000011D0484884420ED0474884420BD04748EF
:102D1000844208D04648844205D04FF40A71AFF28D
:102D2000303008F005FF082D06D02DB140F22921E2
:102D3000AFF2443008F0FCFE208820F0080020802C
:102D400020882843208070BD70B5044639480D4660
:102D5000844226D0B4F1804F23D03748844220D01B
:102D6000364884421DD0364884421AD037488442BF
:102D700017D03748844214D02948844211D02948BA
:102D800084420ED0284884420BD02848844208D080
:102D90002748844205D040F23F21AFF2AC3008F022
:102DA000C7FE5DB1B5F5807F08D0B5F5007F05D0D1
:102DB0004FF41071AFF2C83008F0BAFE208820F44A
:102DC0004070208020882843208070BD70B5044664
:102DD00018480D46844247D0B4F1804F44D016487D
:102DE000844241D0154884423ED0154884423BD0AD
:102DF0001448844238D01448844235D01348844261
:102E000032D0134884422FD0054884422CD0054844
:102E1000844229D00448844226D00448844219E0E0
:102E2000004401400048014000180040001C0040E0
:102E30000020004000000140000400400008004065
:102E4000000C00400010004000140040000401404D
:102E50000040014008D0FE48844205D040F2532192
:102E6000AFF2744008F064FE5DB1012D05D04FF45F
:102E70001571AFF2844008F05BFE208840F001003D
:102E800002E0208820F00100208070BD2DE9F0478D
:102E9000DFF8C093DFF8C0A30D460446484525D0AF
:102EA000B4F1804F22D0ED4884421FD0EC488442D8
:102EB0001CD0EC48844219D0544517D0EA488442CB
:102EC00014D0EA48844211D0E94884420ED0E9483F
:102ED00084420BD0E848844208D0DD48844205D0C3
:102EE00040F2A621AFF2F84008F022FE288878B11F
:102EF00010280DD020280BD0302809D0602807D00A
:102F0000702805D040F2A721AFF21C5008F010FE47
:102F1000688838B1012805D04FF42A71AFF23050DB
:102F200008F006FEA88938B1022805D040F2A92190
:102F3000AFF2445008F0FCFD208C20F0010020840A
:102F4000218CA788208B2A8820F0730042EA000891
:102F5000A88921F002016E88084306434C4501D040
:102F6000544537D1A88838B1042805D040F2C6218D
:102F7000AFF2845008F0DCFDE88938B1082805D0AC
:102F800040F2C721AFF2985008F0D2FD688AB0F540
:102F9000007F06D028B14FF43271AFF2AC5008F088
:102FA000C7FD288AB0F5807F06D028B140F2C9213C
:102FB000AFF2C45008F0BCFD26F00801E889AE88E5
:102FC000084320F00400064327F44071288A6F8AE2
:102FD00008430743A780A4F81880A8686063268484
:102FE000BDE8F0872DE9F05FDFF868A2DFF868B28E
:102FF0000D460446504519D0B4F1804F16D097487D
:10300000844213D09648844210D0964884420DD012
:103010005C450BD09448844208D09648844205D041
:1030200040F2F721AFF2386008F082FD288878B1CD
:1030300010280DD020280BD0302809D0602807D0C8
:10304000702805D04FF43E71AFF25C6008F070FD5F
:10305000688838B1012805D040F2F921AFF27060DC
:1030600008F066FDA88938B1022805D040F2FA219F
:10307000AFF2846008F05CFD208C20F0100020840A
:10308000228CA788208B2B884FF6FF7920F4E6410D
:1030900009EA032343EA0108A98922F0200209EA88
:1030A000011111436A8809EA02160E43544501D002
:1030B0005C453FD1A88838B1042805D04FF446714B
:1030C000AFF2D46008F034FDE88938B1082805D0A3
:1030D00040F21931AFF2E86008F02AFD688AB0F5D5
:1030E000007F06D028B140F21A31AFF2FC6008F040
:1030F0001FFD288AB0F5807F06D028B140F21B3131
:10310000AFF2147008F014FDE98926F0800209EA94
:1031100001111143AA8821F0400109EA02160E4369
:10312000298A27F4406209EA810111436A8A09EA7F
:1031300082070F43A780A4F81880A868A06326849C
:10314000BDE8F09F2DE9F05FDFF808A1DFF808B1D6
:103150000D460446504513D0B4F1804F10D03F487F
:1031600084420DD03E4884420AD03E48844207D073
:103170005C4505D04FF45271AFF28C7008F0D8FC6A
:10318000288878B110280DD020280BD0302809D0FD
:10319000602807D0702805D040F24931AFF2B070F6
:1031A00008F0C6FC688838B1012805D040F24A31E1
:1031B000AFF2C47008F0BCFCA88938B1022805D071
:1031C00040F24B31AFF2D87008F0B2FC208C20F402
:1031D00080702084208CA788A18B2A8821F073011D
:1031E00042EA010820F40071A8894FF6FF7909EA44
:1031F00000200843698809EA01260643544501D0A6
:103200005C4557D1A88838B1042805D04FF45A71CD
:10321000AFF6240008F08CFCE88938B1082805D006
:1032200040F26931AFF6380008F082FC688AB0F5E8
:10323000007F06D028B140F26A31AFF64C0008F0AA
:1032400077FC288AB0F5807F1ED0E8B116E0000038
:103250000020004000000140000401400004004044
:1032600000080040000C00400040014000440140C4
:103270000048014000180040001C004040F26B3143
:10328000AFF6940008F054FCE98926F4006209EADC
:1032900001211143AA8821F4806109EA02260E4324
:1032A000298A27F4405209EA011111436A8A09EA7E
:1032B00002170F43A780A4F81C80A868E063268447
:1032C0003EE72DE9F05FDFF8E8A3DFF8E8B30D464D
:1032D0000446504513D0B4F1804F10D0F6488442D4
:1032E0000DD0F64884420AD0F548844207D05C45A8
:1032F00005D04FF46671AFF6081008F019FC288865
:1033000078B110280DD020280BD0302809D06028A3
:1033100007D0702805D040F29931AFF62C1008F094
:1033200007FC688838B1012805D040F29A31AFF621
:10333000401008F0FDFBA88938B1022805D040F202
:103340009B31AFF6541008F0F3FB208C20F4805032
:103350002084218CA688A08B2B884FF6FF7920F43F
:10336000E64209EA0327174321F40052A98909EA32
:10337000013111436A88544509EA023040EA0108E4
:1033800001D05C4510D1288AB0F5807F06D028B1E5
:1033900040F2B931AFF6A81008F0CAFB2A8A26F429
:1033A000804009EA82160643A680A783A8682064A5
:1033B000A4F82080C4E600210180418081808160E2
:1033C0008181C18101824182704770B50446B8484D
:1033D00015460E46844226D0B4F1804F23D0B6481D
:1033E000844220D0B54884421DD0B54884421AD0CA
:1033F000B048844217D0B348844214D0B2488442C3
:1034000011D0B24884420ED0B14884420BD0B148AA
:10341000844208D0B048844205D04FF47F71AFF6A3
:10342000302008F085FB5EB1042E09D0082E07D0AD
:103430000C2E05D040F2FD31AFF64C2008F078FBA1
:103440009DB1102D11D0202D0FD0302D0DD0602D1D
:103450000BD0702D09D0502D07D0402D05D040F253
:10346000FE31AFF6742008F063FB0121228C04F1D9
:103470001800B1408A43228496B1082E10D0361F1E
:10348000C6F34E010844016848F6FF72114001601E
:1034900001684FF6FF7202EA05221143016070BD18
:1034A00000EB560001684FF68F7211400160016811
:1034B0002943F3E770B504467D480D46844226D083
:1034C000B4F1804F23D07C48844220D07B48844292
:1034D0001DD07B4884421AD07648844217D0794860
:1034E000844214D07848844211D0784884420ED067
:1034F000774884420BD07748844208D0764884428B
:1035000005D040F22741AFF6183008F011FB656393
:1035100070BD70B5044666480D4684421AD0B4F1B9
:10352000804F17D06448844214D06448844211D03C
:10353000634884420ED05F4884420BD06148844285
:1035400008D06348844205D040F23741AFF660307E
:1035500008F0EEFAA56370BD70B5044654480D46F8
:10356000844214D0B4F1804F11D0534884420ED01D
:10357000524884420BD05248844208D04D4884427D
:1035800005D040F24641AFF6983008F0D1FAE56335
:1035900070BD70B5044646480D46844214D0B4F15F
:1035A000804F11D0444884420ED0444884420BD00E
:1035B0004348844208D03F48844205D040F25541F8
:1035C000AFF6D43008F0B4FA256470BD70B5044687
:1035D00037480D46844226D0B4F1804F23D0364878
:1035E000844220D0354884421DD0354884421AD0C8
:1035F0003048844217D03348844214D03248844241
:1036000011D0324884420ED0314884420BD0314828
:10361000844208D03048844205D040F26941AFF678
:10362000304008F085FA502D07D0402D05D040F2EB
:103630006A41AFF6444008F07BFA208B20F070001E
:103640002843208370BD70B5044619480D46844256
:103650001AD0B4F1804F17D01748844214D01748BD
:10366000844211D0164884420ED0124884420BD0B6
:103670001448844208D01648844205D040F286415E
:10368000AFF6944008F054FA502D07D0402D05D0E5
:1036900040F28741AFF6A84008F04AFA208B4FF677
:1036A000FF7120F4E04001EA05210143218370BD50
:1036B00000000140000401400004004000080040F8
:1036C000000C00400040014000440140004801401F
:1036D00000180040001C00400020004070B5044667
:1036E000FE480D46844214D0B4F1804F11D0FC48FE
:1036F00084420ED0FB4884420BD0FB48844208D061
:10370000FA48844205D040F2A241AFF61C5008F0BE
:103710000FFA502D07D0402D05D040F2A341AFF64F
:10372000305008F005FAA08B20F070002843A083E9
:1037300070BD70B50446E9480D46844214D0B4F11A
:10374000804F11D0E64884420ED0E64884420BD028
:10375000E548844208D0E548844205D040F2BF41A4
:10376000AFF6745008F0E4F9502D07D0402D05D085
:103770004FF49861AFF6885008F0DAF9A08B4FF655
:10378000FF7120F4E04001EA05210143A18370BDEF
:1037900070B50446D1480D46844226D0B4F1804F1E
:1037A00023D0CF48844220D0CE4884421DD0CE487A
:1037B00084421AD0CD48844217D0CD48844214D0D8
:1037C000CC48844211D0CC4884420ED0CB488442AD
:1037D0000BD0CB48844208D0CA48844205D040F27E
:1037E000DB41AFF6F45008F0A3F9082D06D02DB157
:1037F00040F2DC41AFF6086008F09AF9208B20F027
:1038000008002843208370BD70B50446B3480D46B8
:1038100084421AD0B4F1804F17D0B148844214D0FA
:10382000B048844211D0B04884420ED0AF488442A0
:103830000BD0AF48844208D0B048844205D040F253
:10384000F941AFF6546008F073F9082D06D02DB198
:1038500040F2FA41AFF6686008F06AF9208B4FF643
:10386000FF7120F4006001EA05210143218370BD4E
:1038700070B5044699480D46844214D0B4F1804F87
:1038800011D0974884420ED0964884420BD0964877
:10389000844208D09548844205D040F21651AFF6D4
:1038A000B06008F045F9082D06D02DB140F217514F
:1038B000AFF6C46008F03CF9A08B20F00800284364
:1038C000A08370BD70B5044684480D46844214D070
:1038D000B4F1804F11D0824884420ED08148844296
:1038E0000BD08148844208D08048844205D040F201
:1038F0003351AFF6047008F01BF9082D06D02DB136
:1039000040F23451AFF6187008F012F9A08B4FF660
:10391000FF7120F4006001EA05210143A18370BD1D
:1039200070B504466D480D46844226D0B4F1804FF0
:1039300023D06B48844220D06A4884421DD06A4814
:1039400084421AD06948844217D06948844214D00E
:103950006848844211D0684884420ED06748844247
:103960000BD06748844208D06648844205D04FF4A3
:10397000AA61AFF6847008F0DBF8042D06D02DB1F3
:1039800040F25151AFF6987008F0D2F8208B20F039
:1039900004002843208370BD70B504464F480D468F
:1039A00084421AD0B4F1804F17D04D48844214D0CD
:1039B0004C48844211D04C4884420ED04B4884423B
:1039C0000BD04B48844208D04C48844205D040F28A
:1039D0006F51AFF6E47008F0ABF8042D06D02DB1AE
:1039E0004FF4AE61AFF6F87008F0A2F8208B4FF6F6
:1039F000FF7120F4806001EA05210143218370BD3D
:103A000070B5044635480D46844213D0B4F1804F5A
:103A100010D0334884420DD0324884420AD0324814
:103A2000844207D03148844204D040F28D51364858
:103A300008F07EF8042D05D025B140F28E513248B1
:103A400008F076F8A08B20F004002843A08370BD16
:103A500070B5044621480D46844213D0B4F1804F1E
:103A600010D01F4884420DD01E4884420AD01E4800
:103A7000844207D01D48844204D040F2AB51224812
:103A800008F056F8042D05D025B140F2AC511E487F
:103A900008F04EF8A08B4FF6FF7120F4806001EA29
:103AA00005210143A18370BD70B504460B480D4646
:103AB00084423ED0B4F1804F3BD00948844238D094
:103AC0000848844235D00848844232D007488442AE
:103AD0002FD0074884422CD0064817E00000014050
:103AE0000004004000080040000C004000040140B9
:103AF00000400140004401400048014000180040DF
:103B0000001C004000200040F0290008844210D032
:103B1000FE4884420DD0FE4884420AD0FD488442CB
:103B200007D0FD48844204D040F2C951FB4807F059
:103B3000FFFF802D05D025B140F2CA51F74807F0AC
:103B4000F7FF208B20F080002843208370BD70B5E4
:103B50000446F3480D46844219D0B4F1804F16D084
:103B6000F048844213D0F048844210D0EF48844299
:103B70000DD0EF4884420AD0EE48844207D0E44892
:103B8000844204D040F2E751E44807F0D1FF802D91
:103B900005D025B14FF4BD61E04807F0C9FF208B87
:103BA0004FF6FF71C0F30E0001EA052101432183A6
:103BB00070BD70B50446DA480D46844213D0B4F1A6
:103BC000804F10D0D74884420DD0D74884420AD0C5
:103BD000D648844207D0D648844204D040F20461DB
:103BE000CE4807F0A5FF802D05D025B140F2056134
:103BF000CA4807F09DFFA08B20F080002843A083D7
:103C000070BD70B50446C6480D46844213D0B4F169
:103C1000804F10D0C34884420DD0C34884420AD09C
:103C2000C248844207D0C248844204D040F2216195
:103C3000BA4807F07DFF802D05D025B140F2226102
:103C4000B64807F075FFA08B4FF6FF71C0F30E006A
:103C500001EA05210143A18370BD70B50446B04857
:103C60000D46844225D0B4F1804F22D0AD48844225
:103C70001FD0AD4884421CD0AC48844219D0AC4817
:103C8000844216D0AB48844213D0AB48844210D053
:103C90009E4884420DD09E4884420AD09D4884426A
:103CA00007D09D48844204D040F23E619B4807F013
:103CB0003FFF35B1022D04D040F23F61974807F035
:103CC00037FF208C20F002002843208470BD70B59F
:103CD000044693480D46844207D09548844204D058
:103CE0004FF4CB618D4807F023FF35B1082D04D088
:103CF00040F25961894807F01BFF208C20F0080032
:103D00002843208470BD70B5044685480D46844222
:103D100019D0B4F1804F16D08248844213D0824823
:103D2000844210D0814884420DD0814884420AD018
:103D30008048844207D07648844204D040F27461BF
:103D4000764807F0F5FE35B1022D04D040F27561DA
:103D5000724807F0EDFE208C4FF6FF7120F0200036
:103D600001EA05110143218470BD70B504466C4819
:103D70000D46844207D06E48844204D040F28F61E1
:103D8000664807F0D5FE35B1082D04D04FF4D26156
:103D9000624807F0CDFE208C4FF6FF7120F08000C6
:103DA00001EA05110143218470BD70B504465C48E9
:103DB0000D46844213D0B4F1804F10D0594884424C
:103DC0000DD0594884420AD05848844207D05848F8
:103DD000844204D040F2AA61504807F0A9FE35B1F0
:103DE000022D04D040F2AB614C4807F0A1FE208CBC
:103DF0004FF6FF7120F4007001EA05210143218490
:103E000070BD70B5044646480D46844207D0484808
:103E1000844204D040F2C561404807F089FE35B1C4
:103E2000082D04D040F2C6613C4807F081FE208C8A
:103E30004FF6FF7120F4006001EA0521014321845F
:103E400070BD70B5044636480D46844213D0B4F1B7
:103E5000804F10D0334884420DD0334884420AD07A
:103E60003248844207D03248844204D04FF4DC61A7
:103E70002A4807F05DFE35B1022D04D040F2E16121
:103E8000264807F055FE208C4FF6FF7120F40050B5
:103E900001EA05310143218470BD70B50446204814
:103EA00016460D46844225D0B4F1804F22D01D48DD
:103EB00084421FD01C4884421CD01C48844219D024
:103EC0001B48844216D01B48844213D01A488442AF
:103ED00010D00E4884420DD00D4884420AD00D48BF
:103EE000844207D00C48844204D040F2FF610B4862
:103EF00007F01EFE4DB1042D22D0082D20D00C2D30
:103F00001ED04FF4E061054818E019E00048014078
:103F100000180040001C004000200040F02900086C
:103F2000000001400004004000080040000C004078
:103F300000040140004001400044014007F0F8FD4A
:103F4000012E05D026B140F20171F74807F0F0FDCF
:103F50000120218CA84081432184208CAE40304335
:103F6000208470BD70B50446F04816460D46844264
:103F700007D0EF48844204D040F21D71EA4807F0B0
:103F8000D7FD45B1042D06D0082D04D040F21E7196
:103F9000E54807F0CDFD042E05D026B140F21F7193
:103FA000E14807F0C5FD0420218CA840814321840D
:103FB000208CAE403043208470BD70B50446DB4891
:103FC0000D46844213D0B4F1804F10D0D9488442BA
:103FD0000DD0D94884420AD0D848844207D0D4486A
:103FE000844204D040F67B01CF4807F0A1FD55B1D3
:103FF000042D08D0082D06D00C2D04D040F67C01ED
:10400000C94807F095FDA08B20F44060A083A08BE9
:104010004FF6FF7101EA05210843A08370BD70B51A
:104020000446C2480D46844213D0B4F1804F10D0EC
:10403000C04884420DD0C04884420AD0BF48844260
:1040400007D0BB48844204D040F66301B64807F06D
:104050006FFD55B1042D08D0082D06D00C2D04D0CD
:1040600040F66401B04807F063FDA08B20F00C001F
:10407000A083A08B2843A08370BD70B50446AB48D5
:104080000D46844219D0B4F1804F16D0A94884421D
:1040900013D0A948844210D0A84884420DD0A44827
:1040A00084420AD0A648844207D0A648844204D05D
:1040B00040F64B019C4807F03BFD55B1042D08D05C
:1040C000082D06D00C2D04D040F64C01964807F080
:1040D0002FFD208B20F440602083208B4FF6FF7152
:1040E00001EA05210843208370BDF0B5048C24F05B
:1040F00010040484078B068C4FF6FF7404EA011544
:1041000027F4734704EA0331394304EA02220A43DD
:1041100026F0A001294341F0100102830184F0BD83
:1041200070B5044681480D46844225D0B4F1804FD5
:1041300022D0804884421FD07F4884421CD07F48D0
:10414000844219D07A48844216D07D48844213D0E4
:104150007D48844210D07D4884420DD07948844205
:104160000AD07B48844207D07A48844204D040F683
:1041700032016D4807F0DCFC55B1042D08D0082D44
:1041800006D00C2D04D040F63301674807F0D0FC70
:10419000208B20F00C002083208B2843208370BDCF
:1041A0002DE9F05F614E634FDFF88C81DFF88C9171
:1041B000DFF87CA10D4604464FF0804BB04220D082
:1041C0005C451ED0BC421CD044451AD04C4518D08A
:1041D000544516D05A48844213D05B48844210D0CC
:1041E0005A4884420DD0574884420AD058488442E5
:1041F00007D05848844204D040F26F714A4807F013
:1042000097FC688840B1022806D00A2804D04FF4F1
:10421000EE61454807F08CFCA888012808D00228E8
:1042200006D0032804D040F271713F4807F080FCAB
:10423000E88850B1042808D0082806D00C2804D0FB
:1042400040F27271384807F073FC28890F2804D9AE
:1042500040F27371344807F06BFC2888A8B3042837
:104260003FD0082878D0B4420ED05C450CD0BC4278
:104270000AD0444508D04C4506D0544504D040F2FD
:104280009571294807F054FCAA7829792E7A208C58
:1042900020F480502084A78B238C4FF6FF7000EA17
:1042A000012100EA023227F47347394300EA06305D
:1042B000084323F42041114341F48051A083218419
:1042C000E9882046BDE8F05F77E6FFE72B89AA88FA
:1042D0006988204601F010F8E9882046BDE8F05FC3
:1042E0001EE7B44214D05C4512D0BC4210D0444505
:1042F0000ED04C450CD054450AD01148844207D00A
:104300001048844204D040F28171074807F010FC45
:104310002B89AA8869882046FFF7E7FEE9882046AE
:10432000BDE8F05FA9E617E0F029000800000140B1
:10433000000401400004004000080040000C004060
:104340000040014000180040004401400048014086
:10435000001C004000200040B4420ED05C450CD050
:10436000BC420AD0444508D04C4506D0544504D040
:1043700040F28B71FE4807F0DBFBAA78AB882889F6
:10438000218C21F480712184A68B218C4FF6FF773C
:1043900007EA001026F0F3061843304307EA02222A
:1043A00021F42061114341F48071A0832184E988C4
:1043B0002046BDE8F05F32E6002101804180012205
:1043C0008280C180018170472DE9F0410546E948AE
:1043D000002701260C46854219D0B5F1804F16D032
:1043E000E548854213D0E548854210D0E44885422F
:1043F0000DD0E44885420AD0E348854207D0E3481F
:10440000854204D040F2BD71D94807F091FB618824
:1044100001B90227A288012A00D102262088238917
:104420000028284610D0FFF760FEE1882846FFF7F5
:1044300024FE238932463946284600F05DFFE18894
:104440002846BDE8F0416BE600F056FFE1882846BB
:10445000FFF766FE2389324639462846FFF745FEB8
:10446000E1882846BDE8F04107E610B50446C1489A
:10447000844225D0B4F1804F22D0BF4884421FD05F
:10448000BE4884421CD0BE48844219D0BD488442F4
:1044900016D0BD48844213D0BD48844210D0BD48D8
:1044A00084420DD0B94884420AD0BB48844207D028
:1044B000BA48844204D040F2F371AD4807F038FBAB
:1044C000606B10BD10B50446AA48844219D0B4F1FF
:1044D000804F16D0A848844213D0A848844210D0F8
:1044E000A74884420DD0A74884420AD0A6488442F7
:1044F00007D0A648844204D040F602019C4807F049
:1045000017FBA06B10BD10B504469A48844213D027
:10451000B4F1804F10D0984884420DD0974884421F
:104520000AD09748844207D09648844204D04FF47A
:1045300001618F4807F0FCFAE06B10BD10B504462E
:104540008C48844213D0B4F1804F10D08A48844202
:104550000DD08A4884420AD08948844207D08948CD
:10456000844204D040F61E01814807F0E1FA206C35
:1045700010BD70B505467F480C46854207D081487E
:10458000854204D04FF40B61794807F0D1FA2088B6
:10459000B0F5006F05D020B140F6B101744807F0C6
:1045A000C7FA6088B0F5806F05D020B140F6B2013F
:1045B0006F4807F0BDFAA18869B1B1F5807F0AD0D4
:1045C000B1F5007F07D0B1F5407F04D040F6B301CC
:1045D000674807F0ADFA2089B0F5805F05D020B1BB
:1045E00040F6B401624807F0A3FA608938B1B0F52B
:1045F000005F04D040F6B5015D4807F099FAA08944
:10460000B0F5804F05D020B140F6B601584807F00C
:104610008FFA20886188E2880843A1881143084303
:104620002189084361890843A1890843A5F844000A
:1046300070BD0021018041808180C1800181418164
:104640008181704770B504464A480D46844207D0C0
:104650004C48844204D040F6DC01454807F068FA33
:104660005DB1012D04D040F6DD01414807F060FA4C
:1046700034F8440F40F4004003E034F8440FC0F332
:104680000E00208070BD70B504463A480D46844245
:1046900007D03C48844204D040F6F501344807F086
:1046A00047FA55B1012D04D040F6F601304807F025
:1046B0003FFAA08840F0040002E0A08820F0040047
:1046C000A08070BD70B504462A480D46844207D0CC
:1046D0002C48844204D040F60E11254807F028FAF1
:1046E00055B1012D04D040F60F11214807F020FAF2
:1046F000A08840F0010002E0A08820F00100A08026
:1047000070BD70B504461B4816460D4684422BD03A
:10471000B4F1804F28D01848844225D017488442ED
:1047200022D0174884421FD01D4884421CD01D4807
:10473000844219D01348844216D01348844213D0BF
:104740001348844210D0134884420DD00F4884424D
:104750000AD01148844207D01048844204D040F661
:104760004711034807F0E4F9280A00D10DBB1BE00C
:10477000F02900080000014000040040000800404B
:10478000000C0040000401400040014000180040BF
:104790000044014000480140001C0040002000404F
:1047A000001000400014004040F64811FE4807F099
:1047B000BFF94EB1012E04D040F64911FA4807F076
:1047C000B7F9A089284301E0A089A843A08170BD62
:1047D00070B50446F5480D4684422BD0B4F1804FA5
:1047E00028D0F348844225D0F248844222D0F248AF
:1047F00084421FD0F14884421CD0F148844219D031
:10480000F048844216D0F048844213D0EF488442E6
:1048100010D0EF4884420DD0EE4884420AD0EE48D2
:10482000844207D0ED48844204D040F66D11DE4842
:1048300007F07EF9280A00D125B940F66E11DA4852
:1048400007F076F9A58270BD70B50446D7480026FA
:104850000D4684422BD0B4F1804F28D0D4488442F6
:1048600025D0D448844222D0D34884421FD0D34894
:1048700084421CD0D248844219D0D248844216D0F7
:10488000D148844213D0D148844210D0D0488442C9
:104890000DD0D04884420AD0CF48844207D0CF48B8
:1048A000844204D040F68F11BF4807F041F9012D32
:1048B0001ED0022D1CD0042D1AD0082D18D0102D7A
:1048C00016D0202D14D0402D12D0802D10D0B5F54B
:1048D000007F0DD0B5F5806F0AD0B5F5006F07D019
:1048E000B5F5805F04D04FF41961AF4807F020F9A7
:1048F000208A284200D00126304670BD70B504469B
:10490000AA480D4684422BD0B4F1804F28D0A84845
:10491000844225D0A748844222D0A74884421FD091
:10492000A64884421CD0A648844219D0A548844297
:1049300016D0A548844213D0A448844210D0A4487D
:1049400084420DD0A34884420AD0A348844207D0B1
:10495000A248844204D040F6B811934807F0E8F822
:10496000E843208270BD70B50446904800260D468D
:1049700084422BD0B4F1804F28D08D48844225D07A
:104980008C48844222D08C4884421FD08B48844279
:104990001CD08B48844219D08A48844216D08A4859
:1049A000844213D08948844210D0894884420DD073
:1049B000884884420AD08848844207D08748844285
:1049C00004D040F6D611784807F0B2F8012D12D085
:1049D000022D10D0042D0ED0082D0CD0102D0AD091
:1049E000202D08D0402D06D0802D04D040F6D711C0
:1049F0006D4807F09DF8218AA089294200EA050048
:104A000001D000B10126304670BD70B5044667483C
:104A10000D4684422BD0B4F1804F28D064488442A4
:104A200025D06448844222D0634884421FD0634822
:104A300084421CD06248844219D06248844216D015
:104A40006148844213D06148844210D06048844257
:104A50000DD0604884420AD05F48844207D05F4846
:104A6000844204D040F6FD114F4807F061F8E84356
:104A7000208270BD70B506464C4815460C468642ED
:104A800013D0B6F1804F10D0494886420DD0494826
:104A900086420AD04848864207D04A48864204D017
:104AA00040F62221404807F043F854B3012C28D0A7
:104AB000022C26D0032C24D0042C22D0052C20D06C
:104AC000062C1ED0072C1CD0082C1AD0092C18D06C
:104AD0000A2C16D00B2C14D00C2C12D00D2C10D06C
:104AE0000E2C0ED00F2C0CD0102C0AD0112C08D06C
:104AF000122C06D0132C04D040F623212A4807F0AC
:104B000017F8BDB3B5F5807F34D0B5F5007F31D04F
:104B1000B5F5407F2ED0B5F5806F2BD0B5F5A06FE1
:104B200028D0B5F5C06F25D0B5F5E06F22D0B5F52A
:104B3000006F1FD0B5F5106F1CD0B5F5206F19D0E0
:104B4000B5F5306F16D0B5F5406F13D0B5F5506F91
:104B500010D0B5F5606F0DD0B5F5706F0AD0B5F512
:104B6000805F07D0B5F5885F04D040F624210E4859
:104B700006F0DEFF2C43A6F8484070BD70B5044631
:104B80000A4816460D46844236D0B4F1804F33D0E1
:104B90000748844230D0074884422DD006488442DA
:104BA0002AD0064884421BE0F0290008000001409A
:104BB0000004004000080040000C004000100040CD
:104BC0000014004000040140004001400044014046
:104BD0000048014000180040001C00400020004038
:104BE0000AD0FE48844207D0FD48844204D040F6F3
:104BF0003D21FC4806F09CFF35F4FE4000D125B96C
:104C000040F63E21F74806F093FF4EB1012E04D046
:104C100040F63F21F34806F08BFFA089284301E0CE
:104C2000A089A843A08170BD70B50446EE480D462A
:104C3000844213D0B4F1804F10D0EC4884420DD0A0
:104C4000EB4884420AD0EB48844207D0E4488442CF
:104C500004D040F65721E34806F06AFF55B1012D14
:104C600004D040F65821DF4806F062FFA08840F0EB
:104C7000080002E0A08820F00800A08070BD10B5F8
:104C80000446D948844219D0B4F1804F16D0D74891
:104C9000844213D0D648844210D0D64884420DD0E6
:104CA000CF4884420AD0D448844207D0D3488442B3
:104CB00004D040F67E21CB4806F03AFF208920F050
:104CC0000700208110BD70B50446C7480D468442D8
:104CD00025D0B4F1804F22D0C44884421FD0C448AC
:104CE00084421CD0C348844219D0BD48844216D0A7
:104CF000C148844213D0C248844210D0C148844283
:104D00000DD0BE4884420AD0BF48844207D0BF4875
:104D1000844204D040F65131B24806F009FF95B103
:104D2000102D10D0202D0ED0302D0CD0402D0AD0BB
:104D3000502D08D0602D06D0702D04D040F6523191
:104D4000A84806F0F5FE208920F070002843208155
:104D500070BD70B50446A4480D46844219D0B4F124
:104D6000804F16D0A148844213D0A148844210D06D
:104D7000A04884420DD09A4884420AD09E4884427A
:104D800007D09E48844204D040F69321954806F00F
:104D9000CFFE55B1102D08D0202D06D0302D04D0D7
:104DA00040F694218F4806F0C3FE29462046FFF7BF
:104DB0008AFF208940F00700208170BD2DE9F04175
:104DC000044689481E4615460F46844225D0B4F154
:104DD000804F22D0854884421FD0854884421CD011
:104DE0008448844219D07E48844216D08248844246
:104DF00013D08348844210D0824884420DD07F482B
:104E000084420AD08048844207D08048844204D03B
:104E100040F6B221734806F08BFE45B1022D06D054
:104E20000A2D04D040F6B3216E4806F081FE0F2E05
:104E300004D940F6B4216B4806F07AFE602F334661
:104E40004FF00102294620460BD000F055FA3946B2
:104E50002046FFF738FF208940F007002081BDE899
:104E6000F081FFF742F9F2E72DE9F04104465E4890
:104E70001F4616460D46844213D0B4F1804F10D021
:104E80005A4884420DD05A4884420AD05948844234
:104E900007D05348844204D040F6CA31514806F046
:104EA00047FE6DB1B5F5805F0AD0B5F5005F07D05C
:104EB000B5F5405F04D040F6CB314A4806F038FEE5
:104EC000B6F5004F05D026B140F6CC31454806F086
:104ED0002FFE0F2F04D940F6CD31424806F028FEB0
:104EE00020894FF6FF7101EA07213143C0B22943FF
:104EF00001432181B3E72DE9F04104463A481F46BA
:104F000016460D46844213D0B4F1804F10D0374876
:104F100084420DD0364884420AD03648844207D0B5
:104F20002F48844204D040F6DC212E4806F000FED3
:104F30006DB1B5F5805F0AD0B5F5005F07D0B5F566
:104F4000405F04D040F6DD21264806F0F1FDB6F5BD
:104F5000004F05D026B140F6DE21224806F0E8FDDC
:104F60000F2F04D940F6DF211E4806F0E1FD3B4635
:104F7000324629462046FFF777FF208940F0770028
:104F800020816CE72DE9F041044617481F4616467C
:104F90000D46844213D0B4F1804F10D013488442A0
:104FA0000DD0134884420AD01248844207D00C48DE
:104FB000844204D040F609310A4806F0B9FD65B1D3
:104FC000B5F5805F26D0B5F5005F23D0B5F5405F1D
:104FD00020D040F60A3103481AE01BE000140040DC
:104FE00000040140F02900080000014000040040D6
:104FF00000080040000C0040004001400018004044
:105000000044014000480140001C004000200040D6
:1050100006F08EFDB6F5004F05D026B140F60B31F7
:10502000C14806F085FD0F2F04D940F60C31BE486B
:1050300006F07EFD3B46324629462046FFF714FF28
:10504000208940F48040208109E770B50446B748C4
:105050000D46844219D0B4F1804F16D0B448844232
:1050600013D0B448844210D0B34884420DD0B34822
:1050700084420AD0B248844207D0B248844204D065
:1050800040F67A31A84806F053FD95B1102D10D0A6
:10509000202D0ED0302D0CD0402D0AD0502D08D010
:1050A000602D06D0702D04D040F67B319E4806F06E
:1050B0003FFDA08820F07000A080A0882843A08039
:1050C00070BD70B5044699480D46844219D0B4F1BC
:1050D000804F16D09648844213D09648844210D010
:1050E000954884420DD0974884420AD0964884421D
:1050F00007D09648844204D040F692318A4806F0A0
:1051000017FD042D0AD0052D08D0062D06D0072D39
:1051100004D040F69331844806F00AFD208920F03F
:105120000700208120892843208170BD70B5044686
:105130007E480D46844219D0B4F1804F16D07C4889
:10514000844213D07B48844210D07B4884420DD0E7
:105150007C4884420AD07C48844207D07B48844201
:1051600004D040F6A931704806F0E2FC802D05D04D
:1051700025B140F6AA316C4806F0DAFC208920F00F
:105180008000208120892843208170BD2DE9F041D5
:10519000044666481D4616460F46844219D0B4F1AF
:1051A000804F16D06248844213D06248844210D0A7
:1051B000614884420DD0634884420AD062488442E8
:1051C00007D06248844204D040F60641564806F0B3
:1051D000AFFC012F08D0022F06D0032F04D040F6D9
:1051E0000741514806F0A4FC46B1022E06D00A2E13
:1051F00004D040F608414C4806F09AFC45B1022D17
:1052000006D00A2D04D040F60941474806F090FC2C
:105210002189208B228C4FF6FC43184040F2011369
:10522000184322F0220321F007014FF6FF723943A1
:1052300002EA051232431A432181208322840EE6BA
:1052400070B5044639480D46844219D0B4F1804FF8
:1052500016D03748844213D03648844210D036489E
:1052600084420DD0374884420AD03748844207D060
:105270003648844204D040F635412B4806F058FCAD
:1052800055B1012D04D040F63641274806F050FCB8
:10529000A08840F0800002E0A08820F08000A0807C
:1052A00070BD70B50C460546B0F1804F0AD022485B
:1052B000854207D02648854204D040F668411A4806
:1052C00006F036FCACB1B4F5806F12D0B4F5006FC7
:1052D0000FD0B4F5406F0CD0402C0AD0802C08D0F1
:1052E000C02C06D0022C04D040F669410E4806F0CE
:1052F0001FFCA5F8504070BD70B5048C24F001046B
:105300000484058B048C4FF6FF7606EA03131343DF
:1053100025F0F3052B4324F00A020A4342F0010171
:105320000383018470BD0000F029000800000140E3
:105330000004004000080040000C00400010004045
:1053400000140040000401400040014000180040EB
:10535000004801402DE9F05FFD4DFE4EFE4FDFF8A5
:10536000FC83DFF8FC93DFF8FCA3DFF8FCB3044612
:10537000A84212D0B44210D0BC420ED044450CD04A
:105380004C450AD0544508D05C4506D0F7488442C5
:1053900003D0BE21F6A006F0CBFBAC4206D1012122
:1053A0001020FCF7E2FF002110201BE0B44202D1E4
:1053B00001214C0424E0BC4202D101218C041FE0F5
:1053C000444502D10121CC041AE04C4502D101210F
:1053D0000C0515E0544509D101212020FCF7C5FF3B
:1053E00000212020BDE8F05FFCF7BFBF5C4502D183
:1053F00001218C0704E0DD4884420AD101214405E3
:105400002046FCF793FF2046BDE8F05F0021FCF743
:105410008DBFBDE8F09F2DE9FF5FCD4EDFF83483EF
:10542000DFF83493CF4F0D460446B04215D04445C3
:1054300013D04C4511D0C94884420ED0C84884428C
:105440000BD0BC4209D0C848844206D0C748844229
:1054500003D0FE21C6A006F06BFB2868CF49401E92
:10546000884203D3FF21C2A006F062FBA8884FF454
:10547000805A4FF4807B28B1504503D05946BCA0D8
:1054800006F056FBE88860B150450AD0B0F5005FE1
:1054900007D0B0F5405F04D040F20111B4A006F08F
:1054A00047FB288950B1B0F5806F07D0B0F5C06FC9
:1054B00004D04FF48171AEA006F03AFB688930F059
:1054C0000C0100D120B940F20311A9A006F030FB75
:1054D000A889D8B158450CD0B0F5007F09D0B0F5F7
:1054E000407F06D04FF48271A1A006F021FBA8896D
:1054F00060B1B4420AD0444508D04C4506D0BC4205
:1055000004D040F209119AA006F012FB208A20F480
:105510004051E88808432082A08941F20C61884309
:10552000A9882A8911436A8902431143A181A08A6B
:1055300020F44071A8890843A0826846FCF747FC24
:10554000B44201D0BC4201D1039800E00298A18985
:10555000090400EBC00101EB0010296801D54900E6
:1055600000E08900B0FBF1F06422B0FBF2F1090128
:105570000B096FF018056B4300EB8300A3891D0432
:105580004FF0320306D503EBC000B0FBF2F000F0A1
:10559000070005E003EB0010B0FBF2F000F00F0095
:1055A00008432081BDE8FF9F4FF4165101600021A0
:1055B0008180C18001810C2242818181704770B558
:1055C000054663480C4685420DD0624885420AD0A4
:1055D0006148854207D06348854204D040F27F117C
:1055E00063A006F0A5FA208838B1B0F5006F04D0AA
:1055F0004FF4C0715EA006F09BFA608838B1B0F538
:10560000806F04D040F2811159A006F091FAA08871
:1056100038B1B0F5007F04D04FF4C17154A006F04A
:1056200087FAE08838B1B0F5807F04D040F283116A
:105630004FA006F07DFA288A628820F470612088E5
:10564000E3881043A2881A4310430843288270BDA0
:105650000021018041808180C180704770B504467F
:105660003B480D46844219D03A48844216D03A4805
:10567000844213D03948844210D0394884420DD036
:10568000384884420AD03848844207D03748844298
:1056900004D04FF4D77136A006F04AFA55B1012D67
:1056A00004D040F2AF1132A006F042FAA08940F4D3
:1056B000005002E0A08920F40050A08170BD70B5B8
:1056C000044623480D46844219D02248844216D00D
:1056D0002148844213D02148844210D0204884427B
:1056E0000DD0204884420AD01F48844207D01F486A
:1056F000844204D04FF4E4711DA006F019FA208B07
:1057000000F47F402083208B2843208370BD70B538
:1057100004460F480D46844219D00E48844216D0E4
:105720000D48844213D00D48844210D00C48844266
:105730000DD00C4884420AD00B48844207D00B4855
:10574000844204D040F2DD1109A006F0F1F927E00F
:10575000001001400044004000480040004C004060
:10576000005000400014014000780040007C0040E0
:105770002E2E5C4C6962726172795C506572697040
:10578000686572616C5C7372635C73746D333266EE
:105790003478785F75736172742E6300E070720004
:1057A0005DB1012D05D04FF4EF71AFF23C0006F072
:1057B000BFF9A08940F4004002E0A089C0F30E00C8
:1057C000A08170BD70B50446F9480D4684421AD0D8
:1057D000F848844217D0F848844214D0F7488442ED
:1057E00011D0F74884420ED0F64884420BD0F648D8
:1057F000844208D0F548844205D040F2F711AFF258
:10580000900006F095F95DB1012D05D04FF4FC71C3
:10581000AFF2A40006F08CF9A08A40F4006002E028
:10582000A08A20F40060A08270BD70B50446E048F4
:105830000D4684421AD0DF48844217D0DE488442A5
:1058400014D0DE48844211D0DD4884420ED0DD48B9
:1058500084420BD0DC48844208D0DC48844205D026
:105860004FF40C71AFF2F80006F062F9B5F5007F65
:1058700005D340F23121AFF2081006F059F9C5F313
:105880000800A08070BD10B50446C94884421AD0F3
:10589000C848844217D0C848844214D0C7488442BC
:1058A00011D0C74884420ED0C64884420BD0C648A7
:1058B000844208D0C548844205D04FF41071AFF23D
:1058C000501006F035F9A088C0F3080010BD70B57F
:1058D0000446B7480D4684421AD0B648844217D0D1
:1058E000B548844214D0B548844211D0B4488442AB
:1058F0000ED0B44884420BD0B348844208D0B34899
:10590000844205D04FF41D71AFF29C1006F010F9DF
:105910000F2D05D940F27521AFF2AC1006F008F951
:10592000208A20F00F002082208A2843208270BD28
:1059300070B504469E480D4684421AD09D48844264
:1059400017D09D48844214D09C48844211D09C4872
:1059500084420ED09B4884420BD09B48844208D09E
:105960009A48844205D04FF42271AFF2FC1006F041
:10597000DFF85DB1012D05D040F28921AFF2102092
:1059800006F0D6F8A08940F0020002E0A08920F0DD
:105990000200A08170BD70B5044685480D46844262
:1059A0001AD08448844217D08348844214D0834854
:1059B000844211D0824884420ED0824884420BD067
:1059C0008148844208D08148844205D040F2A32116
:1059D000AFF2642006F0ACF845B1B5F5006F05D024
:1059E0004FF42971AFF2782006F0A2F8A08920F4D4
:1059F0000060A081A0892843A08170BD70B50446D5
:105A00006B480D4684421AD06A48844217D06A48CF
:105A1000844214D06948844211D0694884420ED02F
:105A2000684884420BD06848844208D06748844262
:105A300005D04FF43A71AFF2C82006F079F83DB1C5
:105A4000202D05D040F2E921AFF2DC2006F070F8FD
:105A5000208A20F020002082208A2843208270BDE6
:105A600070B5044652480D4684421AD051488442CB
:105A700017D05148844214D05048844211D0504825
:105A800084420ED04F4884420BD04F48844208D005
:105A90004E48844205D040F2FA21AFF22C3006F095
:105AA00047F85DB1012D05D040F2FB21AFF2403047
:105AB00006F03EF8208A40F4804002E0208A20F47C
:105AC0008040208270BD10B50446394884421AD007
:105AD0003848844217D03848844214D0374884422A
