:020000040800F2
:10000000380700202902000889030008810300083E
:1000100085030008D9020008170600080000000048
:10002000000000000000000000000000AD03000818
:10003000DD020008000000008B030008C504000872
:10004000430200084302000843020008430200087C
:10005000430200084302000843020008430200086C
:10006000430200084302000843020008430200085C
:10007000430200084302000843020008430200084C
:10008000430200084302000843020008430200083C
:10009000430200084302000843020008430200082C
:1000A000430200084302000843020008430200081C
:1000B000430200084302000843020008430200080C
:1000C00043020008430200084302000843020008FC
:1000D00043020008310500084302000843020008FB
:1000E00043020008430200084302000843020008DC
:1000F00043020008430200084302000843020008CC
:1001000043020008430200084302000843020008BB
:1001100043020008430200084302000843020008AB
:10012000430200084302000843020008430200089B
:10013000430200084302000843020008430200088B
:10014000430200084302000843020008430200087B
:10015000430200084302000843020008430200086B
:10016000430200084302000843020008430200085B
:10017000430200084302000843020008430200084B
:10018000430200084302000800F002F800F03CF8C7
:100190000AA090E8000C82448344AAF10107DA45E2
:1001A00001D100F031F8AFF2090EBAE80F0013F0F8
:1001B000010F18BFFB1A43F0010318472008000085
:1001C00040080000103A24BF78C878C1FAD8520716
:1001D00024BF30C830C144BF04680C6070470000C1
:1001E0000023002400250026103A28BF78C1FBD840
:1001F000520728BF30C148BF0B6070471FB500F0E1
:10020000E7FB1FBD10B510BD00F033F81146FFF736
:10021000F5FF00F099FB00F051F803B4FFF7F2FF8F
:1002200003BC00F08FFB00000948804709480047E5
:10023000FEE7FEE7FEE7FEE7FEE7FEE7FEE7FEE796
:10024000FEE7FEE704480549054A064B70470000F3
:10025000C90400088901000838010020380700207F
:1002600038030020380300207047704770477047FC
:100270007047754600F02CF8AE46050069465346B7
:1002800020F00700854618B020B5FFF7DBFFBDE87A
:1002900020404FF000064FF000074FF000084FF0ED
:1002A000000B21F00701AC46ACE8C009ACE8C0097E
:1002B000ACE8C009ACE8C0098D46704710B50446EB
:1002C000AFF300802046BDE81040FFF7A6BF000056
:1002D00000487047D800002000BFFEE77047F0B527
:1002E0000A4600210023002400BF3DE0012505FA55
:1002F00001F3156805EA03049C4234D105684F00F8
:100300000326BE40B543056015794E00B54006682A
:10031000354305601579012D02D01579022D16D1CE
:1003200085684F000326BE40B543856055794E0071
:10033000B540866835438560456801268E40B543E3
:100340004560456896798E40B6B235434560C568CC
:100350004F000326BE40B543C560D5794E00B54079
:10036000C6683543C560491C1029BFD3F0BD02469D
:10037000002013690B400BB1012000E00020704702
:1003800000BFFEE700BFFEE77047704729B1064A8D
:1003900012680243044B1A6004E0034A1268824365
:1003A000014B1A607047000030380240704700006F
:1003B0000CB50020019000903448006840F4803073
:1003C0003249086000BF3148006800F400300090F6
:1003D0000198401C0190009818B90198B0F5A04F01
:1003E000F1D12A48006800F4003010B101200090DB
:1003F00001E0002000900098012846D123484030B9
:10040000006840F080502149403108602048006871
:1004100040F440401E4908601C48083000681B49F1
:10042000083108600846006840F40040086008464B
:10043000006840F4A05008601648091F0860081FB3
:10044000006840F08070091F086000BF0F48006816
:1004500000F000700028F9D040F205700E490860E5
:100460000A480830006820F0030008490831086095
:100470000846006840F00200086000BF03480830EA
:10048000006800F00C000828F8D10CBD00380240CC
:100490000070004019544007003C0240042808D175
:1004A0004FF0E021096941F004014FF0E0221161B1
:1004B00007E04FF0E021096921F004014FF0E0224C
:1004C000116170477047000010B51548006840F48E
:1004D0007000134908601348006840F0010011499A
:1004E000086000200F49083108600E4800680E4976
:1004F00008400C4908600D48091D0860081F006885
:1005000020F48020091F0860002006490C31086093
:10051000FFF74EFF4FF0006001498039086010BDC1
:1005200088ED00E000380240FFFFF6FE10300024A6
:1005300010B540F225511D4800F03EF810B31B489D
:1005400000F064F8C4B21A48008800F40040C8B94A
:100550001748008800F4804060B10A2C03D00020C6
:100560001349088020E01248008840F400401049F8
:10057000088019E00D2C06D10D48008840F4804019
:100580000B49088010E00A480088C0F30D000949B3
:100590000C5407480088401C05490880084600881C
:1005A000C72801DD0020088010BD000000100140B8
:1005B000040000201000002070B502460024002333
:1005C0000025002040F66A16B14200D100BFC1F3F9
:1005D000421501F01F03012606FA03F3012D02D193
:1005E0009689334006E0022D02D1168A334001E09D
:1005F000968A33400C12012606FA04F41688344019
:1006000013B10CB1012000E0002070BD01468888C4
:10061000C0F30800704700BFFEE770B504464FF412
:10062000077094FBF0F0C6B24FF4077094FBF0F142
:1006300000FB114085B205E04FF4077000F00AF8A6
:10064000701EC6B2002EF7D115B1284600F002F890
:1006500070BD00000146114A12884A434FF0E02362
:100660005A6100229A611A46126942F001021A6127
:1006700000BF4FF0E022106900F001021AB100F44F
:100680008032002AF5D04FF0E022126922F00102F8
:100690004FF0E0231A6100229A6170470C0000209D
:1006A00010B5A8226FF00401014800F0D3F810BD86
:1006B0000700002070B504460D4614B101202D49F5
:1006C00008702C480078002837D010212A48FFF7FE
:1006D0004EFE78B108212848FFF749FE50B10421A9
:1006E0002548FFF744FE28B101212448FFF73FFECB
:1006F000012822D10A20FFF790FF00201D49087031
:1007000010211D48FFF733FE08B9012070BD0821F4
:100710001948FFF72CFE08B90220F7E70421164814
:10072000FFF725FE08B90320F0E701211348FFF782
:100730001EFE01281BD10420E8E710210E48FFF718
:1007400016FE012813D108210B48FFF710FE0128DF
:100750000DD104210848FFF70AFE012807D1012125
:100760000648FFF704FE10B9012002490870002076
:10077000CCE700000800002000100240000002400A
:100780000EB5012220211E4800F042F80120002170
:1007900003220346CDE9002102905202194918486C
:1007A00000F03FF801221021154800F031F8012037
:1007B000002102220B46CDE9002102901C221249A1
:1007C0000F4800F02EF8012211460D4800F020F8E5
:1007D00002200021CDE900010B4602460B490290A0
:1007E000074800F01EF802200021CDE90001012396
:1007F000C20104490290024800F013F80EBD000047
:1008000006000020001402400010024000000240D8
:1008100070B506460C46154629462046FFF7B6FD3C
:1008200070BD2DE9FC4782460C4615461E46DDE9A3
:100830000B890A9F00958DF804608DF805708DF87E
:1008400006808DF8079069462046FFF748FDBDE811
:10085000FC87000070B506460D4614462846FFF793
:100860001DFE681D98B9E11704EB5171C1F3C70172
:100870000E4A11701046007800EB4001C1EBC01029
:100880004FF6FF7101EAC000094908800CE00748F3
:100890000470007800EB4001C1EBC0104FF6FF710F
:1008A00001EAC0000249088070BD00000A00002073
:1008B0000C000020F0B507460C464FF4077094FB7F
:1008C000F0F0C5B24FF4077094FBF0F100FB11405B
:1008D00086B206E04FF40771384600F00BF8681E48
:1008E000C5B2002DF6D11EB13146384600F002F8EF
:1008F000F0BD000010B50246114B1B884B434FF072
:10090000E02463610023A36123461B6943F00103D4
:10091000236100BF4FF0E023186900F001031BB111
:1009200000F48033002BF5D04FF0E0231B6923F057
:1009300001034FF0E02423610023A36110BD0000F8
:100940000C00002000BF7047FFF71AFFFFF7A8FE5A
:1009500036E014210020FFF7ADFE044664B3012CFD
:1009600006D0022C0BD0032C11D0042C22D11CE079
:1009700014480068C0431449C1F8A4021BE01148A0
:10098000001D0068C0431049C1F8A80213E00D48DB
:10099000001D0068C0430C49C1F8A8020846D0F801
:1009A000A402C043C1F8A40205E001200549091FC3
:1009B000086000E000BF03E014210448FFF77AFF5D
:1009C000C7E70000A48242420080424207000020A4
:1009D0004FF04070E1EE100A70470000FC0900087B
:1009E0000000002010000000C40100080C0A0008EC
:1009F0001000002028070000E001000800000000AF
:0C0A0000000000000100000000000000E9
:040000050800018965
:00000001FF
