:020000040800F2
:100000004807002029020008F5050008ED05000852
:10001000F105000875030008930B000800000000BC
:10002000000000000000000000000000B107000810
:10003000790300080000000085060008090900088F
:10004000430200084302000843020008430200087C
:1000500043020008430200087D0300084302000831
:10006000B1030008E5030008190400084302000872
:10007000430200084302000843020008430200084C
:10008000430200084302000843020008430200083C
:10009000430200084302000843020008430200082C
:1000A000430200084302000843020008430200081C
:1000B000430200084302000843020008430200080C
:1000C00043020008430200084302000843020008FC
:1000D00043020008750900084302000843020008B3
:1000E00043020008430200084302000843020008DC
:1000F00043020008430200084302000843020008CC
:1001000043020008430200084302000843020008BB
:1001100043020008430200084302000843020008AB
:10012000430200084302000843020008430200089B
:10013000430200084302000843020008430200088B
:10014000430200084302000843020008430200087B
:10015000430200084302000843020008430200086B
:10016000430200084302000843020008430200085B
:10017000430200084302000843020008430200084B
:10018000430200084302000800F002F800F03CF8C7
:100190000AA090E8000C82448344AAF10107DA45E2
:1001A00001D100F031F8AFF2090EBAE80F0013F0F8
:1001B000010F18BFFB1A43F001031847180F000086
:1001C000380F0000103A24BF78C878C1FAD8520717
:1001D00024BF30C830C144BF04680C6070470000C1
:1001E0000023002400250026103A28BF78C1FBD840
:1001F000520728BF30C148BF0B6070471FB500F0E1
:100200005BFF1FBD10B510BD00F06EF81146FFF783
:10021000F5FF00F03FFF00F0A0F803B4FFF7F2FF96
:1002200003BC00F027FF0000094880470948004749
:10023000FEE7FEE7FEE7FEE7FEE7FEE7FEE7FEE796
:10024000FEE7FEE704480549054A064B70470000F3
:100250000D09000889010008480100204807002016
:100260004803002048030020704700000FB40449F1
:1002700010B503AA029800F009F810BC5DF814FB51
:10028000140000207047704770477047074B70B5E7
:100290000D467B4400F011F80446284600F020F893
:1002A00010B14FF0FF3070BD204670BDE30D00006F
:1002B00001694A1C02610878704700B58FB0CDE92A
:1002C00001310021059105497944CDE9031011461A
:1002D000684600F02EF80FB000BD0000E5FFFFFFFC
:1002E000007B00F080007047754600F03FF8AE4696
:1002F00005006946534620F00700854618B020B532
:10030000FFF7A0FFBDE820404FF000064FF00007C8
:100310004FF000084FF0000B21F00701AC46ACE8AD
:10032000C009ACE8C009ACE8C009ACE8C0098D461A
:1003300070472DE9F04106460024D6E90170F568C2
:100340008046304603E04146B847641C3046A84723
:100350000028F8D12046BDE8F08110B50446AFF37F
:1003600000802046BDE81040FFF757BF00487047A7
:10037000E800002000BFFEE77047000010B5142021
:1003800000F009FC0121084800F027F9012807D1F5
:100390000648006808B9012000E000200349086011
:1003A000012000F05FF810BD00000240A082424230
:1003B00010B5142000F0EFFB0421084800F00DF9FF
:1003C00038B90748006808B9012000E00020044956
:1003D0000860042000F046F810BD00000010024044
:1003E000A482424210B5142000F0D5FB0821084831
:1003F00000F0F3F838B90748006808B9012000E0B8
:10040000002004490860082000F02CF810BD00000E
:1004100000100240A882424210B50A2000F0BBFB47
:1004200010210D4800F0D9F888B90C48006808B9C7
:10043000012000E00020094908600948D0F8A8021E
:1004400008B9012000E000200449091D08601020BF
:1004500000F008F810BD000000100240A4824242E3
:10046000008042420149086070470000143C01408E
:10047000002123498279002A3AD00A46126803688B
:100480009A430B461A600A1D126803689A430B1DB3
:100490001A60027911440A6803681A430A60184A0C
:1004A0000832126803689A43154B08331A601A1D04
:1004B000126803689A43124B0C331A604279102A6F
:1004C0000ED11A1F126803681A430D4B08331A60C5
:1004D0001A1D126803681A43094B0C331A600DE0A9
:1004E0000749427911440A6803681A430A6005E023
:1004F000027911440A6803689A430A607047000051
:10050000003C0140F0B50A4600210023002400BF52
:100510003DE0012505FA01F3156805EA03049C4254
:1005200034D105684F000326BE40B54305601579F8
:100530004E00B5400668354305601579012D02D09F
:100540001579022D16D185684F000326BE40B543AC
:10055000856055794E00B5408668354385604568AD
:1005600001268E40B5434560456896798E40B6B207
:1005700035434560C5684F000326BE40B543C5609E
:10058000D5794E00B540C6683543C560491C102971
:10059000BFD3F0BDF0B5002300244D07ED0E02FAE5
:1005A00005F3CE1000F1200555F826504E07F70E42
:1005B0000F26BE40B543CF1000F1200646F8275065
:1005C000CE1000F1200555F8265045EA0304CE1060
:1005D00000F1200545F82640F0BD024600201369D1
:1005E0000B400BB1012000E00020704700BFFEE788
:1005F00000BFFEE77047000070B5002100230F2206
:10060000C4781CB3174C246804F4E064C4F5E064B7
:10061000C4F30721C1F10404E3B20A4144789C40C9
:10062000E1B28478144021430C07210E0E4C05786A
:100630006155047804F01F050124AC4005786D1164
:10064000AD0005F1E025C5F8004109E0047804F0AB
:100650001F050124AC40054D0678761145F826406B
:1006600070BD00000CED00E000E400E080E100E07F
:1006700002490143024A1160704700000000FA0578
:100680000CED00E07047000029B1064A12680243F1
:10069000044B1A6004E0034A12688243014B1A605B
:1006A000704700003038024029B1064A1268024300
:1006B000044B1A6004E0034A12688243014B1A603B
:1006C0007047000044380240F0B5002100220024A9
:1006D000022500260223324F3F6807F00C0121B1AA
:1006E000042905D0082937D105E02E4F076036E0F0
:1006F0002D4F076033E02A4F3F1F3F68C7F38056F6
:10070000274F3F1F3F6807F03F036EB1264FB7FBEF
:10071000F3F7DFF88CC0ACF1040CDCF800C0CCF3CC
:10072000881C07FB0CF40CE01E4FB7FBF3F7DFF857
:1007300070C0ACF1040CDCF800C0CCF3881C07FBE3
:100740000CF4174F3F1F3F68C7F301477F1C7D0024
:10075000B4FBF5F7076002E0124F076000BF00BF6F
:100760000F4F3F6807F0F0010909104F7A5C0768E6
:10077000D74047600A4F3F6807F4E051890A0B4FA2
:100780007A5C4768D7408760054F3F6807F460414F
:10079000490B064F7A5C4768D740C760F0BD000040
:1007A000083802400024F40000127A000000002003
:1007B0007047000030B500228B071C0F0F2303FA8F
:1007C00004F20B4B8C1053F824309343084C8D10DB
:1007D00044F8253023468C1053F824308C07240F1E
:1007E00000FA04F42343024C8D1044F8253030BD48
:1007F000083801400CB50020019000903448006892
:1008000040F480303249086000BF3148006800F48D
:10081000003000900198401C0190009818B9019890
:10082000B0F5A04FF1D12A48006800F4003010B1B3
:100830000120009001E0002000900098012846D19E
:1008400023484030006840F0805021494031086022
:100850002048006840F440401E4908601C480830A9
:1008600000681B49083108600846006840F40040F1
:1008700008600846006840F4A05008601648091F48
:100880000860081F006840F08070091F086000BF02
:100890000F48006800F000700028F9D040F20570A1
:1008A0000E4908600A480830006820F00300084933
:1008B000083108600846006840F00200086000BF88
:1008C00003480830006800F00C000828F8D10CBD7F
:1008D000003802400070004008544007003C0240CD
:1008E000042808D14FF0E021096941F004014FF0DC
:1008F000E022116107E04FF0E021096921F00401D5
:100900004FF0E022116170477047000010B51548A4
:10091000006840F47000134908601348006840F014
:1009200001001149086000200F49083108600E4895
:1009300000680E4908400C4908600D48091D086010
:10094000081F006820F48020091F08600020064965
:100950000C310860FFF74EFF4FF00060014980390D
:10096000086010BD88ED00E000380240FFFFF6FE91
:100970001030002410B540F225511D4800F04AF80F
:1009800010B31B4800F000F9C4B21A48008800F404
:100990000040C8B91748008800F4804060B10A2CB4
:1009A00003D000201349088020E01248008840F45A
:1009B00000401049088019E00D2C06D10D48008830
:1009C00040F480400B49088010E00A480088C0F3DA
:1009D0000D0009490C5407480088401C054908804F
:1009E00008460088C72801DD0020088010BD0000EF
:1009F00000100140180000202000002021B1828951
:100A000042F40052828104E082894DF6FF731A405D
:100A10008281704770B50246002400230025002023
:100A200040F66A16B14200D100BFC1F3421501F091
:100A30001F03012606FA03F3012D02D196893340E4
:100A400006E0022D02D1168A334001E0968A334037
:100A50000C12012606FA04F41688344013B10CB1C6
:100A6000012000E0002070BDF0B503460024002600
:100A70000025002040F66A17B94200D100BF184691
:100A8000C1F3421401F01F06012707FA06F5012CF5
:100A900001D10C3004E0022C01D1103000E0143000
:100AA0001AB107682F43076002E00768AF43076089
:100AB000F0BD00002DE9FF4705460E460024A14683
:100AC00000BFA046B08900B100BF2C8A24F4405476
:100AD000F08804432C82AC8941F20C608443B088D6
:100AE00031890843718908430443AC81AC8A24F4FA
:100AF0004074B0890443AC826846FFF7E5FD2048A6
:100B0000854202D01F48854202D1DDF80C9001E0F9
:100B1000DDF80890A88900F4004040B109EBC90055
:100B200000EB091031684900B0FBF1F707E009EB71
:100B3000C90000EB091031688900B0FBF1F76420AF
:100B4000B7FBF0F004012009642101FB1078A889AB
:100B500000F4004040B1322000EBC800B0FBF1F0DF
:100B600000F00700044308E0322000EB0810642185
:100B7000B0FBF1F000F00F0004432C81BDE8FF87CB
:100B8000001001400014014001468888C0F30800AD
:100B9000704700BFFEE770B504464FF4077094FB42
:100BA000F0F0C6B24FF4077094FBF0F100FB114077
:100BB00085B205E04FF4077000F00AF8701EC6B267
:100BC000002EF7D115B1284600F002F870BD0000E4
:100BD0000146114A12884A434FF0E0235A6100222D
:100BE0009A611A46126942F001021A6100BF4FF081
:100BF000E022106900F001021AB100F48032002AEC
:100C0000F5D04FF0E022126922F001024FF0E0230C
:100C10001A6100229A6170471C0000201FB54FF432
:100C2000A060FFF725FDA8226FF00401684800F0DE
:100C3000A9F901221146674800F013F90122102199
:100C4000654800F04CF90720012100220223CDE97C
:100C50000032CDE9021009234A0260495E4800F0E3
:100C600061F90720012100220223CDE90032CDE9FC
:100C700002100A238A025949574800F053F90C2000
:100C80000021009101910B464FF4E132CDE90210B1
:100C90005349514800F02CF9012251494E4800F0C7
:100CA00015F9012340F225524D494B4800F05CF9FB
:100CB000012003231A4625210090474800F0F2F84E
:100CC00001222021434800F0CCF80120002102221B
:100CD0000346CDE9002102904FF4C06241493D48EE
:100CE00000F0C8F802200021CDE900010123C20173
:100CF0003C490290374800F0BDF8012210213548E8
:100D000000F0AFF80120002102220B46CDE90021BE
:100D100002901C2234492F4800F0ACF80122114601
:100D20002C4800F09EF802200021CDE900010B467E
:100D300002462A490290274800F09CF801229103BC
:100D40002A4800F072F802220421284800F050F8E6
:100D500003220421254800F04BF8042211462348C1
:100D600000F046F800221146204800F041F801202A
:100D700008230022014600901C4800F05FF8012083
:100D80000C2300221C210090184800F057F8012085
:100D90000223002206210090144800F032F80120BE
:100DA0000223032208210090104800F02AF80120B5
:100DB00002231A46092100900C4800F022F8012075
:100DC000022302460A210090084800F01AF81FBDCD
:100DD000100000201100002012000020000002403E
:100DE00000100140001402400010024013000020D7
:100DF00070B506460C46154629462046FFF7DAFC34
:100E000070BD2DE9F84380460C4615461E46089FE6
:100E10008DF800408DF801508DF802608DF8037058
:100E20006846FFF7E9FBBDE8F88370B506460C4657
:100E3000154629462046FFF737FC70BD2DE9FC41D9
:100E400080460C4615461E46089F00948DF8067095
:100E50008DF804508DF805606846FFF709FBBDE882
:100E6000FC8170B506460C46154629462046FFF71C
:100E70000BFC70BD2DE9FC4782460C4615461E460C
:100E8000DDE90B890A9F00958DF804608DF80570E7
:100E90008DF806808DF8079069462046FFF732FBF3
:100EA000BDE8FC872DE9F84380460C4615461E46F2
:100EB000089F8DF800408DF801508DF802608DF884
:100EC00003706846FFF798FBBDE8F88370B50646E7
:100ED0000C46154629462046FFF790FD70BD70B5BB
:100EE00006460C46154629462046FFF7DDFB70BD39
:100EF0002DE9FF5F83460C4615461E460EAF97E868
:100F000080070095ADF80460ADF80670ADF8088074
:100F1000ADF80C90ADF80AA069462046FFF7CAFD6F
:100F2000BDE8FF9F2DE9FC5F83460C4615461E4633
:100F30000CAF97E88007524631462046FFF72AFB60
:100F4000084903C9CDE9000100958DF805708DF8B9
:100F500006808DF8079069462046FFF7D3FABDE872
:100F6000FC9F0000CC1000082DE9F04107460C461C
:100F700015461E46324629462046FFF775FDBDE858
:100F8000F081000070B506460D4614462846FFF76E
:100F9000A7FC681D98B9E11704EB5171C1F3C701B3
:100FA0000E4A11701046007800EB4001C1EBC010F2
:100FB0004FF6FF7101EAC000094908800CE00748BC
:100FC0000470007800EB4001C1EBC0104FF6FF71D8
:100FD00001EAC0000249088070BD00001A0000202C
:100FE0001C000020F0B507460C464FF4077094FB38
:100FF000F0F0C5B24FF4077094FBF0F100FB114024
:1010000086B206E04FF40771384600F00BF8681E10
:10101000C5B2002DF6D11EB13146384600F002F8B7
:10102000F0BD000010B50246114B1B884B434FF03A
:10103000E02463610023A36123461B6943F001039D
:10104000236100BF4FF0E023186900F001031BB1DA
:1010500000F48033002BF5D04FF0E0231B6923F020
:1010600001034FF0E02423610023A36110BD0000C1
:101070001C00002000BF704700BF054A128802F024
:101080004002002AF9D0C2B2014B9A80704700009A
:1010900000100140FFF7C2FD07E004A0FFF7E6F8EB
:1010A0004FF4FA710348FFF79DFFF6E74F4B0D0A27
:1010B00000000000100000204FF04070E1EE100A28
:1010C0007047000000000000020000000000000067
:1010D00002000000F41000080000002020000000C2
:1010E000C401000814110008200000202807000097
:1010F000E0010008000000000102030401020304F3
:1011000006070809000000000000000000000000C1
:0411100000000000DB
:040000050800018965
:00000001FF
