:020000040800F2
:10000000500400209D010008EF170008E9160008C1
:10001000ED170008A9020008BD1D0008000000003F
:10002000000000000000000000000000F3170008BE
:10003000AB02000800000000F1170008F5170008E7
:10004000B7010008B7010008B7010008B7010008B0
:10005000B7010008B7010008B7010008B7010008A0
:10006000B7010008B7010008B7010008B701000890
:10007000B7010008B7010008B7010008B701000880
:10008000B7010008B7010008B7010008B701000870
:10009000B7010008B7010008B7010008B701000860
:1000A000B7010008B7010008B7010008B701000850
:1000B000B7010008B7010008B7010008B701000840
:1000C000B7010008B7010008B7010008B701000830
:1000D000B7010008B7010008B7010008B701000820
:1000E000B7010008B7010008B7010008B701000810
:1000F000B70100089D180008B7010008B701000803
:10010000B7010008B7010008B7010008B7010008EF
:10011000B7010008B7010008B7010008B7010008DF
:10012000B7010008B7010008B7010008B7010008CF
:10013000B7010008B7010008B7010008B7010008BF
:10014000B7010008B7010008B7010008B7010008AF
:10015000B7010008B7010008B7010008B70100089F
:10016000B7010008B7010008B7010008B70100088F
:10017000B7010008B7010008B7010008000000003F
:10018000B7010008B7010008DFF80CD000F07AF8DA
:1001900000480047011E0008500400200648804720
:1001A00006480047FEE7FEE7FEE7FEE7FEE7FEE75C
:1001B000FEE7FEE7FEE7FEE7811800088901000878
:1001C0002DE9F05F0546002092469B46884606468C
:1001D000814640241BE0284641464746224600F01F
:1001E00041F853465A46C01A914110D31146184659
:1001F000224600F028F82D1A67EB01084F462246E8
:100200000120002100F01FF817EB00094E41201ECD
:10021000A4F10104DFDC484631462A464346BDE8E6
:10022000F09FD2B201E000F8012B491EFBD27047CB
:100230000022F6E710B513460A4604461946FFF7B2
:10024000F0FF204610BD202A04DB203A00FA02F11C
:10025000002070479140C2F1200320FA03F31943B4
:1002600090407047202A04DB203A21FA02F0002156
:10027000704721FA02F3D040C2F1200291400843B6
:1002800019467047064C074D06E0E06840F0010350
:1002900094E8070098471034AC42F6D3FFF778FF94
:1002A000301E0008501E0008FEE77047704700002F
:1002B0002DE9F84F0446A1480D4684421BD0A048C2
:1002C000844218D09F48844215D09F48844212D05F
:1002D0009E4884420FD09E4884420CD09D48844260
:1002E00009D09D48844206D09C48844203D0B32163
:1002F0009BA001F083FD28680104090C01D0000CCB
:1003000003D0B42196A001F079FD6868F8B1012806
:100310001DD011281BD0022819D0122817D09F49B0
:10032000884214D09E49884211D09E4988420ED0FE
:100330009D4988420BD09D49884208D09C498842FB
:1003400005D0032803D0B52185A001F057FDA8688A
:1003500038B1012805D0022803D0B62180A001F0D1
:100360004DFD00264FF0010A4FF0030B0AFA06F08C
:100370002F688046074047457ED16868012805D030
:10038000022803D0112801D012281DD1E86848B1F5
:10039000012807D0022805D0032803D0C82170A067
:1003A00001F02CFDA06872000BFA02F18843E968A5
:1003B00091400143A1606068297920EA0800C1F3F7
:1003C0000011B14001436160E0687200A968904685
:1003D0000BFA02F920EA090001FA08F10143E16091
:1003E0006868022801D012282ED12869F8B109289E
:1003F0001DD001281BD0022819D0032817D00428AB
:1004000015D0052813D0062811D007280FD00828AA
:100410000DD00A280BD00B2809D00C2807D00D28A6
:1004200005D00F2803D0E0214DA001F0E7FCF00833
:1004300004EB8003196A7007C20E0F2090408143BD
:1004400028699040084318622068297920EA090049
:1004500001F0030101FA08F1014321606868C0005E
:1004600065D55448016841F480410160006826F078
:10047000030100F4804000E059E000904E480A1863
:10048000D2F80808B1070B0F0F21994088432B4978
:100490008C4201D1002123E029498C4201D1012164
:1004A0001EE028498C4201D1022119E026498C42E4
:1004B00001D1032114E025498C4201D104210FE030
:1004C00023498C4201D105210AE022498C4201D105
:1004D000062105E020498C4201D1072100E00821D6
:1004E00099400143C2F80818344908686A68B8435B
:1004F000D20300D5384308603049091D08686A688E
:10050000B843920300D5384308602C490831086885
:100510006A68B843D20200D53843086027490C31D5
:1005200008686A68B843920200D538430860761CB0
:10053000102EFFF41BAFBDE8F88F00000000024052
:100540000004024000080240000C0240001002407B
:100550000014024000180240001C0240002002402B
:100560002E2E2F447269766572732F53544D333299
:10057000463478785F48414C5F4472697665722FE3
:100580005372632F73746D3332663478785F6861A9
:100590006C5F6770696F2E6300000000000011102F
:1005A0000000211000003110000012100000221085
:1005B000000032104438024000300140003C01404D
:1005C00070B515460C00064604D140F29F1108A0F4
:1005D00001F014FC45B1012D04D04FF4D07104A0FA
:1005E00001F00CFCB46170BD2004B06170BD00006E
:1005F0002E2E2F447269766572732F53544D333209
:10060000463478785F48414C5F4472697665722F52
:100610005372632F73746D3332663478785F686118
:100620006C5F6770696F2E6300000000014880688E
:1006300070470000000000200B4810B5016841F42D
:1006400000710160016841F480610160016841F45A
:1006500080710160032000F0C5F8002000F006F86A
:1006600000F024F8002010BD003C024070B50D4D94
:1006700004464FF47A712878B1FBF0F00A49096812
:10068000B1FBF0F000F090FC48B9102C07D200222A
:100690002146501E00F056F800206C6070BD01200D
:1006A00070BD0000000000200C0000200B4882B04C
:1006B000016841F480410160006800F480400090CE
:1006C0000648001F016841F080510160006800F099
:1006D00080500090052002B000F084B844380240F9
:1006E00010B5040003D5BE2107A001F087FB002C44
:1006F00009DB04F01F01012088406109890001F134
:10070000E021C1F8000110BD2E2E2F4472697665DC
:1007100072732F53544D3332463478785F48414CCE
:100720005F4472697665722F5372632F73746D33F1
:1007300032663478785F68616C5F636F7274657875
:100740002E63000070B515460C460646102A03D3EA
:10075000AA2114A001F052FB102C03D3AB2111A04D
:1007600001F04CFB1E480068C0F30223C3F10702EE
:100770002046042A00D90422191D072901D200238A
:1007800000E0DB1E012404FA02F1491E01409940F9
:100790009C40641E2C4021433046BDE8704001F06F
:1007A0000EBB00002E2E2F447269766572732F5394
:1007B000544D3332463478785F48414C5F44726917
:1007C0007665722F5372632F73746D33326634788B
:1007D000785F68616C5F636F727465782E63000088
:1007E0000CED00E010B5044607280BD0062C09D00C
:1007F000052C07D0042C05D0032C03D0922108A08F
:1008000001F0FCFA154904F0070208684FF6FF03EF
:10081000184040EA0220124A1043086010BD000050
:100820002E2E2F447269766572732F53544D3332D6
:10083000463478785F48414C5F4472697665722F20
:100840005372632F73746D3332663478785F6861E6
:100850006C5F636F727465782E6300000CED00E0CE
:100860000000FA052DE9F0470E4604007DD020680F
:10087000401E0E2804D940F251217AA001F0BEFAA0
:1008800096B1012E10D0022E0ED0032E0CD0042EC5
:100890000AD0052E08D0062E06D0072E04D040F22E
:1008A000522170A001F0AAFADFF8F081D8F8000018
:1008B000F7B200F00F00B04207D288F80070D8F805
:1008C000000000F00F00B0424FD12068744D810746
:1008D00029D5400703D5286840F4E05028602078E7
:1008E000000703D5286840F460402860A068A0B1E4
:1008F000802812D0902810D0A0280ED0B0280CD07C
:10090000C0280AD0D02808D0E02806D0F02804D08B
:1009100040F2752153A001F071FA2868A16820F017
:10092000F000084328602078C00743D0DFF87091BA
:100930006068A9F1080988B1012822D0022824D0D2
:10094000032822D04FF41F7146A001F057FA6068C7
:10095000012816D0022818D0032816D0D9F8000094
:100960008007002833DA286800E030E0616820F072
:10097000030008432860FFF759FE814641F2883A98
:1009800011E0D9F800008003EBE7D9F800008001FE
:10099000E7E700BFFFF74AFEA0EB0901514502D986
:1009A0000320BDE8F0872868616800F00C00B0EB18
:1009B000810FEFD1D8F80010404601F00F01B1428D
:1009C00007D90770006800F00F00B04201D0012085
:1009D000E7E720784FF4805640074FF4A0574FF4D4
:1009E000C0584FF4E05914D5E06860B1B0420AD065
:1009F000B84208D0404506D0484504D040F2BA215C
:100A000018A001F0FBF92868E16820F4E0500843E1
:100A100028602078000715D5206960B1B0420AD05F
:100A2000B84208D0404506D0484504D040F2C12124
:100A30000CA001F0E3F92868216920F4604040EA45
:100A4000C100286000F034F82968164AC1F3031188
:100A5000515CC8401449086014480068FFF706FE5E
:100A600000209EE72E2E2F447269766572732F53F5
:100A7000544D3332463478785F48414C5F44726954
:100A80007665722F5372632F73746D3332663478C8
:100A9000785F68616C5F7263632E6300003C0240A4
:100AA00008380240201E00080C000020040000202E
:100AB000154810B5006810F00C02144813D041100E
:100AC000042A0FD0082A0ED10F4C241F2268236855
:100AD00002F03F025B0207D52068C0F38810A0FB3C
:100AE000010106E0084610BD2168C1F38811A1FB91
:100AF00000010023FFF764FB2168C1F30141491C99
:100B00004900B0FBF1F010BD083802400024F400A9
:100B10002DE9F84F04007DD020680F2803D9E82183
:100B2000F7A001F06BF92078DFF80C94C007A9F169
:100B3000040555D060684FF480364FF4A02738B1D3
:100B4000B04205D0B84203D0ED21EDA001F056F936
:100B5000F948001D0168C1F38101012908D000682E
:100B6000C0F3810002280AD1D9F80000400206D55E
:100B70002868800334D560680028CCD030E06068F5
:100B8000B04203D1286840F480300CE0B8422868B5
:100B900003D140F480202860F4E720F480302860FE
:100BA000286820F480202860606860B1FFF73EFD6F
:100BB000064604E0FFF73AFD801B64287ED82868CB
:100BC0008003F7D50CE0FFF731FD064605E000BFD6
:100BD000FFF72CFD801B6428F0D828688003F7D429
:100BE0002078DFF8588380074FF0000A56D5E06878
:100BF00030B1012804D040F21F11C1A001F0FEF86D
:100C000020691F2804D94FF49071BDA001F0F6F8B7
:100C1000C94800E092E0001D016811F00C0F08D0F7
:100C20000068C0F38100022810D1D9F8000040020A
:100C30000CD42868800702D5E06801287ED1286896
:100C4000216920F0F80040EAC10017E0E068B8B17F
:100C50000120C8F80000FFF7E9FC064605E000BFE8
:100C6000FFF7E4FC801B0228A8D828688007F7D586
:100C7000286820F0F801206941EAC00028600DE0F2
:100C8000C8F800A0FFF7D2FC064604E0FFF7CEFC50
:100C9000801B022892D828688007F7D420780007A4
:100CA0002ED5A54EA64F60697036D0B1012808D068
:100CB0004FF4B07192A001F0A1F800E04BE160693F
:100CC00078B101203860FFF7B1FC074605E000BFAE
:100CD000FFF7ACFCC01B0228C6D830688007F7D5E8
:100CE0000EE0C7F800A0FFF7A1FC074605E000BF33
:100CF000FFF79CFCC01B0228B6D830688007F7D4E9
:100D00002078400776D5A068002740B1012806D09A
:100D1000052804D04FF4C67179A001F06FF8DFF810
:100D200018B20BF13C0BDBF80000C0000DD4DBF86F
:100D3000001041F08051CBF8001000E030E1DBF80A
:100D40000000012700F0805000907E4E3068C00502
:100D500011D4306840F480703060FFF767FC009079
:100D600006E000BFFFF762FC0099401A022891D804
:100D70003068C005F6D5704EA0686C3601280FD0DB
:100D80000528306810D020F001003060306820F075
:100D900004003060A068B8B1FFF748FC00900FE095
:100DA000306840F00100F4E740F004003060F7E7FD
:100DB000FFF73CFC0099411A41F2883081428BD800
:100DC00030688007F4D50EE0FFF730FC009007E0B4
:100DD000FFF72CFC0099411A41F2883081428BD8F0
:100DE00030688007F4D42FB1DBF8001021F0805177
:100DF000CBF80010A069002876D0012809D002287D
:100E000007D040F2CF113EA000F0F8FFA069002803
:100E1000F2D04948001D0068C0F381000228A06993
:100E20006DD0022805D0C8F860A0FFF7FFFB04468C
:100E300094E0E06938B1B0F5800F04D04FF4EC7164
:100E40002FA000F0DBFF206A3F2804D940F2D9111F
:100E50002BA000F0D3FF606A3238B0F5BF7F04D911
:100E60004FF4ED7126A000F0C9FFA06A02280AD055
:100E7000042808D0062806D0082804D040F2DB1148
:100E80001FA000F0BBFFE06A801E0D2804D94FF4BC
:100E9000EE711BA000F0B2FF4746C8F860A0FFF754
:100EA000C5FB064605E000BFFFF7C0FB801B02281C
:100EB00051D828688001F7D4D4E907010843A16A12
:100EC000214A490802EB0141626A41EA8211084362
:100ED00094F82C1040EA0161C9F80010012038662E
:100EE000FFF7A4FB044606E05CE000BFFFF79EFBB3
:100EF000001B02282FD828688001F7D552E031E086
:100F00002E2E2F447269766572732F53544D3332EF
:100F1000463478785F48414C5F4472697665722F39
:100F20005372632F73746D3332663478785F6861FF
:100F30006C5F7263632E6300043802400000474216
:100F4000800E4742007000400000FFFFFFF76EFB7D
:100F5000001B022802D90320BDE8F88F2868800111
:100F6000F4D41FE00128F7D0D9F80000E26900F4BA
:100F70008001914214D1226A00F03F0191420FD1C9
:100F800047F6C071626A0140914209D1A26A00F439
:100F90004031914204D1E16A00F07060884201D092
:100FA0000120D9E70020D7E710B5401EB0F1807FBF
:100FB00001D3012010BD4FF0E02460610F216017C4
:100FC00000F0FDFE0020A06107202061002010BD80
:100FD00010B5040058D03648226882422BD0B2F1B6
:100FE000804F28D03348824225D03348824222D0D5
:100FF000324882421FD0324882421CD0314882425D
:1010000019D03148824216D03048824213D030483D
:10101000824210D02F4882420DD02F4882420AD0FF
:101020002E48824207D02E48824204D04FF4897164
:101030002CA000F0E3FEA06860B110280AD02028A0
:1010400008D0402806D0602804D040F2131125A013
:1010500000F0D4FE206950B1B0F5807F07D0B0F524
:10106000007F04D04FF48A711EA000F0C7FEA06973
:1010700030B1802804D040F215111AA000F0BEFE55
:1010800094F83D0010B107E0012010BD002084F865
:101090003C00204600F042F8022084F83D00211D6B
:1010A000206800F0FDFB012084F83D00002010BD09
:1010B000000001400004004000080040000C004017
:1010C00000100040001400400004014000400140B6
:1010D000004401400048014000180040001C00404E
:1010E000002000402E2E2F447269766572732F53B4
:1010F000544D3332463478785F48414C5F447269CE
:101100007665722F5372632F73746D333266347841
:10111000785F68616C5F74696D2E630008B5006864
:101120000B49884212D10B48016841F4807101607B
:101130000068022200F48070009011462D20FFF715
:1011400001FBBDE808402D20FFF7CABA08BD00002A
:10115000002000404038024010B586B004461421FB
:101160006846FFF765F80F492068884217D10E4896
:101170000021026842F020020260006800F02000B6
:1011800005904FF400700090022001900120CDE9FD
:1011900002010920049069460448FFF789F806B067
:1011A00010BD000000200040303802400014024012
:1011B0002DE9F05F5FEA020A0D46044610D0BAF14D
:1011C000040F0DD0BAF1080F0AD0BAF10C0F07D0F6
:1011D000BAF13C0F04D040F6EC517BA000F00EFEBB
:1011E0002868602806D0702804D040F6ED5176A01B
:1011F00000F004FEA86830B1022804D040F6EE5199
:1012000071A000F0FBFD286930B1042804D040F63D
:10121000EF516DA000F0F2FD94F83C0001281ED0C3
:101220004FF0010B84F83CB0022084F83D00744973
:10123000744B754E754FDFF8D8C1DFF8D891764AF8
:101240004FF08048BAF1000F0CD0BAF1040F3ED035
:10125000BAF1080F66D0BAF10C0F62D187E0022014
:10126000BDE8F09F206888421ED040451CD09842BF
:101270001AD0B04218D0B84216D0604514D04845B4
:1012800012D0664988420FD0654988420CD09042FE
:101290000AD06449884207D06349884204D040F6A6
:1012A000FB5149A000F0AAFD2946206800F0D6FBBA
:1012B0002068816941F0080181612068816921F01D
:1012C00004018161206881692A69114328E020684E
:1012D000884212D0404510D098420ED0B0420CD077
:1012E000B8420AD0604508D0484506D0904204D0A4
:1012F00040F60C6134A000F081FD2946206800F022
:101300001FFC2068816941F4006181612068816966
:1013100021F480618161206881692A6941EA0221A2
:1013200081614AE0206888420ED040450CD0984246
:101330000AD0B04208D0B84206D0604504D040F68A
:101340001D6121A000F05AFD2946206800F06EFCC6
:101350002068C16941F00801C1612068C16921F0BC
:101360000401C1612068C1692A69114324E0206831
:1013700088420ED040450CD098420AD0B04208D0E6
:10138000B84206D0604504D040F62E610EA000F0B1
:1013900035FD2946206800F0BFFC2068C16941F492
:1013A0000061C1612068C16921F48061C161206868
:1013B000C1692A6941EA0221C16184F83DB0002077
:1013C00084F83C004CE700002E2E2F4472697665AD
:1013D00072732F53544D3332463478785F48414C02
:1013E0005F4472697665722F5372632F73746D3325
:1013F00032663478785F68616C5F74696D2E630063
:10140000000001400004004000080040000C0040C3
:101410000004014000400140001800400044014029
:1014200000480140001C00400020004010B50400AE
:1014300058D03648226882422BD0B2F1804F28D053
:101440003348824225D03348824222D032488242F9
:101450001FD0324882421CD03148824219D03148D4
:10146000824216D03048824213D03048824210D097
:101470002F4882420DD02F4882420AD02E48824205
:1014800007D02E48824204D040F29B412CA000F0AD
:10149000B5FCA06860B110280AD0202808D04028E8
:1014A00006D0602804D040F29C4125A000F0A6FCA4
:1014B000206950B1B0F5807F07D0B0F5007F04D02F
:1014C00040F29D411EA000F099FCA06930B1802837
:1014D00004D040F29E411AA000F090FC94F83D0028
:1014E00010B107E0012010BD002084F83C00204628
:1014F00000F042F8022084F83D00211D206800F031
:10150000CFF9012084F83D00002010BD000001400B
:101510000004004000080040000C004000100040A3
:10152000001400400004014000400140004401401C
:101530000048014000180040001C0040002000400E
:101540002E2E2F447269766572732F53544D3332A9
:10155000463478785F48414C5F4472697665722FF3
:101560005372632F73746D3332663478785F6861B9
:101570006C5F74696D2E6300704700002DE9F041C7
:10158000054600683F4E404F0C46B04207D1002C44
:1015900053D0042C51D0082C4FD00C2C4DD0B0F18E
:1015A000804F65D03949884207D1002C45D0042CA2
:1015B00043D0082C41D00C2C3FD03549884206D16D
:1015C000BCB3042C39D0082C37D00C2C35D0314981
:1015D000884206D16CB3042C2FD0082C2DD00C2CB3
:1015E0002BD0B84206D124B3042C26D0082C24D00A
:1015F0000C2C22D02849884202D1D4B1042C1CD012
:101600002649884200D1A4B12549884200D184B13D
:101610002449884202D164B1042C0ED02249884268
:1016200000D134B12149884200D114B140F21351A4
:1016300000E002E01EA000F0E1FB01222146286844
:1016400000F092F92868B04201D0B84203D1416C51
:1016500041F4004141642868816801F007010629CE
:1016600003D0016841F0010101600020BDE8F08174
:10167000002CE2D0042CE0D0082CDED00C2CDCD0E6
:10168000D4E70000000001400004014000040040D5
:1016900000080040000C00400040014000440140B0
:1016A0000048014000180040001C0040002000409D
:1016B0002E2E2F447269766572732F53544D333238
:1016C000463478785F48414C5F4472697665722F82
:1016D0005372632F73746D3332663478785F686148
:1016E0006C5F74696D2E6300FEE7000070B586B014
:1016F00014216846FEF79CFD1E48016841F0040174
:101700000160016801F004010591016841F02001C8
:101710000160016801F020010591016841F080013C
:101720000160016801F080010591016841F001014B
:1017300001600068104E00F00100059000224FF497
:10174000A0613046FEF73CFFB015012402258DE86C
:101750003100694630460395FEF7AAFDA002CDE9A7
:10176000000469463046CDE90245FEF7A1FD06B00A
:1017700070BD0000303802400014024000B587B050
:101780001C216846FEF754FD174816494FF4FA72BB
:1017900001604FF4527141600021C0E90212016101
:1017A00080218161FFF714FC08B1FEF77FFD0E4830
:1017B000FFF73CFE08B1FEF779FD60200090FA20AB
:1017C00001900220029004200490002269460648FD
:1017D000FFF7EEFC08B1FEF769FD0348FFF7BCFC1C
:1017E00007B000BD0020004010000020FEE7704759
:1017F000704770477047000030B593B0302168469D
:10180000FEF716FD14210CA8FEF712FD1A4800255C
:10181000016841F080510160006800F08050119033
:101820001648016841F4804101600068022400F418
:1018300080401190012000904FF4A020019060059D
:10184000CDE90640082008904FF4A870CDE90904BE
:1018500004200B906846FFF75BF90CA90F2081E884
:1018600031004FF4A0500F90E002109005210CA819
:10187000FEF7F8FF13B030BD403802400070004062
:101880000548016841F47001016003494FF00060B0
:10189000803908607047000088ED00E07047000064
:1018A000F0B50268254C264D264E274F274B4FF0AA
:1018B000804CA04209D0604507D0A84205D0B04274
:1018C00003D0B84201D0984204D122F0700E4A6889
:1018D00042EA0E02A0421BD0604519D0A84217D0A0
:1018E000B04215D0B84213D0984211D0184DA8423A
:1018F0000ED0184DA8420BD0174DA84208D0174D56
:10190000A84205D0164DA84202D0164DA84203D1D8
:1019100022F44075CA682A434D6922F080022A43A6
:1019200002608A68C2620A688262A04201D098425C
:1019300001D10969016301214161F0BD000001404D
:101940000004004000080040000C0040000401407A
:1019500000400140004401400048014000180040A0
:10196000001C00400020004070B504462248164686
:101970000D46844225D0B4F1804F22D01F488442C6
:101980001FD01F4884421CD01E48844219D01E48D4
:10199000844216D01D48844213D01D48844210D082
:1019A0001C4884420DD01C4884420AD01B48844203
:1019B00007D01B48844204D041F6CC1119A000F096
:1019C0001DFA65B1042D0AD0082D08D00C2D06D0C3
:1019D0003C2D04D041F6CD1112A000F00FFA05F015
:1019E0001F010120226A884082432262206A8E40C1
:1019F0003043206270BD0000000001400004004040
:101A000000080040000C004000040140004001407C
:101A1000004401400048014000180040001C004004
:101A2000002000402E2E2F447269766572732F536A
:101A3000544D3332463478785F48414C5F44726984
:101A40007665722F5372632F73746D3332663478F8
:101A5000785F68616C5F74696D2E63002DE9F047F3
:101A60000446006A0D4620F001002062206A676883
:101A7000A169AE6821F07302296820F00200DFF846
:101A800080900643DFF87CA041EA02084C4501D073
:101A900054450ED1E86830B1082804D041F20271F3
:101AA00019A000F0ABF9E86826F00801084320F01F
:101AB00004064C4501D0544519D1A869B0F5007F02
:101AC00005D020B141F20F710FA000F097F96869BD
:101AD000B0F5807F05D020B141F210710AA000F06E
:101AE0008DF927F440716869AF690843074367605F
:101AF000C4F81880686860632662BDE8F08700005B
:101B000000000140000401402E2E2F4472697665CA
:101B100072732F53544D3332463478785F48414CBA
:101B20005F4472697665722F5372632F73746D33DD
:101B300032663478785F68616C5F74696D2E63001B
:101B40002DE9F0470446006A0D4620F0100020629F
:101B5000206A6768A1692A6821F4E64141EA0228FF
:101B6000A968DFF8889020F02000DFF884A040EA20
:101B700001164C4501D054450FD1E86830B1082812
:101B800004D041F24D711BA000F038F9E96826F04D
:101B9000800040EA011020F040064C4501D0544539
:101BA0001BD1A869B0F5007F05D020B141F25B716F
:101BB00010A000F023F96869B0F5807F05D020B14E
:101BC00041F25C710BA000F019F9696927F44060DB
:101BD00040EA8100A96940EA81076760C4F818807B
:101BE0006868A0632662BDE8F0870000000001403D
:101BF000000401402E2E2F447269766572732F53B4
:101C0000544D3332463478785F48414C5F447269B2
:101C10007665722F5372632F73746D333266347826
:101C2000785F68616C5F74696D2E63002DE9F04721
:101C30000446006A0D4620F480702062206A6768BE
:101C4000E169DFF8949021F07302296820F40070B4
:101C500041EA0208A968DFF884A040EA01264C4561
:101C600001D054450FD1E86830B1082804D041F2C2
:101C700098711BA000F0C2F8E96826F4006040EA01
:101C8000012020F480664C4501D054451BD1A86941
:101C9000B0F5007F05D020B141F2A57110A000F091
:101CA000ADF86869B0F5807F05D020B141F2A6712A
:101CB0000BA000F0A3F8696927F4405040EA011036
:101CC000A96940EA01176760C4F81C806868E0638E
:101CD0002662BDE8F08700000000014000040140DA
:101CE0002E2E2F447269766572732F53544D333202
:101CF000463478785F48414C5F4472697665722F4C
:101D00005372632F73746D3332663478785F686111
:101D10006C5F74696D2E63002DE9F0410446006A22
:101D20000D4620F480502062206A6668E1692A68C6
:101D300021F4E64141EA0228A96820F4005040EA73
:101D400001370E48844202D00D4884420ED16869A2
:101D5000B0F5807F05D020B141F2E47109A000F018
:101D60004DF8696926F4804040EA81166660C4F83F
:101D70001C80686820642762BDE8F0810000014093
:101D8000000401402E2E2F447269766572732F5322
:101D9000544D3332463478785F48414C5F44726921
:101DA0007665722F5372632F73746D333266347895
:101DB000785F68616C5F74696D2E6300FEE70907E8
:101DC000090E002804DB00F1E02080F800147047C1
:101DD00000F00F0000F1E02080F8141D704702E0D1
:101DE00008C8121F08C1002AFAD1704770470020A6
:101DF00001E001C1121F002AFBD1704770470000AB
:101E0000FEF71AFCFFF7F8FCFFF770FCFFF7B6FCD3
:101E100000210248FFF7B2FBFEE70000100000209F
:101E2000000000000000000001020304060708098A
:101E3000501E00080000002010000000DE1D0008F9
:101E4000601E00081000002040040000EE1D000885
:101E50000100000010000000000000000024F40059
:040000050800018965
:00000001FF
