:020000040800F2
:10000000380700202902000889030008810300083E
:1000100085030008D9020008170600080000000048
:10002000000000000000000000000000AD03000818
:10003000DD020008000000008B030008C504000872
:10004000430200084302000843020008430200087C
:10005000430200084302000843020008430200086C
:10006000430200084302000843020008430200085C
:10007000430200084302000843020008430200084C
:10008000430200084302000843020008430200083C
:10009000430200084302000843020008430200082C
:1000A000430200084302000843020008430200081C
:1000B000430200084302000843020008430200080C
:1000C00043020008430200084302000843020008FC
:1000D00043020008310500084302000843020008FB
:1000E00043020008430200084302000843020008DC
:1000F00043020008430200084302000843020008CC
:1001000043020008430200084302000843020008BB
:1001100043020008430200084302000843020008AB
:10012000430200084302000843020008430200089B
:10013000430200084302000843020008430200088B
:10014000430200084302000843020008430200087B
:10015000430200084302000843020008430200086B
:10016000430200084302000843020008430200085B
:10017000430200084302000843020008430200084B
:10018000430200084302000800F002F800F03CF8C7
:100190000AA090E8000C82448344AAF10107DA45E2
:1001A00001D100F031F8AFF2090EBAE80F0013F0F8
:1001B000010F18BFFB1A43F0010318476007000046
:1001C00080070000103A24BF78C878C1FAD85207D7
:1001D00024BF30C830C144BF04680C6070470000C1
:1001E0000023002400250026103A28BF78C1FBD840
:1001F000520728BF30C148BF0B6070471FB500F0E1
:1002000087FB1FBD10B510BD00F033F81146FFF796
:10021000F5FF00F027FB00F051F803B4FFF7F2FF01
:1002200003BC00F0FAF9000009488047094800477C
:10023000FEE7FEE7FEE7FEE7FEE7FEE7FEE7FEE796
:10024000FEE7FEE704480549054A064B70470000F3
:10025000C90400088901000838010020380700207F
:1002600038030020380300207047704770477047FC
:100270007047754600F02CF8AE46050069465346B7
:1002800020F00700854618B020B5FFF7DBFFBDE87A
:1002900020404FF000064FF000074FF000084FF0ED
:1002A000000B21F00701AC46ACE8C009ACE8C0097E
:1002B000ACE8C009ACE8C0098D46704710B50446EB
:1002C000AFF300802046BDE81040FFF7A6BF000056
:1002D00000487047D400002000BFFEE77047F0B52B
:1002E0000A4600210023002400BF3DE0012505FA55
:1002F00001F3156805EA03049C4234D105684F00F8
:100300000326BE40B543056015794E00B54006682A
:10031000354305601579012D02D01579022D16D1CE
:1003200085684F000326BE40B543856055794E0071
:10033000B540866835438560456801268E40B543E3
:100340004560456896798E40B6B235434560C568CC
:100350004F000326BE40B543C560D5794E00B54079
:10036000C6683543C560491C1029BFD3F0BD02469D
:10037000002013690B400BB1012000E00020704702
:1003800000BFFEE700BFFEE77047704729B1064A8D
:1003900012680243044B1A6004E0034A1268824365
:1003A000014B1A607047000030380240704700006F
:1003B0000CB50020019000903448006840F4803073
:1003C0003249086000BF3148006800F400300090F6
:1003D0000198401C0190009818B90198B0F5A04F01
:1003E000F1D12A48006800F4003010B101200090DB
:1003F00001E0002000900098012846D123484030B9
:10040000006840F080502149403108602048006871
:1004100040F440401E4908601C48083000681B49F1
:10042000083108600846006840F40040086008464B
:10043000006840F4A05008601648091F0860081FB3
:10044000006840F08070091F086000BF0F48006816
:1004500000F000700028F9D040F205700E490860E5
:100460000A480830006820F0030008490831086095
:100470000846006840F00200086000BF03480830EA
:10048000006800F00C000828F8D10CBD00380240CC
:100490000070004019544007003C0240042808D175
:1004A0004FF0E021096941F004014FF0E0221161B1
:1004B00007E04FF0E021096921F004014FF0E0224C
:1004C000116170477047000010B51548006840F48E
:1004D0007000134908601348006840F0010011499A
:1004E000086000200F49083108600E4800680E4976
:1004F00008400C4908600D48091D0860081F006885
:1005000020F48020091F0860002006490C31086093
:10051000FFF74EFF4FF0006001498039086010BDC1
:1005200088ED00E000380240FFFFF6FE10300024A6
:1005300010B540F225511D4800F03EF810B31B489D
:1005400000F064F8C4B21A48008800F40040C8B94A
:100550001748008800F4804060B10A2C03D00020C6
:100560001349088020E01248008840F400401049F8
:10057000088019E00D2C06D10D48008840F4804019
:100580000B49088010E00A480088C0F30D000949B3
:100590000C5407480088401C05490880084600881C
:1005A000C72801DD0020088010BD000000100140B8
:1005B000080000200C00002070B502460024002333
:1005C0000025002040F66A16B14200D100BFC1F3F9
:1005D000421501F01F03012606FA03F3012D02D193
:1005E0009689334006E0022D02D1168A334001E09D
:1005F000968A33400C12012606FA04F41688344019
:1006000013B10CB1012000E0002070BD01468888C4
:10061000C0F30800704700BFFEE700BF704700004E
:100620001CB501212020FFF7B1FE4FF4807000902F
:1006300003208DF8050001208DF8040000208DF8BE
:10064000060002208DF8070069460248FFF747FEC2
:100650001CBD00000014024010B504466FF00400F9
:10066000FFF71CFFE11704EB5171C1F3C701074A03
:1006700011701046007800EB4001C1EBC0104FF63E
:10068000FF7101EAC0000249088010BD000000208F
:100690000200002070B504464FF4077094FBF0F0A0
:1006A000C6B24FF4077094FBF0F100FB114085B225
:1006B00005E04FF4077000F009F8701EC6B2002E76
:1006C000F7D115B1284600F001F870BD0146114A76
:1006D00012884A434FF0E0235A6100229A611A4679
:1006E000126942F001021A6100BF4FF0E022106966
:1006F00000F001021AB100F48032002AF5D04FF068
:10070000E022126922F001024FF0E0231A61002278
:100710009A617047020000201CB501211020FFF7EC
:1007200035FE01210846FFF731FE1C200090002015
:100730008DF8040003208DF8050001208DF80700D6
:1007400069460648FFF7CBFD0120009002208DF896
:10075000070069460248FFF7C2FD1CBD00100240B9
:100760000000024010B5044614B101202C49087065
:100770002B480078002837D010212A48FFF7F7FDD2
:1007800078B108212748FFF7F2FD50B10421254830
:10079000FFF7EDFD28B101212348FFF7E8FD01280F
:1007A00022D10A20FFF776FF00201D490870102192
:1007B0001C48FFF7DCFD08B9012010BD08211948CD
:1007C000FFF7D5FD08B90220F7E704211548FFF728
:1007D000CEFD08B90320F0E701211348FFF7C7FD5C
:1007E00001281BD10420E8E710210E48FFF7BFFDC8
:1007F000012813D108210B48FFF7B9FD01280DD1BD
:1008000004210848FFF7B3FD012807D1012106485C
:10081000FFF7ADFD10B90120014908700020CCE7B9
:100820000A00002000100240000002401CB5012117
:100830002020FFF7ABFD4FF4C060009001208DF841
:10084000040000208DF8060003208DF8050001202B
:100850008DF8070069460248FFF741FD1CBD000006
:1008600000140240A820FFF7F7FEFFF7DFFFFFF7B5
:10087000D7FEFFF751FF46E00020FFF773FF044665
:10088000002C3DD0012C06D0022C0DD0032C16D00C
:10089000042C33D127E01C48006808B9012000E08F
:1008A0000020194908602AE01748001D006808B9AF
:1008B000012000E000201449091D08601FE01248D3
:1008C000001D006808B9012000E000200E49091D44
:1008D00008600E48D0F8A40208B9012000E000200A
:1008E000094908600BE00848001F006808B90120AA
:1008F00000E000200449091F086000E000BF02E09A
:100900001420FFF7C7FEB7E7A482424200804242AC
:100910004FF04070E1EE100A704700003C090008FB
:10092000000000200C000000C40100084809000875
:100930000C0000202C070000E0010008000000006F
:080940000000000000000100AE
:040000050800018965
:00000001FF
