:020000040800F2
:100000004008002045D2000885D2000887D20008A9
:100010008BD200088FD2000893D2000800000000A5
:1000200000000000000000000000000097D200085F
:1000300099D20008000000009BD2000897D1000868
:10004000FB7900085FD200085FD200085FD2000889
:100050005FD200085FD20008817D00085FD20008EF
:100060005FD200085FD200085FD200085FD20008AC
:100070005FD200085FD200085FD200085FD200089C
:100080005FD200085FD200085FD200085FD200088C
:100090005FD200085FD200085FD200085FD200087C
:1000A000557C000877D100085FD200085FD20008B5
:1000B0005FD200085FD200085FD200085FD200085C
:1000C0005FD200085FD200085FD200085FD200084C
:1000D0005FD20008F9CD00085FD200085FD20008A7
:1000E0005FD200085FD200085FD200085FD200082C
:1000F0005FD20008917A00085FD200085FD2000842
:100100005FD200085FD200089F7D00085FD2000820
:100110005FD200085FD200085FD200085FD20008FB
:100120005FD200085FD200085FD200085FD20008EB
:100130005FD200085FD200085FD200085FD20008DB
:100140005FD200085FD200085FD200085FD20008CB
:100150005FD200085FD200085FD200085FD20008BB
:100160005FD200085FD200085FD200085FD20008AB
:100170005FD200085FD200085FD200085FD200089B
:100180005FD200085FD2000800F002F800F044F8E7
:100190000AA090E8000C82448344AAF10107DA45E2
:1001A00001D100F039F8AFF2090EBAE80F0013F0F0
:1001B000010F18BFFB1A43F0010318473CF1000080
:1001C0005CF10000103A24BF78C878C1FAD8520711
:1001D00024BF30C830C144BF04680C6070470000C1
:1001E0000023002400250026103A28BF78C1FBD840
:1001F000520728BF30C148BF0B60704764290DF01B
:10020000398273290DF0E182002070471FB50DF08F
:100210007FFC1FBD10B510BD0DF00AFB1146FFF7A6
:10022000F5FF0CF05CFF0DF028FB03B4FFF7F2FFC5
:1002300003BC0CF00DFD000010B50446B4F5E06FF2
:100240000BD0B4F5C06F08D0B4F5A06F05D0B4F5ED
:10025000806F02D0B4F5407F00D103E079215FA028
:100260000DF024F9664820436649086010BD2DE969
:10027000F0410446002500270F26E07810B1E07811
:10028000012800D103E08D2154A00DF00FF9607812
:10029000102800DA03E08E2150A00DF007F9A078B5
:1002A000102800DA03E08F214CA00DF0FFF8E07871
:1002B00018B35448006800F4E060C0F5E060C0F393
:1002C0000725C5F10400C7B22E416078B840C5B219
:1002D000A078304005432807050E4B482178455447
:1002E000207800F01F010120884021784911890001
:1002F00001F1E021C1F8000109E0207800F01F01C0
:100300000120884041492278521141F82200BDE87D
:10031000F08170B504460D46B4F1005F02D0B4F12F
:10032000006F00D103E0B7212CA00DF0BFF83848D2
:10033000854200D203E0B82128A00DF0B7F8354976
:1003400005EA010020432F49091F086070BD70B500
:1003500004460D46102C03D0042C01D0022C00D1F1
:1003600003E0CA211DA00DF0A1F80DB1012D00D1AF
:1003700003E0CB2119A00DF099F83DB12148001DF3
:10038000006820431F49091D086006E01D48001D44
:100390000068A0431B49091D086070BD10B50446E4
:1003A000042C01D0601D00B903E0E2210BA00DF088
:1003B0007DF8042C08D14FF0E020006940F00400E3
:1003C0004FF0E021086107E04FF0E020006920F0E5
:1003D00004004FF0E021086110BD00002E2E5C4C9F
:1003E0006962726172795C50657269706865726188
:1003F0006C5C7372635C6D6973632E630000000054
:100400000000FA050CED00E000E400E080E100E00F
:10041000FFFF0F0080FFFF1F0020AE490860091D8D
:100420000860091D0860091D0860AB48A94914311E
:100430000860704770B504460025207910B1207916
:10044000042800D103E08221A4A00DF02FF86079E8
:10045000082805D060790C2802D06079102800D1D6
:1004600003E083219DA00DF021F820686FF31600B2
:1004700010B9206800B103E0842198A00DF016F8AF
:10048000A07910B1A079012800D103E0852193A0C3
:100490000DF00CF88F4DA07990B3284600682168C4
:1004A000884329460860081D006821688843291D83
:1004B0000860207905442868216808432860854839
:1004C0000830006821688843824908310860081DA7
:1004D0000068216888437F490C31086060791028E2
:1004E0000FD1081F0068216808437A490831086065
:1004F000081D00682168084376490C3108600EE049
:1005000007E0744D60790544286821680843286035
:1005100005E020790544286821688843286070BD7B
:100520000021016001710C2141710021817170472E
:1005300010B50446E00DC00508B904B103E0C721B9
:1005400066A00CF0B3FF6348103000682043614997
:100550001031086010BD70B504460025012C3AD05A
:10056000022C38D0042C36D0082C34D0102C32D0A9
:10057000202C30D0402C2ED0802C2CD0B4F5807F75
:1005800029D0B4F5007F26D0B4F5806F23D0B4F520
:10059000006F20D0B4F5805F1DD0B4F5005F1AD095
:1005A000B4F5804F17D0B4F5004F14D0B4F5803FA8
:1005B00011D0B4F5003F0ED0B4F5802F0BD0B4F5B8
:1005C000002F08D0B4F5801F05D0B4F5001F02D06D
:1005D000B4F5800F00D103E0E62140A00CF066FFE7
:1005E0003C4814300068204008B1012500E0002597
:1005F000284670BD10B50446E00DC00508B904B129
:1006000003E0FC2135A00CF051FF324814300460A7
:1006100010BD70B504460025012C3AD0022C38D00C
:10062000042C36D0082C34D0102C32D0202C30D0D2
:10063000402C2ED0802C2CD0B4F5807F29D0B4F55E
:10064000007F26D0B4F5806F23D0B4F5006F20D0A2
:10065000B4F5805F1DD0B4F5005F1AD0B4F5804FBB
:1006600017D0B4F5004F14D0B4F5803F11D0B4F5D5
:10067000003F0ED0B4F5802F0BD0B4F5002F08D07A
:10068000B4F5801F05D0B4F5001F02D0B4F5800F7B
:1006900000D104E040F20B1110A00CF007FF0D4850
:1006A00014300068204008B1012500E000252846EC
:1006B00070BD10B50446E00DC00508B904B104E0F2
:1006C0004FF4917105A00CF0F1FE02481430046063
:1006D00010BD0000003C0140FFFF7F002E2E5C4C4F
:1006E0006962726172795C50657269706865726185
:1006F0006C5C7372635C73746D3332663478785FEC
:10070000657874692E63000010B50446FC48844285
:100710001DD0FC4884421AD0FB48844217D0FB48C5
:10072000844214D0FA48844211D0FA4884420ED050
:10073000F94884420BD0F948844208D0F8488442F2
:1007400005D0F848844202D0F748844200D103E043
:100750008221F6A00CF0AAFEE948844208D10121CA
:10076000084602F05BF90021012002F057F976E01B
:10077000E448844208D10121022002F04FF900210F
:10078000022002F04BF96AE0DF48844208D10121DF
:10079000042002F043F90021042002F03FF95EE05A
:1007A000DA48844208D10121082002F037F90021FB
:1007B000082002F033F952E0D548844208D10121E3
:1007C000102002F02BF90021102002F027F946E05A
:1007D000D048844208D10121202002F01FF90021D5
:1007E000202002F01BF93AE0CB48844208D10121D5
:1007F000402002F013F90021402002F00FF92EE012
:10080000C648844208D10121802002F007F9002166
:10081000802002F003F922E0C148844208D101217E
:10082000801502F0FBF80021A01502F0F7F816E0A1
:10083000BC48844208D10121401502F0EFF80021A4
:10084000601502F0EBF80AE0B748844207D10121B5
:10085000001502F0E3F80021201502F0DFF810BDCA
:100860002DE9F04104460D4600260027B046A44875
:1008700084421DD0A34884421AD0A348844217D092
:10088000A248844214D0A248844211D0A148844294
:100890000ED0A14884420BD0A048844208D0A04882
:1008A000844205D09F48844202D09F48844200D1B0
:1008B00003E0CF219DA00CF0F9FD288880B200B1A3
:1008C00003E0D02199A00CF0F1FD287940B12879FE
:1008D000012805D02879022802D02879032800D1E0
:1008E00003E0D12191A00CF0E1FDE87928B1E8798D
:1008F000012802D0E879022800D103E0D2218BA0A0
:100900000CF0D4FD002657E0012000FA06F7286815
:1009100000EA0708B8454ED12068720003219140D3
:10092000884320602879710088402168084320604E
:100930002879012802D02879022830D1687940B17D
:100940006879012805D06879022802D068790328DF
:1009500000D103E0E42175A00CF0A8FDA0687200AE
:10096000032191408843A060687971008840A168A4
:100970000843A060A87910B1A879012800D103E04C
:10098000EB216AA00CF092FD61680120B040814328
:1009900061606168A879B04080B201436160E0683D
:1009A0007200032191408843E060E879710088403B
:1009B000E1680843E060761C102EA5D3BDE8F08105
:1009C0004FF6FF7101600021017141718171C171A8
:1009D000704738B504460D464FF4803000904848C3
:1009E00084421DD0474884421AD04748844217D0D9
:1009F0004648844214D04648844211D04548844237
:100A00000ED0454884420BD04448844208D0444824
:100A1000844205D04348844202D04348844200D1F6
:100A200004E04FF48D7141A00CF040FDA8B200B17C
:100A300004E040F21B113DA00CF038FD0098284363
:100A400000900098E061E5610098E061E069009045
:100A5000E069009038BD70B505460C460026284870
:100A600085421DD0274885421AD02748854217D095
:100A70002648854214D02648854211D02548854213
:100A80000ED0254885420BD02448854208D0244802
:100A9000854205D02348854202D02348854200D1B3
:100AA00004E04FF4A47121A00CF000FD012C25D02E
:100AB000022C23D0042C21D0082C1FD0102C1DD0A8
:100AC000202C1BD0402C19D0802C17D0B4F5807F5F
:100AD00014D0B4F5007F11D0B4F5806F0ED0B4F50A
:100AE000006F0BD0B4F5805F08D0B4F5005F05D07F
:100AF000B4F5804F02D0B4F5004F2DD132E00000A4
:100B0000000002400004024000080240000C0240C5
:100B1000001002400014024000180240001C024075
:100B20000020024000240240002802402E2E5C4C8F
:100B30006962726172795C50657269706865726130
:100B40006C5C7372635C73746D3332663478785F97
:100B50006770696F2E63000040F24911AFF23400F4
:100B60000CF0A4FC2869204008B1012600E0002612
:100B7000304670BD10B50446FE4884421DD0FE4884
:100B800084421AD0FD48844217D0FD48844214D0D4
:100B9000FC48844211D0FC4884420ED0FB48844279
:100BA0000BD0FB48844208D0FA48844205D0FA486A
:100BB000844202D0F948844200D105E04FF4B0717C
:100BC000AFF298000CF072FC206980B210BD70B5D5
:100BD00005460C460026E74885421DD0E64885427A
:100BE0001AD0E648854217D0E548854214D0E5483A
:100BF000854211D0E44885420ED0E44885420BD0AE
:100C0000E348854208D0E348854205D0E248854262
:100C100002D0E248854200D105E040F27311AFF204
:100C2000F4000CF043FC012C25D0022C23D0042C22
:100C300021D0082C1FD0102C1DD0202C1BD0402CD4
:100C400019D0802C17D0B4F5807F14D0B4F5007F74
:100C500011D0B4F5806F0ED0B4F5006F0BD0B4F5A1
:100C6000805F08D0B4F5005F05D0B4F5804F02D0A6
:100C7000B4F5004F00D105E04FF4BA71AFF2541053
:100C80000CF014FC6869204008B1012600E0002641
:100C9000304670BD10B50446B64884421DD0B648F3
:100CA00084421AD0B548844217D0B548844214D043
:100CB000B448844211D0B44884420ED0B348844230
:100CC0000BD0B348844208D0B248844205D0B24821
:100CD000844202D0B148844200D105E040F28B1139
:100CE000AFF2B8100CF0E2FB606980B210BD70B5D5
:100CF00004460D469F4884421DD09F4884421AD026
:100D00009E48844217D09E48844214D09D48844215
:100D100011D09D4884420ED09C4884420BD09C4800
:100D2000844208D09B48844205D09B48844202D02C
:100D30009A48844200D105E040F29F11AFF214209E
:100D40000CF0B4FBA8B200B105E04FF4D071AFF2E3
:100D500024200CF0ABFB258370BD70B504460D4616
:100D6000844884421DD0844884421AD083488442F7
:100D700017D08348844214D08248844211D08248DC
:100D800084420ED0814884420BD08148844208D0EE
:100D90008048844205D08048844202D07F48844203
:100DA00000D105E04FF4DA71AFF280200CF07EFB49
:100DB000A8B200B105E040F2B511AFF290200CF0FE
:100DC00075FB658370BD70B505460C4616466948CF
:100DD00085421DD0684885421AD06848854217D0A0
:100DE0006748854214D06748854211D066488542DD
:100DF0000ED0664885420BD06548854208D06548CC
:100E0000854205D06448854202D06448854200D1BD
:100E100005E04FF4E571AFF2EC200CF047FB012C3C
:100E200025D0022C23D0042C21D0082C1FD0102C2C
:100E30001DD0202C1BD0402C19D0802C17D0B4F5FD
:100E4000807F14D0B4F5007F11D0B4F5806F0ED040
:100E5000B4F5006F0BD0B4F5805F08D0B4F5005F37
:100E600005D0B4F5804F02D0B4F5004F00D105E0B5
:100E700040F2CB11AFF24C300CF018FB0EB1012E4A
:100E800000D105E04FF4E671AFF260300CF00EFBDC
:100E90000EB12C8300E06C8370BD70B504460D4626
:100EA000344884421DD0344884421AD033488442A6
:100EB00017D03348844214D03248844211D032488B
:100EC00084420ED0314884420BD03148844208D04D
:100ED0003048844205D03048844202D02F488442B2
:100EE00000D105E040F2E311AFF2C0300CF0DEFAC1
:100EF000656170BD70B504460D461E4884421DD024
:100F00001D4884421AD01D48844217D01C48844290
:100F100014D01C48844211D01B4884420ED01B4878
:100F200084420BD01A48844208D01A48844205D023
:100F30001948844202D01948844200D105E040F2A9
:100F4000F311AFF218400CF0B1FA606968406061CB
:100F500070BD2DE9F04106460D4614460027B846FF
:100F60000448864234D00448864231D00348864241
:100F70002ED015E0000002400004024000080240AC
:100F8000000C024000100240001402400018024011
:100F9000001C0240002002400024024000280240C1
:100FA0005148864214D05148864211D0504886425A
:100FB0000ED0504886420BD04F48864208D04F484A
:100FC000864205D04E48864202D04E48864200D125
:100FD00005E040F24921AFF2AC400CF067FAEDB108
:100FE000012D1BD0022D19D0032D17D0042D15D0A3
:100FF000052D13D0062D11D0072D0FD0082D0DD0A3
:10100000092D0BD00A2D09D00B2D07D00C2D05D0A2
:101010000D2D03D00E2D01D00F2D00D105E040F293
:101020004A21AFF2F8400CF041FAA4B3092C32D0B7
:101030008CB384B37CB374B3012C2CD02BD0022C92
:1010400029D028D027D0032C25D0042C23D022D07F
:1010500021D0052C1FD01ED0092C1CD0062C1AD054
:10106000092C18D0072C16D015D014D0082C12D06B
:1010700011D010D0092C0ED00DD00A2C0BD00AD0D4
:101080000B2C08D00C2C06D005D00D2C03D00F2C27
:1010900001D00C2C00D105E040F24B21AFF274508E
:1010A0000CF004FA6807C00E04FA00F7E91006F124
:1010B000200050F821006907CA0E0F219140884393
:1010C000EA1006F1200141F82200E91006F12000A3
:1010D00050F8210040EA0708E91006F1200040F826
:1010E0002180BDE8F0810000000C024000100240A9
:1010F0000014024000180240001C02400020024080
:10110000002402400028024010B504462CB1022CF5
:1011100003D0042C01D0062C00D103E08421FDA0D3
:101120000CF0C4F934B943F2DB01A000A0F1C040D7
:10113000016005E043F2D201A000A0F1C0400160CF
:101140006FF07041601C8000A0F1C0400160A00001
:10115000A0F1C040C0F8041110BD10B504462068CD
:1011600040B12068022805D02068042802D02068F9
:10117000062800D103E09F21E6A00CF097F96068F3
:1011800010B16068022800D103E0A021E1A00CF0BA
:101190008DF9A06828B1A068042802D0A0680828AA
:1011A00000D103E0A121DBA00CF080F9E06810B1D0
:1011B000E068102800D103E0A221D6A00CF076F957
:1011C000206918B12069B0F5807F00D103E0A32128
:1011D000D0A00CF06BF9606918B16069B0F5004FF0
:1011E00000D103E0A421CBA00CF060F9A06918B1F4
:1011F000A069B0F5007F00D103E0A521C5A00CF0E7
:1012000055F9E06918B1E069B0F5806F00D103E0ED
:10121000A621C0A00CF04AF9206A18B1206AB0F5E6
:10122000006F00D103E0A721BAA00CF03FF9606A7B
:1012300018B1606AB0F5805F00D103E0A821B5A0C5
:101240000CF034F9A06A18B1A06AB0F5005F00D1C3
:1012500003E0A921AFA00CF029F9E06A18B1E06A17
:10126000B0F5804F00D103E0AA21AAA00CF01EF92E
:10127000206B18B1206BB0F5002F00D103E0AB213B
:10128000A4A00CF013F9606B00680F2800D803E0ED
:10129000AC21A0A00CF00AF9606B40680F2800D8C0
:1012A00003E0AD219BA00CF001F9606B806820B1D8
:1012B000606B8068FF2800D803E0AE2195A00CF099
:1012C000F5F8606BC0680F2800D803E0AF2191A04B
:1012D0000CF0ECF8606B00690F2800D803E0B02137
:1012E0008CA00CF0E3F8606B40690F2800D803E095
:1012F000B12188A00CF0DAF8606B806970B1606B86
:101300008069B0F1805F09D0606B8069B0F1005FE7
:1013100004D0606B8069B0F1405F00D103E0B2217E
:101320007CA00CF0C3F8D4E901010843E16808434C
:101330002169084361690843A1690843E1690843D9
:10134000216A0843616A0843A16A0843E16A0843C5
:10135000216B084321688900A1F1C0410860A068A1
:1013600008280BD120688000A0F1C040006840F040
:10137000400120688000A0F1C0400160606B0068FF
:10138000616B496840EA0110616B896840EA01209D
:10139000616B898940EA0140616B098A40EA01502A
:1013A000616B097D40EA0160616B896908432168CE
:1013B000491C8900A1F1C0410860E06AB0F5804F86
:1013C00062D1A06B00680F2800D803E0D42151A09F
:1013D0000CF06CF8A06B40680F2800D803E0D52112
:1013E0004CA00CF063F8A06B806820B1A06B806803
:1013F000FF2800D803E0D62146A00CF057F8A06BD8
:1014000000690F2800D803E0D72142A00CF04EF865
:10141000A06B40690F2800D803E0D8213DA00CF054
:1014200045F8A06B806970B1A06B8069B0F1805FF6
:1014300009D0A06B8069B0F1005F04D0A06B806917
:10144000B0F1405F00D103E0D92132A00CF02EF8BA
:10145000A06B0068A16B496840EA0110A16B896824
:1014600040EA0120A16B098A40EA0150A16B097D85
:1014700040EA0160A16B8969084321688900A1F1F4
:10148000C041C1F8040107E06FF07041206880009E
:10149000A0F1C040C0F8041110BD0021016002217C
:1014A000416000218160C160016141618161C16170
:1014B00001624FF480514162490081620021C162A2
:1014C00001631F4941638163704770B504460D464F
:1014D0002CB1022C03D0042C01D0062C00D104E046
:1014E00040F20F110BA00BF0E1FF0DB1012D00D167
:1014F00004E04FF4887107A00BF0D8FF15B3A000EB
:10150000A0F1C040006840F00101A000A0F1C0407F
:10151000016021E02E2E5C4C6962726172795C5030
:1015200065726970686572616C5C7372635C737418
:101530006D3332663478785F66736D632E630000B6
:101540001CDB0008A000A0F1C0400068FA49084078
:10155000A100A1F1C041086070BD10B50446102C77
:1015600002D0B4F5807F00D105E040F25911AFF20E
:101570005C000BF09BFF102C0AD118204FF020418B
:101580000866402048664FF0FC308866C86610E068
:101590001820EA49086040204FF02041C1F884003B
:1015A0004FF0FC30E549083108604FF02041C1F8A8
:1015B0008C0010BD2DE9F0410446002500260027CF
:1015C0002068102803D02068B0F5807F00D105E0A6
:1015D0004FF4BD71AFF2C4000BF068FF606810B14A
:1015E0006068022800D105E040F27B11AFF2DC0018
:1015F0000BF05CFFA06810B1A068102800D105E0D6
:101600004FF4BE71AFF2F4000BF050FFE06810B180
:10161000E068402800D105E040F27D11AFF20C10E7
:101620000BF044FF206998B12069B0F5003F0FD05E
:101630002069B0F5802F0BD02069B0F5C02F07D0FE
:101640002069B0F5002F03D02069B0F5202F00D11C
:1016500005E04FF4BF71AFF244100BF027FF606953
:10166000FF2800D805E040F27F11AFF258100BF0D0
:101670001DFFA069FF2800D805E04FF4C071AFF24C
:101680006C100BF013FFE0690068FF2800D805E03C
:1016900040F28111AFF284100BF008FFE06940685E
:1016A000FF2800D805E04FF4C171AFF298100BF09D
:1016B000FDFEE0698068FF2800D805E040F2831154
:1016C000AFF2B0100BF0F2FEE069C068FF2800D85E
:1016D00005E04FF4C271AFF2C4100BF0E7FE206AD0
:1016E0000068FF2800D805E040F28511AFF2DC1059
:1016F0000BF0DCFE206A4068FF2800D805E04FF4BC
:10170000C371AFF2F0100BF0D1FE206A8068FF28A1
:1017100000D805E040F28711AFF208200BF0C6FEBA
:10172000206AC068FF2800D805E04FF4C471AFF20A
:101730001C200BF0BBFE606840F00800A168084365
:10174000E168084321690843616940EA4120A169D1
:1017500040EA4135E0690068E169496840EA0120F2
:10176000E169098940EA0140E169097B40EA0166D3
:10177000206A0068216A496840EA0120216A0989D3
:1017800040EA0140216A097B40EA0167206810288D
:1017900005D14FF0204005668666C76608E06748B9
:1017A00005604FF02040C0F8886064480C30076046
:1017B000BDE8F08110210160002141608160C160BD
:1017C000016141618161FC21C2691160C26951609E
:1017D000C2699160C269D160026A1160026A516097
:1017E000026A9160026AD160704770B504460D4686
:1017F000102C02D0B4F5807F00D105E040F2D51165
:10180000AFF2F0200BF052FE0DB1012D00D105E03A
:101810004FF4EB71AFF204300BF048FE9DB1102C89
:1018200008D14FF02040006E40F004004FF02041FE
:1018300008661DE04148006840F004004FF0204178
:10184000C1F8800014E0102C09D14FF02040006E48
:101850003949C91E08404FF02041086608E0374862
:1018600000683549C91E08404FF02041C1F880008A
:1018700070BD70B504460D46102C02D0B4F5807FC3
:1018800000D105E040F2FD11AFF278300BF00EFE12
:101890000DB1012D00D105E04FF4FF71AFF28C3096
:1018A0000BF004FE9DB1102C08D14FF02040006ECB
:1018B00040F040004FF0204108661DE01F480068DE
:1018C00040F040004FF02041C1F8800014E0102C9F
:1018D00009D14FF02040006E17493F3908404FF0C2
:1018E0002041086608E01548006813493F39084060
:1018F0004FF02041C1F8800070BD01460020102942
:1019000003D14FF02042506F02E00C4A14321068AD
:101910007047182009492031086000200906C1F8E5
:10192000A4004FF0FC30054928310860091D08600B
:10193000091D086070470000FEFF0F00800000A036
:1019400010B50446206810B12068022800D105E0D7
:1019500040F27621AFF244400BF0A8FD6068FF280A
:1019600000D805E040F27721AFF258400BF09EFD21
:10197000A068FF2800D805E04FF41E71AFF26C405C
:101980000BF094FDE0680068FF2800D805E040F205
:101990007A21AFF280400BF089FDE0684068FF28B3
:1019A00000D805E040F27B21AFF298400BF07EFDBD
:1019B000E0688068FF2800D805E04FF41F71AFF29F
:1019C000AC400BF073FDE068C068FF2800D805E06C
:1019D00040F27D21AFF2C4400BF068FD2069006841
:1019E000FF2800D805E040F27F21AFF2D8400BF08D
:1019F0005DFD20694068FF2800D805E04FF42071A4
:101A0000AFF2F0400BF052FD20698068FF2800D84B
:101A100005E040F28121AFF204500BF047FD206950
:101A2000C068FF2800D805E040F28221AFF21C50C8
:101A30000BF03CFD60690068FF2800D805E040F22B
:101A40008321AFF230500BF031FD60694068FF2810
:101A500000D805E04FF42171AFF248500BF026FD9D
:101A600060698068FF2800D805E040F28521AFF268
:101A70005C500BF01BFD6069C068FF2800D805E0D2
:101A800040F28621AFF274500BF010FD206840F058
:101A90001000616840EA4120A16840EA4130EB490A
:101AA0000860E0680068E168496840EA0120E16890
:101AB000098940EA0140E168097B40EA0160E349A5
:101AC00008310860206900682169496840EA0120FE
:101AD0002169098940EA01402169097B40EA0160E6
:101AE000DA490C310860606900686169496840EA58
:101AF00001206169098940EA01406169097B40EA86
:101B000001604FF02041C1F8B00010BD002101601C
:101B100041608160FC21C2681160C2685160C26886
:101B20009160C268D1600269116002695160026906
:101B300091600269D16042691160426951604269F5
:101B400091604269D160704710B504460CB1012C18
:101B500000D105E040F2C321AFF248600BF0A6FCD3
:101B600044B1BA48006840F004004FF02041C1F889
:101B7000A00007E0B5480068B54908404FF0204193
:101B8000C1F8A00010BD70B505460C461646102DD4
:101B900005D0B5F5807F02D0B5F5805F00D105E0B6
:101BA00040F2F221AFF294600BF080FC24F0380098
:101BB00008B904B105E040F2F321AFF2A8600BF0E0
:101BC00075FC0EB1012E00D105E04FF43D71AFF26E
:101BD000BC600BF06BFCF6B1102D07D14FF020402C
:101BE000406E20434FF02041486632E0B5F5807FDB
:101BF00008D196481C38006820434FF02041C1F8B6
:101C0000840026E09148001D006820434FF02041E9
:101C1000C1F8A4001DE0102D07D14FF02040406E08
:101C2000A0434FF02041486613E0B5F5807F08D10E
:101C300086481C380068A0434FF02041C1F884005A
:101C400007E08248001D0068A0434FF02041C1F822
:101C5000A40070BD2DE9F04104460D460026002782
:101C6000102C05D0B4F5807F02D0B4F5805F00D190
:101C700005E040F23231AFF264700BF017FC012D39
:101C800005D0022D03D0042D01D0402D00D105E058
:101C900040F23331AFF284700BF008FC102C03D10A
:101CA0004FF02040476E09E0B4F5807F03D16748CC
:101CB0001C38076802E06548001D076807EA050050
:101CC00008B1012600E000263046BDE8F08170B57D
:101CD00004460D46102C05D0B4F5807F02D0B4F533
:101CE000805F00D105E040F26131AFF2D8700BF0B7
:101CF000DDFB25F0070008B905B105E040F26231CF
:101D0000AFF2F0700BF0D2FB102C07D14FF0204057
:101D1000406EA8434FF02041486613E0B4F5807F41
:101D200008D14A481C380068A8434FF02041C1F848
:101D3000840007E04548001D0068A8434FF020419B
:101D4000C1F8A40070BD2DE9F04704460D460027F8
:101D50000026B046B146102C05D0B4F5807F02D0E5
:101D6000B4F5805F00D105E040F28731AFF65C004A
:101D70000BF09CFB082D03D0102D01D0202D00D19D
:101D800005E04FF46271AFF674000BF08FFB102C7E
:101D900003D14FF02040466E09E0B4F5807F03D1B7
:101DA0002A481C38066802E02848001D066806EA32
:101DB000050806EAD509B8F1000F04D0B9F1000F03
:101DC00001D0012700E000273846BDE8F08770B554
:101DD00005460C46102D05D0B5F5807F02D0B5F52F
:101DE000805F00D105E040F2B731AFF6D8000BF0CC
:101DF0005DFB24F0380008B904B105E04FF46E71C2
:101E0000AFF6F0000BF052FB102D08D14FF0204040
:101E1000406E20EAD4004FF02041486615E0B5F549
:101E2000807F09D109481C38006820EAD4004FF0AF
:101E30002041C1F8840008E00448001D006820EA41
:101E4000D4004FF02041C1F8A40070BDA00000A054
:101E5000FBFF0F0010B5044645F25550844200D0F8
:101E600004B903E0872124A00BF020FB2D48046077
:101E700010BD10B504465CB1012C09D0022C07D06E
:101E8000032C05D0042C03D0052C01D0062C00D146
:101E900003E09B2118A00BF009FB2248446010BD11
:101EA00010B50446B4F5805F00DA03E0A82112A063
:101EB0000BF0FCFA1B48846010BD4AF6AA201949B1
:101EC000086070474CF6CC4016490860704770B502
:101ED00004460025012C01D0022C00D103E0ED21A5
:101EE00005A00BF0E3FA0F48C068204008B10125B7
:101EF00000E00025284670BD2E2E5C4C69627261A0
:101F000072795C5065726970686572616C5C73723D
:101F1000635C73746D3332663478785F69776467B5
:101F20002E63000000300040FB48006840F00100D4
:101F3000F94908600020F84908310860F64800684F
:101F4000F6490840F4490860F548091D0860F5485D
:101F5000F14984310860F2481038091D0860EE48E4
:101F6000006820F48020EC4908600020EA490C3128
:101F70000860E9498C310860704710B504461CB10F
:101F8000012C01D0052C00D104E04FF48571E6A0AE
:101F90000BF08CFA0020E049891C08700846047098
:101FA00010BD2DE9F0410446002500260027212C14
:101FB00019D0312C17D0392C15D0412C13D0612CCD
:101FC00011D0792C0FD07A2C0DD07B2C0BD07C2CFF
:101FD00009D07D2C07D07E2C05D07F2C03D03B2C44
:101FE00001D03D2C00D104E040F68D01CEA00BF0D5
:101FF0005DFA6511012D02D1C748066808E0022D7F
:1020000003D1C5487030066802E0C34874300668E2
:1020100004F01F050120A840304008B1012700E06E
:1020200000273846BDE8F08138B500200090002434
:10203000002500BF3120FFF7B4FF05460098401C83
:1020400000900098B0F5A04F01D0002DF2D03120C3
:10205000FFF7A7FF08B1012400E00024204638BDA7
:1020600070B5044600251F2C00DC04E04FF4A1717C
:10207000ADA00BF01BFAA848056825F0F80545EA65
:10208000C405056070BD10B504460CB1012C00D12B
:1020900004E040F26511A4A00BF008FAAD4804601A
:1020A00010BD10B504461CB1012C01D0042C00D188
:1020B00004E04FF4BF719CA00BF0F8F900209649A2
:1020C000703108700870012C02D0042C0AD104E091
:1020D000012091497031087005E005208E4970316A
:1020E000087000E000BF00BF10BD10B504460CB181
:1020F000012C00D104E04FF4D3718BA00BF0D6F982
:102100009548046010BD2DE9F04105460F4616467E
:102110001C46DDF8188015B1B5F5800F00D104E03C
:1021200040F2D11180A00BF0C1F93F2F00D804E09C
:102130004FF4E9717CA00BF0B9F9C02E03D3B6F5CA
:10214000D87F00D804E040F2D31177A00BF0AEF9AD
:10215000022C05D0042C03D0062C01D0082C00D171
:1021600004E04FF4EA7170A00BF0A0F9B8F1040F8D
:1021700003D3B8F10F0F00D804E040F2D5116AA0E4
:102180000BF094F947EA86100121C1EB540140EAB3
:102190000140284340EA08605F49091D0860BDE826
:1021A000F08110B504460CB1012C00D104E04FF4CD
:1021B000F4715DA00BF07AF96648046610BD70B545
:1021C00005460C46C02D03D3B5F5D87F00D804E0F2
:1021D00040F2062154A00BF069F9022C02D3072C1F
:1021E00000D804E040F207214FA00BF05FF9A801EE
:1021F00040EA047048498431086070BD10B5044657
:102200000CB1012C00D104E040F2612146A00BF09A
:102210004DF95048846610BD70B504460E4615460B
:10222000C02C03D3B4F5D87F00D804E040F27E215F
:102230003DA00BF03BF9022D02D3072D00D804E09E
:1022400040F27F2138A00BF031F9A00140EA06608E
:1022500040EA057030498831086070BD10B5044609
:102260000CB1012C00D104E04FF424712EA00BF02E
:102270001DF93848046710BD10B504460CB1012C97
:1022800000D104E040F2A22127A00BF00FF9314861
:10229000C46410BD70B505460C46002645B1B5F5C1
:1022A000001F05D0B5F5800F02D0B5F5C00F00D1E5
:1022B00004E040F2BD211CA00BF0F8F85CB1B4F1D1
:1022C000806F08D0B4F1A06F05D0B4F1C06F02D018
:1022D000B4F1E06F00D104E040F2BE2112A00BF097
:1022E000E5F80D480830066826F0EC6645EA04007B
:1022F000064309480830066070BD70B505460C46B7
:10230000002645B1B5F1804F05D0B5F1004F02D0A0
:10231000B5F1404F22D127E000380240FFFFF6EA36
:1023200010300024003000202E2E5C4C6962726157
:1023300072795C5065726970686572616C5C737209
:10234000635C73746D3332663478785F7263632EC6
:102350006300000000004742800E474240F2E32144
:10236000AFF23C000BF0A2F85CB1B4F1005F08D012
:10237000B4F1205F05D0B4F1405F02D0B4F1605FEA
:1023800000D105E04FF43971AFF264000BF08EF824
:10239000FB48066826F0784645EA04000643F848FC
:1023A000066070BD70B5044600251CB1012C01D03B
:1023B000022C00D105E040F2A631AFF294000BF000
:1023C00075F8EF48056825F003052543056070BDE5
:1023D000EB48006800F00C00704770B5044600251B
:1023E0007CB1802C0DD0902C0BD0A02C09D0B02C1F
:1023F00007D0C02C05D0D02C03D0E02C01D0F02C7D
:1024000000D105E040F2DB31AFF2E4000BF04EF812
:10241000DB48056825F0F0052543056070BD70B503
:10242000044600255CB1B4F5805F08D0B4F5A05F28
:1024300005D0B4F5C05F02D0B4F5E05F00D105E08F
:1024400040F2FB31AFF220100BF030F8CC480568B9
:1024500025F4E0552543056070BD70B504460025A0
:102460005CB1B4F5805F08D0B4F5A05F05D0B4F5D9
:10247000C05F02D0B4F5E05F00D105E040F21A4140
:10248000AFF25C100BF012F8BD48056825F460450A
:1024900045EAC405056070BDF0B5002100220024A6
:1024A000022500260223B64F3F6807F00C0121B138
:1024B000042905D0082937D105E0B24F076036E07E
:1024C000B14F076033E0AE4F3F1F3F68C7F3805600
:1024D000AB4F3F1F3F6807F03F036EB1AA4FB7FBFA
:1024E000F3F7DFF89CC2ACF1040CDCF800C0CCF3CD
:1024F000881C07FB0CF40CE0A24FB7FBF3F7DFF8E6
:1025000080C2ACF1040CDCF800C0CCF3881C07FBE3
:102510000CF49B4F3F1F3F68C7F301477F1C7D00B2
:10252000B4FBF5F7076002E0964F076000BF00BFFD
:10253000934F3F6807F0F0010909944F7A5C0768F0
:10254000D74047608E4F3F6807F4E051890A8F4FAC
:102550007A5C4768D7408760894F3F6807F46041DD
:10256000490B8A4F7A5C4768D740C760F0BD70B5A9
:1025700004460025B4F5807F5CD0B4F5007F59D0C7
:102580008348844256D08348844253D08248844250
:1025900050D0824884424DD0814884424AD08148FC
:1025A000844247D08048844244D08048844241D00D
:1025B0007F4884423ED07F4884423BD07E4884425C
:1025C00038D07E48844235D07D48844232D07D4820
:1025D00084422FD07C4884422CD07C48844229D02D
:1025E0007B48844226D07B48844223D07A48844268
:1025F00020D07A4884421DD0794884421AD0794844
:10260000844217D07848844214D07848844211D04C
:10261000774884420ED0774884420BD07648844273
:1026200008D07648844205D07548844202D0754867
:10263000844200D105E040F2CB41AFF214300AF001
:1026400035FF04F44070B0F5407F09D14C4805686F
:1026500025F4F8156C4904EA010005434848056073
:10266000474868300068C4F30B01084344496831A7
:10267000086070BD10B504460CB1012C00D105E016
:1026800040F2E941AFF260300AF010FF5F480460A9
:1026900010BD10B504460CB1012C00D105E040F28C
:1026A000FA41AFF27C300AF001FF5848001D046087
:1026B00010BD10B504460CB1012C00D105E040F26C
:1026C0000B51AFF29C300AF0F1FE5148046010BD8E
:1026D00070B504460025012C02D3202C00D805E05B
:1026E00040F22251AFF2C0300AF0E0FE24488430BC
:1026F000056825F01F05601E0543214884300560EC
:1027000070BD70B504460025012C02D3202C00D8E2
:1027100005E040F24251AFF2F0300AF0C7FE18482F
:102720008430056825F4F855601E45EA00251448F4
:102730008430056070BD70B504460025B4F5801F77
:1027400003D014B1B4F5001F00D105E040F266518A
:10275000AFF22C400AF0AAFE09488430056825F43F
:1027600040152543056070BD70B504460025B4F5DD
:10277000800F03D014B1B4F5000F4BD150E000002E
:10278000083802400024F40000127A000000002003
:10279000000302000003030000030400000305001F
:1027A00000030600000307000003080000030900FF
:1027B00000030A0000030B0000030C0000030D00DF
:1027C00000030E0000030F000003100000031100BF
:1027D000000312000003130000031400000315009F
:1027E000000316000003170000031800000319007F
:1027F00000031A0000031B0000031C0000031D005F
:1028000000031E0000031F00FFFCFF0F3C0E4742A9
:102810005C01474240F28A51AFF2F4400AF046FEB2
:10282000F948056825F440052543056070BD70B57D
:102830000446002544B1B4F5803F05D0B4F5003F0F
:1028400002D0B4F5403F00D105E040F2AB51AFF209
:1028500028500AF02BFEEC48056825F44035254346
:10286000056070BD10B504460CB1012C00D105E027
:1028700040F2CE51AFF250500AF018FEE348046027
:1028800010BD70B504460D46E148204008B904B1BA
:1028900005E040F2F951AFF270500AF007FE0DB1B9
:1028A000012D00D105E040F2FB51AFF284500AF057
:1028B000FDFD3DB1D4485C3800682043D2495C3905
:1028C000086006E0D0485C380068A043CE495C3917
:1028D000086070BD70B504460D4624F0F10008B9DB
:1028E00004B105E040F21961AFF2C4500AF0DEFD18
:1028F0000DB1012D00D105E040F21A61AFF2D850C0
:102900000AF0D4FD3DB1C048583800682043BE49A4
:102910005839086006E0BC4858380068A043BA49F6
:102920005839086070BD70B504460D4624F00100AA
:1029300008B904B105E040F23561AFF214600AF065
:10294000B5FD0DB1012D00D105E040F23661AFF2C9
:1029500028600AF0ABFD3DB1AB4854380068204315
:10296000A9495439086006E0A74854380068A043D4
:10297000A5495439086070BD70B504460D46A54898
:10298000204008B904B105E040F26961AFF2686027
:102990000AF08CFD0DB1012D00D105E040F26A6115
:1029A000AFF27C600AF082FD3DB197484C38006878
:1029B000204395494C39086006E093484C3800683C
:1029C000A04391494C39086070BD70B504460D466E
:1029D0009148204008B904B105E040F29661AFF299
:1029E000B8600AF063FD0DB1012D00D105E040F2A1
:1029F0009761AFF2CC600AF059FD3DB1824848388A
:102A00000068204380494839086006E07E4848381D
:102A10000068A0437C494839086070BD70B5044621
:102A20000D467E48204008B904B105E04FF4D86156
:102A3000AFF20C700AF03AFD0DB1012D00D105E0A6
:102A400040F2C161AFF220700AF030FD3DB16E4836
:102A50007C38006820436C497C39086006E06A488D
:102A60007C380068A04368497C39086070BD70B547
:102A700004460D4624F0F10008B904B105E040F227
:102A8000DD61AFF25C700AF011FD0DB1012D00D1D6
:102A900005E040F2DE61AFF270700AF007FD3DB173
:102AA000594878380068204357497839086006E06B
:102AB000554878380068A04353497839086070BD9C
:102AC00070B504460D4624F0010008B904B105E0D4
:102AD00040F2F661AFF2B0700AF0E8FC0DB1012DE2
:102AE00000D105E040F2F761AFF2C4700AF0DEFCFD
:102AF0003DB1454874380068204343497439086043
:102B000006E0414874380068A0433F4974390860C2
:102B100070BD70B504460D463E48204008B904B16A
:102B200005E040F22771AFF600000AF0BFFC0DB1DE
:102B3000012D00D105E04FF4E561AFF614000AF075
:102B4000B5FC3DB130486C38006820432E496C39E3
:102B5000086006E02C486C380068A0432A496C39AC
:102B6000086070BD70B504460D462D48204008B978
:102B700004B105E04FF4EA61AFF654000AF096FCA8
:102B80000DB1012D00D105E040F25171AFF66800A2
:102B90000AF08CFC3DB11C486838006820431A4993
:102BA0006839086006E0184868380068A04316498C
:102BB0006839086070BD70B504460D46194820405C
:102BC00008B904B105E040F28171AFF6A4000AF043
:102BD0006DFC0DB1012D00D105E040F28271AFF620
:102BE000B8000AF063FC3DB107483C380068204358
:102BF00005493C39086006E003483C380068A043BA
:102C000001493C39086070BD8C380240E0114742F0
:102C100000E80B8100360109CC8088FB00E81FDD4D
:102C2000CC8688FB0068108170B504460D4624F000
:102C3000F10008B904B105E040F2A171AFF6181037
:102C40000AF034FC0DB1012D00D105E040F2A27173
:102C5000AFF62C100AF02AFC2DB1854800682043FD
:102C60008349086004E082480068A0438049086006
:102C700070BD70B504460D4624F0010008B904B1DA
:102C800005E040F2BD71AFF660100AF00FFC0DB127
:102C9000012D00D105E040F2BE71AFF674100AF0CC
:102CA00005FC3DB17248001D006820437049091DB4
:102CB000086006E06E48001D0068A0436C49091DCD
:102CC000086070BD70B504460D466A48204008B9DA
:102CD00004B105E040F2F171AFF6B4100AF0E6FB82
:102CE0000DB1012D00D105E040F2F271AFF6C81030
:102CF0000AF0DCFB3DB15E480C30006820435C49C3
:102D00000C31086006E05A480C300068A04358496E
:102D10000C31086070BD70B504460D465648204021
:102D200008B904B105E040F61E01AFF604200AF030
:102D3000BDFB0DB1012D00D105E040F61F01AFF63E
:102D400018200AF0B3FB3DB1494810300068204319
:102D500047491031086006E0454810300068A0433C
:102D600043491031086070BD10B504460CB1012C08
:102D700000D105E040F63601AFF654200AF096FB8C
:102D8000012C08D13A481C30006840F0080038494E
:102D90001C31086007E036481C30006820F008004D
:102DA00033491C31086010BD70B504460D4604F06F
:102DB000800008B904B105E040F66401AFF6982040
:102DC0000AF074FB0DB1012D00D105E040F665015C
:102DD000AFF6AC200AF06AFB3DB1254847380078D1
:102DE000204323494739087006E0214847380078D6
:102DF000A0431F494739087070BD1D482030006846
:102E000040F080701A4920310860704770B5044660
:102E10000025012C0DD0022C0BD0042C09D0082C3D
:102E200007D0102C05D0802C03D0402C01D0202CB2
:102E300000D105E040F6CC01AFF614300AF036FBC5
:102E40000B4848380068204008B1012500E0002503
:102E5000284670BD10B5044604B105E040F6EC010B
:102E6000AFF63C300AF022FB01484638047010BD32
:102E70005438024000360109CC8088FB10B501218E
:102E80008803FFF76FFE00214FF48040FFF76AFED2
:102E900010BD10B504462CB1012C03D0032C01D079
:102EA000022C00D103E079214CA00AF0FFFA574828
:102EB000046010BD10B504460CB1012C00D103E034
:102EC0008E2146A00AF0F2FA5148046210BD70B596
:102ED00005460C4600269DB1012D11D0022D0FD0C4
:102EE000032D0DD0042D0BD0052D09D0062D07D0B4
:102EF000072D05D0082D03D0092D01D00A2D00D1B2
:102F000003E0A72135A00AF0D1FAECB1012C1BD0C7
:102F1000022C19D0032C17D0042C15D0052C13D05B
:102F2000062C11D0072C0FD0082C0DD0092C0BD05B
:102F30000A2C09D00B2C07D00C2C05D00D2C03D05B
:102F40000E2C01D00F2C00D103E0A82123A00AF001
:102F5000ADFAA007010F0F2000FA01F62B48083048
:102F6000A11050F82100B04328490831A21041F8BF
:102F700022000846A11050F82100A107090F05FA08
:102F800001F1084321490831A21041F8220070BD27
:102F900010B504460CB1012C00D103E0B9210FA0FB
:102FA0000AF084FA1A48DC30046010BD10B50446FB
:102FB0000CB1012C00D103E0CB2108A00AF076FA75
:102FC0001448046010BD002010492031096801F444
:102FD000807109B1012000E0002070472E2E5C4C6A
:102FE0006962726172795C5065726970686572615C
:102FF0006C5C7372635C73746D3332663478785FC3
:103000007379736366672E63000000000038014027
:10301000000027420004274210B50446FE488442BF
:1030200026D0B4F1804F23D0FC48844220D0FC4805
:1030300084421DD0FB4884421AD0FB48844217D0FA
:10304000FA48844214D0FA48844211D0F9488442A4
:103050000ED0F94884420BD0F848844208D0F84892
:10306000844205D0F748844202D0F748844200D118
:1030700003E0CB21F5A00AF019FAE748844208D111
:1030800001210846FFF76EFD00210120FFF76AFDD0
:103090009DE0B4F1804F08D101210846FFF739FDCA
:1030A00000210120FFF735FD91E0DC48844208D182
:1030B00001210220FFF72DFD00210220FFF729FD4D
:1030C00085E0D748844208D101210420FFF721FD83
:1030D00000210420FFF71DFD79E0D248844208D189
:1030E00001210820FFF715FD00210820FFF711FD41
:1030F0006DE0CD48844208D101211020FFF709FD81
:1031000000211020FFF705FD61E0C848844208D186
:1031100001212020FFF7FDFC00212020FFF7F9FC12
:1031200055E0C348844208D101210220FFF71AFD6F
:1031300000210220FFF716FD49E0BE48844209D174
:1031400001210804FFF70EFD00214FF48030FFF746
:1031500009FD3CE0B848844209D101214804FFF749
:1031600001FD00214FF40030FFF7FCFC2FE0B348D5
:10317000844209D101218804FFF7F4FC00214FF4B7
:103180008020FFF7EFFC22E0AD48844208D1012106
:103190004020FFF7BEFC00214020FFF7BAFC16E0FC
:1031A000A848844208D101218020FFF7B2FC002109
:1031B0008020FFF7AEFC0AE0A348844207D101213A
:1031C0008015FFF7A6FC0021A015FFF7A2FC10BD9B
:1031D00070B504460D4600268F48844226D0B4F1CF
:1031E000804F23D08D48844220D08D4884421DD00A
:1031F0008C4884421AD08C48844217D08B48844231
:1032000014D08B48844211D08A4884420ED08A4818
:1032100084420BD08948844208D08948844205D032
:103220008848844202D08848844200D104E040F2B9
:10323000251186A00AF03AF9688858B168881028E4
:1032400008D06888202805D06888402802D068887F
:10325000602800D104E04FF493717CA00AF026F9B5
:10326000288938B12889B0F5807F03D02889B0F546
:10327000007F00D104E040F2271174A00AF016F993
:103280002688654884420ED0694884420BD0B4F148
:10329000804F08D06148844205D06148844202D002
:1032A0006048844204D14FF68F7006406888064318
:1032B0005D48844207D05D48844204D04FF6FF4009
:1032C00006402889064326806868E06228882085B1
:1032D0005148844202D05648844201D1A87A2086BF
:1032E0000120A08270BD4FF0FF31416000210180BC
:1032F000018141808172704770B504460E461546C3
:103300004548844226D0B4F1804F23D043488442BC
:1033100020D0434884421DD0424884421AD04248BB
:10332000844217D04148844214D04148844211D08D
:10333000404884420ED0404884420BD03F488442EB
:1033400008D03F48844205D03E48844202D03E48DF
:10335000844200D104E040F26B113CA00AF0A6F8D0
:103360000DB1012D00D104E04FF4B67137A00AF081
:103370009DF82685A58270BD70B504460D460026D1
:10338000254884420ED0B4F1804F0BD023488442AC
:1033900008D02348844205D02248844202D02448E1
:1033A000844200D104E04FF4C27128A00AF07EF8F4
:1033B0003DB1102D05D0202D03D0402D01D0602D22
:1033C00000D104E040F2851120A00AF06FF82688B1
:1033D0004FF68F7006402E43268070BD70B50446B0
:1033E0000D460D48844257D0B4F1804F54D00B485D
:1033F000844251D00A4884424ED00A4884424BD07D
:103400000948844248D00948844245D0084884424B
:1034100042D0084884422FE00000014000040040F0
:1034200000080040000C0040001000400014004064
:1034300000040140004001400044014000480140B8
:1034400000180040001C0040002000402E2E5C4C64
:103450006962726172795C506572697068657261E7
:103460006C5C7372635C73746D3332663478785F4E
:1034700074696D2E630000000ED0FE4884420BD0AC
:10348000FD48844208D0FD48844205D0FC4884426F
:1034900002D0FC48844200D105E04FF4CE71AFF277
:1034A00054000AF003F8656270BD70B504460D461D
:1034B000F548844226D0B4F1804F23D0F3488442AB
:1034C00020D0F34884421DD0F24884421AD0F248FA
:1034D000844217D0F148844214D0F148844211D07C
:1034E000F04884420ED0E34884420BD0E248844244
:1034F00008D0E248844205D0E148844202D0E14845
:10350000844200D105E040F2AB11AFF2C00009F0F7
:10351000CDFFE56270BD10B50446DB48844226D07D
:10352000B4F1804F23D0D948844220D0D848844277
:103530001DD0D84884421AD0D748844217D0D748E3
:10354000844214D0D648844211D0D64884420ED04A
:10355000C84884420BD0C848844208D0C748844237
:1035600005D0C748844202D0C648844200D105E055
:1035700040F2B911AFF22C1009F098FF606A10BD4B
:1035800010B50446C048844226D0B4F1804F23D001
:10359000BE48844220D0BE4884421DD0BD488442EB
:1035A0001AD0BD48844217D0BC48844214D0BC48CD
:1035B000844211D0BB4884420ED0AE4884420BD026
:1035C000AD48844208D0AD48844205D0AC4884421E
:1035D00002D0AC48844200D105E040F2C711AFF2FE
:1035E000941009F063FF208D10BD70B504460D46A0
:1035F000A548844226D0B4F1804F23D0A34884420A
:1036000020D0A34884421DD0A24884421AD0A248A8
:10361000844217D0A148844214D0A148844211D0DA
:10362000A04884420ED0934884420BD092488442F2
:1036300008D09248844205D09148844202D09148F3
:10364000844200D105E040F2D711AFF2002009F02A
:103650002DFF0DB1012D00D105E04FF4EC71AFF25B
:10366000142009F023FF25B1208840F002002080BB
:1036700004E020884FF6FD710840208070BD70B5D1
:1036800004460D468048844226D0B4F1804F23D0B2
:103690007E48844220D07E4884421DD07D488442AA
:1036A0001AD07D48844217D07C48844214D07C488C
:1036B000844211D07B4884420ED06E4884420BD0A5
:1036C0006D48844208D06D48844205D06C488442DD
:1036D00002D06C48844200D105E04FF4FA71AFF299
:1036E000942009F0E3FE0DB1012D00D105E040F278
:1036F000F511AFF2A82009F0D9FE25B1208840F0DD
:103700000400208004E020884FF6FB7108402080F0
:1037100070BD70B504460D465B48844226D0B4F1B6
:10372000804F23D05948844220D0594884421DD02C
:10373000584884421AD05848844217D05748844287
:1037400014D05748844211D0564884420ED049487C
:1037500084420BD04848844208D04848844205D06F
:103760004748844202D04748844200D105E040F2F5
:103770000D21AFF2283009F099FE0DB1012D00D1D5
:1037800005E040F20E21AFF23C3009F08FFE25B18A
:10379000208840F08000208004E020884FF67F7170
:1037A0000840208070BD70B504460D4636488442FE
:1037B00026D0B4F1804F23D03448844220D03448FE
:1037C00084421DD0334884421AD03348844217D0F3
:1037D0003248844214D03248844211D03148844265
:1037E0000ED0244884420BD02348844208D023487A
:1037F000844205D02248844202D02248844200D12B
:1038000005E04FF40A71AFF2BC3009F04FFE082D0D
:1038100000D005B905E040F22921AFF2D03009F01F
:1038200045FE20884FF6F771084020802088284305
:10383000208070BD70B504460D46134884423BD0CD
:10384000B4F1804F38D01148844235D010488442BA
:1038500032D0104884422FD0114884422CD01148D5
:10386000844229D00348844226D00348844223D08E
:10387000024819E00044014000480140001800409F
:10388000001C0040002000400000014000040040F7
:1038900000080040000C00400010004000140040F0
:1038A0000004014000400140844205D0FE488442AB
:1038B00002D0FE48844200D105E040F23F21AFF241
:1038C000744009F0F3FD2DB1B5F5807F02D0B5F558
:1038D000007F00D105E04FF41071AFF2904009F085
:1038E000E5FD20884FF6FF410840208020882843CE
:1038F000208070BD70B504460D46ED48844226D048
:10390000B4F1804F23D0EB48844220D0EA4884426F
:103910001DD0EA4884421AD0E948844217D0E948C9
:10392000844214D0E848844211D0E84884420ED042
:10393000E74884420BD0E748844208D0E6488442F6
:1039400005D0D948844202D0D848844200D105E04D
:1039500040F25321AFF20C5009F0A8FD0DB1012D3A
:1039600000D105E04FF41571AFF2205009F09EFD33
:1039700025B1208840F00100208004E020884FF627
:10398000FE710840208070BD2DE9F04105460C46CF
:103990004FF0000800260027C548854220D0B5F129
:1039A000804F1DD0C34885421AD0C348854217D0E6
:1039B000C248854214D0C448854211D0C3488542CC
:1039C0000ED0C34885420BD0C248854208D0C248B9
:1039D000854205D0B448854202D0B448854200D122
:1039E00005E040F2A621AFF29C5009F05FFD20886F
:1039F00070B1208810280BD02088202808D020887B
:103A0000302805D02088602802D02088702800D176
:103A100005E040F2A721AFF2CC5009F047FD6088E5
:103A200010B16088012800D105E04FF42A71AFF28F
:103A3000E45009F03BFDA08910B1A089022800D113
:103A400005E040F2A921AFF2FC5009F02FFD288CCF
:103A50004FF6FE71084028842E8CAF88B5F8188088
:103A60004FF68F7008EA0008881E08EA00082088D0
:103A700040EA0808481E0640A089064360880643BD
:103A80008B48854202D09048854245D1A08810B12C
:103A9000A088042800D105E040F2C621AFF25460AE
:103AA00009F004FDE08910B1E089082800D105E0A3
:103AB00040F2C721AFF26C6009F0F8FC608AB0F503
:103AC000007F01D0608A00B905E04FF43271AFF297
:103AD000846009F0EBFC208AB0F5807F01D0208A59
:103AE00000B905E040F2C921AFF2A06009F0DEFCA8
:103AF0004FF6F7700640E08906434FF6FB7006402C
:103B0000A08806434FF6FF6007404FF6FF5007407E
:103B1000208A0743608A0743AF80A5F81880A06811
:103B200068632E84BDE8F0812DE9F04105460C461E
:103B30004FF00008002600275D48854214D0B5F1FB
:103B4000804F11D05B4885420ED05B4885420BD038
:103B50005A48854208D05C48854205D05B4885427A
:103B600002D05D48854200D105E040F2F721AFF276
:103B7000247009F09BFC208870B1208810280BD09D
:103B80002088202808D02088302805D02088602868
:103B900002D02088702800D105E04FF43E71AFF2CA
:103BA000547009F083FC608810B16088012800D14E
:103BB00005E040F2F921AFF26C7009F077FCA089C2
:103BC00010B1A089022800D105E040F2FA21AFF23D
:103BD000847009F06BFC288C4FF6EF710840288444
:103BE0002E8CAF88B5F8188048F6FF7008EA0008F8
:103BF0004FF6FF4008EA000820884FF6FF7101EAFF
:103C0000002040EA08084FF6DF700640A08901EA6C
:103C100000100643608801EA0010064324488542EC
:103C200002D0294885426AD1A08810B1A088042812
:103C300000D105E04FF44671AFF2F07009F036FCA8
:103C4000E08910B1E089082800D105E040F219317F
:103C5000AFF6080009F02AFC608AB0F5007F01D0B9
:103C6000608A00B905E040F21A31AFF6200009F091
:103C70001DFC208AB0F5807F01D0208A00B905E0C4
:103C800040F21B31AFF63C0009F010FC4FF67F709C
:103C90000640E0894FF6FF7101EA001006434FF637
:103CA000BF700640A08819E0001C004000200040C2
:103CB000000001400004004000080040000C0040EB
:103CC000001000400014004000040140004001408A
:103CD00000440140004801400018004001EA001083
:103CE00006434FF6FF3007404FF2FF700740208A2F
:103CF00001EA80000743608A01EA80000743AF8041
:103D0000A5F81880A068A8632E84BDE8F0812DE98D
:103D1000F04105460C464FF0000800260027FE48FB
:103D200085420ED0B5F1804F0BD0FC48854208D0BB
:103D3000FB48854205D0FB48854202D0FA488542BF
:103D400000D105E04FF45271AFF6001009F0AEFB60
:103D5000208870B1208810280BD02088202808D017
:103D60002088302805D02088602802D0208870283C
:103D700000D105E040F24931AFF6301009F096FB72
:103D8000608810B16088012800D105E040F24A3116
:103D9000AFF6481009F08AFBA08910B1A08902286B
:103DA00000D105E040F24B31AFF6601009F07EFB28
:103DB000288C4FF6FF61084028842E8CAF88B5F818
:103DC0001C804FF68F7008EA00084FF6FC7008EA76
:103DD0000008208840EA08084FF6FF500640A089F6
:103DE0004FF6FF7101EA00200643608801EA0020D7
:103DF0000643C948854202D0CB4885424FD1A088AE
:103E000010B1A088042800D105E04FF45A71AFF634
:103E1000C41009F04BFBE08910B1E089082800D1FB
:103E200005E040F26931AFF6DC1009F03FFB608A33
:103E3000B0F5007F01D0608A00B905E040F26A3138
:103E4000AFF6F81009F032FB208AB0F5807F01D080
:103E5000208A00B905E040F26B31AFF6102009F07E
:103E600025FB4FF2FF700640E0894FF6FF7101EA33
:103E7000002006434FF6FF300640A08801EA0020EC
:103E800006434EF6FF7007404DF6FF700740208A4C
:103E900001EA00100743608A01EA00100743AF807F
:103EA000A5F81C80A068E8632E84BDE8F0812DE9A8
:103EB000F04104460D4600270026B046964884424D
:103EC0000ED0B4F1804F0BD09448844208D094486F
:103ED000844205D09348844202D09348844200D162
:103EE00005E04FF46671AFF69C2009F0DFFA2888F0
:103EF00070B1288810280BD02888202808D028885E
:103F0000302805D02888602802D02888702800D161
:103F100005E040F29931AFF6CC2009F0C7FA688885
:103F200010B16888012800D105E040F29A31AFF65F
:103F3000E42009F0BBFAA88910B1A889022800D1B1
:103F400005E040F29B31AFF6FC2009F0AFFA208C7F
:103F50004EF6FF7108402084268CB4F80480A78BAD
:103F600048F6FF7007404FF6FF40074028884FF69D
:103F7000FF7101EA002007434DF6FF700640A88953
:103F800001EA00300643688801EA003006436248CF
:103F9000844202D06448844217D1288AB0F5807FD9
:103FA00001D0288A00B905E040F2B931AFF664309B
:103FB00009F07CFA4BF6FF7008EA0008288A4FF6F1
:103FC000FF7101EA801040EA0808A4F80480A78382
:103FD000A86820642684BDE8F0810021018041802A
:103FE000818081608181C1810182418270472DE998
:103FF000F04104460F4615460026B0464648844226
:1040000020D0B4F1804F1DD0444884421AD0444897
:10401000844217D04348844214D04348844211D08C
:10402000424884420ED0424884420BD041488442E8
:1040300008D04148844205D04048844202D04048DC
:10404000844200D105E04FF47F71AFF6004009F0E3
:104050002DFA2FB1042F03D0082F01D00C2F00D13F
:1040600005E040F2FD31AFF61C4009F01FFA6DB1DA
:10407000102D0BD0202D09D0302D07D0602D05D06C
:10408000702D03D0502D01D0402D00D105E040F21D
:10409000FE31AFF6484009F009FA264618360120ED
:1040A000B8401FFA80F8208C20EA080020840FB165
:1040B000082F0AD106EB670630684FF68F7108406B
:1040C00030603068284330600FE0381FC0F34E0086
:1040D0000644306848F6FF710840306030684FF69B
:1040E000FF7101EA052108433060BDE8F08170B539
:1040F00004460D460848844237D0B4F1804F34D08E
:104100000648844231D0064884422ED00548844275
:104110002BD00548844215E0000001400004004017
:1041200000080040000C0040000401400040014035
:10413000004401400048014000180040001C0040BD
:104140000020004011D0FB4884420ED0FA4884423F
:104150000BD0FA48844208D0F948844205D0F94887
:10416000844202D0F848844200D105E040F2274161
:10417000AFF6285009F09AF9656370BD70B5044632
:104180000D46F248844214D0B4F1804F11D0F0486B
:1041900084420ED0EF4884420BD0EF48844208D0CE
:1041A000EE48844205D0E348844202D0E448844289
:1041B00000D105E040F23741AFF6705009F076F9D2
:1041C000A56370BD70B504460D46E04884420ED02C
:1041D000B4F1804F0BD0DE48844208D0DD488442E1
:1041E00005D0DD48844202D0DC48844200D105E09D
:1041F00040F24641AFF6AC5009F058F9E56370BDA6
:1042000070B504460D46D14884420ED0B4F1804FBB
:104210000BD0CF48844208D0CE48844205D0CE4847
:10422000844202D0CD48844200D105E040F255419D
:10423000AFF6E85009F03AF9256470BD70B5044650
:104240000D460026C148844220D0B4F1804F1DD0D5
:10425000BF4884421AD0BF48844217D0BE48844227
:1042600014D0BE48844211D0B24884420ED0B24825
:1042700084420BD0B148844208D0B148844205D072
:10428000B048844202D0B048844200D105E040F2F8
:104290006941AFF6486009F009F9502D01D0402D71
:1042A00000D105E040F26A41AFF6606009F0FEF827
:1042B000268B4FF68F7006402E43268370BD70B557
:1042C00004460D460026A148844214D0B4F1804F24
:1042D00011D09F4884420ED09E4884420BD09E4805
:1042E000844208D09D48844205D09248844202D03E
:1042F0009348844200D105E040F28641AFF6B460B5
:1043000009F0D4F8502D01D0402D00D105E040F245
:104310008741AFF6C86009F0C9F8268B48F6FF70F0
:1043200006404FF6FF7000EA05200643268370BD65
:1043300070B504460D460026844884420ED0B4F180
:10434000804F0BD08248844208D08248844205D0F6
:104350008148844202D08148844200D105E040F285
:10436000A241AFF6187009F0A1F8502D01D0402DF0
:1043700000D105E040F2A341AFF6307009F096F8A5
:10438000A68B4FF68F7006402E43A68370BD70B586
:1043900004460D4600266D4884420ED0B4F1804F8D
:1043A0000BD06B48844208D06A48844205D06A48E2
:1043B000844202D06948844200D105E040F2BF4106
:1043C000AFF6787009F072F8502D01D0402D00D171
:1043D00005E04FF49861AFF68C7009F067F8A68B92
:1043E00048F6FF7006404FF6FF7000EA05200643CE
:1043F000A68370BD70B504460D460026534884421E
:1044000020D0B4F1804F1DD0514884421AD0514879
:10441000844217D05048844214D05048844211D06E
:10442000444884420ED0444884420BD043488442DE
:1044300008D04348844205D04248844202D04248D2
:10444000844200D104E040F2DB41454809F02EF8F7
:10445000082D00D005B904E040F2DC41404809F0E5
:1044600025F8268B4FF6F77006402E43268370BD45
:1044700070B504460D4600263448844214D0B4F189
:10448000804F11D0324884420ED0324884420BD043
:104490003148844208D03148844205D025488442BE
:1044A00002D02748844200D104E040F2F9412C4870
:1044B00008F0FCFF082D00D005B904E040F2FA41F5
:1044C000274808F0F3FF268B4FF2FF7006404FF6A7
:1044D000FF7000EA05200643268370BD70B50446D0
:1044E0000D460026194884420ED0B4F1804F0BD0FF
:1044F0001748844208D01748844205D016488442A1
:1045000002D01648844200D104E040F2165114480B
:1045100008F0CCFF082D00D005B904E040F2175197
:104520000F4808F0C3FFA68B4FF6F77006402E43E6
:10453000A68370BD00400140004401400048014096
:1045400000180040001C0040002000400000014016
:104550000004004000080040000C0040000401403E
:104560004C34000870B504460D460026F9488442D4
:104570000ED0B4F1804F0BD0F748844208D0F748F2
:10458000844205D0F648844202D0F648844200D1E5
:1045900004E040F23351F44808F088FF082D00D0C1
:1045A00005B904E040F23451EF4808F07FFFA68BD4
:1045B0004FF2FF7006404FF6FF7000EA05200643F9
:1045C000A68370BD70B504460D460026E1488442BE
:1045D00020D0B4F1804F1DD0DF4884421AD0DF488C
:1045E000844217D0DE48844214D0DE48844211D081
:1045F000DE4884420ED0DE4884420BD0DD4884423F
:1046000008D0DD48844205D0DC48844202D0DC4832
:10461000844200D104E04FF4AA61D34808F046FF79
:10462000042D00D005B904E040F25151CE4808F005
:104630003DFF268B4FF6FB7006402E43268370BD50
:1046400070B504460D460026C248844214D0B4F129
:10465000804F11D0C04884420ED0C04884420BD055
:10466000BF48844208D0BF48844205D0BF48844236
:1046700002D0C148844200D104E040F26F51BA48F0
:1046800008F014FF042D00D005B904E04FF4AE612A
:10469000B54808F00BFF268B4FF6FF3006404FF66B
:1046A000FF7000EA05200643268370BD70B50446FE
:1046B0000D460026A74884420ED0B4F1804F0BD09F
:1046C000A548844208D0A548844205D0A448844225
:1046D00002D0A448844200D104E040F28D51A248A7
:1046E00008F0E4FE042D00D005B904E040F28E513C
:1046F0009D4808F0DBFEA68B4FF6FB7006402E436C
:10470000A68370BD70B504460D46002691488442CC
:104710000ED0B4F1804F0BD08F48844208D08F4820
:10472000844205D08E48844202D08E48844200D113
:1047300004E040F2AB518C4808F0B8FE042D00D0E4
:1047400005B904E040F2AC51874808F0AFFEA68BF3
:104750004FF6FF3006404FF6FF7000EA0520064393
:10476000A68370BD70B504460D4600267948844284
:1047700020D0B4F1804F1DD0774884421AD07748BA
:10478000844217D07648844214D07648844211D0AF
:10479000764884420ED0764884420BD075488442D5
:1047A00008D07548844205D07448844202D07448C9
:1047B000844200D104E040F2C9516B4808F076FE13
:1047C000802D00D005B904E040F2CA51664808F0D7
:1047D0006DFE268B4FF67F7006402E43268370BDFC
:1047E00070B504460D4600265A48844214D0B4F1F0
:1047F000804F11D0584884420ED0584884420BD084
:104800005748844208D05748844205D057488442CC
:1048100002D05948844200D104E040F2E7515248A6
:1048200008F044FE802D00D005B904E04FF4BD61CE
:104830004D4808F03BFE268BC6F30E064FF6FF7080
:1048400000EA05200643268370BD70B504460D4678
:104850000026404884420ED0B4F1804F0BD03E4831
:10486000844208D03D48844205D03D48844202D06D
:104870003C48844200D104E040F204613A4808F028
:1048800015FE802D00D005B904E040F205613648E0
:1048900008F00CFEA68B4FF67F7006402E43A683D1
:1048A00070BD70B504460D4600262A4884420ED0DD
:1048B000B4F1804F0BD02848844208D02748844266
:1048C00005D02748844202D02648844200D104E023
:1048D00040F22161244808F0E9FD802D00D005B99F
:1048E00004E040F22261204808F0E0FDA68BC6F308
:1048F0000E064FF6FF7000EA05200643A68370BD42
:1049000070B504460D4600261248844220D0B4F10A
:10491000804F1DD0104884421AD01048844217D0CE
:104920000F48844214D00F48844211D00F4884426B
:104930000ED00F4884420BD00E48844208D00E4857
:10494000844205D00D48844202D00D48844219D1DA
:104950001DE000000000014000040040000800408D
:10496000000C0040000401404C34000800400140AD
:10497000004401400048014000180040001C004075
:104980000020004040F23E61FA4808F08FFD0DB172
:10499000022D00D104E040F23F61F64808F086FDA8
:1049A000268C4FF6FD7006402E43268470BD70B5F0
:1049B00004460D460026F048844202D0EF48844267
:1049C00000D104E04FF4CB61EA4808F06FFD0DB16F
:1049D000082D00D104E040F25961E64808F066FD78
:1049E000268C4FF6F77006402E43268470BD70B5B6
:1049F00004460D460026E048844214D0B4F1804FAE
:104A000011D0DF4884420ED0DE4884420BD0DE480D
:104A1000844208D0D948844205D0DC48844202D080
:104A2000DB48844200D104E040F27461D14808F0D0
:104A30003DFD0DB1022D00D104E040F27561CD487D
:104A400008F034FD268C4FF6DF7006404FF6FF70FD
:104A500000EA05100643268470BD70B504460D4675
:104A60000026C548844202D0C448844200D104E0F4
:104A700040F28F61BF4808F019FD0DB1082D00D13B
:104A800004E04FF4D261BB4808F010FD268C4FF6CD
:104A90007F7006404FF6FF7000EA0510064326843B
:104AA00070BD70B504460D460026B34884420ED052
:104AB000B4F1804F0BD0B248844208D0B148844250
:104AC00005D0B148844202D0AC48844200D104E011
:104AD00040F2AA61A74808F0E9FC0DB1022D00D10F
:104AE00004E040F2AB61A34808F0E0FC268C4FF6EE
:104AF000FF5006404FF6FF7000EA0520064326846B
:104B000070BD70B504460D4600269B48844202D015
:104B10009A48844200D104E040F2C561954808F00B
:104B2000C5FC0DB1082D00D104E040F2C6619148EA
:104B300008F0BCFC268C4FF2FF7006404FF6FF7069
:104B400000EA05200643268470BD70B504460D4674
:104B50000026894884420ED0B4F1804F0BD088489B
:104B6000844208D08748844205D08748844202D0D6
:104B70008248844200D104E04FF4DC617D4808F0B3
:104B800095FC0DB1022D00D104E040F2E1617948BD
:104B900008F08CFC268C4DF6FF7006404FF6FF7037
:104BA00000EA05300643268470BD2DE9F041044635
:104BB0000D46164600277048844220D0B4F1804F3D
:104BC0001DD06F4884421AD06E48844217D06E4878
:104BD000844214D06948844211D06C4884420ED07B
:104BE0006C4884420BD06C48844208D068488442A8
:104BF00005D06A48844202D06948844200D104E06A
:104C000040F2FF615B4808F051FC2DB1042D03D048
:104C1000082D01D00C2D00D104E04FF4E06155487F
:104C200008F044FC012E00D006B904E040F2017106
:104C3000504808F03BFC0120A84087B2208CB843C4
:104C40002084208C06FA05F189B208432084BDE84F
:104C5000F0812DE9F04104460D46164600274648EE
:104C6000844202D04548844200D104E040F21D71E4
:104C7000404808F01BFC1DB1042D01D0082D00D1C7
:104C800004E040F21E713B4808F010FC042E00D0F6
:104C900006B904E040F21F71364808F007FC042012
:104CA000A84087B2208CB8432084208C06FA05F1F6
:104CB00089B208432084BDE8F08170B504460D46F2
:104CC0002D4884420ED0B4F1804F0BD02C48844242
:104CD00008D02C48844205D02B48844202D0274873
:104CE000844200D104E040F67B01224808F0DEFB5C
:104CF0002DB1042D03D0082D01D00C2D00D104E0DE
:104D000040F67C011B4808F0D1FBA08B4FF2FF312D
:104D10000840A083A08B4FF6FF7101EA05210843EC
:104D2000A08370BDF0B50C46154600210022002678
:104D3000078C4EF6FF7C07EA0C070784818B028CF8
:104D40004FF6FF7707EA043640F6FF4739404FF643
:104D5000FF7707EA052739434FF6FF7707EA03375E
:104D6000394345F6FF773A4046F480573A4381830A
:104D70000284F0BD4C3400080000014000040140F2
:104D80000004004000080040000C004000400140CA
:104D9000001800400044014000480140001C004051
:104DA0000020004070B504460D46FD4884420ED0F8
:104DB000B4F1804F0BD0FB48844208D0FA488442BB
:104DC00005D0FA48844202D0F948844200D104E078
:104DD00040F66301F74808F069FB2DB1042D03D0BC
:104DE000082D01D00C2D00D104E040F66401F148FB
:104DF00008F05CFBA08B4FF6F3710840A083A08BFA
:104E00002843A08370BDF0B50C4615460021002252
:104E10000026078C4FF6FF6C07EA0C070784818B8E
:104E2000028C4FF6FF7707EA04264FF60C773940DD
:104E30004FF6FF7707EA03172F4339434FF2FF5727
:104E40003A4046F480773A4381830284F0BD70B5DE
:104E500004460D46D248844214D0B4F1804F11D09C
:104E6000D04884420ED0D04884420BD0CF488442F0
:104E700008D0CF48844205D0CF48844202D0CF48E2
:104E8000844200D104E040F64B01CA4808F00EFB12
:104E90002DB1042D03D0082D01D00C2D00D104E03C
:104EA00040F64C01C34808F001FB208B4FF2FF3164
:104EB00008402083208B4FF6FF7101EA052108434B
:104EC000208370BDF0B50C46154600210022002657
:104ED000078C4FF6EF7C07EA0C070784018B028CE6
:104EE0004FF6FF7707EA041640F6FF4739404FF6C2
:104EF000FF7707EA033739434FF6FF7707EA0527BD
:104F000039434FF65F773A4046F010073A43018342
:104F10000284F0BD70B504460D46A148844220D0FD
:104F2000B4F1804F1DD09F4884421AD09E488442DD
:104F300017D09E48844214D09D48844211D09E4888
:104F400084420ED09E4884420BD09E48844208D0B2
:104F50009A48844205D09C48844202D09B488442AF
:104F600000D104E040F63201924808F09FFA2DB1DA
:104F7000042D03D0082D01D00C2D00D104E040F603
:104F800033018C4808F092FA208B4FF6F3710840F9
:104F90002083208B2843208370BDF0B50C46154636
:104FA00000210022068C4FF6FE773E400684018BDE
:104FB000028C4FF60C7631407E1C06EA03162E4317
:104FC00031434FF6F576324044F001063243018317
:104FD0000284F0BD70B504460D467148844220D06D
:104FE000B4F1804F1DD06F4884421AD06E4884427D
:104FF00017D06E48844214D06D48844211D06E4858
:1050000084420ED06E4884420BD06E48844208D051
:105010006A48844205D06C48844202D06B4884427E
:1050200000D104E040F26F71624808F03FFA6888EE
:1050300028B16888022802D068880A2800D104E0D4
:105040004FF4EE615B4808F031FAA888012805D0DA
:10505000A888022802D0A888032800D104E040F2E2
:105060007171544808F022FAE88840B1E8880428B1
:1050700005D0E888082802D0E8880C2800D104E090
:1050800040F272714B4808F011FA28890F2800DCB1
:1050900004E040F27371474808F008FA288850B9D4
:1050A0002B89AA8869882046FFF777FFE988204680
:1050B000FFF730FF73E02888042828D1384884425D
:1050C00014D0B4F1804F11D0364884420ED0364807
:1050D00084420BD03548844208D03548844205D0FC
:1050E0003548844202D03548844200D104E040F281
:1050F0008171304808F0DAF92B89AA88698820463E
:10510000FFF7E0FEE9882046FFF7A1FE47E0288888
:10511000082822D1224884420ED0B4F1804F0BD00F
:105120002048844208D02048844205D01F48844249
:1051300002D01F48844200D104E040F28B711D4828
:1051400008F0B4F92B89AA8869882046FFF75BFE2E
:10515000E9882046FFF726FE21E0114884420ED060
:10516000B4F1804F0BD00F48844208D00E488442DF
:1051700005D00E48844202D00D48844200D104E09C
:1051800040F295710B4808F091F92B89AA8869883B
:105190002046FFF7C7FDE9882046FFF78EFD70BD6A
:1051A000000001400004004000080040000C0040E6
:1051B000000401404C340008004001400018004049
:1051C0000044014000480140001C00400020004015
:1051D000002101804180012181800021C180018165
:1051E00070472DE9F04105460C4600260127FA4894
:1051F000854214D0B5F1804F11D0F84885420ED0C9
:10520000F74885420BD0F748854208D0F6488542DA
:1052100005D0F648854202D0F548854200D104E029
:1052200040F2BD71F34808F041F9608808B90226E0
:1052300000E00026A088012801D1022700E0012714
:105240002088A0B92389A28861882846FFF7A5FE97
:10525000E1882846FFF75EFE23893A463146284614
:10526000FFF730FEE1882846FFF7F1FD13E02389C0
:10527000A28861882846FFF725FEE1882846FFF7C7
:10528000E6FD23893A4631462846FFF786FEE18847
:105290002846FFF73FFEBDE8F08110B50446CE4832
:1052A000844220D0B4F1804F1DD0CC4884421AD023
:1052B000CB48844217D0CB48844214D0CA48844299
:1052C00011D0CA4884420ED0CB4884420BD0CB4880
:1052D000844208D0C648844205D0C948844202D0DE
:1052E000C848844200D104E040F2F371C14808F09C
:1052F000DDF8606B10BD10B50446B748844214D089
:10530000B4F1804F11D0B54884420ED0B4488442E5
:105310000BD0B448844208D0B348844205D0B34887
:10532000844202D0B248844200D104E040F6020137
:10533000B04808F0BBF8A06B10BD10B50446A648F5
:1053400084420ED0B4F1804F0BD0A448844208D0E0
:10535000A348844205D0A348844202D0A248844294
:1053600000D104E04FF40161A24808F09FF8E06B1F
:1053700010BD10B50446984884420ED0B4F1804F59
:105380000BD09648844208D09548844205D0954871
:10539000844202D09448844200D104E040F61E01C9
:1053A000944808F083F8206C10BD70B505460C4693
:1053B0008948854202D08C48854200D104E04FF4F0
:1053C0000B618C4808F072F82088B0F5006F01D0AE
:1053D000208800B904E040F6B101864808F066F87C
:1053E0006088B0F5806F01D0608800B904E040F6B5
:1053F000B201804808F05AF8A08858B1A088B0F5EA
:10540000807F07D0A088B0F5007F03D0A088B0F5DA
:10541000407F00D104E040F6B301764808F046F83A
:105420002089B0F5805F01D0208900B904E040F602
:10543000B401704808F03AF8608918B16089B0F595
:10544000005F00D104E040F6B5016A4808F02EF88C
:10545000A089B0F5804F01D0A08900B904E040F6E2
:10546000B601644808F022F8208861880843A188C2
:105470000843E18808432189084361890843A189D9
:105480000843A5F8440070BD00210180418081805F
:10549000C180018141818181704770B504460D460C
:1054A0004D48844202D05048844200D104E040F686
:1054B000DC01504807F0FAFF0DB1012D00D104E0E6
:1054C00040F6DD014B4807F0F1FF35B1B4F8440078
:1054D00040F40040A4F8440005E0B4F84400C0F3F0
:1054E0000E00A4F8440070BD70B504460D463A485D
:1054F000844202D03C48844200D104E040F6F501E9
:105500003C4807F0D3FF0DB1012D00D104E040F677
:10551000F601384807F0CAFF25B1A08840F0040022
:10552000A08004E0A0884FF6FB710840A08070BD09
:1055300070B504460D462848844202D02A48844269
:1055400000D104E040F60E112A4807F0AFFF0DB17C
:10555000012D00D104E040F60F11264807F0A6FF08
:1055600025B1A08840F00100A08004E0A0884FF69B
:10557000FE710840A08070BD70B504460D46164609
:105580001548844226D0B4F1804F23D0134884427A
:1055900020D0134884421DD0124884421AD01A48A1
:1055A000844217D01948844214D00F48844211D045
:1055B0000E4884420ED0104884420BD00F488442DB
:1055C00008D00B48844205D00D48844202D00D48D3
:1055D00084421DD121E00000000001400004004091
:1055E00000080040000C0040000401400040014061
:1055F000001800404C3400080044014000480140BD
:10560000001C00400020004000100040001400403A
:1056100040F64711FE4807F049FF05F47F4008B9FE
:1056200005B104E040F64811F94807F03FFF0EB11C
:10563000012E00D104E040F64911F54807F036FF8D
:105640001EB1A0892843A08102E0A089A843A081BF
:1056500070BD70B504460D46EE48844226D0B4F1C4
:10566000804F23D0EC48844220D0EC4884421DD0A7
:10567000EB4884421AD0EB48844217D0EA4884426F
:1056800014D0EA48844211D0E94884420ED0E94857
:1056900084420BD0E848844208D0E848844205D0D0
:1056A000E748844202D0E748844200D104E040F653
:1056B0006D11D74807F0FAFE05F47F4008B905B12F
:1056C00004E040F66E11D24807F0F0FEA58270BDEE
:1056D00070B504460D460026CE48844226D0B4F16B
:1056E000804F23D0CC48844220D0CC4884421DD067
:1056F000CB4884421AD0CB48844217D0CA4884424F
:1057000014D0CA48844211D0C94884420ED0C94836
:1057100084420BD0C848844208D0C848844205D08F
:10572000C748844202D0C748844200D104E040F612
:105730008F11B74807F0BAFE012D19D0022D17D0EE
:10574000042D15D0082D13D0102D11D0202D0FD0E1
:10575000402D0DD0802D0BD0B5F5007F08D0B5F5CC
:10576000806F05D0B5F5006F02D0B5F5805F00D130
:1057700004E04FF41961A64807F098FE208A2840FB
:1057800008B1012600E00026304670BD70B5044621
:105790000D46A048844226D0B4F1804F23D09E48C5
:1057A000844220D09D4884421DD09D4884421AD016
:1057B0009C48844217D09C48844214D09B48844221
:1057C00011D09B4884420ED09A4884420BD09A480C
:1057D000844208D09948844205D09948844202D036
:1057E0009848844200D104E040F6B811884807F098
:1057F0005DFEE843208270BD2DE9F04104460D4670
:1058000000260027B0468348844226D0B4F1804F5A
:1058100023D08148844220D0804884421DD08048D3
:1058200084421AD07F48844217D07F48844214D0E3
:105830007E48844211D07E4884420ED07D48844206
:105840000BD07D48844208D07C48844205D07C48F7
:10585000844202D07B48844200D104E040F6D61155
:105860006B4807F023FE012D0DD0022D0BD0042D27
:1058700009D0082D07D0102D05D0202D03D0402DA4
:1058800001D0802D00D104E040F6D711604807F028
:105890000DFE208A00EA0507A08900EA050827B165
:1058A000B8F1000F01D0012600E000263046BDE827
:1058B000F08170B504460D465648844226D0B4F1B6
:1058C000804F23D05448844220D0544884421DD075
:1058D000534884421AD05348844217D052488442D5
:1058E00014D05248844211D0514884420ED05148BD
:1058F00084420BD05048844208D05048844205D09E
:105900004F48844202D04F48844200D104E040F620
:10591000FD113F4807F0CAFDE843208270BD70B515
:1059200006460C4615463B4886420ED0B6F1804FDF
:105930000BD03948864208D03848864205D03848CE
:10594000864202D03948864200D104E040F6222146
:105950002F4807F0ABFD2CB3012C23D0022C21D013
:10596000032C1FD0042C1DD0052C1BD0062C19D0C5
:10597000072C17D0082C15D0092C13D00A2C11D0C5
:105980000B2C0FD00C2C0DD00D2C0BD00E2C09D0C5
:105990000F2C07D0102C05D0112C03D0122C01D0C5
:1059A000132C00D104E040F62321194807F07EFDB6
:1059B00065B3B5F5807F4ED0B5F5007F4BD0B5F51A
:1059C000407F48D0B5F5806F45D0B5F5A06F42D087
:1059D000B5F5C06F3FD0B5F5E06F3CD0B5F5006FC1
:1059E00039D0B5F5106F36D0B5F5206F33D0B5F599
:1059F000306F30D0B5F5406F2DD0B5F5506F2AD04F
:105A0000B5F5606F27D0B5F5706F1DE023E000009D
:105A10004C34000800000140000400400008004031
:105A2000000C004000100040001400400004014041
:105A3000004001400044014000480140001800407F
:105A4000001C00400020004005D0B5F5805F02D06A
:105A5000B5F5885F00D104E040F62421FA4807F04C
:105A600025FD44EA0500A6F8480070BD70B504465F
:105A70000D461646F548844214D0B4F1804F11D03B
:105A8000F34884420ED0F34884420BD0F24884425B
:105A900008D0F248844205D0F148844202D0F1484F
:105AA000844200D104E040F63D21E74807F0FEFCC7
:105AB00048F2FF00284008B905B104E040F63E2155
:105AC000E14807F0F3FC0EB1012E00D104E040F6EE
:105AD0003F21DD4807F0EAFC1EB1A0892843A081E0
