:020000040800F2
:100000006806002029020008CB030008C30300088B
:10001000C7030008E3020008C10800080000000050
:10002000000000000000000000000000890400083B
:10003000E70200080000000045040008A1050008D0
:10004000430200084302000843020008430200087C
:10005000430200084302000843020008430200086C
:10006000430200084302000843020008430200085C
:10007000430200084302000843020008430200084C
:10008000430200084302000843020008430200083C
:10009000430200084302000843020008430200082C
:1000A000430200084302000843020008430200081C
:1000B000B10600084302000843020008430200089A
:1000C00043020008430200084302000843020008FC
:1000D00043020008430200084302000843020008EC
:1000E00043020008430200084302000843020008DC
:1000F00043020008430200084302000843020008CC
:1001000043020008430200084302000843020008BB
:1001100043020008430200084302000843020008AB
:10012000430200084302000843020008430200089B
:10013000430200084302000843020008430200088B
:10014000430200084302000843020008430200087B
:10015000430200084302000843020008430200086B
:10016000430200084302000843020008430200085B
:10017000430200084302000843020008430200084B
:10018000430200084302000800F002F800F03CF8C7
:100190000AA090E8000C82448344AAF10107DA45E2
:1001A00001D100F031F8AFF2090EBAE80F0013F0F8
:1001B000010F18BFFB1A43F001031847880800001D
:1001C000A8080000103A24BF78C878C1FAD85207AE
:1001D00024BF30C830C144BF04680C6070470000C1
:1001E0000023002400250026103A28BF78C1FBD840
:1001F000520728BF30C148BF0B6070471FB500F0E1
:100200001BFC1FBD10B510BD00F031F81146FFF703
:10021000F5FF00F0C7FB00F04FF803B4FFF7F2FF63
:1002200003BC00F057F80000094880470948004720
:10023000FEE7FEE7FEE7FEE7FEE7FEE7FEE7FEE796
:10024000FEE7FEE704480549054A064B70470000F3
:10025000A505000889010008680000206806002044
:10026000680200206802002070477047704775469A
:1002700000F02CF8AE4605006946534620F0070012
:10028000854618B020B5FFF7DDFFBDE820404FF0F0
:1002900000064FF000074FF000084FF0000B21F070
:1002A0000701AC46ACE8C009ACE8C009ACE8C0093D
:1002B000ACE8C0098D46704710B50446AFF3008026
:1002C0002046BDE81040FFF7A8BF00000048704777
:1002D0000400002001491820ABBEFEE72600020002
:1002E000704700BFFEE77047F0B50A4600210023C3
:1002F000002400BF3DE0012505FA01F3156805EA79
:1003000003049C4234D105684F000326BE40B54328
:10031000056015794E00B5400668354305601579CE
:10032000012D02D01579022D16D185684F000326C4
:10033000BE40B543856055794E00B540866835436B
:100340008560456801268E40B543456045689679CD
:100350008E40B6B235434560C5684F000326BE40A7
:10036000B543C560D5794E00B540C6683543C56014
:10037000491C1029BFD3F0BDF0B5002300244D0760
:10038000ED0E02FA05F3CE1000F1200555F82650C7
:100390004E07F70E0F26BE40B543CF1000F12006E2
:1003A00046F82750CE1000F1200555F8265045EAB2
:1003B0000304CE1000F1200545F82640F0BD01836E
:1003C000704700BFFEE700BFFEE7704770B5002131
:1003D00000230F22C4781CB3174C246804F4E06493
:1003E000C4F5E064C4F30721C1F10404E3B20A4197
:1003F00044789C40E1B28478144021430C07210EDC
:100400000E4C05786155047804F01F050124AC40BA
:1004100005786D11AD0005F1E025C5F8004109E052
:10042000047804F01F050124AC40054D06787611D0
:1004300045F8264070BD00000CED00E000E400E04F
:1004400080E100E07047000029B1064A12680243CB
:10045000044B1A6004E0034A12688243014B1A609D
:10046000704700003038024029B1064A1268024342
:10047000044B1A6004E0034A12688243014B1A607D
:100480007047000040380240704700000CB5002063
:10049000019000903448006840F480303249086090
:1004A00000BF3148006800F4003000900198401C03
:1004B0000190009818B90198B0F5A04FF1D12A48E1
:1004C000006800F4003010B10120009001E000202D
:1004D00000900098012846D123484030006840F041
:1004E00080502149403108602048006840F4404075
:1004F0001E4908601C48083000681B490831086024
:100500000846006840F4004008600846006840F46F
:10051000A05008601648091F0860081F006840F0D6
:100520008070091F086000BF0F48006800F000706D
:100530000028F9D040F205700E4908600A480830DA
:10054000006820F003000849083108600846006888
:1005500040F00200086000BF03480830006800F067
:100560000C000828F8D10CBD003802400070004093
:1005700008544007003C0240042808D14FF0E02115
:10058000096941F004014FF0E022116107E04FF0EA
:10059000E021096921F004014FF0E0221161704768
:1005A0007047000010B51548006840F4700013490A
:1005B00008601348006840F00100114908600020FD
:1005C0000F49083108600E4800680E4908400C4980
:1005D00008600D48091D0860081F006820F480208D
:1005E000091F0860002006490C310860FFF74EFF24
:1005F0004FF0006001498039086010BD88ED00E0CF
:1006000000380240FFFFF6FE1030002430B58BB0FA
:1006100005460C4601210802FFF726FF0121202094
:10062000FFF712FF092211461F48FFF7A5FE4FF4FE
:100630000070019002208DF8080003208DF8090059
:1006400000208DF80A0001208DF80B0001A9164842
:10065000FFF74AFE681E0990601E80B2ADF82000C8
:100660000020ADF82200ADF8280008A90F4800F0DE
:10067000E5F86020ADF80C000120ADF80E00022076
:10068000ADF8180003A9094800F08EF808210748C2
:1006900000F0C8F80121054800F050F80121034896
:1006A00000F05BF80BB030BD0014024000200040A9
:1006B00010B50121880700F05CF8012807D1064831
:1006C000006808B9012000E000200349086001210A
:1006D000880700F03FF810BDA88242427FB505466A
:1006E0000C4601210846FFF7BFFE681E0290601EFF
:1006F00080B2ADF804000020ADF80600ADF80C00A3
:1007000001A94FF0804000F099F8012211469007AE
:1007100000F040F80121880700F01FF81C208DF838
:10072000000001208DF8010003208DF80200012057
:100730008DF803006846FFF749FE7FBD21B10288AE
:1007400042F08002028004E002884FF67F731A4074
:1007500002807047CA430282704721B1028842F08A
:100760000102028004E002884FF6FE731A40028004
:10077000704730B50246002000230024158A05EAA0
:100780000103958905EA010413B10CB1012000E0D1
:10079000002030BD1AB183890B43838102E0838935
:1007A0008B4383817047000070B500240022002332
:1007B000058C4FF6FE7635400584028C8388048BC9
:1007C0004FF68F752C40B51E2C400D882C43751E9E
:1007D0002A408D892A434D882A43104DA84202D0D1
:1007E0000F4DA84213D14FF6F7752A40CD892A4301
:1007F0004FF6FB752A408D882A434FF6FF652B4044
:100800004FF6FF552B400D8A2B434D8A2B43838097
:1008100004838D684563028470BD000000000140C0
:10082000000401400A460021018B4FF6F77319407E
:100830001143018370474163704700000022028822
:10084000184B98420ED0184B98420BD0B0F1804F05
:1008500008D0164B984205D0154B984202D0154B44
:10086000984204D14FF68F731A404B881A43124BAB
:10087000984207D0114B984204D04FF6FF431A40DC
:100880000B891A4302804B68C3620B880385054BB2
:10089000984202D0044B984201D18B7A03860123FF
:1008A00083827047000001400004014000040040C2
:1008B00000080040000C0040001000400014004000
:1008C00000BFFEE770B504464FF4077094FBF0F0EC
:1008D000C6B24FF4077094FBF0F100FB114085B2F3
:1008E00005E04FF4077000F009F8701EC6B2002E44
:1008F000F7D115B1284600F001F870BD0146114A44
:1009000012884A434FF0E0235A6100229A611A4646
:10091000126942F001021A6100BF4FF0E022106933
:1009200000F001021AB100F48032002AF5D04FF035
:10093000E022126922F001024FF0E0231A61002246
:100940009A6170470200002070B505460C462846A3
:10095000FFF712FE681D98B9E11704EB5171C1F35E
:10096000C7010E4A11701046007800EB4001C1EB40
:10097000C0104FF6FF7101EAC000094908800CE081
:1009800006480470007800EB4001C1EBC0104FF640
:10099000FF7101EAC0000249088070BD000000201C
:1009A000020000201CB500240125A821601FFFF7CC
:1009B000CBFF42F2D00141F28830FFF78FFE0121D8
:1009C0002020FFF741FD01208DF8040000208DF864
:1009D0000600A802009001208DF8070003208DF882
:1009E000050069461248FFF77FFCA9021048FFF78F
:1009F000E6FC54214FF4FA70FFF708FE54214FF43F
:100A0000FA70FFF703FE12E00A20FFF75BFF15B153
:100A1000601C84B201E0601E84B2B4F5967F00DDF4
:100A2000002504B9012521460248FFF704FFEBE742
:100A300000140240002000404FF04070E1EE100A28
:100A400070470000640A0008000000200400000055
:100A5000C4010008680A00080400002064060000C1
:080A6000E001000800000000A5
:040000050800018965
:00000001FF
