:020000040800F2
:1000000088290020056C00080D6C00081193000879
:10001000116C0008136C0008156C0008000000004B
:10002000000000000000000000000000176C000845
:10003000196C0008000000001B6C0008596B0008D8
:100040001F6C00081F6C00081F6C00081F6C000864
:100050001F6C00081F6C00081F6C00081F6C000854
:100060001F6C00081F6C00081F6C00081F6C000844
:100070001F6C00081F6C00081F6C00081F6C000834
:100080001F6C00081F6C00081F6C00081F6C000824
:100090001F6C00081F6C00081F6C00081F6C000814
:1000A0001F6C00081F6C00081F6C00081F6C000804
:1000B000336B00082B5C00089F5D00081F6C000874
:1000C0001F6C00081F6C00081F6C00081F6C0008E4
:1000D0001F6C0008595A00081F6C00081F6C0008AC
:1000E0001F6C00081F6C00081F6C00081F6C0008C4
:1000F0001F6C00081F6C00081F6C00081F6C0008B4
:100100001F6C00081F6C00081F6C00081F6C0008A3
:100110001F6C00081F6C00081F6C00081F6C000893
:100120001F6C00081F6C00081F6C00081F6C000883
:1001300000F002F800F0B0F80AA090E8000C824449
:100140008344AAF10107DA4501D100F0A5F8AFF226
:10015000090EBAE80F0013F0010F18BFFB1A43F0A5
:1001600001031847A4E00000C4E000000A444FF077
:10017000000C10F8013B13F0070408BF10F8014B06
:100180001D1108BF10F8015B641E05D010F8016B4B
:10019000641E01F8016BF9D113F0080F1EBF10F8AF
:1001A000014BAD1C0C1B09D16D1E58BF01F801CBD2
:1001B000FAD505E014F8016B01F8016B6D1EF9D555
:1001C0009142D6D37047000000230024002500266A
:1001D000103A28BF78C1FBD8520728BF30C148BFAA
:1001E0000B6070476E290AF00A81702909F0778642
:1001F00066290BF0258565290BF0228567290BF010
:100200001F8561290BF01E8503681B0A28BF41F07A
:100210008001692909F0E885642909F0E5857529D7
:1002200009F0E2856F290AF00A82782909F04386ED
:10023000E9290AF0A581E4290AF0A281F5290AF04A
:100240009F81EF290AF00782F82909F042860368A6
:10025000DB0928BF41F0800163290AF0148173296A
:100260000AF01981E3290AF0FF85F3290AF00486D0
:10027000002070471FB50AF055FE04000020002141
:100280000BF00EFB401C6060002000210BF0F2FA26
:10029000E0601FBD10B510BD0AF016FE1146FFF755
:1002A000E9FF06F041FC0AF0F3FE03B4FFF7F2FFAA
:1002B00003BC05F095FB000010B50446B0F5E06FF7
:1002C0000FD0B4F5C06F0CD0B4F5A06F09D0B4F561
:1002D000806F06D0B4F5407F03D063214DA006F0B7
:1002E000B1FC554804435548046010BD70B5044640
:1002F000C0780F2528B1012803D0752145A006F04C
:10030000A1FC6078102803D3762142A006F09AFC65
:10031000A078102803D377213EA006F093FCE07864
:100320000122F8B145480068617800F4E060C0F54A
:10033000E060000AC0F10403C540A078994028405D
:1003400008432178000101F1E02181F800042078C0
:1003500000F01F018A404009800000F1E020C0F851
:10036000002170BD207800F01F018A404009800004
:1003700000F1E020C0F8802170BD70B50D46044644
:10038000B0F1005F06D0B4F1006F03D09F2121A02F
:1003900006F058FC2A48854203D3A0211DA006F090
:1003A00051FC2848054025482543001F056070BDC5
:1003B00070B50D460446102807D0042C05D0022C39
:1003C00003D0B22113A006F03DFC1C4E361D45B1F2
:1003D000012D03D0B3210FA006F034FC3068204378
:1003E00001E03068A043306070BD10B54FF0E024EC
:1003F00004280AD0401D03D0CA2106A006F022FC22
:10040000206920F00400206110BD206940F0040044
:10041000F9E700002E2E5C4C6962726172795C50C3
:1004200065726970686572616C5C7372635C6D693A
:1004300073632E63000000000000FA050CED00E07D
:10044000FFFF0F0080FFFF1F2DE9F05FFD4DFE4E07
:10045000FE4FDFF8FC83DFF8FC93DFF8FCA3DFF846
:10046000FCB30446A8420FD0B4420DD0BC420BD01E
:10047000444509D04C4507D0544505D05C4503D0D0
:100480006F21F7A006F0DEFBAC4206D1012104206B
:1004900000F03AFF0021042035E0B44206D10121EA
:1004A000082000F031FF002108202CE0BC4206D1DA
:1004B0000121102000F028FF0021102023E04445F6
:1004C00006D10121202000F01FFF002120201AE08A
:1004D0004C4506D10121402000F016FF00214020AC
:1004E00011E0544506D10121802000F00DFF0021CC
:1004F000802008E05C450AD101210C02204600F072
:1005000003FF00212046BDE8F05F00F0FDBEBDE81E
:10051000F09F10B50121084600F0F6FE0021BDE86D
:100520001040012000F0F0BE2DE9F0410446C5481E
:1005300000260D46844215D0C348844212D0C348D9
:1005400084420FD0C24884420CD0C248844209D0B1
:10055000C148844206D0C148844203D0B221C0A021
:1005600006F070FBE87888B104280FD028280DD059
:1005700048280BD0142809D0102807D01C2805D0F3
:10058000182803D0B321B6A006F05CFB288818B960
:10059000B421B3A006F056FBE87800F00F07C006C0
:1005A0000CD5A878012807D0022805D0032803D04D
:1005B000BB21ABA006F046FBA878074328784FF094
:1005C0000F0C10F0FF0F4FF0010E1BD021682A888E
:1005D0000EFA06F00240824210D1B2000CFA02F389
:1005E00021EA030307FA02F1EA781943282A02D024
:1005F000482A02D002E0606100E02061761C082EEB
:10060000E5D321602888FF281CD96168002000F10B
:1006100008030EFA03F22B88134093420ED1830095
:100620000CFA03F6B14307FA03F6EB783143282BB3
:1006300000D16261EB78482B00D12261401C082870
:10064000E5D36160BDE8F0814FF6FF7101800221C2
:1006500081700421C170704770B505467948002645
:100660000C46854216D07848854213D0774885429B
:1006700010D0774885420DD0764885420AD076481A
:10068000854207D07548854204D04FF48F7174A01D
:1006900006F0D8FA012C2AD0022C28D0042C26D01F
:1006A000082C24D0102C22D0202C20D0402C1ED05E
:1006B000802C1CD0B4F5807F19D0B4F5007F16D003
:1006C000B4F5806F13D0B4F5006F10D0B4F5805F2F
:1006D0000DD0B4F5005F0AD0B4F5804F07D0B4F563
:1006E000004F04D040F21F115DA006F0ABFAA868DD
:1006F000204200D00126304670BD10B50446514856
:10070000844216D05048844213D05048844210D0BE
:100710004F4884420DD04F4884420AD04E4884420C
:1007200007D04E48844204D04FF49A714CA006F092
:1007300089FAA06880B210BD70B505464148002610
:100740000C46854216D04048854213D03F4885422A
:1007500010D03F4885420DD03E4885420AD03E48E1
:10076000854207D03D48854204D04FF4A2713CA099
:1007700006F068FA012C2AD0022C28D0042C26D0AE
:10078000082C24D0102C22D0202C20D0402C1ED07D
:10079000802C1CD0B4F5807F19D0B4F5007F16D022
:1007A000B4F5806F13D0B4F5006F10D0B4F5805F4E
:1007B0000DD0B4F5005F0AD0B4F5804F07D0B4F582
:1007C000004F04D040F2451125A006F03BFAE8683E
:1007D000204200D00126304670BD10B504461948AD
:1007E000844216D01848844213D01848844210D04E
:1007F000174884420DD0174884420AD016488442D4
:1008000007D01648844204D04FF4AD7114A006F00E
:1008100019FAE06880B210BD70B5044609480D466B
:1008200084423CD00848844239D00848844236D0BB
:100830000748844233D00748844230D00648844277
:100840002DD023E000080140000C014000100140C1
:100850000014014000180140001C0140002001402C
:100860002E2E5C4C6962726172795C50657269709F
:10087000686572616C5C7372635C73746D3332664D
:100880003130785F6770696F2E630000F7488442EB
:1008900005D040F26911AFF2380006F0D3F92DB956
:1008A0004FF4B571AFF2480006F0CCF9256170BD88
:1008B00070B50446EE480D46844217D0ED48844298
:1008C00014D0ED48844211D0EC4884420ED0EC485C
:1008D00084420BD0EB48844208D0E448844205D0DF
:1008E00040F27911AFF2880006F0ACF92DB94FF45F
:1008F000BD71AFF2940006F0A5F9656170BD70B5E9
:100900000546DB4816460C46854217D0D948854235
:1009100014D0D948854211D0D84885420ED0D84845
:1009200085420BD0D748854208D0D048854205D0B3
:1009300040F28D11AFF2D80006F084F9012C2BD0D3
:10094000022C29D0042C27D0082C25D0102C23D001
:10095000202C21D0402C1FD0802C1DD0B4F5807FBE
:100960001AD0B4F5007F17D0B4F5806F14D0B4F569
:10097000006F11D0B4F5805F0ED0B4F5005F0BD0DE
:10098000B4F5804F08D0B4F5004F05D04FF4C771CF
:10099000AFF2341006F056F94EB1012E05D040F2F8
:1009A0008F11AFF2441006F04DF92C6170BD6C61EF
:1009B00070BD70B50446AE480D46844217D0AD48B0
:1009C000844214D0AC48844211D0AC4884420ED04A
:1009D000AB4884420BD0AB48844208D0A348844241
:1009E00005D04FF4D271AFF2881006F02BF9E56014
:1009F00070BD70B504469E480D46844217D09D4890
:100A0000844214D09C48844211D09C4884420ED029
:100A10009B4884420BD09B48844208D09348844230
:100A200005D040F2B511AFF2C81006F00BF92DB9A0
:100A30004FF4DB71AFF2D81006F004F945F48030C2
:100A4000A061A561A061A069A06970BD70B50C46E8
:100A500005000DD0012D0BD0022D09D0032D07D09C
:100A6000042D05D04FF4E971AFF20C2006F0EAF83E
:100A70001CB3012C21D0022C1FD0032C1DD0042C20
:100A80001BD0052C19D0062C17D0072C15D0082CFC
:100A900013D0092C11D00A2C0FD00B2C0DD00C2CFC
:100AA0000BD00D2C09D00E2C07D00F2C05D040F206
:100AB000D311AFF2542006F0C5F8734908684FF619
:100AC0008072104040EA05102043086070BD10B5E8
:100AD000040007D0012C05D04FF4F371AFF2802051
:100AE00006F0B0F86948C46110BD2DE9F0410D462B
:100AF000044601287ED0022C7CD0042C7AD0082C0D
:100B000078D0A4F5A010103874D0A4F5A010303817
:100B100070D0A4F5B01040386CD0A4F5B010C03837
:100B20007ED05B4884427BD05A48844278D05A4871
:100B3000844275D05948844272D0594884426FD05B
:100B4000B4F5805F6CD0B4F5EA1F69D0B4F5EB1F43
:100B500066D0B4F5004F63D06FF40010C4425FD08C
:100B6000A4F50010801E5BD0A4F50010001F57D024
:100B7000A4F50010083853D0A4F5001010384FD059
:100B8000B4F1201F4CD0A4F50010403848D045489F
:100B9000844245D04448844242D0444884423FD0B5
:100BA000434884423CD04348844239D0B4F5011FC5
:100BB00036D06FF00040C44232D0C01C84422FD0E7
:100BC000801C84422CD0001D844229D03A488442A3
:100BD00026D039481030844222D037483030844201
:100BE0001ED03548703084421AD03348F0308442E9
:100BF00016D000E014E03148844211D030488442DD
:100C00000ED0304884420BD02F48844208D02F4861
:100C1000844205D040F22A21AFF2BC3006F012F82F
:100C20003DB1012D05D040F22B21AFF2CC3006F0C2
:100C300009F81549002C01DACA6900E04A68630D19
:100C40001E01A3B2C4F30157B340C4F30340032F02
:100C500005D0E6023CD503268640B24339E022F0B7
:100C600070604A6822F070624A6034E000200140FF
:100C700000080140000C0140001001400014014038
:100C800000180140001C014000000140000020420B
:100C900000011800000218000003180000081A00E4
:100CA000000C1A0000013000000230000004300087
:100CB00000112000002020001000008000020080B1
:100CC00000040080000800800010008000200080E8
:100CD0009A4342F0706005B11843002C01DAC861F4
:100CE000B0E44860AEE470B50C46050011D0012DAB
:100CF0000FD0022D0DD0032D0BD0042D09D0052DC2
:100D000007D0062D05D040F26521AFF2AC4005F0CA
:100D100099FF1CB3012C21D0022C1FD0032C1DD015
:100D2000042C1BD0052C19D0062C17D0072C15D05D
:100D3000082C13D0092C11D00A2C0FD00B2C0DD05D
:100D40000C2C0BD00D2C09D00E2C07D00F2C05D05D
:100D500040F26621AFF2F84005F074FFA007010FE2
:100D60000E4824F0030318440F2283688A409343FB
:100D7000836082688D402A43826070BD10B5040094
:100D800007D0012C05D04FF41E71AFF22C5005F0A6
:100D900059FF0348C0F8DC4010BD000000000140CE
:100DA00000002042F948016841F0010101604168FA
:100DB000F74A114041600168F64A1140016001683C
:100DC00021F480210160416821F4FE0141604FF46B
:100DD0001F018160704770B504004FF480354FF4F7
:100DE000802608D0AC4206D0B44204D040F21111A3
:100DF000E9A005F027FFE548016821F48031016092
:100E0000016821F480210160AC4206D0B44203D1D4
:100E1000016841F4A021016070BD016841F4803196
:100E2000F9E770B500250446212818D0312C16D0DA
:100E3000392C14D0412C12D0612C10D07A2C0ED029
:100E40007B2C0CD07C2C0AD07D2C08D07E2C06D09C
:100E50007F2C04D040F23451CFA005F0F3FE60099E
:100E6000CA4901280BD002280BD0486A04F01F01A0
:100E700001228A40024200D00125284670BD086840
:100E8000F4E7086AF2E738B500204FF4A064009058
:100E90003120FFF7C6FF0099491C0091A14201D003
:100EA0000028F5D03120FFF7BCFF002800D001203A
:100EB00038BD10B504461F2804D94FF4A971B6A057
:100EC00005F0C0FEB149086820F0F80040EAC4000F
:100ED000086010BD10B5040006D0012C04D040F20B
:100EE0006511ADA005F0AEFEB648046010BD70B54A
:100EF0000C4605000AD0B5F5803F07D0B5F5403F58
:100F000004D040F27F11A4A005F09CFE74B3B4F5A8
:100F1000802F2BD0B4F5002F28D0B4F5402F25D04A
:100F2000B4F5801F22D0B4F5A01F1FD0B4F5C01FA8
:100F30001CD0B4F5E01F19D0B4F5001F16D0B4F5DD
:100F4000101F13D0B4F5201F10D0B4F5301F0DD0F2
:100F5000B4F5401F0AD0B4F5501F07D0B4F5601F98
:100F600004D04FF4C0718CA005F06CFE874948682E
:100F7000254320F47C1005434D6070BD10B504007E
:100F800006D0012C04D04FF4CA7183A005F05AFE9C
:100F90008C48046610BD10B5040008D0012C06D0A2
:100FA000022C04D04FF40E717BA005F04BFE774964
:100FB000486820F003002043486010BD7348406833
:100FC00000F00C00704710B5040014D0802C12D033
:100FD000902C10D0A02C0ED0B02C0CD0C02C0AD04D
:100FE000D02C08D0E02C06D0F02C04D04FF419718E
:100FF00069A005F027FE6549486820F0F00020430D
:10100000486010BD10B5040010D0B4F5806F0DD04D
:10101000B4F5A06F0AD0B4F5C06F07D0B4F5E06F97
:1010200004D040F27E215CA005F00CFE57494868D0
:1010300020F4E0602043486010BD10B5040010D0DB
:10104000B4F5806F0DD0B4F5A06F0AD0B4F5C06FC1
:1010500007D0B4F5E06F04D04FF426714EA005F030
:10106000F1FD4A49486820F4605040EAC4004860F5
:1010700010BD70B504460D46400900D124B940F2B8
:10108000BF2145A005F0DEFD404E4DB1012D04D03D
:101090004FF4307140A005F0D5FD707A204301E097
:1010A000707AA043707270BD10B5040006D0012C98
:1010B00004D040F2DB2138A005F0C4FD4148C0F85F
:1010C000D84010BD10B504000DD0B4F5804F0AD043
:1010D000B4F5004F07D0B4F5404F04D040F20231D0
:1010E0002DA005F0AFFD2949486820F44040204379
:1010F000486010BD10B5040008D0012C06D0042CA7
:1011000004D04FF4507124A005F09CFD1F4800212D
:1011100080F8201080F82010012C05D0042C02D17A
:10112000052180F8201010BD0121FAE710B5040058
:1011300006D0012C04D040F2613117A005F082FDE9
:101140002148046010BD10B50446B0F5807F0AD078
:10115000B4F5007F07D0B4F5407F04D040F272317F
:101160000DA005F06FFD0948016A2143016210BD21
:1011700010B5040006D0012C04D04FF4607106A015
:1011800005F060FD10484438046010BD00100240B6
:101190000000FFF8FFFFF6FE2E2E5C4C69627261C4
:1011A00072795C5065726970686572616C5C7372AB
:1011B000635C73746D3332663130785F7263632EB3
:1011C00063000000000042428004424230B59D4A64
:1011D00051689D4B11F00C0103D0042901D008295E
:1011E00001D0036012E05168536801F470114FF0B0
:1011F000020413F4803F04EB914102D053689B0337
:1012000001D5924B00E0904B5943016051680F2388
:1012100003EA11118E4B5C5C0168E1404160546847
:10122000072505EA14241C5D21FA04F4846054683F
:1012300005EAD4241B5DD940C1605268032303EA48
:101240009232834B1B1F9A5CB1FBF2F1016130BDFE
:1012500070B5044640F257500D4634EA000000D104
:101260002CB940F22B41AFF2D00005F0EBFC754EEB
:1012700055B1012D05D040F22C41AFF2E40005F04C
:10128000E1FC7069204301E07069A043706170BDAA
:1012900070B504466F480D46044200D12CB940F2A7
:1012A0004A41AFF20C1005F0CDFC664E55B1012D50
:1012B00005D040F24B41AFF2201005F0C3FCB069FD
:1012C000204301E0B069A043B06170BD70B5044631
:1012D00061480D46044200D12CB940F26941AFF299
:1012E000481005F0AFFC574E55B1012D05D040F226
:1012F0006A41AFF25C1005F0A5FCF069204301E003
:10130000F069A043F06170BD70B5044651480D46C8
:10131000044200D12CB940F2A441AFF2841005F090
:1013200091FC484E55B1012D05D040F2A541AFF2D8
:10133000981005F087FCF068204301E0F068A043B6
:10134000F06070BD70B5044643480D46044200D1BC
:101350002CB940F2C341AFF2C01005F073FC394E16
:1013600055B1012D05D040F2C441AFF2D41005F0C3
:1013700069FC3069204301E03069A043306170BDF1
:1013800010B5040007D0012C05D04FF49B61AFF2DB
:10139000F81005F057FC31480460F6E610B504007B
:1013A00007D0012C05D040F2E541AFF2142005F042
:1013B00049FC2B48C464E8E610B504000DD0052CA8
:1013C0000BD0042C09D0062C07D0072C05D040F2F6
:1013D0000551AFF23C2005F035FC1A48C471D4E643
:1013E0001848416A41F080714162704770B500252C
:1013F000044601280FD0022C0DD0042C0BD0082C51
:1014000009D0102C07D0802C05D040F27E51AFF2CD
:10141000782005F017FC0B488068204200D0012599
:10142000284670BD10B5044610F0600F00D12CB9ED
:1014300040F2AB51AFF2A02005F004FC01488472E9
:10144000A3E600000010024000127A0000093D00EF
:10145000040000200200C0FF003601814004424227
:10146000000042422DE9F05FFD4DFE4EFE4FDFF8D9
:10147000FC83DFF8FC93DFF8FCA3DFF8FCB3044641
:10148000A8422DD0B4F1804F3BD0B44228D0BC420A
:1014900026D0444524D04C4522D0544520D05C452C
:1014A0001ED0F64884421BD0F548844218D0F54837
:1014B000844215D0F448844212D0F44884420FD0BC
:1014C000F34884420CD0F348844209D0F248844265
:1014D00006D0F248844203D07D21F1A005F0B2FB92
:1014E000AC4202D10121CC0280E0B4F1804F08D09F
:1014F000B4420DD101210220FFF724FF0021022078
:101500005FE001210846FFF71DFF0021012058E0A0
:10151000BC4206D101210420FFF714FF0021042062
:101520004FE0444506D101210820FFF70BFF0021C1
:10153000082046E04C4506D101211020FFF702FFAC
:10154000002110203DE0544506D101212020FFF765
:10155000F9FE0021202034E05C4502D101214C033A
:1015600044E0C648844202D10121CC043EE0C44894
:10157000844202D101210C0538E0C248844202D1E4
:1015800001214C0532E0C048844206D101214020AF
:10159000FFF7D8FE0021402013E0BC48844206D16A
:1015A00001218020FFF7CEFE0021802009E0B8480D
:1015B00084420AD1841501212046FFF7C3FE002191
:1015C0002046BDE8F05FFFF7BDBEB248844202D1BD
:1015D00001210C040AE0B048844202D101214C04EC
:1015E00004E0AE4884420AD101218C042046FFF772
:1015F0008BFE2046BDE8F05F0021FFF785BEBDE809
:10160000F09F2DE9F05F964FDFF85882DFF858928F
:10161000DFF858A2DFF858B2974E0D460446B8429C
:101620002ED0B4F1804F2BD0444529D04C4527D043
:10163000544525D05C4523D08E48844220D0B44206
:101640001ED08E4884421BD08D48844218D08D48CD
:10165000844215D08C48844212D08C4884420FD0EA
:101660008B4884420CD08B48844209D08A488442FB
:1016700006D08A48844203D0E72189A005F0E2FA27
:10168000688858B1102809D0202807D0402805D0F4
:10169000602803D0E82182A005F0D4FAE88848B198
:1016A000B0F5807F06D0B0F5007F03D0E9217CA0A3
:1016B00005F0C8FA2088BC420AD0B44208D0B4F180
:1016C000804F05D0444503D04C4501D0544503D14B
:1016D00020F07001688808435C4506D065498C425B
:1016E00003D020F44071E88808432080A888A085B2
:1016F00028882085BC420AD0B44208D0654884427C
:1017000005D06548844202D06448844201D1287AD9
:1017100020860120A08272E72DE9F05FDFF840917A
:10172000DFF854A1DFF86CB10D46044648452CD0D3
:10173000B4F1804F29D04B48844226D04A48844295
:1017400023D04A48844220D054451ED04B4884427E
:101750001BD04B48844218D04A48844215D04A488E
:10176000844212D0494884420FD0494884420CD068
:101770005C450AD04848844207D04848844204D097
:101780004FF48E7146A005F05DFA288870B11028DC
:101790000CD020280AD0302808D0602806D0702825
:1017A00004D040F21D113EA005F04CFA688830B11B
:1017B000012804D04FF48F7139A005F043FA28892D
:1017C00030B1022804D040F21F1135A005F03AFADA
:1017D000208C20F001002084218CA788208B2A886F
:1017E00020F0730042EA0008288921F002016E8887
:1017F000084306434C4509D0544507D05C4505D005
:101800002548844202D0254884426AD1A88830B154
:10181000042804D04FF49E7121A005F013FA6889C2
:1018200030B1082804D040F23D111DA005F00AFA9D
:10183000E889B0F5007F05D020B14FF49F7118A062
:1018400005F000FAA889B0F5807F05D020B140F2FC
:101850003F1113A005F0F6F926F00801688935E07C
:10186000002C01400004004000080040000C004033
:10187000001000400014004000340140004C0140C2
:10188000005001400054014000180040001C00407E
:101890000020004000400140004401400048014059
:1018A0002E2E5C4C6962726172795C50657269704F
:1018B000686572616C5C7372635C73746D333266FD
:1018C0003130785F74696D2E630000000843AE8884
:1018D00020F00400064327F44071A889EF890843EB
:1018E0000743A780A4F81880E888A086268486E6A7
:1018F0002DE9F05FDFF804A4DFF804B40D460446D8
:1019000050451CD0B4F1804F19D0FE48844216D007
:10191000FD48844213D0FD48844210D05C450ED06F
:10192000FB4884420BD0FB48844208D0FA488442EA
:1019300005D040F26F11AFF2980005F083F92888C6
:1019400078B110280DD020280BD0302809D060287D
:1019500007D0702805D04FF4B871AFF2BC0005F085
:1019600071F9688838B1012805D040F27111AFF2E1
:10197000D00005F067F9288938B1022805D04FF466
:10198000B971AFF2E40005F05DF9208C20F0100091
:101990002084228CA788208B2B884FF6FF7920F497
:1019A000E64109EA032343EA0108298922F02002DB
:1019B00009EA011111436A8809EA02160E435445E7
:1019C00001D05C453FD1A88838B1042805D040F249
:1019D0008F11AFF2341005F035F9688938B1082855
:1019E00005D04FF4C871AFF2481005F02BF9E88923
:1019F000B0F5007F06D028B140F29111AFF260102F
:101A000005F020F9A889B0F5807F06D028B14FF401
:101A1000C971AFF2741005F015F9698926F08002DA
:101A200009EA01111143AA8821F0400109EA0216CE
:101A30000E43A98927F4406209EA81011143EA892A
:101A400009EA82070F43A780A4F81880E888208756
:101A50002684D4E52DE9F05FDFF8A0A2DFF8A0B27C
:101A60000D460446504513D0B4F1804F10D0A54820
:101A700084420DD0A44884420AD0A448844207D0AE
:101A80005C4505D040F2C111AFF2EC1005F0DAF878
:101A9000288878B110280DD020280BD0302809D004
:101AA000602807D0702805D04FF4E171AFF2102004
:101AB00005F0C8F8688838B1012805D040F2C31194
:101AC000AFF2242005F0BEF8288938B1022805D0ED
:101AD0004FF4E271AFF2382005F0B4F8208C20F416
:101AE00080702084208CA788A18B2A8821F0730124
:101AF00042EA010820F4007128894FF6FF7909EACB
:101B000000200843698809EA01260643544501D0AC
:101B10005C453FD1A88838B1042805D04FF4F07156
:101B2000AFF2842005F08EF8688938B1082805D016
:101B300040F2E111AFF2982005F084F8E889B0F5A1
:101B4000007F06D028B14FF4F171AFF2AC2005F060
:101B500079F8A889B0F5807F06D028B140F2E3116A
:101B6000AFF2C42005F06EF8698926F4006209EA34
:101B700001211143AA8821F4806109EA02260E435B
:101B8000A98927F4405209EA01111143EA8909EAB7
:101B900002170F43A780A4F81C80E888A08726843A
:101BA0002DE52DE9F05FDFF854A1DFF854B10D46C3
:101BB0000446504513D0B4F1804F10D051488442B0
:101BC0000DD0514884420AD05048844207D05C4529
:101BD00005D04FF40471AFF2383005F033F828889F
:101BE00078B110280DD020280BD0302809D06028DB
:101BF00007D0702805D040F21121AFF25C3005F01B
:101C000021F8688838B1012805D040F21221AFF2DE
:101C1000703005F017F8288938B1022805D040F255
:101C20001321AFF2843005F00DF8208C20F48050A1
:101C30002084218CA688A08B2B884FF6FF7920F476
:101C4000E64209EA0327174321F40052298909EAE9
:101C5000013111436A88544509EA023040EA01081B
:101C600001D05C4510D1A889B0F5807F06D028B19D
:101C70004FF40C71AFF2D83004F0E4FFAA8926F4D7
:101C8000804009EA82160643A680A783E888A4F864
:101C90004000A4F82080B2E470B5044617480D4611
:101CA000844214D0B4F1804F11D0164884420ED033
:101CB000154884420BD01548844208D0104884420D
:101CC00005D040F67611AFF2284004F0BBFF5DB1BD
:101CD000042D09D0082D07D00C2D05D040F6771122
:101CE000AFF2444004F0AEFFA08B20F44060A0832C
:101CF000A08B4FF6FF7101EA05210FE0002C014097
:101D0000003401400004004000080040000C004086
:101D1000004C014000180040004001400843A083EF
:101D200070BD70B50446FA480D46844214D0B4F133
:101D3000804F11D0F74884420ED0F74884420BD030
:101D4000F648844208D0F648844205D04FF4166124
:101D5000AFF2B44004F076FF5DB1042D09D0082D38
:101D600007D00C2D05D040F66111AFF2CC4004F045
:101D700069FFA08B20F00C00A083A08B2843A083D8
:101D800070BD70B50446E2480D4684421DD0B4F1E2
:101D9000804F1AD0DF48844217D0DF48844214D0E5
:101DA000DE48844211D0DE4884420ED0DD488442B1
:101DB0000BD0DD48844208D0DC48844205D040F690
:101DC0004A11AFF2245004F03DFF5DB1042D09D05B
:101DD000082D07D00C2D05D040F64B11AFF2405026
:101DE00004F030FF208B20F440602083208B4FF6DE
:101DF000FF7101EA05210843208370BDF0B5048C12
:101E000024F010040484078B048C4FF6FF7527F42C
:101E1000734705EA03333B4305EA02221A43BC4BEE
:101E200005EA011698420ED0BD4B98420BD0B0F196
:101E3000804F08D0B74B984205D0B74B984202D09C
:101E4000B64B984205D124F02001314341F01001F6
:101E500004E024F0A0030B4343F01001028301844B
:101E6000F0BD70B50446AA480D4684422FD0B4F1A7
:101E7000804F2CD0A748844229D0A748844226D03E
:101E8000A648844223D0A648844220D0A548844254
:101E90001DD0A74884421AD0A648844217D0A24831
:101EA000844214D0A448844211D0A44884420ED065
:101EB0009E4884420BD0A248844208D0A148844264
:101EC00005D040F63411AFF2286004F0BBFE5DB1DE
:101ED000042D09D0082D07D00C2D05D040F6351162
:101EE000AFF2446004F0AEFE208B20F00C002083A3
:101EF000208B2843208370BD70B5048C24F001042E
:101F00000484058B048C4FF6FF7606EA0313134313
:101F100025F0F3057E4A2B4390420ED0804A904232
:101F20000BD0B0F1804F08D07A4A904205D07A4A5F
:101F3000904202D0794A904202D124F0020201E09C
:101F400024F00A020A4342F001010383018470BDB8
:101F50002DE9F84F044608880D4658B1042809D0E9
:101F6000082807D00C2805D040F24E21AFF2D060EF
:101F700004F068FEA888012809D0022807D00328A9
:101F800005D040F24F21AFF2E86004F05BFEE88834
:101F900058B1042809D0082807D00C2805D04FF4E0
:101FA0001471AFF2047004F04DFE28890F2805D992
:101FB00040F25121AFF2187004F044FEDFF8508176
:101FC000544E554FDFF85491DFF854A14FF0804B39
:101FD000444509D0544507D05C4505D0B44203D0F0
:101FE000BC4201D04C4506D1688880B102280ED091
:101FF00040F2562107E0688848B1022807D00A2835
:1020000005D040F25A21AFF2687004F01BFE288818
:102010004449454A454BE0B3042877D008283C485A
:1020200075D084420FD05C450DD0B4420BD0BC4279
:1020300009D04C4507D0544505D04FF41F71AFF27D
:10204000A07004F0FFFD6888AA88B5F80880218C8C
:1020500021F480512184A38B218C4FF6FF7E23F441
:1020600073430EEA02221A430EEA08331343284A46
:102070000EEA003CCDF800C0944209D0544507D088
:102080005C4505D0B44203D0BC4201D04C457CD164
:1020900000E006E021F400500099084340F480502D
:1020A000C3E0444527D05C4525D0B44223D0BC4290
:1020B00021D04C451FD054451DD08C421BD01C480C
:1020C000844218D01B48844215D0944213D01A4839
:1020D000844210D0194884420DD09C420BD018483D
:1020E000844208D01748844205D040F25E21AFF602
:1020F000500004F0A7FD2B89AA8869882046FFF7C5
:10210000FBFEE9882046BDE8F84FAAE61CE040E067
:10211000002C01400004004000080040000C00407A
:1021200000340140004C01400018004000400140D4
:102130000050014000540140001C004000200040BD
:102140000044014000480140444515D05C4513D08F
:10215000B44211D0BC420FD04C450DD054450BD0E9
:102160008C4209D0944207D09C4205D04FF41A719A
:10217000AFF6D40004F066FD2B89AA886988204652
:10218000FFF73CFEE988204600E049E0BDE8F84F53
:10219000F7E584420FD05C450DD0B4420BD0BC4271
:1021A00009D04C4507D0544505D040F27221AFF616
:1021B000101004F047FD6888B5F804802A89218C46
:1021C00021F480712184A38B218C4FF6FF7C0CEAD3
:1021D000021223F0F30342EA08021A43FF4B0CEA0F
:1021E000002E9C4209D0544507D05C4505D0B4422E
:1021F00003D0BC4201D04C4506D121F4007040EA26
:102200000E0040F4807004E021F42061014341F4A9
:102210008070A2832084E9882046BDE8F84F80E5DD
:1022200021F40241014341F48050A3832084E988D2
:102230002046BDE8F84F2FE52DE9F0410546E74877
:10224000002701260C4685421DD0B5F1804F1AD0DB
:10225000E348854217D0E348854214D0E2488542DE
:1022600011D0E24885420ED0E14885420BD0E148CA
:10227000854208D0E048854205D040F29321AFF670
:10228000E01004F0DFFC618801B90227A288012A6E
:1022900000D10226208823890028284610D0FFF785
:1022A000ADFDE1882846FFF76CFD238932463946AB
:1022B0002846FFF721FEE1882846BDE8F041D0E539
:1022C000FFF71AFEE1882846FFF7CBFD2389324647
:1022D00039462846FFF792FDE1882846BDE8F041DF
:1022E0004FE570B50546BD480C46854211D0BF4844
:1022F00085420ED0C04885420BD0C048854208D0E8
:10230000BF48854205D040F2CB21AFF66C2004F0E7
:1023100099FC2088B0F5006F06D028B14FF43371D6
:10232000AFF6842004F08EFC6088B0F5806F06D094
:1023300028B140F2CD21AFF6982004F083FCA088AC
:1023400070B1B0F5807F0BD0B0F5007F08D0B0F54C
:10235000407F05D040F2CE21AFF6BC2004F072FCE5
:102360002089B0F5805F06D028B140F2CF21AFF6CA
:10237000D02004F067FC608940B1B0F5005F05D063
:102380004FF43471AFF6E82004F05CFCA089B0F59E
:10239000804F06D028B140F2D121AFF6FC2004F0E6
:1023A00051FC20886188E2880843A18811430843D2
:1023B0002189084361890843A1890843A5F844009D
:1023C00070BD4FF6FF71818000210180C180418086
:1023D000017270470021018041808180C1800181AC
:1023E00041818181C18170470021018041800122AA
:1023F0008280C180018170470021018041808180FD
:10240000C180018141818181704770B50446734864
:102410000D46844235D0B4F1804F32D070488442AA
:102420002FD0704884422CD06F48844229D0754800
:10243000844226D07448844223D06C48844220D001
:102440006B4884421DD0714884421AD0704884423F
:1024500017D06848844214D06E48844211D06E4828
:1024600084420ED0644884420BD06448844208D031
:102470006348844205D040F22931AFF6DC3004F0E5
:10248000E1FB5DB1012D05D040F22A31AFF6F0300D
:1024900004F0D8FB208840F0010002E0208820F002
:1024A0000100208070BD70B504464C480D46844242
:1024B00011D04E4884420ED04F4884420BD04F4832
:1024C000844208D04E48844205D040F24231AFF6F3
:1024D000304004F0B7FB65B1012D05D040F2433127
:1024E000AFF6444004F0AEFB34F8440F40F4004033
:1024F00003E034F8440FC0F30E00208070BD70B5C7
:102500000446364816460D46844235D0B4F1804F15
:1025100032D0334884422FD0324884422CD03248C3
:10252000844229D03748844226D03748844223D079
:102530002E48844220D02E4884421DD03348844205
:102540001AD03348844217D02A48844214D03148E4
:10255000844211D0304884420ED0274884420BD0A8
:102560002648844208D02648844205D040F26B3188
:10257000AFF6D44004F066FB280A00D12DB94FF421
:102580005B71AFF6E44004F05DFB56B1012E05D05F
:1025900040F26D31AFF6F84004F054FBA0892843B7
:1025A00001E0A089A843A08170BD70B504460B4826
:1025B0000D46844256D0B4F1804F53D0084884422F
:1025C00050D0084884424DD0074884424AD00D4834
:1025D000844247D00C48844244D01FE0002C014084
:1025E0000004004000080040000C0040003401409E
:1025F000004C0140001800400040014000440140F0
:10260000004801400010004000140040005001400C
:1026100000540140001C004000200040F848844263
:1026200020D0F84884421DD0F74884421AD0F74899
:10263000844217D0F648844214D0F648844211D020
:10264000F54884420ED0F54884420BD0F4488442C9
:1026500008D0F448844205D04FF46471AFF6C050FE
:1026600004F0F0FA280A00D12DB940F29131AFF60A
:10267000D05004F0E7FAA58270BD70B50646EA486E
:1026800015460C4686421DD0B6F1804F1AD0E74859
:10269000864217D0E648864214D0E648864211D0DA
:1026A000D74886420ED0DD4886420BD0DC488642B1
:1026B00008D0DC48864205D04FF46B71AFF620603D
:1026C00004F0C0FA4CB3012C27D0022C25D0032CE7
:1026D00023D0042C21D0052C1FD0062C1DD0072C74
:1026E0001BD0082C19D0092C17D00A2C15D00B2C74
:1026F00013D00C2C11D00D2C0FD00E2C0DD00F2C74
:102700000BD0102C09D0112C07D0122C05D040F280
:10271000AD31AFF6746004F095FAC5B3B5F5807FBE
:1027200035D0B5F5007F32D0B5F5407F2FD0B5F567
:10273000806F2CD0B5F5A06F29D0B5F5C06F26D02D
:10274000B5F5E06F23D0B5F5006F20D0B5F5106F6B
:102750001DD0B5F5206F1AD0B5F5306F17D0B5F58F
:10276000406F14D0B5F5506F11D0B5F5606F0ED035
:10277000B5F5706F0BD0B5F5805F08D0B5F5885F03
:1027800005D040F2AE31AFF6E86004F05BFA2C43BE
:10279000A6F8484070BD70B50446A34816460D46DD
:1027A000844223D0B4F1804F20D0A04884421DD071
:1027B0009F4884421AD09F48844217D09E48844242
:1027C00014D09E48844211D08D4884420ED0934844
:1027D00084420BD09248844208D09248844205D06B
:1027E00040F2C731AFF6487004F02CFA35F4FE40E1
:1027F00000D12DB94FF47271AFF65C7004F022FA7B
:1028000056B1012E05D040F2C931AFF66C7004F01C
:1028100019FAA089284301E0A089A843A08170BDCE
:1028200010B50446804884421DD0B4F1804F1AD0C0
:102830007E48844217D07E48844214D07D4884422A
:1028400011D06F4884420ED06E4884420BD070483D
:10285000844208D07148844205D04FF47871AFF6B5
:10286000C07004F0EFF9208920F00700208110BD2E
:1028700070B504466C480D4684421CD0B4F1804FBC
:1028800019D06A48844216D06948844213D06948F6
:10289000844210D05A4884420DD05A4884420AD00B
:1028A0005B48844207D05D48844204D040F2D14165
:1028B000634804F0C7F995B1102D10D0202D0ED02B
:1028C000302D0CD0402D0AD0502D08D0602D06D0D0
:1028D000702D04D040F2D241594804F0B3F9208958
:1028E00020F070002843208170BD70B504464E482A
:1028F0000D4684421CD0B4F1804F19D04B4884421D
:1029000016D04B48844213D04A48844210D03C48E9
:1029100084420DD03B4884420AD03D48844207D0CF
:102920003E48844204D040F2F331454804F08AF92D
:1029300055B1102D08D0202D06D0302D04D04FF4E5
:102940007D713F4804F07EF929462046FFF790FF4D
:10295000208940F00700208170BD2DE9F041044638
:1029600031481F4616460D4684421CD0B4F1804FB4
:1029700019D02E48844216D02D48844213D02D48B9
:10298000844210D01E4884420DD01E4884420AD092
:102990001F48844207D02148844204D040F20F41AE
:1029A000274804F04FF9502D08D0602D06D0402D57
:1029B00004D04FF48261224804F044F936B1022E6B
:1029C00004D040F211411E4804F03CF90F2F04D905
:1029D00040F212411A4804F035F9602D3B464FF0A1
:1029E0000102314620462DD0FFF786FA29462046BF
:1029F000FFF73EFF208940F007002081BDE8F0810D
:102A000000340140004C014000500140005401409E
:102A100000180040001C0040002000400040014021
:102A20000044014000480140002C014000040040E7
:102A300000080040000C004000100040001400405E
:102A4000A0180008FFF7DAF9D0E72DE9F0410446B5
:102A5000FF481F4616460D46844213D0B4F1804FFE
:102A600010D0FC4884420DD0FB4884420AD0FB4879
:102A7000844207D0FA48844204D040F28141F948A8
:102A800004F0E0F86DB1B5F5805F0AD0B5F5005FF0
:102A900007D0B5F5405F04D040F28241F14804F020
:102AA000D1F8B6F5004F05D026B140F28341ED488C
:102AB00004F0C8F80F2F04D940F28441E94804F02B
:102AC000C1F820894FF6FF7101EA07213143C0B2F6
:102AD00029430143218191E72DE9F0410446DC4877
:102AE0001F4616460D46844213D0B4F1804F10D0D5
:102AF000D84884420DD0D84884420AD0D74884426E
:102B000007D0D748844204D04FF48761D54804F0F9
:102B100099F86DB1B5F5805F0AD0B5F5005F07D0C3
:102B2000B5F5405F04D040F23941CE4804F08AF850
:102B3000B6F5004F05D026B140F23A41C94804F03D
:102B400081F80F2F04D940F23B41C64804F07AF8CF
:102B50003B46324629462046FFF777FF208940F062
:102B6000770020814AE72DE9F0410446B8481F4626
:102B700016460D46844213D0B4F1804F10D0B548AC
:102B800084420DD0B44884420AD0B448844207D06D
:102B9000B348844204D040F26141B24804F052F894
:102BA0006DB1B5F5805F0AD0B5F5005F07D0B5F51A
:102BB000405F04D040F26241AA4804F043F8B6F501
:102BC000004F05D026B140F26341A64804F03AF820
:102BD0000F2F04D940F26441A24804F033F83B4679
:102BE000324629462046FFF730FF208940F48040D6
:102BF000208103E770B50446954815460E46844289
:102C000034D0B4F1804F31D0924884422ED09248D3
:102C100084422BD09148844228D09348844225D0C6
:102C20009248844222D08E4884421FD090488442E9
:102C30001CD09048844219D08F48844216D08F48C7
:102C4000844213D08E48844210D08E4884420DD0E6
:102C50008D4884420AD08D48844207D08C488442F3
:102C600004D040F29B417F4803F0ECFF35B1012DC9
:102C700004D040F29C417B4803F0E4FF2685A58206
:102C800070BD70B5044672480D46844213D0B4F14D
:102C9000804F10D06F4884420DD06F4884420AD0D4
:102CA0006E48844207D06E48844204D040F2B3415B
:102CB0006C4803F0C7FF65B1102D0AD0202D08D055
:102CC000402D06D0602D04D040F2B441654803F099
:102CD000B9FF208820F070002843208070BD2DE9C6
:102CE000F04104465A481E4617460D46844216D007
:102CF000B4F1804F13D05748844210D056488442D4
:102D00000DD0564884420AD05548844207D05E48C8
:102D1000844204D04FF49F61524803F093FF012D89
:102D200008D0022D06D0032D04D040F2F9414D48C1
:102D300003F088FF37B1022F04D040F2FA4149482E
:102D400003F080FF36B1022E04D040F2FB4145482B
:102D500003F078FF2289208B218C4FF6FC4318402A
:102D600040F20113184321F0220322F007024FF62C
:102D7000FF712A4301EA0611394319432281208356
:102D800021843BE670B5044631480D4684422ED07E
:102D9000B4F1804F2BD02F48844228D02E48844253
:102DA00025D02E48844222D02D4884421FD030485E
:102DB00084421CD02F48844219D02F48844216D018
:102DC0002E48844213D02E48844210D02D4884428D
:102DD0000DD02D4884420AD02C48844207D02C487C
:102DE000844204D040F227511E4803F02BFF502D9F
:102DF00006D0402D04D04FF4A5611A4803F022FFFD
:102E0000208B20F070002843208370BD70B50446ED
:102E10000F480D4684423FD0B4F1804F3CD00D485E
:102E2000844239D00C48844236D00C48844233D096
:102E30000B48844230D00E4884422DD00F48844243
:102E40002AD01148844227D040F23F51054821E062
:102E5000002C01400004004000080040000C00402D
:102E600000340140A0180008001000400014004089
:102E7000004C014000500140005401400018004047
:102E8000001C004000200040004001400044014080
:102E90000048014003F0D6FE502D06D0402D04D04E
:102EA0004FF4A861FE4803F0CDFE208B4FF6FF7172
:102EB00020F4E04001EA05210143218370BD70B593
:102EC0000446F8480D46844213D0B4F1804F10D028
:102ED000F54884420DD0F54884420AD0F448844233
:102EE00007D0F448844204D040F25751EC4803F034
:102EF000A9FE502D06D0402D04D04FF4AB61E84818
:102F000003F0A0FEA08B20F070002843A08370BDCA
:102F100070B50446E3480D46844213D0B4F1804FA7
:102F200010D0E14884420DD0E04884420AD0E04805
:102F3000844207D0DF48844204D040F26F51D84821
:102F400003F080FE502D06D0402D04D04FF4AE612A
:102F5000D34803F077FEA08B4FF6FF7120F4E040DA
:102F600001EA05210143A18370BD70B50446CD4837
:102F70000D46844234D0B4F1804F31D0CA488442E7
:102F80002ED0CA4884422BD0C948844228D0CA488F
:102F9000844225D0C948844222D0C64884421FD0EA
:102FA000C74884421CD0C748844219D0C6488442CE
:102FB00016D0C648844213D0C548844210D0C548B4
:102FC00084420DD0C44884420AD0C448844207D009
:102FD000C348844204D040F28451B14803F032FE29
:102FE00055B1012D04D040F28551AD4803F02AFEC1
:102FF000208840F0800002E0208820F080002080BF
:1030000070BD70B50446A7480D46844210D0A9484B
:1030100084420DD0B04884420AD0B048844207D0E0
:10302000AF48844204D040F29C519D4803F00AFE10
:1030300055B1012D04D040F29D51994803F002FE94
:10304000A08840F0040002E0A08820F00400A080E6
:1030500070BD70B5044693480D4684421CD0B4F14F
:10306000804F19D09048844216D09048844213D0A3
:103070008F48844210D08F4884420DD096488442B5
:103080000AD09648844207D09548844204D040F242
:10309000B551834803F0D6FD55B1012D04D040F25F
:1030A000B6517F4803F0CEFDA08840F0080002E052
:1030B000A08820F00800A08070BD70B50446794853
:1030C0000D46844216D0B4F1804F13D07648844226
:1030D00010D0764884420DD0754884420AD0754895
:1030E000844207D07C48844204D040F2CE516C48E0
:1030F00003F0A8FD55B1012D04D040F2CF5168482E
:1031000003F0A0FDA08840F0010002E0A08820F0BC
:103110000100A08070BD70B5044662480D4684422F
:103120002ED0B4F1804F2BD05F48844228D05F4826
:10313000844225D05E48844222D05E4884421FD01B
:103140005F4884421CD05F48844219D05E48844264
:1031500016D05E48844213D05D48844210D05D484A
:1031600084420DD05C4884420AD05C48844207D037
:103170005B48844204D040F2E951494803F062FDC3
:10318000082D05D025B140F2EA51454803F05AFD1B
:10319000208B20F008002843208370BD70B50446C2
:1031A00040480D4684421CD0B4F1804F19D03E48AF
:1031B000844216D03D48844213D03D48844210D00A
:1031C0003C4884420DD03E4884420AD03F48844265
:1031D00007D04148844204D040F20261304803F0F5
:1031E00031FD082D05D025B140F203612C4803F0D4
:1031F00029FD208B4FF6FF7120F4006001EA0521C4
:103200000143218370BD70B5044626480D468442B3
:1032100013D0B4F1804F10D0234884420DD02348FE
:1032200084420AD02248844207D02248844204D0F3
:1032300040F21A611A4803F005FD082D05D025B1AA
:1032400040F21B61164803F0FDFCA08B20F0080043
:103250002843A08370BD70B5044612480D468442D1
:1032600013D0B4F1804F10D00F4884420DD00F48D6
:1032700084420AD00E48844207D00E48844204D0CB
:1032800040F23261064803F0DDFC082D05D025B17F
:1032900040F23361024803F0D5FCA08B22E000002D
:1032A000A0180008002C0140000400400008004065
:1032B000000C0040003401400010004000140040A9
:1032C000004C0140005001400054014000180040F3
:1032D000001C00400020004000400140004401402C
:1032E000004801404FF6FF7120F4006001EA05211B
:1032F0000143A18370BD70B50446FF480D4684426A
:103300002ED0B4F1804F2BD0FC48844228D0FC480A
:10331000844225D0FB48844222D0FB4884421FD0FF
:10332000FA4884421CD0FA48844219D0F9488442B1
:1033300016D0F948844213D0F848844210D0F84897
:1033400084420DD0F74884420AD0F748844207D01F
:10335000F648844204D040F24A61F54803F072FC1A
:10336000042D05D025B140F24B61F14803F06AFC11
:10337000208B20F004002843208370BD70B50446E4
:10338000DD480D4684421CD0B4F1804F19D0DB4893
:10339000844216D0DA48844213D0DA48844210D0EE
:1033A000D94884420DD0D94884420AD0DA488442B0
:1033B00007D0DC48844204D040F26461DC4803F06A
:1033C00041FC042D05D025B140F26561D84803F0D9
:1033D00039FC208B4FF6FF7120F4806001EA052153
:1033E0000143218370BD70B50446C3480D46844235
:1033F00013D0B4F1804F10D0C04884420DD0C048E3
:1034000084420AD0BF48844207D0BF48844204D0D7
:1034100040F27D61C64803F015FC042D05D025B1AE
:1034200040F27E61C24803F00DFCA08B20F0040046
:103430002843A08370BD70B50446AF480D46844252
:1034400013D0B4F1804F10D0AC4884420DD0AC48BA
:1034500084420AD0AB48844207D0AB48844204D0AF
:1034600040F29661B24803F0EDFB042D05D025B182
:1034700040F29761AE4803F0E5FBA08B4FF6FF7179
:1034800020F4806001EA05210143A18370BD70B57D
:10349000044699480D46844213D0B4F1804F10D0B1
:1034A000964884420DD0964884420AD0954884427A
:1034B00007D09548844204D040F2AF619C4803F0A5
:1034C000C1FB802D05D025B14FF4D661984803F09B
:1034D000B9FB208B20F080002843208370BD70B59D
:1034E000044685480D46844213D0B4F1804F10D075
:1034F000824884420DD0824884420AD08148844266
:1035000007D08148844204D040F2C961884803F062
:1035100099FB802D05D025B140F2CA61844803F0A3
:1035200091FB208B4FF6FF71C0F30E0001EA0521DD
:103530000143218370BD70B504466F480D46844237
:1035400013D0B4F1804F10D06C4884420DD06C4839
:1035500084420AD06B48844207D06B48844204D02E
:1035600040F2E161724803F06DFB802D05D025B17A
:1035700040F2E2616E4803F065FBA08B20F0800012
:103580002843A08370BD70B504465B480D46844255
:1035900013D0B4F1804F10D0584884420DD0584811
:1035A00084420AD05748844207D05748844204D006
:1035B00040F2F9615E4803F045FB802D05D025B14E
:1035C00040F2FA615A4803F03DFBA08B4FF6FF71C1
:1035D000C0F30E0001EA05210143A18370BD70B55F
:1035E000044645480D4684422ED0B4F1804F2BD07E
:1035F0004248844228D04248844225D041488442EF
:1036000022D0414884421FD0404884421CD04048C8
:10361000844219D03F48844216D03F48844213D098
:103620003E48844210D03E4884420DD03D488442FA
:103630000AD03D48844207D03C48844204D040F23E
:1036400011713B4803F0FEFA35B1022D04D040F26F
:103650001271374803F0F6FA208C20F0020028435C
:10366000208470BD70B5044623480D46844210D0B6
:10367000254884420DD02B4884420AD02A488442EF
:1036800007D02A48844204D04FF4E561284803F06B
:10369000D9FA35B1082D04D040F22971244803F03D
:1036A000D1FA208C20F008002843208470BD70B52A
:1036B000044611480D4684421CD0B4F1804F19D005
:1036C0000E48844216D00E48844213D00D488442DE
:1036D00010D00D4884420DD00C4884420AD00E48C8
:1036E000844207D00F48844204D04FF4E861104868
:1036F00003F0A8FA2DB31DE0002C014000040040A7
:1037000000080040000C004000340140004C014023
:10371000005001400054014000180040001C0040CF
:1037200000200040004001400044014000480140AA
:10373000A0180008022D04D040F24171F84803F0AF
:1037400081FA208C4FF6FF7120F0200001EA05116C
:103750000143218470BD70B50446F2480D46844291
:1037600007D0F148844204D040F25771EC4803F08E
:1037700069FA35B1082D04D04FF4EB61E84803F045
:1037800061FA208C4FF6FF7120F0800001EA0511EC
:103790000143218470BD70B50446E2480D46844261
:1037A00013D0B4F1804F10D0E04884420DD0E048EF
:1037B00084420AD0DF48844207D0DB48844204D0E8
:1037C00040F26F71D64803F03DFA35B1022D04D0B6
:1037D0004FF4EE61D24803F035FA208C4FF6FF71BA
:1037E00020F4007001EA05210143218470BD70B509
:1037F0000446CC480D46844207D0CB48844204D0CE
:1038000040F28771C64803F01DFA35B1082D04D087
:103810004FF4F161C24803F015FA208C4FF6FF71A6
:1038200020F4006001EA05210143218470BD70B5D8
:103830000446BC480D46844213D0B4F1804F10D0EA
:10384000BA4884420DD0BA4884420AD0B94884426A
:1038500007D0B548844204D040F29F71B04803F0CD
:10386000F1F935B1022D04D04FF4F461AC4803F006
:10387000E9F9208C4FF6FF7120F4005001EA053180
:103880000143218470BD70B50446A64816460D4616
:1038900084422ED0B4F1804F2BD0A448844228D04B
:1038A000A348844225D0A348844222D09E48844223
:1038B0001FD0A14884421CD0A048844219D0A048FF
:1038C000844216D09F48844213D09F48844210D02F
:1038D0009E4884420DD09E4884420AD09D4884422E
:1038E00007D09D48844204D040F2BB718C4803F05D
:1038F000A9F955B1042D08D0082D06D00C2D04D0FF
:1039000040F2BC71864803F09DF9012E05D026B126
:1039100040F2BD71824803F095F90120218CA84046
:1039200081432184208CAE403043208470BD70B52B
:1039300004467C4816460D46844210D07A4884429C
:103940000DD0834884420AD08248844207D08248FE
:10395000844204D040F2D971714803F073F945B143
:10396000042D06D0082D04D040F2DA716C4803F023
:1039700069F9042E05D026B140F2DB71684803F0E6
:1039800061F90420218CA84081432184208CAE4021
:103990003043208470BD70B50446624815460E461B
:1039A00084422ED0B4F1804F2BD06048844228D07E
:1039B0005F48844225D05F48844222D05A488442DE
:1039C0001FD05D4884421CD05C48844219D05C48BA
:1039D000844216D05B48844213D05B48844210D0A6
:1039E0005A4884420DD05A4884420AD059488442E9
:1039F00007D05948844204D040F60301484803F0F8
:103A000021F956B1042E08D0082E06D00C2E04D071
:103A100040F60401424803F015F995B1102D10D07D
:103A2000202D0ED0302D0CD0602D0AD0702D08D056
:103A3000502D06D0402D04D040F60501384803F043
:103A400001F90121228C04F11800B1408A4322843B
:103A50008EB1082E0FD0361FC6F34E010844016800
:103A600021F4E041016001684FF6FF7202EA05228D
:103A70001143016070BD00EB5600016821F0700138
:103A8000016001682943F4E770B5044625480D46F6
:103A9000844234D0B4F1804F31D0244884422ED0B7
:103AA000234884422BD02348844228D02B48844288
:103AB00025D02B48844222D01B4884421FD01E4868
:103AC00084421CD01D48844219D01D48844216D01F
:103AD0001C48844213D01C48844210D01B488442A6
:103AE0000DD01B4884420AD01A48844207D01A4895
:103AF000844204D040F62F01094803F0A3F855B1E1
:103B0000012D04D04FF40361054803F09BF8208891
:103B100040F0020002E0208820F00200208070BD0A
:103B2000A0180008002C01400034014000040040AF
:103B300000080040000C0040004C014000500140D3
:103B40000054014000180040001C004000200040CC
:103B50000040014000440140004801400010004086
:103B60000014004070B50446F9480D46844234D034
:103B7000B4F1804F31D0F74884422ED0F6488442C9
:103B80002BD0F648844228D0F548844225D0F54809
:103B9000844222D0F44884421FD0F44884421CD08E
:103BA000F348844219D0F348844216D0F248844244
:103BB00013D0F248844210D0F14884420DD0F1482D
:103BC00084420AD0F048844207D0F048844204D0AE
:103BD00040F64B01EE4803F035F855B1012D04D005
:103BE00040F64C01EA4803F02DF8208840F004002C
:103BF00002E0208820F00400208090E770B50446A1
:103C0000D3480D4684421CD0B4F1804F19D0D1481E
:103C1000844216D0D048844213D0D048844210D079
:103C2000D14884420DD0D14884420AD0D24884423F
:103C300007D0D448844204D040F66301D44803F04E
:103C400001F855B1012D04D040F66401D04802F0CE
:103C5000F9FFA08840F0800002E0A08820F08000FA
:103C6000A0805CE770B50446B9480D46844234D064
:103C7000B4F1804F31D0B74884422ED0B648844248
:103C80002BD0B648844228D0B548844225D0B548C8
:103C9000844222D0B44884421FD0B44884421CD00D
:103CA000B348844219D0B348844216D0B248844203
:103CB00013D0B248844210D0B14884420DD0B148EC
:103CC00084420AD0B048844207D0B048844204D02D
:103CD00040F67D01AE4802F0B5FF082D05D025B1B4
:103CE00040F67E01AA4802F0ADFF208820F00800CF
:103CF000208020882843208011E770B5044694482E
:103D00000D46844222D0B4F1804F1FD091488442A6
:103D10001CD09148844219D09048844216D09048D3
:103D2000844213D08F48844210D08F4884420DD0F3
:103D30008E4884420AD09048844207D091488442F9
:103D400004D040F69D01924802F07CFF95B1102D01
:103D500010D0202D0ED0302D0CD0402D0AD0502D5B
:103D600008D0602D06D0702D04D040F69E01884802
:103D700002F068FFA08820F07000A080A08828438F
:103D8000A080CCE670B5044671480D4684421CD034
:103D9000B4F1804F19D06F48844216D06E488442E7
:103DA00013D06E48844210D06F4884420DD06F48C3
:103DB00084420AD07048844207D07248844204D0BA
:103DC00040F6B401724802F03DFF042D0AD0052DE3
:103DD00008D0062D06D0072D04D040F6B5016C485A
:103DE00002F030FF208920F007002081208928433D
:103DF000208194E670B5044655480D4684421CD097
:103E0000B4F1804F19D05348844216D052488442AE
:103E100013D05248844210D0534884420DD05348A6
:103E200084420AD05448844207D05648844204D081
:103E300040F6C901564802F005FF802D05D025B196
:103E400040F6CA01524802F0FDFE208920F08000B1
:103E5000208120892843208161E670B504463C48D2
:103E60000D46844234D0B4F1804F31D03948844279
:103E70002ED0394884422BD03848844228D0384844
:103E8000844225D03748844222D0374884421FD00C
:103E9000364884421CD03648844219D03548844282
:103EA00016D03548844213D03448844210D0344868
:103EB00084420DD0334884420AD03348844207D02C
:103EC0003248844204D040F6DB01314802F0BAFEA9
:103ED000A58424E670B504461D480D46844234D0BE
:103EE000B4F1804F31D01B4884422ED01A4884420E
:103EF0002BD01A48844228D01948844225D019482A
:103F0000844222D0184884421FD0184884421CD0D2
:103F10001748844219D01748844216D01648844264
:103F200013D01648844210D0154884420DD015484D
:103F300084420AD01448844207D01448844204D0F2
:103F400040F6E901124802F07DFEA585E7E5000094
:103F5000002C01400004004000080040000C00401C
:103F6000001000400014004000340140004C0140AB
:103F7000005001400054014000180040001C004067
:103F80000020004000400140004401400048014042
:103F9000A018000870B50446FE480D4684422ED095
:103FA000B4F1804F2BD0FC48844228D0FB48844297
:103FB00025D0FB48844222D0FA4884421FD0FA48D8
:103FC00084421CD0F948844219D0F948844216D062
:103FD000F848844213D0F848844210D0F74884420D
:103FE0000DD0F74884420AD0F648844207D0F648FC
:103FF000844204D040F6F701F44802F023FEA5867F
:104000008DE570B50446E3480D4684421CD0B4F1FA
:10401000804F19D0E048844216D0E048844213D043
:10402000DF48844210D0DF4884420DD0DE4884420D
:104030000AD0E048844207D0E148844204D040F6E8
:104040000511E24802F0FEFD258768E570B50446DB
:10405000D0480D46844213D0B4F1804F10D0CE48E2
:1040600084420DD0CD4884420AD0CD48844207D046
:10407000CC48844204D040F61311D44802F0E2FD4B
:10408000A5874CE570B50446C2480D46844213D05E
:10409000B4F1804F10D0C04884420DD0BF48844254
:1040A0000AD0BF48844207D0BE48844204D040F6BC
:1040B0002111C64802F0C6FDA4F840502FE570B5A6
:1040C0000446B4480D4684422ED0B4F1804F2BD024
:1040D000B148844228D0B148844225D0B0488442B7
:1040E00022D0B04884421FD0AF4884421CD0AF4891
:1040F000844219D0AE48844216D0AE48844213D0D0
:10410000AD48844210D0AD4884420DD0AC488442C2
:104110000AD0AC48844207D0AB48844204D040F671
:104120008C11AA4802F08EFD55B1B5F5807F07D0FD
:10413000B5F5007F04D040F68D11A44802F082FD51
:10414000208820F440702080208828432080E6E4E6
:1041500010B504468F4884422ED0B4F1804F2BD046
:104160008D48844228D08D48844225D08C48844292
:1041700022D08C4884421FD08B4884421CD08B486C
:10418000844219D08A48844216D08A48844213D087
:104190008948844210D0894884420DD0884884429E
:1041A0000AD08848844207D08748844204D040F629
:1041B0009C11864802F046FDA08E10BD10B5044645
:1041C000744884421CD0B4F1804F19D072488442A4
:1041D00016D07248844213D07148844210D071487E
:1041E00084420DD0704884420AD07248844207D07D
:1041F0007348844204D040F6A911744802F022FDAD
:10420000208F10BD10B504466248844213D0B4F12B
:10421000804F10D0604884420DD0604884420AD05C
:104220005F48844207D05F48844204D040F6B6110C
:10423000664802F007FDA08F10BD10B50446554832
:10424000844213D0B4F1804F10D0534884420DD033
:10425000524884420AD05248844207D0514884428E
:1042600004D040F6C311594802F0ECFCB4F8400009
:1042700010BD10B504464748844234D0B4F1804F95
:1042800031D0454884422ED0444884422BD0444803
:10429000844228D04E48844225D04E48844222D0C1
:1042A000404884421FD0404884421CD03F4884424A
:1042B00019D03F48844216D03E48844213D03E482D
:1042C000844210D03D4884420DD03D4884420AD0FB
:1042D0003C48844207D03C48844204D04FF41D61DE
:1042E0003A4802F0AFFCA08C10BD10B50446294836
:1042F000844234D0B4F1804F31D0274884422ED04C
:10430000264884422BD02648844228D03048844214
:1043100025D03048844222D0224884421FD02248EF
:1043200084421CD02148844219D02148844216D0AE
:104330002048844213D02048844210D01F48844231
:104340000DD01F4884420AD01E48844207D01E4820
:10435000844204D040F6DD111C4802F073FC208D2D
:1043600010BD70B504460B4800260D46844257D058
:10437000B4F1804F54D00848844251D00748844259
:104380004ED0074884424BD01148844248D011484F
:10439000844221E0002C014000040040000800405D
:1043A000000C004000340140004C0140005001402E
:1043B0000054014000180040001C00400020004054
:1043C000004001400044014000480140A01800089E
:1043D000001000400014004022D0994884421FD0B1
:1043E000984884421CD09848844219D09748844207
:1043F00016D09748844213D09648844210D09648ED
:1044000084420DD0954884420AD09548844207D012
:104410009448844204D04FF42061934802F012FC87
:10442000012D1ED0022D1CD0042D1AD0082D18D01D
:10443000102D16D0202D14D0402D12D0802D10D04C
:10444000B5F5007F0DD0B5F5806F0AD0B5F5006FDA
:1044500007D0B5F5805F04D040F60121824802F014
:10446000F1FB208A284200D00126304644E470B592
:1044700004467E480D46844234D0B4F1804F31D09A
:104480007B4884422ED07B4884422BD07A48844299
:1044900028D07A48844225D07948844222D068487E
:1044A00084421FD0674884421CD06748844219D098
:1044B0006648844216D06648844213D065488442D8
:1044C00010D0654884420DD0644884420AD06448C4
:1044D000844207D06348844204D040F62B216248CE
:1044E00002F0B0FB15F4614F00D125B940F62C2144
:1044F0005D4802F0A7FBE843208242E470B5044621
:104500005A4800260D46844234D0B4F1804F31D051
:10451000574884422ED0574884422BD05648844274
:1045200028D05648844225D05548844222D0444859
:1045300084421FD0434884421CD04348844219D04F
:104540004248844216D04248844213D041488442B3
:1045500010D0414884420DD0404884420AD040489F
:10456000844207D03F48844204D040F64D213E4863
:1045700002F068FB012D12D0022D10D0042D0ED0B8
:10458000082D0CD0102D0AD0202D08D0402D06D09B
:10459000802D04D040F64E21334802F053FB218A8F
:1045A000A089294200EA050001D000B10126304669
:1045B0001FE470B504462D480D46844234D0B4F152
:1045C000804F31D02A4884422ED02A4884422BD0B2
:1045D0002948844228D02948844225D0284884424A
:1045E00022D0174884421FD0164884421CD0164857
:1045F000844219D01548844216D01548844213D0FD
:104600001448844210D0144884420DD01348844288
:104610000AD01348844207D01248844204D040F69E
:104620007721114802F00EFB280A00D125B940F687
:1046300078210D4802F006FBE84320820CE40000DC
:1046400000340140004C0140005001400054014042
:1046500000180040001C00400020004000400140C5
:104660000044014000480140A0180008002C01400F
:104670000004004000080040000C00400010004012
:10468000001400402DE9F047FD4DFE4EFE4FDFF8CF
:10469000FC83DFF8FC930446A8420BD0B44209D057
:1046A000BC4207D0444505D04C4503D08521F9A034
:1046B00002F0C8FAAC420AD101218C032046FCF773
:1046C00023FE2046BDE8F0470021FCF71DBEB442A2
:1046D00002D101214C040DE0BC4202D101218C0425
:1046E00008E0444502D10121CC0403E04C450AD145
:1046F00001210C052046FCF725FE2046BDE8F047C9
:104700000021FCF71FBEBDE8F0872DE9F043DC4E29
:10471000DC4FDFF8748385B00D460446B0420DD0FF
:10472000BC420BD0444509D0D848844206D0D84872
:10473000844203D0B821D7A002F084FA2868E04967
:10474000401E884203D3B921D2A002F07BFAA88888
:104750004FF4805928B1484503D0BA21CDA002F0CA
:1047600071FAE88858B1484509D0B0F5005F06D025
:10477000B0F5405F03D0BB21C6A002F063FA2889E0
:1047800048B1B0F5806F06D0B0F5C06F03D0BC2142
:10479000C0A002F057FA688930F00C0100D118B9B6
:1047A000BD21BCA002F04EFAA889C0B1B0F5807F4F
:1047B0000BD0B0F5007F08D0B0F5407F05D0BE210A
:1047C000B4A002F03FFAA88948B1B44207D0BC4275
:1047D00005D0444503D0C221AEA002F033FA208AAE
:1047E0004CF6FF710840E98801432182A1894EF609
:1047F000F3100140A8882A8910436A890A431043AC
:10480000A081A08A4FF6FF410840A9890143A182F7
:104810006846FCF7DBFCB44201D1039800E0029843
:10482000A189090400EBC00101EB0010296801D542
:10483000490000E08900B0FBF1F06422B0FBF2F126
:1048400009010B096FF018056B4300EB8300A38986
:104850001D044FF0320306D503EBC000B0FBF2F0AD
:1048600000F0070005E003EB0010B0FBF2F000F0F1
:104870000F000843208105B0BDE8F0834FF41651C6
:10488000016000218180C18001810C2242818181EF
:10489000704770B505467A480C4685420AD079487B
:1048A000854207D07848854204D04FF4997179A0A9
:1048B00002F0C8F9208838B1B0F5006F04D040F29A
:1048C000331174A002F0BEF9608838B1B0F5806F82
:1048D00004D04FF49A716FA002F0B4F9A08838B1F7
:1048E000B0F5007F04D040F235116AA002F0AAF9B9
:1048F000E08838B1B0F5807F04D04FF49B7165A09B
:1049000002F0A0F9298A4FF2FF0001402088628856
:10491000E3881043A2881A4310430843288270BDDD
:104920000021018041808180C180704770B50446BC
:1049300053480D46844210D0524884420DD052480C
:1049400084420AD05148844207D05148844204D05E
:104950004FF4B1714FA002F075F955B1012D04D09B
:1049600040F263114BA002F06DF9A08940F40050B1
:1049700002E0A08920F40050A08170BD2DE9F0472D
:10498000DFF8FC80DFF8FC90DFF8FCA016460C4650
:10499000054640450ED04D450CD055450AD03B4804
:1049A000854207D03A48854204D040F2891139A0A7
:1049B00002F048F940F66A17282C1CD0A4F5E060F4
:1049C000273818D0A4F5C060263814D0A4F5A0600C
:1049D000253810D0A4F5806024380CD0A4F50060F0
:1049E000463808D0BC4206D0602C04D04FF4C571C4
:1049F00028A002F027F936B1012E04D040F28B1125
:104A000024A002F01FF9BC420AD1454508D04D450B
:104A100006D0554504D040F28F111EA002F012F9C5
:104A200004F01F020120C4F342119040012906D076
:104A3000022906D0143529682EB1014304E00C3553
:104A4000F9E71035F7E7814329605CE670B5044665
:104A50000B4816460D46844210D00A4884420DD0B9
:104A6000094884420AD00948844207D00848844251
:104A700004D040F2C31107A002F0E4F822E00000E5
:104A8000003801400044004000480040004C004015
:104A9000005000402E2E5C4C6962726172795C504D
:104AA00065726970686572616C5C7372635C737463
:104AB0006D3332663130785F75736172742E6300C6
:104AC00020AA440035F0C00000D12DB94FF4E271A6
:104AD000AFF2400002F0B6F856B1012E05D040F218
:104AE000C511AFF2500002F0ADF8A08A284301E0F2
:104AF000A08AA843A08270BD70B50446FC480D464C
:104B0000844211D0FB4884420ED0FB4884420BD033
:104B1000FA48844208D0FA48844205D040F2DF11B6
:104B2000AFF2900002F08EF80F2D05D94FF4F0711E
:104B3000AFF2A00002F086F8208A20F00F00208259
:104B4000208A2843208270BD70B50446E8480D468F
:104B5000844211D0E74884420ED0E74884420BD00B
:104B6000E648844208D0E648844205D04FF4FB7101
:104B7000AFF2E00002F066F845B1B5F5006F05D080
:104B800040F2F711AFF2F40002F05CF8A08920F4D3
:104B90000060A081A0892843A08170BD70B5044643
:104BA000D3480D46844211D0D24884420ED0D24818
:104BB00084420BD0D148844208D0D148844205D0E9
:104BC00040F20921AFF2341002F03CF85DB1012D42
:104BD00005D040F20A21AFF2441002F033F8A08968
:104BE00040F0020002E0A08920F00200A08170BD28
:104BF00070B50446BE480D46844211D0BD4884427B
:104C00000ED0BD4884420BD0BC48844208D0BC487A
:104C1000844205D040F22621AFF2881002F012F84B
:104C20003DB1202D05D040F22721AFF2981002F0BF
:104C300009F8208A20F020002082208A2843208240
:104C400070BD70B50446AA480D46844211D0A948EB
:104C500084420ED0A84884420BD0A848844208D091
:104C6000A748844205D040F23921AFF2D81001F0B4
:104C7000E9FF5DB1012D05D040F23A21AFF2EC1011
:104C800001F0E0FF208A40F4804002E0208A20F416
:104C90008040208270BD70B5044695480D46844220
:104CA00011D0944884420ED0934884420BD093484C
:104CB000844208D09248844205D040F25321AFF29A
:104CC0002C2001F0BFFFB5F5007F05D34FF415711F
:104CD000AFF2402001F0B6FFC5F30800A08070BD20
:104CE00010B504468248844211D0824884420ED0D6
:104CF000814884420BD08148844208D08048844255
:104D000005D04FF41971AFF2742001F09BFFA08819
:104D1000C0F3080010BD10B504467548844211D098
:104D2000744884420ED0744884420BD07348844245
:104D300008D07348844205D04FF41D71AFF2AC2007
:104D400001F080FFA08940F00100A08110BD70B586
:104D5000044667480D4684420BD06648844208D01A
:104D60006548844205D04FF42171AFF2D82001F09C
:104D700069FF208BC0B22083208B40EA052020836E
:104D800070BD70B504465A480D46844211D059484A
:104D900084420ED0584884420BD05848844208D0F0
:104DA0005748844205D04FF42671AFF2183001F015
:104DB00049FF208B00F47F402083208B28432083F1
:104DC00070BD70B504464A480D4684420BD0494830
:104DD000844208D04848844205D040F2AB21AFF26B
:104DE0004C3001F02FFF5DB1012D05D04FF42B7138
:104DF000AFF2603001F026FFA08A40F0200002E010
:104E0000A08A20F02000A08270BD70B5044638480A
:104E10000D4684420BD03748844208D0364884423D
:104E200005D04FF43171AFF2943001F00BFF5DB15A
:104E3000012D05D040F2C521AFF2A83001F002FFEC
:104E4000A08A40F0100002E0A08A20F01000A082AA
:104E500070BD70B5044626480D46844211D02548E1
:104E600084420ED0244884420BD02448844208D087
:104E70002348844205D040F2DE21AFF2E83001F051
:104E8000E1FE5DB1012D05D040F2DF21AFF2FC3033
:104E900001F0D8FEA08A40F0080002E0A08A20F0CD
:104EA0000800A08270BD70B5044611480D468442CA
:104EB00011D0104884420ED00F4884420BD00F48C6
:104EC000844208D00E48844205D040F2FD21AFF262
:104ED0003C4001F0B7FEADB1012D05D040F2FE21FE
:104EE000AFF2504001F0AEFEA08940F400400CE06B
:104EF000003801400044004000480040004C0040A1
:104F000000500040A089C0F30E00A08170BD70B5B4
:104F10000446D7480D46844211D0D64884420ED06C
:104F2000D54884420BD0D548844208D0D448844226
:104F300005D04FF44671AFF2A44001F083FE5DB19D
:104F4000012D05D040F21931AFF2B84001F07AFEE0
:104F5000A08A40F4006002E0A08A20F40060A082F1
:104F600070BD70B50446C2480D46844211D0C14898
:104F700084420ED0C04884420BD0C048844208D03E
:104F8000BF48844205D040F23531AFF2F84001F01D
:104F900059FE042D06D02DB140F23631AFF20C503F
:104FA00001F050FEA08A20F00400A082A08A2843CD
:104FB000A08270BD70B50446AD480D46844211D044
:104FC000AC4884420ED0AC4884420BD0AB488442FB
:104FD00008D0AB48844205D04FF45271AFF24C5028
:104FE00001F030FE5DB1012D05D040F24931AFF244
:104FF0005C5001F027FEA08A40F0020002E0A08A87
:1050000020F00200A08270BD2DE9F047984F0026E5
:10501000DFF86082DFF860920C460546B8420FD098
:1050200045450DD04D450BD09448854208D0944855
:10503000854205D040F26E31AFF2A85001F002FE79
:10504000012C22D0802C20D0402C1ED0202C1CD013
:10505000102C1AD0B4F5807F17D0B4F5007F08D09B
:10506000082C12D0042C10D0022C0ED040F26F313C
:1050700007E0BD4209D0454507D04D4505D040F277
:105080007331AFF2F05001F0DDFD2888204200D0EE
:1050900001263046D9E42DE9F041754E754FDFF811
:1050A000D8810D460446B0420FD0BC420DD04445D5
:1050B0000BD07248844208D07148844205D040F237
:1050C0009E31AFF2306001F0BDFD35F4587000D173
:1050D0002DB940F29F31AFF2446001F0B3FDA80555
:1050E0000BD5B44209D0BC4207D0444505D040F2AC
:1050F000A331AFF2606001F0A5FDE8432080BDE878
:10510000F0812DE9F047DFF868810026DFF864912F
:10511000DFF864A10C46054640450FD04D450DD043
:1051200055450BD05548854208D05548854205D095
:1051300040F2C131AFF2A46001F084FD282C34D0DC
:10514000A4F5E06040F66A17273820D0A4F5C060C7
:1051500026381CD0A4F5A060253818D0A4F58060AE
:10516000243814D0A4F50060463810D0BC420ED0CC
:10517000B4F5587F19D0B4F5187F16D0B4F5B07FC8
:1051800013D040F2C231AFF2F46001F05BFDBC42DB
:105190000BD1454509D04D4507D0554505D040F2C6
:1051A000C631AFF2107001F04DFD04F01F02012373
:1051B000C4F3421103FA02F001290FD002290FD0E3
:1051C000A98A4FEA142203FA02F32A88014202EA6A
:1051D000030201D002B10126304636E4A989F0E786
:1051E000298AEEE72DE9F047214EDFF88880DFF8C5
:1051F00088900D460446B0420FD044450DD04C4532
:105200000BD01E48844208D01D48844205D040F28D
:105210000A41AFF2807001F015FDA5F5C06040F6BF
:105220006A1726380FD0A5F5A06025380BD0A5F554
:105230000060463807D0BD4205D040F20B41AFF2C6
:10524000AC7001F0FFFCBD420BD1B44209D0444523
:1052500007D04C4505D040F20F41AFF2C87001F0C5
:10526000F1FC290A01208840C043208012E7000099
:10527000003801400044004000480040004C00401D
:1052800000500040F8B5DFF8BCC04FF480667700EE
:105290002D4CA0EB0C05604525D00ADC2B4D4519A3
:1052A0000FD0B54211D0BD4213D1A56945F010050C
:1052B0000EE0B5421BD0BD421DD0B5F5406F08D100
:1052C0001DE0A56945F0040502E0A56945F0080563
:1052D000A5618DF80330ADF800108DF80220694605
:1052E000FBF722F9F8BDA56945F02005F0E7A569AF
:1052F00045F04005ECE7A56945F08005E8E7A569BC
:1053000045F48075E4E789B20AB1FBF785BAFBF78B
:10531000CFBA89B20AB1FBF77FBAFBF7C9BA806886
:10532000084000D001207047C068084000D001202C
:10533000704782684A4082607047C2684A40C260D3
:1053400070470000001401400010024000F8FEBF4A
:1053500010B5FAF7B1FF0B490120087010BD08B570
:10536000084B1B78002B0BD08DF800008DF8011036
:105370008DF8022001208DF803006846FAF7B6FF89
:1053800008BD00001400002070B51D4D044631B169
:105390006FF00400FBF729F8E008286003E0042020
:1053A000FBF723F82C604FF0E0210220086170BD6C
:1053B00013490968002911D048434FF0E0214861A2
:1053C00000228A61086940F0010008610869C00391
:1053D000FCD5086920F0010008618A61704730B58A
:1053E000044607480068002809D000234FF47A7566
:1053F00003E02846FFF7DCFF5B1CA342F9D330BD76
:10540000180000202DE9FE430E4682491F4615462E
:105410000446401A0B15CA14DDF828808C426AD065
:1054200018DC7D49A4EB01008C4232D00ADCB4F1D7
:10543000804F26D07948201826D0984236D10121B5
:10544000042023E0984227D0904228D0B0F5406F46
:105450002CD14DE0B0F5983F41D008DC98424DD0BA
:10546000B0F5883F0AD0B0F58C3F1FD11AE0B0F5F7
:105470009A3F37D0B0F59C3F18D136E00121104655
:1054800012E00121084601E001210220FBF71EFF86
:105490000CE001210820F9E701211020F6E70121A5
:1054A0002020F3E701214803FBF7F2FE761EADF85A
:1054B00006806D1EADF80060ADF80450ADF80270C6
:1054C00069462046FCF79DF8012211462046FDF76B
:1054D00016F801212046FCF798FFBDE8FE83012164
:1054E000C804E1E701210805DEE701214805DBE703
:1054F00001214020CAE701218020C7E701210802DD
:10550000C4E72DE9F04186B00DF1300C80469CE8EF
:105510009100DDE90F6500904046FFF773FFADF89D
:105520000470ADF80660ADF80C5034B1012C0DD00C
:10553000022C14D0032C23D11AE001A94046FCF719
:10554000EBF808214046FDF7E6FD19E001A94046C9
:10555000FCF7CEF908214046FDF720FE10E001A936
:105560004046FCF777FA08214046FDF74CFE07E07D
:1055700001A94046FCF715FB08214046FDF76BFEEC
:1055800001214046FDF7F1FC01214046FCF73DFFBB
:1055900006B0BDE8F0812DE9FF470DF1300A8146E4
:1055A0009AE811010DF13C0A9AE8E00000904846A3
:1055B000FFF728FFADF80440ADF80850ADF80680BD
:1055C000ADF80A60ADF80C7001A94846FCF7C0FCC4
:1055D000012211464846FCF792FF34B1042C07D053
:1055E000082C10D00C2C08D110E00122022101E07F
:1055F000012204214846FCF782FF01214846FCF7BE
:1056000004FFBDE8FF8701220821F3E701221021F2
:10561000F0E70000001C0040000C004000FCFFBF51
:105620002DE9FF470F46DDE90C941B498046DDF864
:1056300038A01D46164640180AD0B0F5806F0AD033
:10564000B0F5744F0BD101218803FBF721FE06E072
:105650000121480401E001218804FBF737FEADF881
:105660000460ADF808900097ADF80650ADF80CA0B6
:10567000ADF80A4069464046FFF747F80121404629
:10568000FFF754F9600705D5012240F22551404645
:10569000FFF774F9BDE8FF8700BCFFBF1CB5284CBD
:1056A000606A002809DA27A10520CDE900012A4B0C
:1056B0002AA232A1042002F050FE606A400009D5FF
:1056C0002FA10820CDE90001234B24A22BA1042007
:1056D00002F043FE606A800009D52FA10B20CDE9BE
:1056E00000011D4B1DA225A1042002F036FE606AB8
:1056F000C00009D530A10E20CDE90001164B17A23C
:105700001EA1042002F029FE606A000109D52FA124
:105710001120CDE90001104B10A218A1042002F0C5
:105720001CFE606A400109D52CA11420CDE90001BE
:10573000094B0AA211A1042002F00FFE1CBD0000BB
:1057400000100240312E4C6F772D706F77657220FC
:10575000726573657400000048BC00082E2E5C4C16
:105760006962726172795C53797374656D5C5372AE
:10577000635C73797374656D2E6300004F3A0000AB
:10578000322E57696E646F77207761746368646F37
:105790006720726573657400332E28496E646570E6
:1057A000656E64656E74207761746368646F6720EA
:1057B0007265736574000000342E536F66747761F0
:1057C000726520726573657400000000352E504FBD
:1057D000522F50445220726573657400362E504922
:1057E0004E2072657365740010213F48FFF797BD26
:1057F00020213D48FFF793BD3EB502F00BFC3B4C2A
:10580000032811D0042824D0052826D006280AD140
:10581000227837A11A208DE807003E4B3EA245A111
:10582000002002F09AFD3EBD227843A110208DE8B1
:105830000700384B38A23FA1002002F08EFD4648F9
:10584000217850F821000028EDD003B0BDE83040A9
:105850000047227841A11420DDE7227847A11720D4
:10586000D9E770B5204C4823012230212046FFF7AC
:1058700009FD30212046FBF71BF80122AFF297010A
:10588000474802F0ADFB0122AFF29B0144482830AB
:1058900002F0A6FB424E022505EB850006EBC00494
:1058A000AFF2AB02283C0321204602F0AFFB2046BA
:1058B000AFF2BB02042102F0A9FB2046AFF2C702FF
:1058C000052102F0A3FB2046AFF2D302062102F02D
:1058D0009DFB204602F076FC6D1E15F0FF05DBD126
:1058E00070BD704702F08CBC000C01400815002010
:1058F0002A2A2A3E206B65792564206C6F6E67200A
:10590000707265737320686F6C6421203C2A2A2AA8
:105910000000000055BC00082E2E5C4C69627261CC
:1059200072795C44726976655C5372635C6B65790D
:105930002E6300004F3A00002D2D2D3E206B65791F
:1059400025642073696E676C6520636C69636B21E5
:10595000203C2D2D2D0000001C0000202A2A2A3E6C
:10596000206B6579256420646F75626C6520636CBB
:1059700069636B21203C2A2A2A0000002D2D2D3E30
:10598000206B65792564206C6F6E6720707265737B
:105990007320737461727421203C2D2D2D00000042
:1059A000581500201023012251030B48FFF76ABC51
:1059B0000A49D1F8B40118B10020C1F8B401704708
:1059C0000120FAE705490020C1F8B40170470349F6
:1059D0000120C1F8B40170470010014000002242CC
:1059E00070475C490A885206FCD55A4AC1B2121D5A
:1059F000118070473EB5584D0446012218235102CC
:105A00002846FFF73FFC0122042391022846FFF7B6
:105A100039FC00220C23CDE90023134621464D48D2
:105A20000292FFF7FDFD03B00322BDE830401146AE
:105A30002520FFF794BC10B5484C2078002804D0EE
:105A4000606818B180470020207010BDBDE810408C
:105A5000434944A004F03AB910B53E4C40F22551F8
:105A60002046FFF74EFB002808D02046FFF738F904
:105A7000C1B2BDE810403D4801F0DEBF10BD354960
:105A8000091D0880081F01884906FCD5704700B52C
:105A9000024602E0FFF7F3FF521C10780028F9D10C
:105AA00000BD3EB50C46030003D52D20FFF7E7FFF0
:105AB0005B4200226D4653B193FBF4F004FB1030BF
:105AC00093FBF4F3A854521CD2B20A2AF3D3234B0B
:105AD0000833521ED2B204D3A856185CFFF7CFFF8A
