:020000040800F2
:10000000480700202902000859040008510400088C
:100010005504000875030008D70900080000000017
:1000200000000000000000000000000015060008AD
:100030007903000800000000E90400082D0700080B
:10004000430200084302000843020008430200087C
:10005000430200084302000843020008430200086C
:10006000430200084302000843020008430200085C
:10007000430200084302000843020008430200084C
:10008000430200084302000843020008430200083C
:10009000430200084302000843020008430200082C
:1000A000430200084302000843020008430200081C
:1000B000430200084302000843020008430200080C
:1000C00043020008430200084302000843020008FC
:1000D0004302000899070008430200084302000891
:1000E00043020008430200084302000843020008DC
:1000F00043020008430200084302000843020008CC
:1001000043020008430200084302000843020008BB
:1001100043020008430200084302000843020008AB
:10012000430200084302000843020008430200089B
:10013000430200084302000843020008430200088B
:10014000430200084302000843020008430200087B
:10015000430200084302000843020008430200086B
:10016000430200084302000843020008430200085B
:10017000430200084302000843020008430200084B
:10018000430200084302000800F002F800F03CF8C7
:100190000AA090E8000C82448344AAF10107DA45E2
:1001A00001D100F031F8AFF2090EBAE80F0013F0F8
:1001B000010F18BFFB1A43F0010318472C0C000075
:1001C0004C0C0000103A24BF78C878C1FAD8520706
:1001D00024BF30C830C144BF04680C6070470000C1
:1001E0000023002400250026103A28BF78C1FBD840
:1001F000520728BF30C148BF0B6070471FB500F0E1
:10020000E5FD1FBD10B510BD00F06EF81146FFF7FB
:10021000F5FF00F06FFD00F0A0F803B4FFF7F2FF68
:1002200003BC00F057FD000009488047094800471B
:10023000FEE7FEE7FEE7FEE7FEE7FEE7FEE7FEE796
:10024000FEE7FEE704480549054A064B70470000F3
:1002500031070008890100084801002048070020F4
:100260004803002048030020704700000FB40449F1
:1002700010B503AA029800F009F810BC5DF814FB51
:10028000140000207047704770477047074B70B5E7
:100290000D467B4400F011F80446284600F020F893
:1002A00010B14FF0FF3070BD204670BD430A000012
:1002B00001694A1C02610878704700B58FB0CDE92A
:1002C00001310021059105497944CDE9031011461A
:1002D000684600F02EF80FB000BD0000E5FFFFFFFC
:1002E000007B00F080007047754600F03FF8AE4696
:1002F00005006946534620F00700854618B020B532
:10030000FFF7A0FFBDE820404FF000064FF00007C8
:100310004FF000084FF0000B21F00701AC46ACE8AD
:10032000C009ACE8C009ACE8C009ACE8C0098D461A
:1003300070472DE9F04106460024D6E90170F568C2
:100340008046304603E04146B847641C3046A84723
:100350000028F8D12046BDE8F08110B50446AFF37F
:1003600000802046BDE81040FFF757BF00487047A7
:10037000E800002000BFFEE77047F0B50A46002104
:100380000023002400BF3DE0012505FA01F31568B4
:1003900005EA03049C4234D105684F000326BE40A1
:1003A000B543056015794E00B540066835430560D4
:1003B0001579012D02D01579022D16D185684F00CF
:1003C0000326BE40B543856055794E00B54086682A
:1003D00035438560456801268E40B54345604568D4
:1003E00096798E40B6B235434560C5684F00032606
:1003F000BE40B543C560D5794E00B540C6683543AB
:10040000C560491C1029BFD3F0BDF0B500230024FE
:100410004D07ED0E02FA05F3CE1000F1200555F858
:1004200026504E07F70E0F26BE40B543CF1000F101
:10043000200646F82750CE1000F1200555F826502A
:1004400045EA0304CE1000F1200545F82640F0BD32
:1004500000BFFEE700BFFEE77047000070B5002157
:1004600000230F22C4781CB3174C246804F4E06402
:10047000C4F5E064C4F30721C1F10404E3B20A4106
:1004800044789C40E1B28478144021430C07210E4B
:100490000E4C05786155047804F01F050124AC402A
:1004A00005786D11AD0005F1E025C5F8004109E0C2
:1004B000047804F01F050124AC40054D0678761140
:1004C00045F8264070BD00000CED00E000E400E0BF
:1004D00080E100E002490143024A116070470000D8
:1004E0000000FA050CED00E07047000029B1064A53
:1004F00012680243044B1A6004E0034A1268824304
:10050000014B1A60704700003038024029B1064A9A
:1005100012680243044B1A6004E0034A12688243E3
:10052000014B1A607047000044380240F0B50021CA
:1005300000220024022500260223324F3F6807F0E4
:100540000C0121B1042905D0082937D105E02E4F2F
:10055000076036E02D4F076033E02A4F3F1F3F68AA
:10056000C7F38056274F3F1F3F6807F03F036EB128
:10057000264FB7FBF3F7DFF88CC0ACF1040CDCF8C6
:1005800000C0CCF3881C07FB0CF40CE01E4FB7FB3B
:10059000F3F7DFF870C0ACF1040CDCF800C0CCF36A
:1005A000881C07FB0CF4174F3F1F3F68C7F3014738
:1005B0007F1C7D00B4FBF5F7076002E0124F076077
:1005C00000BF00BF0F4F3F6807F0F0010909104F4F
:1005D0007A5C0768D74047600A4F3F6807F4E051EC
:1005E000890A0B4F7A5C4768D7408760054F3F68A0
:1005F00007F46041490B064F7A5C4768D740C760F3
:10060000F0BD0000083802400024F40000127A0017
:1006100000000020704700000CB500200190009001
:100620003448006840F480303249086000BF3148E7
:10063000006800F4003000900198401C0190009880
:1006400018B90198B0F5A04FF1D12A48006800F41C
:10065000003010B10120009001E0002000900098CF
:10066000012846D123484030006840F0805021499D
:10067000403108602048006840F440401E4908604E
:100680001C48083000681B490831086008460068AB
:1006900040F4004008600846006840F4A05008603C
:1006A0001648091F0860081F006840F08070091F85
:1006B000086000BF0F48006800F000700028F9D003
:1006C00040F205700E4908600A480830006820F0C2
:1006D00003000849083108600846006840F002003D
:1006E000086000BF03480830006800F00C000828CC
:1006F000F8D10CBD0038024000700040085440079B
:10070000003C0240042808D14FF0E021096941F083
:1007100004014FF0E022116107E04FF0E021096988
:1007200021F004014FF0E022116170477047000092
:1007300010B51548006840F470001349086013486C
:10074000006840F001001149086000200F4908319D
:1007500008600E4800680E4908400C4908600D48C2
:10076000091D0860081F006820F48020091F086028
:10077000002006490C310860FFF74EFF4FF0006083
:1007800001498039086010BD88ED00E00038024062
:10079000FFFFF6FE1030002410B540F225511D4831
:1007A00000F057F810B31B4800F00CF9C4B21A4817
:1007B000008800F40040C8B91748008800F4804061
:1007C00060B10A2C03D000201349088020E01248B1
:1007D000008840F400401049088019E00D2C06D133
:1007E0000D48008840F480400B49088010E00A481A
:1007F0000088C0F30D0009490C5407480088401CCC
:100800000549088008460088C72801DD00200880C7
:1008100010BD000000100140180000202000002042
:1008200021B1828942F40052828104E082894DF62E
:10083000FF731A408281704702460020B1F5007FA5
:1008400000D100BF13880B400BB1012000E0002055
:10085000704770B50246002400230025002040F6B2
:100860006A16B14200D100BFC1F3421501F01F0367
:10087000012606FA03F3012D02D19689334006E0E2
:10088000022D02D1168A334001E0968A33400C12C1
:10089000012606FA04F41688344013B10CB1012085
:1008A00000E0002070BDF0B50346002400260025BE
:1008B000002040F66A17B94200D100BF1846C1F3C4
:1008C000421401F01F06012707FA06F5012C01D199
:1008D0000C3004E0022C01D1103000E014301AB1C9
:1008E00007682F43076002E00768AF430760F0BD69
:1008F0002DE9FF4705460E460024A14600BFA0464D
:10090000B08900B100BF2C8A24F44054F08804431D
:100910002C82AC8941F20C608443B0883189084351
:10092000718908430443AC81AC8A24F44074B089D3
:100930000443AC826846FFF7F9FD2048854202D0A7
:100940001F48854202D1DDF80C9001E0DDF80890E7
:10095000A88900F4004040B109EBC90000EB091080
:1009600031684900B0FBF1F707E009EBC90000EB83
:10097000091031688900B0FBF1F76420B7FBF0F093
:1009800004012009642101FB1078A88900F40040CB
:1009900040B1322000EBC800B0FBF1F000F00700DE
:1009A000044308E0322000EB08106421B0FBF1F0B2
:1009B00000F00F0004432C81BDE8FF8700100140C8
:1009C0000014014001468888C0F308007047C1F355
:1009D00008028280704700BFFEE700001FB54FF499
:1009E000A060FFF777FDA8226FF004012E4800F009
:1009F000F9F8012211462D4800F062F80122102179
:100A00002B4800F09BF80720012100220223CDE9AA
:100A10000032CDE9021009234A022649244800F099
:100A2000B1F80720012100220223CDE90032CDE9EF
:100A300002100A238A021F491D4800F0A3F80C2067
:100A40000021009101910B464FF4E132CDE90210F3
:100A50001949174800F07BF801221749144800F0A3
:100A600064F8012340F225521349114800F0ACF814
:100A7000012003231A46252100900D4800F041F87B
:100A800001222021094800F01BF801200021022248
:100A90000346CDE9002102904FF4C06207490348A4
:100AA00000F017F81FBD000010000020110000200A
:100AB000120000200000024000100140001402401B
:100AC00070B506460C46154629462046FFF70EFD32
:100AD00070BD2DE9FC4782460C4615461E46DDE9F1
:100AE0000B890A9F00958DF804608DF805708DF8CC
:100AF00006808DF8079069462046FFF73EFCBDE86A
:100B0000FC872DE9F84380460C4615461E46089F93
:100B10008DF800408DF801508DF802608DF803705B
:100B20006846FFF79BFCBDE8F88370B506460C46A7
:100B3000154629462046FFF773FE70BD70B5064680
:100B40000C46154629462046FFF7E0FC70BD2DE90E
:100B5000FF5F83460C4615461E460EAF97E880079A
:100B60000095ADF80460ADF80670ADF80880ADF8FA
:100B70000C90ADF80AA069462046FFF7B9FEBDE823
:100B8000FF9F00002DE9FC5F83460C4615461E467C
:100B90000CAF97E88007524631462046FFF735FCF8
:100BA000084903C9CDE9000100958DF805708DF85D
:100BB00006808DF8079069462046FFF7DEFBBDE80A
:100BC000FC9F0000E00D00082DE9F04107460C46AF
:100BD00015461E46324629462046FFF764FEBDE80C
:100BE000F081000070B506460D4614462846FFF712
:100BF00089FD681D98B9E11704EB5171C1F3C70174
:100C00000E4A11701046007800EB4001C1EBC01095
:100C10004FF6FF7101EAC000094908800CE007485F
:100C20000470007800EB4001C1EBC0104FF6FF717B
:100C300001EAC0000249088070BD00001A000020CF
:100C40001C000020F0B507460C464FF4077094FBDB
:100C5000F0F0C5B24FF4077094FBF0F100FB1140C7
:100C600086B206E04FF40771384600F00BF8681EB4
:100C7000C5B2002DF6D11EB13146384600F002F85B
:100C8000F0BD000010B50246114B1B884B434FF0DE
:100C9000E02463610023A36123461B6943F0010341
:100CA000236100BF4FF0E023186900F001031BB17E
:100CB00000F48033002BF5D04FF0E0231B6923F0C4
:100CC00001034FF0E02423610023A36110BD000065
:100CD0001C00002000BF704700BF054A128802F0C8
:100CE0004002002AF9D0C2B2014B9A80704700003E
:100CF000001001400025FFF771FE3FE0204800880A
:100D000000F40040E8B11E4806781EA0FFF7AEFAD6
:100D100000240DE02048015D2048FFF758FE00BF89
:100D200040211E48FFF788FD0128F9D1601CC4B29C
:100D3000B442EFDB1AA0FFF799FA002010490880AF
:100D40001CE0681C85B2C82095FBF0F100FB115037
:100D500010B915A0FFF78AFA1E2095FBF0F100FBF1
:100D6000115038B91748006808B9012000E0002088
:100D7000144908600A211448FFF764FFBEE7000029
:100D8000180000200D0AC4FAB7A2CBCDB5C4CFFB22
:100D9000CFA2CEAA3A0D0A00200000200010014088
:100DA0000D0A0D0A00000000C7EBCAE4C8EBCAFD3B
:100DB000BEDD2CD2D4BBD8B3B5BCFCBDE1CAF80DA6
:100DC0000A000000A4824242100000204FF0407050
:100DD000E1EE100A70470000000000000200000071
:100DE0000000000002000000080E000800000020C3
:100DF00020000000C4010008280E00082000002088
:100E000028070000E00100080000000001020304C0
:100E100001020304060708090000000000000000AA
:080E20000000000000000000CA
:040000050800018965
:00000001FF
