:020000040800F2
:10000000B0060020290200087719000859180008D6
:10001000751900081F040008451F000800000000B3
:100020000000000000000000000000007B19000834
:100030002104000800000000791900087D1900085B
:10004000430200084302000843020008430200087C
:10005000430200084302000843020008430200086C
:10006000430200084302000843020008430200085C
:10007000430200084302000843020008430200084C
:10008000430200084302000843020008430200083C
:10009000430200084302000843020008430200082C
:1000A000430200084302000843020008430200081C
:1000B000430200084302000843020008430200080C
:1000C00043020008430200084302000843020008FC
:1000D00043020008430200084302000843020008EC
:1000E00043020008430200084302000843020008DC
:1000F00043020008251A00084302000843020008D2
:1001000043020008430200084302000843020008BB
:1001100043020008430200084302000843020008AB
:10012000430200084302000843020008430200089B
:10013000430200084302000843020008430200088B
:10014000430200084302000843020008430200087B
:10015000430200084302000843020008430200086B
:10016000430200084302000843020008430200085B
:100170004302000843020008430200080000000098
:10018000430200084302000800F002F800F03CF8C7
:100190000AA090E8000C82448344AAF10107DA45E2
:1001A00001D100F031F8AFF2090EBAE80F0013F0F8
:1001B000010F18BFFB1A43F001031847E81D0000A8
:1001C000081E0000103A24BF78C878C1FAD8520738
:1001D00024BF30C830C144BF04680C6070470000C1
:1001E0000023002400250026103A28BF78C1FBD840
:1001F000520728BF30C148BF0B6070471FB501F0E0
:10020000C3FE1FBD10B510BD00F0CFF81146FFF7BB
:10021000F5FF01F0A9FE00F0EDF803B4FFF7F2FFDF
:1002200003BC00F0F5F80000094880470948004782
:10023000FEE7FEE7FEE7FEE7FEE7FEE7FEE7FEE796
:10024000FEE7FEE704480549054A064B70470000F3
:10025000091A000889010008B0000020B00600203B
:10026000B0020020B002002053EA020C00F06980C6
:100270002DE9F04B4FF00006002B1FBFB3FA83F5BA
:1002800003FA05F424FA05F65E4012BF1643B2FAEB
:1002900082F502FA05F4C5F120051EBF22FA05FC1D
:1002A00044EA0C04203556EA044C4FEA144418BFC3
:1002B000641C4FF000084FF00009904271EB030CF2
:1002C00039D3002919BFB1FA81F701FA07F6B0FA5C
:1002D00080F700FA07F6C7F120071EBF20FA07FCD7
:1002E00046EA0C062037B6FBF4FCA7EB0507103FE7
:1002F00007F01F0BCBF120060CFA0BFB2CFA06F6CD
:1003000044BFB3460026202FA4BF5E464FF0000B2B
:100310005BEA060C08BF4FF0010B19EB0B09ABFBB6
:10032000027C48EB0608C01B06FB02CC0BFB03CC8F
:1003300071EB0C01C1E70B46024641464846BDE859
:10034000F08B13B54FF000004FF00001AFF30080C9
:10035000BDE81C4070474FF0000200B513469446BC
:100360009646203922BFA0E80C50A0E80C50B1F10D
:100370002001BFF4F7AF090728BFA0E80C5048BF21
:100380000CC05DF804EB890028BF40F8042B08BFBF
:10039000704748BF20F8022B11F0804F18BF00F8BB
:1003A000012B7047704770477047754600F02CF876
:1003B000AE4605006946534620F00700854618B052
:1003C00020B5FFF73FFFBDE820404FF000064FF09B
:1003D00000074FF000084FF0000B21F00701AC467A
:1003E000ACE8C009ACE8C009ACE8C009ACE8C00999
:1003F0008D46704710B50446AFF300802046BDE837
:100400001040FFF70ABF000000487047500000206E
:1004100001491820ABBEFEE7260002007047FEE748
:10042000704700002DE9F84F0446A1480D4684426C
:100430001BD0A048844218D09F48844215D09F48C2
:10044000844212D09E4884420FD09E4884420CD0F1
:100450009D48844209D09D48844206D09C488442ED
:1004600003D0B3219BA001F07EFD28680104090C94
:1004700001D0000C03D0B42196A001F074FD68688F
:10048000F8B101281DD011281BD0022819D012283C
:1004900017D09F49884214D09E49884211D09E4966
:1004A00088420ED09D4988420BD09D49884208D091
:1004B0009C49884205D0032803D0B52185A001F0CE
:1004C00052FDA86838B1012805D0022803D0B62112
:1004D00080A001F048FD00264FF0010A4FF0030B09
:1004E0000AFA06F02F688046074047457ED16868C3
:1004F000012805D0022803D0112801D012281DD1CF
:10050000E86848B1012807D0022805D0032803D0A5
:10051000C82170A001F027FDA06872000BFA02F15B
:100520008843E96891400143A1606068297920EA25
:100530000800C1F30011B14001436160E06872003E
:10054000A96890460BFA02F920EA090001FA08F1BD
:100550000143E1606868022801D012282ED1286981
:10056000F8B109281DD001281BD0022819D0032872
:1005700017D0042815D0052813D0062811D0072835
:100580000FD008280DD00A280BD00B2809D00C2832
:1005900007D00D2805D00F2803D0E0214DA001F091
:1005A000E2FCF00804EB8003196A7007C20E0F200A
:1005B0009040814328699040084318622068297957
:1005C00020EA090001F0030101FA08F1014321606A
:1005D0006868C00065D55448016841F480410160F5
:1005E000006826F0030100F4804000E059E000902C
:1005F0004E480A18D2F80808B1070B0F0F2199408E
:1006000088432B498C4201D1002123E029498C42A7
:1006100001D101211EE028498C4201D1022119E0BB
:1006200026498C4201D1032114E025498C4201D195
:1006300004210FE023498C4201D105210AE022491F
:100640008C4201D1062105E020498C4201D10721CD
:1006500000E0082199400143C2F8081834490868AD
:100660006A68B843D20300D5384308603049091D91
:1006700008686A68B843920300D5384308602C497B
:10068000083108686A68B843D20200D53843086068
:1006900027490C3108686A68B843920200D538438C
:1006A0000860761C102EFFF41BAFBDE8F88F000029
:1006B000000002400004024000080240000C02401A
:1006C000001002400014024000180240001C0240CA
:1006D000002002402E2E2F447269766572732F53CC
:1006E000544D3332463478785F48414C5F447269E8
:1006F0007665722F5372632F73746D33326634785C
:10070000785F68616C5F6770696F2E63000000003E
:100710000000111000002110000031100000121024
:100720000000221000003210443802400030014026
:10073000003C014070B515460C00064604D140F25D
:100740009F1108A001F00FFC45B1012D04D04FF41A
:10075000D07104A001F007FCB46170BD2004B06149
:1007600070BD00002E2E2F447269766572732F5370
:10077000544D3332463478785F48414C5F44726957
:100780007665722F5372632F73746D3332663478CB
:10079000785F68616C5F6770696F2E6300000000AE
:1007A0000148806870470000000000200B4810B529
:1007B000016841F400710160016841F480610160E9
:1007C000016841F480710160032000F0C5F8002049
:1007D00000F006F800F024F8002010BD003C0240B4
:1007E00070B50D4D04464FF47A712878B1FBF0F0E6
:1007F0000A490968B1FBF0F000F090FC48B9102CF0
:1008000007D200222146501E00F056F800206C60EE
:1008100070BD012070BD0000000000200C00002011
:100820000B4882B0016841F480410160006800F427
:10083000804000900648001F016841F0805101602F
:10084000006800F080500090052002B000F084B8ED
:100850004438024010B5040003D5BE2107A001F0C2
:1008600082FB002C09DB04F01F0101208840610994
:10087000890001F1E021C1F8000110BD2E2E2F44A6
:100880007269766572732F53544D333246347878DB
:100890005F48414C5F4472697665722F5372632FD3
:1008A00073746D3332663478785F68616C5F636F40
:1008B000727465782E63000070B515460C460646C6
:1008C000102A03D3AA2114A001F04DFB102C03D34E
:1008D000AB2111A001F047FB1E480068C0F30223C2
:1008E000C3F107022046042A00D90422191D072952
:1008F00001D2002300E0DB1E012404FA02F1491EAC
:10090000014099409C40641E2C4021433046BDE884
:10091000704001F018BB00002E2E2F4472697665DE
:1009200072732F53544D3332463478785F48414CBC
:100930005F4472697665722F5372632F73746D33DF
:1009400032663478785F68616C5F636F7274657863
:100950002E6300000CED00E010B5044607280BD014
:10096000062C09D0052C07D0042C05D0032C03D06D
:10097000922108A001F0F7FA154904F0070208686F
:100980004FF6FF03184040EA0220124A1043086065
:1009900010BD00002E2E2F447269766572732F539E
:1009A000544D3332463478785F48414C5F44726925
:1009B0007665722F5372632F73746D333266347899
:1009C000785F68616C5F636F727465782E63000096
:1009D0000CED00E00000FA052DE9F0470E4604009A
:1009E0007DD02068401E0E2804D940F251217AA003
:1009F00001F0B9FA96B1012E10D0022E0ED0032EBE
:100A00000CD0042E0AD0052E08D0062E06D0072EB4
:100A100004D040F2522170A001F0A5FADFF8F08175
:100A2000D8F80000F7B200F00F00B04207D288F803
:100A30000070D8F8000000F00F00B0424FD12068DD
:100A4000744D810729D5400703D5286840F4E0504C
:100A500028602078000703D5286840F460402860AB
:100A6000A068A0B1802812D0902810D0A0280ED065
:100A7000B0280CD0C0280AD0D02808D0E02806D052
:100A8000F02804D040F2752153A001F06CFA2868D8
:100A9000A16820F0F000084328602078C00743D008
:100AA000DFF870916068A9F1080988B1012822D0A7
:100AB000022824D0032822D04FF41F7146A001F051
:100AC00052FA6068012816D0022818D0032816D0E0
:100AD000D9F800008007002833DA286800E030E009
:100AE000616820F0030008432860FFF759FE814643
:100AF00041F2883A11E0D9F800008003EBE7D9F819
:100B000000008001E7E700BFFFF74AFEA0EB090104
:100B1000514502D90320BDE8F0872868616800F0DC
:100B20000C00B0EB810FEFD1D8F80010404601F077
:100B30000F01B14207D90770006800F00F00B04202
:100B400001D00120E7E720784FF4805640074FF4AA
:100B5000A0574FF4C0584FF4E05914D5E06860B185
:100B6000B0420AD0B84208D0404506D0484504D02B
:100B700040F2BA2118A001F0F6F92868E16820F4E3
:100B8000E050084328602078000715D5206960B13F
:100B9000B0420AD0B84208D0404506D0484504D0FB
:100BA00040F2C1210CA001F0DEF92868216920F48F
:100BB000604040EAC100286000F034F82968164A15
:100BC000C1F30311515CC84014490860144800681F
:100BD000FFF706FE00209EE72E2E2F4472697665F1
:100BE00072732F53544D3332463478785F48414CFA
:100BF0005F4472697665722F5372632F73746D331D
:100C000032663478785F68616C5F7263632E63006C
:100C1000003C024008380240921F00080C000020EF
:100C200004000020154810B5006810F00C021448AC
:100C300013D04110042A0FD0082A0ED10F4C241FC4
:100C40002268236802F03F025B0207D52068C0F3E8
:100C50008810A0FB010106E0084610BD2168C1F321
:100C60008811A1FB00010023FFF7FEFA2168C1F300
:100C70000141491C4900B0FBF1F010BD08380240A9
:100C80000024F4002DE9F84F04007DD020680F28DF
:100C900003D9E821F7A001F066F92078DFF80C9479
:100CA000C007A9F1040555D060684FF480364FF4B1
:100CB000A02738B1B04205D0B84203D0ED21EDA055
:100CC00001F051F9F948001D0168C1F381010129C2
:100CD00008D00068C0F3810002280AD1D9F80000CA
:100CE000400206D52868800334D560680028CCD03F
:100CF00030E06068B04203D1286840F480300CE0F6
:100D0000B842286803D140F480202860F4E720F43A
:100D100080302860286820F480202860606860B1F6
:100D2000FFF73EFD064604E0FFF73AFD801B64280E
:100D30007ED828688003F7D50CE0FFF731FD064622
:100D400005E000BFFFF72CFD801B6428F0D8286861
:100D50008003F7D42078DFF8588380074FF0000A2B
:100D600056D5E06830B1012804D040F21F11C1A06F
:100D700001F0F9F820691F2804D94FF49071BDA043
:100D800001F0F1F8C94800E092E0001D016811F09F
:100D90000C0F08D00068C0F38100022810D1D9F8E8
:100DA000000040020CD42868800702D5E0680128C2
:100DB0007ED12868216920F0F80040EAC10017E0E0
:100DC000E068B8B10120C8F80000FFF7E9FC06466A
:100DD00005E000BFFFF7E4FC801B0228A8D82868C4
:100DE0008007F7D5286820F0F801206941EAC000A3
:100DF00028600DE0C8F800A0FFF7D2FC064604E02A
:100E0000FFF7CEFC801B022892D828688007F7D411
:100E1000207800072ED5A54EA64F60697036D0B158
:100E2000012808D04FF4B07192A001F09CF800E0C6
:100E30004BE1606978B101203860FFF7B1FC0746EB
:100E400005E000BFFFF7ACFCC01B0228C6D8306825
:100E50008007F7D50EE0C7F800A0FFF7A1FC074612
:100E600005E000BFFFF79CFCC01B0228B6D8306825
:100E70008007F7D42078400776D5A068002740B1D6
:100E8000012806D0052804D04FF4C67179A001F0DE
:100E90006AF8DFF818B20BF13C0BDBF80000C00079
:100EA0000DD4DBF8001041F08051CBF8001000E0C9
:100EB00030E1DBF80000012700F0805000907E4E0A
:100EC0003068C00511D4306840F480703060FFF79E
:100ED00067FC009006E000BFFFF762FC0099401A33
:100EE000022891D83068C005F6D5704EA0686C36DF
:100EF00001280FD00528306810D020F001003060A4
:100F0000306820F004003060A068B8B1FFF748FCFA
:100F100000900FE0306840F00100F4E740F004007A
:100F20003060F7E7FFF73CFC0099411A41F2883046
:100F300081428BD830688007F4D50EE0FFF730FC93
:100F4000009007E0FFF72CFC0099411A41F288302D
:100F500081428BD830688007F4D42FB1DBF80010C1
:100F600021F08051CBF80010A069002876D001282C
:100F700009D0022807D040F2CF113EA000F0F3FFC5
:100F8000A0690028F2D04948001D0068C0F3810024
:100F90000228A0696DD0022805D0C8F860A0FFF72C
:100FA000FFFB044694E0E06938B1B0F5800F04D04F
:100FB0004FF4EC712FA000F0D6FF206A3F2804D92F
:100FC00040F2D9112BA000F0CEFF606A3238B0F5A4
:100FD000BF7F04D94FF4ED7126A000F0C4FFA06AD2
:100FE00002280AD0042808D0062806D0082804D0F1
:100FF00040F2DB111FA000F0B6FFE06A801E0D2852
:1010000004D94FF4EE711BA000F0ADFF4746C8F8BD
:1010100060A0FFF7C5FB064605E000BFFFF7C0FB79
:10102000801B022851D828688001F7D4D4E9070131
:101030000843A16A214A490802EB0141626A41EA78
:101040008211084394F82C1040EA0161C9F800109D
:1010500001203866FFF7A4FB044606E05CE000BF11
:10106000FFF79EFB001B02282FD828688001F7D5C8
:1010700052E031E02E2E2F447269766572732F5341
:10108000544D3332463478785F48414C5F4472693E
:101090007665722F5372632F73746D3332663478B2
:1010A000785F68616C5F7263632E6300043802408E
:1010B00000004742800E4742007000400000FFFFE2
:1010C000FFF76EFB001B022802D90320BDE8F88F52
:1010D00028688001F4D41FE00128F7D0D9F8000077
:1010E000E26900F48001914214D1226A00F03F01CC
:1010F00091420FD147F6C071626A0140914209D115
:10110000A26A00F44031914204D1E16A00F07060BB
:10111000884201D00120D9E70020D7E710B5401E52
:10112000B0F1807F01D3012010BD4FF0E024606159
:101130000F21601700F007FF0020A0610720206149
:10114000002010BD10B5040058D0364822688242F5
:101150002BD0B2F1804F28D03348824225D033487B
:10116000824222D0324882421FD0324882421CD072
:101170003148824219D03148824216D030488242EA
:1011800013D03048824210D02F4882420DD02F48D1
:1011900082420AD02E48824207D02E48824204D092
:1011A0004FF489712CA000F0DEFEA06860B1102819
:1011B0000AD0202808D0402806D0602804D040F269
:1011C000131125A000F0CFFE206950B1B0F5807F4B
:1011D00007D0B0F5007F04D04FF48A711EA000F054
:1011E000C2FEA06930B1802804D040F215111AA0C7
:1011F00000F0B9FE94F83D0010B107E0012010BDE9
:10120000002084F83C00204600F042F8022084F8D8
:101210003D00211D206800F007FC012084F83D00FE
:10122000002010BD00000140000400400008004004
:10123000000C004000100040001400400004014079
:1012400000400140004401400048014000180040B7
:10125000001C0040002000402E2E2F44726976654D
:1012600072732F53544D3332463478785F48414C73
:101270005F4472697665722F5372632F73746D3396
:1012800032663478785F68616C5F74696D2E6300D4
:1012900008B500680B49884212D10B48016841F437
:1012A000807101600068022200F480700090114695
:1012B0002D20FFF701FBBDE808402D20FFF7CABA3B
:1012C00008BD0000002000404038024010B586B044
:1012D000044614216846FFF73EF80E49206888420C
:1012E00016D10D480021026842F020020260006819
:1012F00000F0200005904FF4007000900220CDE92E
:1013000001010920CDE9031069460448FFF78AF876
:1013100006B010BD002000403038024000140240EA
:101320002DE9F05F5FEA020A0D46044610D0BAF1DB
:10133000040F0DD0BAF1080F0AD0BAF10C0F07D084
:10134000BAF13C0F04D040F6EC517BA000F00BFE4C
:101350002868602806D0702804D040F6ED5176A0A9
:1013600000F001FEA86830B1022804D040F6EE512A
:1013700071A000F0F8FD286930B1042804D040F6CF
:10138000EF516DA000F0EFFD94F83C0001281ED055
:101390004FF0010B84F83CB0022084F83D00744902
:1013A000744B754E754FDFF8D8C1DFF8D891764A87
:1013B0004FF08048BAF1000F0CD0BAF1040F3ED0C4
:1013C000BAF1080F66D0BAF10C0F62D187E00220A3
:1013D000BDE8F09F206888421ED040451CD098424E
:1013E0001AD0B04218D0B84216D0604514D0484543
:1013F00012D0664988420FD0654988420CD090428D
:101400000AD06449884207D06349884204D040F634
:10141000FB5149A000F0A7FD2946206800F0E2FB3F
:101420002068816941F0080181612068816921F0AB
:1014300004018161206881692A69114328E02068DC
:10144000884212D0404510D098420ED0B0420CD005
:10145000B8420AD0604508D0484506D0904204D032
:1014600040F60C6134A000F07EFD2946206800F0B3
:101470002BFC2068816941F40061816120688169E9
:1014800021F480618161206881692A6941EA022131
:1014900081614AE0206888420ED040450CD09842D5
:1014A0000AD0B04208D0B84206D0604504D040F619
:1014B0001D6121A000F057FD2946206800F07AFC4C
:1014C0002068C16941F00801C1612068C16921F04B
:1014D0000401C1612068C1692A69114324E02068C0
:1014E00088420ED040450CD098420AD0B04208D075
:1014F000B84206D0604504D040F62E610EA000F040
:1015000032FD2946206800F0CBFC2068C16941F417
:101510000061C1612068C16921F48061C1612068F6
:10152000C1692A6941EA0221C16184F83DB0002005
:1015300084F83C004CE700002E2E2F44726976653B
:1015400072732F53544D3332463478785F48414C90
:101550005F4472697665722F5372632F73746D33B3
:1015600032663478785F68616C5F74696D2E6300F1
:10157000000001400004004000080040000C004052
:1015800000040140004001400018004000440140B8
:1015900000480140001C00400020004010B504003D
:1015A00058D03648226882422BD0B2F1804F28D0E2
:1015B0003348824225D03348824222D03248824288
:1015C0001FD0324882421CD03148824219D0314863
:1015D000824216D03048824213D03048824210D026
:1015E0002F4882420DD02F4882420AD02E48824294
:1015F00007D02E48824204D040F29B412CA000F03C
:10160000B2FCA06860B110280AD0202808D0402879
:1016100006D0602804D040F29C4125A000F0A3FC35
:10162000206950B1B0F5807F07D0B0F5007F04D0BD
:1016300040F29D411EA000F096FCA06930B18028C8
:1016400004D040F29E411AA000F08DFC94F83D00B9
:1016500010B107E0012010BD002084F83C002046B6
:1016600000F042F8022084F83D00211D206800F0BF
:10167000DBF9012084F83D00002010BD000001408E
:101680000004004000080040000C00400010004032
:1016900000140040000401400040014000440140AB
:1016A0000048014000180040001C0040002000409D
:1016B0002E2E2F447269766572732F53544D333238
:1016C000463478785F48414C5F4472697665722F82
:1016D0005372632F73746D3332663478785F686148
:1016E0006C5F74696D2E6300704700002DE9F04156
:1016F000054600683F4E404F0C46B04207D1002CD3
:1017000053D0042C51D0082C4FD00C2C4DD0B0F11C
:10171000804F65D03949884207D1002C45D0042C30
:1017200043D0082C41D00C2C3FD03549884206D1FB
:10173000BCB3042C39D0082C37D00C2C35D031490F
:10174000884206D16CB3042C2FD0082C2DD00C2C41
:101750002BD0B84206D124B3042C26D0082C24D098
:101760000C2C22D02849884202D1D4B1042C1CD0A0
:101770002649884200D1A4B12549884200D184B1CC
:101780002449884202D164B1042C0ED022498842F7
:1017900000D134B12149884200D114B140F2135133
:1017A00000E002E01EA000F0DEFB012221462868D6
:1017B00000F09EF92868B04201D0B84203D1416CD4
:1017C00041F4004141642868816801F0070106295D
:1017D00003D0016841F0010101600020BDE8F08103
:1017E000002CE2D0042CE0D0082CDED00C2CDCD075
:1017F000D4E7000000000140000401400004004064
:1018000000080040000C004000400140004401403E
:101810000048014000180040001C0040002000402B
:101820002E2E2F447269766572732F53544D3332C6
:10183000463478785F48414C5F4472697665722F10
:101840005372632F73746D3332663478785F6861D6
:101850006C5F74696D2E6300FEE7000070B586B0A2
:1018600014216846FEF777FD28480025016841F0FD
:1018700004010160016801F004010591016841F073
:1018800020010160016801F020010591016841F02B
:1018900080010160016801F080010591016841F05B
:1018A00001010160016801F001010591016841F049
:1018B000080101600068164E00F008000590002243
:1018C0004FF4A0613046FEF735FFB01501248DE8D6
:1018D0003100694630460395FEF7A4FDA002CDE92C
:1018E00000040294694630460394FEF79BFD2020D5
:1018F00000900220CDE90105032003900C20049004
:1019000069460448FEF78EFD06B070BD30380240CF
:1019100000140240000C024000B587B01C2168464C
:10192000FEF719FD124811494FF4FA720160542173
:1019300041600021C0E90212016180218161FFF74D
:1019400001FC0B48FFF72AFE60200090FA2001906E
:101950000220029004200490002269460448FFF708
:10196000DFFC0348FFF7B2FC07B000BD00200040D9
:1019700010000020FEE77047704770477047000076
:1019800030B593B030216846FEF7E5FC14210CA871
:10199000FEF7E1FC1A480025016841F08051016022
:1019A000006800F0805011901648016841F48041B1
:1019B00001600068022400F4804011900120009032
:1019C0004FF4A02001906005CDE906400820089062
:1019D0004FF4A870CDE9090404200B906846FFF786
:1019E00051F90CA90F2081E831004FF4A0500F905D
:1019F000E002109005210CA8FEF7EEFF13B030BDF9
:101A000040380240007000400548016841F4700110
:101A1000016003494FF000608039086070470000A2
:101A200088ED00E070470000F0B50268254C264DB7
:101A3000264E274F274B4FF0804CA04209D06045DF
:101A400007D0A84205D0B04203D0B84201D0984296
:101A500004D122F0700E4A6842EA0E02A0421BD066
:101A6000604519D0A84217D0B04215D0B84213D063
:101A7000984211D0184DA8420ED0184DA8420BD054
:101A8000174DA84208D0174DA84205D0164DA842C0
:101A900002D0164DA84203D122F44075CA682A43E9
:101AA0004D6922F080022A4302608A68C2620A6895
:101AB0008262A04201D0984201D1096901630121EB
:101AC0004161F0BD000001400004004000080040FA
:101AD000000C00400004014000400140004401406F
:101AE0000048014000180040001C00400020004059
:101AF00070B50446224816460D46844225D0B4F1FE
:101B0000804F22D01F4884421FD01F4884421CD0DF
:101B10001E48844219D01E48844216D01D48844273
:101B200013D01D48844210D01C4884420DD01C485C
:101B300084420AD01B48844207D01B48844204D008
:101B400041F6CC1119A000F00EFA65B1042D0AD0AF
:101B5000082D08D00C2D06D03C2D04D041F6CD1117
:101B600012A000F000FA05F01F010120226A88404F
:101B700082432262206A8E403043206270BD0000A2
:101B8000000001400004004000080040000C00403C
:101B90000004014000400140004401400048014071
:101BA00000180040001C0040002000402E2E2F4452
:101BB0007269766572732F53544D33324634787898
:101BC0005F48414C5F4472697665722F5372632F90
:101BD00073746D3332663478785F68616C5F7469F2
:101BE0006D2E63002DE9F0470446006A0D4620F093
:101BF00001002062206A6768A169AE6821F0730263
:101C0000296820F00200DFF880900643DFF87CA00E
:101C100041EA02084C4501D054450ED1E86830B184
:101C2000082804D041F2027119A000F09CF9E8687C
:101C300026F00801084320F004064C4501D0544525
:101C400019D1A869B0F5007F05D020B141F20F711C
:101C50000FA000F088F96869B0F5807F05D020B149
:101C600041F210710AA000F07EF927F44071686912
:101C7000AF69084307436760C4F818806868606309
:101C80002662BDE8F087000000000140000401402A
:101C90002E2E2F447269766572732F53544D333252
:101CA000463478785F48414C5F4472697665722F9C
:101CB0005372632F73746D3332663478785F686162
:101CC0006C5F74696D2E63002DE9F0470446006A6D
:101CD0000D4620F010002062206A6768A1692A681A
:101CE00021F4E64141EA0228A968DFF8889020F053
:101CF0002000DFF884A040EA01164C4501D054458D
:101D00000FD1E86830B1082804D041F24D711BA012
:101D100000F029F9E96826F0800040EA011020F07F
:101D200040064C4501D054451BD1A869B0F5007F51
:101D300005D020B141F25B7110A000F014F9686980
:101D4000B0F5807F05D020B141F25C710BA000F0AE
:101D50000AF9696927F4406040EA8100A96940EA0C
:101D600081076760C4F818806868A0632662BDE8D0
:101D7000F087000000000140000401402E2E2F4497
:101D80007269766572732F53544D333246347878C6
:101D90005F48414C5F4472697665722F5372632FBE
:101DA00073746D3332663478785F68616C5F746920
:101DB0006D2E63002DE9F0470446006A0D4620F4BD
:101DC00080702062206A6768E169DFF8949021F0F2
:101DD0007302296820F4007041EA0208A968DFF85C
:101DE00084A040EA01264C4501D054450FD1E86853
:101DF00030B1082804D041F298711BA000F0B3F86C
:101E0000E96826F4006040EA012020F480664C4531
:101E100001D054451BD1A869B0F5007F05D020B191
:101E200041F2A57110A000F09EF86869B0F5807FBE
:101E300005D020B141F2A6710BA000F094F86969B9
:101E400027F4405040EA0110A96940EA0117676091
:101E5000C4F81C806868E0632662BDE8F087000073
:101E600000000140000401402E2E2F447269766567
:101E700072732F53544D3332463478785F48414C57
:101E80005F4472697665722F5372632F73746D337A
:101E900032663478785F68616C5F74696D2E6300B8
:101EA0002DE9F0410446006A0D4620F4805020627E
:101EB000206A6668E1692A6821F4E64141EA02285D
:101EC000A96820F4005040EA01370E48844202D04D
:101ED0000D4884420ED16869B0F5807F05D020B1ED
:101EE00041F2E47109A000F03EF8696926F48040EF
:101EF00040EA81166660C4F81C8068682064276226
:101F0000BDE8F08100000140000401402E2E2F4466
:101F10007269766572732F53544D33324634787834
:101F20005F48414C5F4472697665722F5372632F2C
:101F300073746D3332663478785F68616C5F74698E
:101F40006D2E6300FEE70907090E002804DB00F18F
:101F5000E02080F80014704700F00F0000F1E0204E
:101F600080F8141D70477047FEF720FCFFF708FD4E
:101F7000FFF774FCFFF7D0FC00210248FFF7B6FB27
:101F8000FEE70000100000204FF04070E1EE100A64
:101F90007047000000000000000001020304060773
:101FA00008090000C41F0008000000201000000005
:101FB000C4010008D41F000810000020A006000083
:101FC000E001000801000000100000000000000017
:041FD0000024F400F5
:040000050800018965
:00000001FF
